{
  "contractName": "DataCellarToken",
  "abi": [
    {
      "inputs": [
        {
          "internalType": "address",
          "name": "contractOwner",
          "type": "address"
        }
      ],
      "stateMutability": "nonpayable",
      "type": "constructor"
    },
    {
      "anonymous": false,
      "inputs": [
        {
          "indexed": true,
          "internalType": "address",
          "name": "owner",
          "type": "address"
        },
        {
          "indexed": true,
          "internalType": "address",
          "name": "spender",
          "type": "address"
        },
        {
          "indexed": false,
          "internalType": "uint256",
          "name": "value",
          "type": "uint256"
        }
      ],
      "name": "Approval",
      "type": "event"
    },
    {
      "anonymous": false,
      "inputs": [
        {
          "indexed": true,
          "internalType": "address",
          "name": "previousOwner",
          "type": "address"
        },
        {
          "indexed": true,
          "internalType": "address",
          "name": "newOwner",
          "type": "address"
        }
      ],
      "name": "OwnershipTransferred",
      "type": "event"
    },
    {
      "anonymous": false,
      "inputs": [
        {
          "indexed": true,
          "internalType": "address",
          "name": "from",
          "type": "address"
        },
        {
          "indexed": true,
          "internalType": "address",
          "name": "to",
          "type": "address"
        },
        {
          "indexed": false,
          "internalType": "uint256",
          "name": "value",
          "type": "uint256"
        }
      ],
      "name": "Transfer",
      "type": "event"
    },
    {
      "stateMutability": "payable",
      "type": "fallback",
      "payable": true
    },
    {
      "inputs": [
        {
          "internalType": "address",
          "name": "owner",
          "type": "address"
        },
        {
          "internalType": "address",
          "name": "spender",
          "type": "address"
        }
      ],
      "name": "allowance",
      "outputs": [
        {
          "internalType": "uint256",
          "name": "",
          "type": "uint256"
        }
      ],
      "stateMutability": "view",
      "type": "function",
      "constant": true
    },
    {
      "inputs": [
        {
          "internalType": "address",
          "name": "spender",
          "type": "address"
        },
        {
          "internalType": "uint256",
          "name": "amount",
          "type": "uint256"
        }
      ],
      "name": "approve",
      "outputs": [
        {
          "internalType": "bool",
          "name": "",
          "type": "bool"
        }
      ],
      "stateMutability": "nonpayable",
      "type": "function"
    },
    {
      "inputs": [
        {
          "internalType": "address",
          "name": "account",
          "type": "address"
        }
      ],
      "name": "balanceOf",
      "outputs": [
        {
          "internalType": "uint256",
          "name": "",
          "type": "uint256"
        }
      ],
      "stateMutability": "view",
      "type": "function",
      "constant": true
    },
    {
      "inputs": [],
      "name": "cap",
      "outputs": [
        {
          "internalType": "uint256",
          "name": "",
          "type": "uint256"
        }
      ],
      "stateMutability": "view",
      "type": "function",
      "constant": true
    },
    {
      "inputs": [],
      "name": "conversionRate",
      "outputs": [
        {
          "internalType": "uint256",
          "name": "",
          "type": "uint256"
        }
      ],
      "stateMutability": "view",
      "type": "function",
      "constant": true
    },
    {
      "inputs": [],
      "name": "decimals",
      "outputs": [
        {
          "internalType": "uint8",
          "name": "",
          "type": "uint8"
        }
      ],
      "stateMutability": "view",
      "type": "function",
      "constant": true
    },
    {
      "inputs": [
        {
          "internalType": "address",
          "name": "spender",
          "type": "address"
        },
        {
          "internalType": "uint256",
          "name": "subtractedValue",
          "type": "uint256"
        }
      ],
      "name": "decreaseAllowance",
      "outputs": [
        {
          "internalType": "bool",
          "name": "",
          "type": "bool"
        }
      ],
      "stateMutability": "nonpayable",
      "type": "function"
    },
    {
      "inputs": [
        {
          "internalType": "address",
          "name": "spender",
          "type": "address"
        },
        {
          "internalType": "uint256",
          "name": "addedValue",
          "type": "uint256"
        }
      ],
      "name": "increaseAllowance",
      "outputs": [
        {
          "internalType": "bool",
          "name": "",
          "type": "bool"
        }
      ],
      "stateMutability": "nonpayable",
      "type": "function"
    },
    {
      "inputs": [],
      "name": "name",
      "outputs": [
        {
          "internalType": "string",
          "name": "",
          "type": "string"
        }
      ],
      "stateMutability": "view",
      "type": "function",
      "constant": true
    },
    {
      "inputs": [],
      "name": "owner",
      "outputs": [
        {
          "internalType": "address",
          "name": "",
          "type": "address"
        }
      ],
      "stateMutability": "view",
      "type": "function",
      "constant": true
    },
    {
      "inputs": [],
      "name": "renounceOwnership",
      "outputs": [],
      "stateMutability": "nonpayable",
      "type": "function"
    },
    {
      "inputs": [],
      "name": "symbol",
      "outputs": [
        {
          "internalType": "string",
          "name": "",
          "type": "string"
        }
      ],
      "stateMutability": "view",
      "type": "function",
      "constant": true
    },
    {
      "inputs": [],
      "name": "totalSupply",
      "outputs": [
        {
          "internalType": "uint256",
          "name": "",
          "type": "uint256"
        }
      ],
      "stateMutability": "view",
      "type": "function",
      "constant": true
    },
    {
      "inputs": [
        {
          "internalType": "address",
          "name": "to",
          "type": "address"
        },
        {
          "internalType": "uint256",
          "name": "amount",
          "type": "uint256"
        }
      ],
      "name": "transfer",
      "outputs": [
        {
          "internalType": "bool",
          "name": "",
          "type": "bool"
        }
      ],
      "stateMutability": "nonpayable",
      "type": "function"
    },
    {
      "inputs": [
        {
          "internalType": "address",
          "name": "from",
          "type": "address"
        },
        {
          "internalType": "address",
          "name": "to",
          "type": "address"
        },
        {
          "internalType": "uint256",
          "name": "amount",
          "type": "uint256"
        }
      ],
      "name": "transferFrom",
      "outputs": [
        {
          "internalType": "bool",
          "name": "",
          "type": "bool"
        }
      ],
      "stateMutability": "nonpayable",
      "type": "function"
    },
    {
      "inputs": [
        {
          "internalType": "address",
          "name": "newOwner",
          "type": "address"
        }
      ],
      "name": "transferOwnership",
      "outputs": [],
      "stateMutability": "nonpayable",
      "type": "function"
    },
    {
      "stateMutability": "payable",
      "type": "receive",
      "payable": true
    },
    {
      "inputs": [
        {
          "internalType": "address",
          "name": "to",
          "type": "address"
        },
        {
          "internalType": "uint256",
          "name": "amount",
          "type": "uint256"
        }
      ],
      "name": "mint",
      "outputs": [],
      "stateMutability": "nonpayable",
      "type": "function"
    },
    {
      "inputs": [],
      "name": "convertEtherToTokens",
      "outputs": [],
      "stateMutability": "payable",
      "type": "function",
      "payable": true
    }
  ],
  "bytecode": "0x60a060405262000022620000166012600a62000449565b63540ae480906200016d565b60065560408051600081526020810191829052516200004491600891620002b5565b503480156200005257600080fd5b50604051620015ac380380620015ac833981016040819052620000759162000470565b6006546040518060400160405280601081526020016f2230ba30a1b2b63630b9102a37b5b2b760811b815250604051806040016040528060088152602001671110551050d1531360c21b815250620000dc620000d66200018460201b60201c565b62000188565b6004620000ea838262000531565b506005620000f9828262000531565b50505060008111620001525760405162461bcd60e51b815260206004820152601560248201527f45524332304361707065643a206361702069732030000000000000000000000060448201526064015b60405180910390fd5b6080526107d06007556200016681620001d8565b5062000617565b60006200017b8284620005fd565b90505b92915050565b3390565b600080546001600160a01b038381166001600160a01b0319831681178455604051919092169283917f8be0079c531659141344cd1fd0a4f28419497f9722a3daafe3b4186f6b6457e09190a35050565b620001e262000257565b6001600160a01b038116620002495760405162461bcd60e51b815260206004820152602660248201527f4f776e61626c653a206e6577206f776e657220697320746865207a65726f206160448201526564647265737360d01b606482015260840162000149565b620002548162000188565b50565b6000546001600160a01b03163314620002b35760405162461bcd60e51b815260206004820181905260248201527f4f776e61626c653a2063616c6c6572206973206e6f7420746865206f776e6572604482015260640162000149565b565b8280548282559060005260206000209081019282156200030d579160200282015b828111156200030d57825182546001600160a01b0319166001600160a01b03909116178255602090920191600190910190620002d6565b506200031b9291506200031f565b5090565b5b808211156200031b576000815560010162000320565b634e487b7160e01b600052601160045260246000fd5b600181815b808511156200038d57816000190482111562000371576200037162000336565b808516156200037f57918102915b93841c939080029062000351565b509250929050565b600082620003a6575060016200017e565b81620003b5575060006200017e565b8160018114620003ce5760028114620003d957620003f9565b60019150506200017e565b60ff841115620003ed57620003ed62000336565b50506001821b6200017e565b5060208310610133831016604e8410600b84101617156200041e575081810a6200017e565b6200042a83836200034c565b806000190482111562000441576200044162000336565b029392505050565b60006200017b60ff84168362000395565b634e487b7160e01b600052604160045260246000fd5b6000602082840312156200048357600080fd5b81516001600160a01b03811681146200049b57600080fd5b9392505050565b600181811c90821680620004b757607f821691505b602082108103620004d857634e487b7160e01b600052602260045260246000fd5b50919050565b601f8211156200052c57600081815260208120601f850160051c81016020861015620005075750805b601f850160051c820191505b81811015620005285782815560010162000513565b5050505b505050565b81516001600160401b038111156200054d576200054d6200045a565b62000565816200055e8454620004a2565b84620004de565b602080601f8311600181146200059d5760008415620005845750858301515b600019600386901b1c1916600185901b17855562000528565b600085815260208120601f198616915b82811015620005ce57888601518255948401946001909101908401620005ad565b5085821015620005ed5787850151600019600388901b60f8161c191681555b5050505050600190811b01905550565b80820281158282048414176200017e576200017e62000336565b608051610f6b620006416000396000818161025e015281816105830152610b020152610f6b6000f3fe60806040526004361061010d5760003560e01c806370a082311161009557806395d89b411161006457806395d89b4114610355578063a457c2d71461036a578063a9059cbb1461038a578063dd62ed3e146103aa578063f2fde38b146103ca57610158565b806370a08231146102cc578063715018a6146103025780637ffdf53e146103175780638da5cb5b1461032d57610158565b8063313ce567116100dc578063313ce56714610233578063355274ea1461024f578063395093511461028257806340c10f19146102a25780635523f0b1146102c457610158565b806306fdde0314610199578063095ea7b3146101c457806318160ddd146101f457806323b872dd1461021357610158565b366101585760405162461bcd60e51b815260206004820152601660248201527524b73b30b634b21032ba3432b9103a3930b739b332b960511b60448201526064015b60405180910390fd5b60405162461bcd60e51b815260206004820152601660248201527524b73b30b634b21032ba3432b9103a3930b739b332b960511b604482015260640161014f565b3480156101a557600080fd5b506101ae6103ea565b6040516101bb9190610cb1565b60405180910390f35b3480156101d057600080fd5b506101e46101df366004610d1b565b61047c565b60405190151581526020016101bb565b34801561020057600080fd5b506003545b6040519081526020016101bb565b34801561021f57600080fd5b506101e461022e366004610d45565b610496565b34801561023f57600080fd5b50604051601281526020016101bb565b34801561025b57600080fd5b507f0000000000000000000000000000000000000000000000000000000000000000610205565b34801561028e57600080fd5b506101e461029d366004610d1b565b6104ba565b3480156102ae57600080fd5b506102c26102bd366004610d1b565b6104dc565b005b6102c26104f2565b3480156102d857600080fd5b506102056102e7366004610d81565b6001600160a01b031660009081526001602052604090205490565b34801561030e57600080fd5b506102c2610610565b34801561032357600080fd5b5061020560075481565b34801561033957600080fd5b506000546040516001600160a01b0390911681526020016101bb565b34801561036157600080fd5b506101ae610624565b34801561037657600080fd5b506101e4610385366004610d1b565b610633565b34801561039657600080fd5b506101e46103a5366004610d1b565b6106ae565b3480156103b657600080fd5b506102056103c5366004610d9c565b6106bc565b3480156103d657600080fd5b506102c26103e5366004610d81565b6106e7565b6060600480546103f990610dcf565b80601f016020809104026020016040519081016040528092919081815260200182805461042590610dcf565b80156104725780601f1061044757610100808354040283529160200191610472565b820191906000526020600020905b81548152906001019060200180831161045557829003601f168201915b5050505050905090565b60003361048a81858561075d565b60019150505b92915050565b6000336104a4858285610881565b6104af8585856108fb565b506001949350505050565b60003361048a8185856104cd83836106bc565b6104d79190610e1f565b61075d565b6104e4610aa6565b6104ee8282610b00565b5050565b6000341161055a5760405162461bcd60e51b815260206004820152602f60248201527f4461746143656c6c6172546f6b656e3a20596f752073686f756c642073656e6460448201526e080c481dd95a48185d081b19585cdd608a1b606482015260840161014f565b60006105686012600a610f16565b6007546105759034610f25565b61057f9190610f3c565b90507f00000000000000000000000000000000000000000000000000000000000000006105b5826105af60035490565b90610b8d565b11156106035760405162461bcd60e51b815260206004820152601d60248201527f4461746143656c6c6172546f6b656e3a20636170206578636565646564000000604482015260640161014f565b61060d3382610b00565b50565b610618610aa6565b6106226000610ba0565b565b6060600580546103f990610dcf565b6000338161064182866106bc565b9050838110156106a15760405162461bcd60e51b815260206004820152602560248201527f45524332303a2064656372656173656420616c6c6f77616e63652062656c6f77604482015264207a65726f60d81b606482015260840161014f565b6104af828686840361075d565b60003361048a8185856108fb565b6001600160a01b03918216600090815260026020908152604080832093909416825291909152205490565b6106ef610aa6565b6001600160a01b0381166107545760405162461bcd60e51b815260206004820152602660248201527f4f776e61626c653a206e6577206f776e657220697320746865207a65726f206160448201526564647265737360d01b606482015260840161014f565b61060d81610ba0565b6001600160a01b0383166107bf5760405162461bcd60e51b8152602060048201526024808201527f45524332303a20617070726f76652066726f6d20746865207a65726f206164646044820152637265737360e01b606482015260840161014f565b6001600160a01b0382166108205760405162461bcd60e51b815260206004820152602260248201527f45524332303a20617070726f766520746f20746865207a65726f206164647265604482015261737360f01b606482015260840161014f565b6001600160a01b0383811660008181526002602090815260408083209487168084529482529182902085905590518481527f8c5be1e5ebec7d5bd14f71427d1e84f3dd0314c0f7b2291e5b200ac8c7c3b925910160405180910390a3505050565b600061088d84846106bc565b905060001981146108f557818110156108e85760405162461bcd60e51b815260206004820152601d60248201527f45524332303a20696e73756666696369656e7420616c6c6f77616e6365000000604482015260640161014f565b6108f5848484840361075d565b50505050565b6001600160a01b03831661095f5760405162461bcd60e51b815260206004820152602560248201527f45524332303a207472616e736665722066726f6d20746865207a65726f206164604482015264647265737360d81b606482015260840161014f565b6001600160a01b0382166109c15760405162461bcd60e51b815260206004820152602360248201527f45524332303a207472616e7366657220746f20746865207a65726f206164647260448201526265737360e81b606482015260840161014f565b6001600160a01b03831660009081526001602052604090205481811015610a395760405162461bcd60e51b815260206004820152602660248201527f45524332303a207472616e7366657220616d6f756e7420657863656564732062604482015265616c616e636560d01b606482015260840161014f565b6001600160a01b0380851660008181526001602052604080822086860390559286168082529083902080548601905591517fddf252ad1be2c89b69c2b068fc378daa952ba7f163c4a11628f55a4df523b3ef90610a999086815260200190565b60405180910390a36108f5565b6000546001600160a01b031633146106225760405162461bcd60e51b815260206004820181905260248201527f4f776e61626c653a2063616c6c6572206973206e6f7420746865206f776e6572604482015260640161014f565b7f000000000000000000000000000000000000000000000000000000000000000081610b2b60035490565b610b359190610e1f565b1115610b835760405162461bcd60e51b815260206004820152601960248201527f45524332304361707065643a2063617020657863656564656400000000000000604482015260640161014f565b6104ee8282610bf0565b6000610b998284610e1f565b9392505050565b600080546001600160a01b038381166001600160a01b0319831681178455604051919092169283917f8be0079c531659141344cd1fd0a4f28419497f9722a3daafe3b4186f6b6457e09190a35050565b6001600160a01b038216610c465760405162461bcd60e51b815260206004820152601f60248201527f45524332303a206d696e7420746f20746865207a65726f206164647265737300604482015260640161014f565b8060036000828254610c589190610e1f565b90915550506001600160a01b0382166000818152600160209081526040808320805486019055518481527fddf252ad1be2c89b69c2b068fc378daa952ba7f163c4a11628f55a4df523b3ef910160405180910390a35050565b600060208083528351808285015260005b81811015610cde57858101830151858201604001528201610cc2565b506000604082860101526040601f19601f8301168501019250505092915050565b80356001600160a01b0381168114610d1657600080fd5b919050565b60008060408385031215610d2e57600080fd5b610d3783610cff565b946020939093013593505050565b600080600060608486031215610d5a57600080fd5b610d6384610cff565b9250610d7160208501610cff565b9150604084013590509250925092565b600060208284031215610d9357600080fd5b610b9982610cff565b60008060408385031215610daf57600080fd5b610db883610cff565b9150610dc660208401610cff565b90509250929050565b600181811c90821680610de357607f821691505b602082108103610e0357634e487b7160e01b600052602260045260246000fd5b50919050565b634e487b7160e01b600052601160045260246000fd5b8082018082111561049057610490610e09565b600181815b80851115610e6d578160001904821115610e5357610e53610e09565b80851615610e6057918102915b93841c9390800290610e37565b509250929050565b600082610e8457506001610490565b81610e9157506000610490565b8160018114610ea75760028114610eb157610ecd565b6001915050610490565b60ff841115610ec257610ec2610e09565b50506001821b610490565b5060208310610133831016604e8410600b8410161715610ef0575081810a610490565b610efa8383610e32565b8060001904821115610f0e57610f0e610e09565b029392505050565b6000610b9960ff841683610e75565b808202811582820484141761049057610490610e09565b600082610f5957634e487b7160e01b600052601260045260246000fd5b50049056fea164736f6c6343000813000a",
  "immutableReferences": {
    "883": [
      {
        "length": 32,
        "start": 606
      },
      {
        "length": 32,
        "start": 1411
      },
      {
        "length": 32,
        "start": 2818
      }
    ]
  },
  "source": "// SPDX-License-Identifier: MIT\r\npragma solidity >=0.4.22 <0.9.0;\r\n\r\nimport \"@openzeppelin/contracts/token/ERC20/extensions/ERC20Capped.sol\";\r\nimport \"@openzeppelin/contracts/access/Ownable.sol\";\r\nimport \"@openzeppelin/contracts/utils/math/SafeMath.sol\";\r\n\r\n/**\r\n * @title Data Cellar ERC20 Token Contract\r\n * @author Alessandro Mozzato - LINKS Foundation as Data Cellar partner\r\n * @dev Implementation of the Data Cellar Token.\r\n */\r\n\r\ncontract DataCellarToken is Ownable, ERC20Capped {\r\n    using SafeMath for uint256;\r\n\r\n    uint8 constant DECIMALS = 18;\r\n    uint256 constant CAP = 1410000000;\r\n    uint256 TOTALSUPPLY = CAP.mul(uint256(10) ** DECIMALS);\r\n    uint256 public conversionRate;\r\n\r\n    // keep track token holders\r\n    address[] private accounts = new address[](0);\r\n    mapping(address => bool) private tokenHolders;\r\n\r\n    /**\r\n     * @dev DataCellarToken constructor\r\n     * @param contractOwner refers to the owner of the contract\r\n     */\r\n    constructor(\r\n        address contractOwner\r\n    ) ERC20(\"DataCellar Token\", \"DATACELL\") ERC20Capped(TOTALSUPPLY) Ownable() {\r\n        conversionRate = 2000; // 200 DATACELL equal 1 ETH\r\n        transferOwnership(contractOwner);\r\n    }\r\n\r\n    function mint(address to, uint256 amount) external onlyOwner {\r\n        _mint(to, amount);\r\n    }\r\n\r\n    function convertEtherToTokens() public payable {\r\n        require(\r\n            msg.value > 0,\r\n            \"DataCellarToken: You should send 1 wei at least\"\r\n        );\r\n        uint256 tokensToTransfer = (msg.value * conversionRate) /\r\n            (10 ** DECIMALS); // Calcolo della quantit di token da trasferire\r\n        /*require(\r\n            balanceOf(address(this)) >= tokensToTransfer,\r\n            \"Il contratto non ha abbastanza token da trasferire\"\r\n        ); // Verifica che il contratto abbia abbastanza token per effettuare la conversione\r\n        */\r\n        require(\r\n            totalSupply().add(tokensToTransfer) <= cap(),\r\n            \"DataCellarToken: cap exceeded\"\r\n        );\r\n        _mint(msg.sender, tokensToTransfer);\r\n        //_transfer(address(this), msg.sender, tokensToTransfer); // Trasferimento dei token all'indirizzo del mittente\r\n    }\r\n\r\n    /**\r\n     * @dev fallback function\r\n     *      this is a default fallback function in which receives\r\n     *      the collected ether.\r\n     */\r\n    fallback() external payable {\r\n        revert(\"Invalid ether transfer\");\r\n    }\r\n\r\n    /**\r\n     * @dev receive function\r\n     *      this is a default receive function in which receives\r\n     *      the collected ether.\r\n     */\r\n    receive() external payable {\r\n        revert(\"Invalid ether transfer\");\r\n    }\r\n}\r\n",
  "sourcePath": "C:\\Users\\AlessandroMozzato\\OneDrive - Fondazione LINKS\\Desktop\\Blockchain\\smartcontracts\\contracts\\DataCellarToken.sol",
  "compiler": {
    "name": "solc",
    "version": "0.8.19+commit.7dd6d404.Emscripten.clang"
  },
  "schemaVersion": "3.4.13",
  "updatedAt": "2023-10-10T07:49:23.073Z",
  "networkType": "ethereum",
  "devdoc": {
    "author": "Alessandro Mozzato - LINKS Foundation as Data Cellar partner",
    "details": "Implementation of the Data Cellar Token.",
    "events": {
      "Approval(address,address,uint256)": {
        "details": "Emitted when the allowance of a `spender` for an `owner` is set by a call to {approve}. `value` is the new allowance."
      },
      "Transfer(address,address,uint256)": {
        "details": "Emitted when `value` tokens are moved from one account (`from`) to another (`to`). Note that `value` may be zero."
      }
    },
    "kind": "dev",
    "methods": {
      "allowance(address,address)": {
        "details": "See {IERC20-allowance}."
      },
      "approve(address,uint256)": {
        "details": "See {IERC20-approve}. NOTE: If `amount` is the maximum `uint256`, the allowance is not updated on `transferFrom`. This is semantically equivalent to an infinite approval. Requirements: - `spender` cannot be the zero address."
      },
      "balanceOf(address)": {
        "details": "See {IERC20-balanceOf}."
      },
      "cap()": {
        "details": "Returns the cap on the token's total supply."
      },
      "constructor": {
        "details": "DataCellarToken constructor",
        "params": {
          "contractOwner": "refers to the owner of the contract"
        }
      },
      "decimals()": {
        "details": "Returns the number of decimals used to get its user representation. For example, if `decimals` equals `2`, a balance of `505` tokens should be displayed to a user as `5.05` (`505 / 10 ** 2`). Tokens usually opt for a value of 18, imitating the relationship between Ether and Wei. This is the value {ERC20} uses, unless this function is overridden; NOTE: This information is only used for _display_ purposes: it in no way affects any of the arithmetic of the contract, including {IERC20-balanceOf} and {IERC20-transfer}."
      },
      "decreaseAllowance(address,uint256)": {
        "details": "Atomically decreases the allowance granted to `spender` by the caller. This is an alternative to {approve} that can be used as a mitigation for problems described in {IERC20-approve}. Emits an {Approval} event indicating the updated allowance. Requirements: - `spender` cannot be the zero address. - `spender` must have allowance for the caller of at least `subtractedValue`."
      },
      "increaseAllowance(address,uint256)": {
        "details": "Atomically increases the allowance granted to `spender` by the caller. This is an alternative to {approve} that can be used as a mitigation for problems described in {IERC20-approve}. Emits an {Approval} event indicating the updated allowance. Requirements: - `spender` cannot be the zero address."
      },
      "name()": {
        "details": "Returns the name of the token."
      },
      "owner()": {
        "details": "Returns the address of the current owner."
      },
      "renounceOwnership()": {
        "details": "Leaves the contract without owner. It will not be possible to call `onlyOwner` functions anymore. Can only be called by the current owner. NOTE: Renouncing ownership will leave the contract without an owner, thereby removing any functionality that is only available to the owner."
      },
      "symbol()": {
        "details": "Returns the symbol of the token, usually a shorter version of the name."
      },
      "totalSupply()": {
        "details": "See {IERC20-totalSupply}."
      },
      "transfer(address,uint256)": {
        "details": "See {IERC20-transfer}. Requirements: - `to` cannot be the zero address. - the caller must have a balance of at least `amount`."
      },
      "transferFrom(address,address,uint256)": {
        "details": "See {IERC20-transferFrom}. Emits an {Approval} event indicating the updated allowance. This is not required by the EIP. See the note at the beginning of {ERC20}. NOTE: Does not update the allowance if the current allowance is the maximum `uint256`. Requirements: - `from` and `to` cannot be the zero address. - `from` must have a balance of at least `amount`. - the caller must have allowance for ``from``'s tokens of at least `amount`."
      },
      "transferOwnership(address)": {
        "details": "Transfers ownership of the contract to a new account (`newOwner`). Can only be called by the current owner."
      }
    },
    "title": "Data Cellar ERC20 Token Contract",
    "version": 1
  },
  "userdoc": {
    "kind": "user",
    "methods": {},
    "version": 1
  }
}