{
  "contractName": "ERC20template",
  "abi": [
    {
      "inputs": [],
      "stateMutability": "nonpayable",
      "type": "constructor"
    },
    {
      "anonymous": false,
      "inputs": [
        {
          "indexed": true,
          "internalType": "address",
          "name": "owner",
          "type": "address"
        },
        {
          "indexed": true,
          "internalType": "address",
          "name": "spender",
          "type": "address"
        },
        {
          "indexed": false,
          "internalType": "uint256",
          "name": "value",
          "type": "uint256"
        }
      ],
      "name": "Approval",
      "type": "event"
    },
    {
      "anonymous": false,
      "inputs": [
        {
          "indexed": true,
          "internalType": "address",
          "name": "caller",
          "type": "address"
        },
        {
          "indexed": true,
          "internalType": "address",
          "name": "_newPaymentCollector",
          "type": "address"
        },
        {
          "indexed": false,
          "internalType": "uint256",
          "name": "timestamp",
          "type": "uint256"
        },
        {
          "indexed": false,
          "internalType": "uint256",
          "name": "blockNumber",
          "type": "uint256"
        }
      ],
      "name": "NewPaymentCollector",
      "type": "event"
    },
    {
      "anonymous": false,
      "inputs": [
        {
          "indexed": true,
          "internalType": "address",
          "name": "from",
          "type": "address"
        },
        {
          "indexed": true,
          "internalType": "address",
          "name": "to",
          "type": "address"
        },
        {
          "indexed": false,
          "internalType": "uint256",
          "name": "value",
          "type": "uint256"
        }
      ],
      "name": "Transfer",
      "type": "event"
    },
    {
      "stateMutability": "payable",
      "type": "fallback"
    },
    {
      "inputs": [],
      "name": "BASE",
      "outputs": [
        {
          "internalType": "uint256",
          "name": "",
          "type": "uint256"
        }
      ],
      "stateMutability": "view",
      "type": "function"
    },
    {
      "inputs": [
        {
          "internalType": "address",
          "name": "owner",
          "type": "address"
        },
        {
          "internalType": "address",
          "name": "spender",
          "type": "address"
        }
      ],
      "name": "allowance",
      "outputs": [
        {
          "internalType": "uint256",
          "name": "",
          "type": "uint256"
        }
      ],
      "stateMutability": "view",
      "type": "function"
    },
    {
      "inputs": [
        {
          "internalType": "address",
          "name": "spender",
          "type": "address"
        },
        {
          "internalType": "uint256",
          "name": "amount",
          "type": "uint256"
        }
      ],
      "name": "approve",
      "outputs": [
        {
          "internalType": "bool",
          "name": "",
          "type": "bool"
        }
      ],
      "stateMutability": "nonpayable",
      "type": "function"
    },
    {
      "inputs": [
        {
          "internalType": "address",
          "name": "account",
          "type": "address"
        }
      ],
      "name": "balanceOf",
      "outputs": [
        {
          "internalType": "uint256",
          "name": "",
          "type": "uint256"
        }
      ],
      "stateMutability": "view",
      "type": "function"
    },
    {
      "inputs": [
        {
          "internalType": "uint256",
          "name": "amount",
          "type": "uint256"
        }
      ],
      "name": "burn",
      "outputs": [],
      "stateMutability": "nonpayable",
      "type": "function"
    },
    {
      "inputs": [
        {
          "internalType": "address",
          "name": "account",
          "type": "address"
        },
        {
          "internalType": "uint256",
          "name": "amount",
          "type": "uint256"
        }
      ],
      "name": "burnFrom",
      "outputs": [],
      "stateMutability": "nonpayable",
      "type": "function"
    },
    {
      "inputs": [],
      "name": "decimals",
      "outputs": [
        {
          "internalType": "uint8",
          "name": "",
          "type": "uint8"
        }
      ],
      "stateMutability": "view",
      "type": "function"
    },
    {
      "inputs": [
        {
          "internalType": "address",
          "name": "spender",
          "type": "address"
        },
        {
          "internalType": "uint256",
          "name": "subtractedValue",
          "type": "uint256"
        }
      ],
      "name": "decreaseAllowance",
      "outputs": [
        {
          "internalType": "bool",
          "name": "",
          "type": "bool"
        }
      ],
      "stateMutability": "nonpayable",
      "type": "function"
    },
    {
      "inputs": [
        {
          "internalType": "address",
          "name": "spender",
          "type": "address"
        },
        {
          "internalType": "uint256",
          "name": "addedValue",
          "type": "uint256"
        }
      ],
      "name": "increaseAllowance",
      "outputs": [
        {
          "internalType": "bool",
          "name": "",
          "type": "bool"
        }
      ],
      "stateMutability": "nonpayable",
      "type": "function"
    },
    {
      "inputs": [
        {
          "internalType": "address",
          "name": "",
          "type": "address"
        }
      ],
      "name": "nonces",
      "outputs": [
        {
          "internalType": "uint256",
          "name": "",
          "type": "uint256"
        }
      ],
      "stateMutability": "view",
      "type": "function"
    },
    {
      "inputs": [],
      "name": "totalSupply",
      "outputs": [
        {
          "internalType": "uint256",
          "name": "",
          "type": "uint256"
        }
      ],
      "stateMutability": "view",
      "type": "function"
    },
    {
      "inputs": [
        {
          "internalType": "address",
          "name": "to",
          "type": "address"
        },
        {
          "internalType": "uint256",
          "name": "amount",
          "type": "uint256"
        }
      ],
      "name": "transfer",
      "outputs": [
        {
          "internalType": "bool",
          "name": "",
          "type": "bool"
        }
      ],
      "stateMutability": "nonpayable",
      "type": "function"
    },
    {
      "inputs": [
        {
          "internalType": "address",
          "name": "from",
          "type": "address"
        },
        {
          "internalType": "address",
          "name": "to",
          "type": "address"
        },
        {
          "internalType": "uint256",
          "name": "amount",
          "type": "uint256"
        }
      ],
      "name": "transferFrom",
      "outputs": [
        {
          "internalType": "bool",
          "name": "",
          "type": "bool"
        }
      ],
      "stateMutability": "nonpayable",
      "type": "function"
    },
    {
      "stateMutability": "payable",
      "type": "receive"
    },
    {
      "inputs": [
        {
          "internalType": "string[]",
          "name": "strings_",
          "type": "string[]"
        },
        {
          "internalType": "address[]",
          "name": "addresses_",
          "type": "address[]"
        },
        {
          "internalType": "address",
          "name": "erc721Address_",
          "type": "address"
        },
        {
          "internalType": "uint256",
          "name": "uints_",
          "type": "uint256"
        },
        {
          "internalType": "string",
          "name": "licenseType_",
          "type": "string"
        },
        {
          "internalType": "uint256",
          "name": "price_",
          "type": "uint256"
        },
        {
          "internalType": "uint256",
          "name": "licensePeriod_",
          "type": "uint256"
        }
      ],
      "name": "initialize",
      "outputs": [
        {
          "internalType": "bool",
          "name": "",
          "type": "bool"
        }
      ],
      "stateMutability": "nonpayable",
      "type": "function"
    },
    {
      "inputs": [
        {
          "internalType": "address",
          "name": "account",
          "type": "address"
        },
        {
          "internalType": "uint256",
          "name": "value",
          "type": "uint256"
        }
      ],
      "name": "mint",
      "outputs": [],
      "stateMutability": "nonpayable",
      "type": "function"
    },
    {
      "inputs": [
        {
          "internalType": "uint256",
          "name": "_dateTimestamp",
          "type": "uint256"
        },
        {
          "internalType": "address",
          "name": "_customer",
          "type": "address"
        }
      ],
      "name": "setDateStartPolicy",
      "outputs": [],
      "stateMutability": "nonpayable",
      "type": "function"
    },
    {
      "inputs": [
        {
          "internalType": "address",
          "name": "_erc721",
          "type": "address"
        },
        {
          "internalType": "address[]",
          "name": "templateLicenses",
          "type": "address[]"
        },
        {
          "internalType": "address[]",
          "name": "factoryLicenses",
          "type": "address[]"
        }
      ],
      "name": "deleteLicense",
      "outputs": [],
      "stateMutability": "nonpayable",
      "type": "function"
    },
    {
      "inputs": [],
      "name": "name",
      "outputs": [
        {
          "internalType": "string",
          "name": "",
          "type": "string"
        }
      ],
      "stateMutability": "view",
      "type": "function"
    },
    {
      "inputs": [],
      "name": "symbol",
      "outputs": [
        {
          "internalType": "string",
          "name": "",
          "type": "string"
        }
      ],
      "stateMutability": "view",
      "type": "function"
    },
    {
      "inputs": [],
      "name": "price",
      "outputs": [
        {
          "internalType": "uint256",
          "name": "",
          "type": "uint256"
        }
      ],
      "stateMutability": "view",
      "type": "function"
    },
    {
      "inputs": [],
      "name": "getlicenseType",
      "outputs": [
        {
          "internalType": "string",
          "name": "",
          "type": "string"
        }
      ],
      "stateMutability": "view",
      "type": "function"
    },
    {
      "inputs": [],
      "name": "getERC721Address",
      "outputs": [
        {
          "internalType": "address",
          "name": "",
          "type": "address"
        }
      ],
      "stateMutability": "view",
      "type": "function"
    },
    {
      "inputs": [],
      "name": "getLicensePeriod",
      "outputs": [
        {
          "internalType": "uint256",
          "name": "",
          "type": "uint256"
        }
      ],
      "stateMutability": "view",
      "type": "function"
    },
    {
      "inputs": [
        {
          "internalType": "address",
          "name": "_customer",
          "type": "address"
        }
      ],
      "name": "getStartLicenseDate",
      "outputs": [
        {
          "internalType": "uint256",
          "name": "",
          "type": "uint256"
        }
      ],
      "stateMutability": "view",
      "type": "function"
    },
    {
      "inputs": [],
      "name": "cap",
      "outputs": [
        {
          "internalType": "uint256",
          "name": "",
          "type": "uint256"
        }
      ],
      "stateMutability": "view",
      "type": "function"
    },
    {
      "inputs": [],
      "name": "isInitialized",
      "outputs": [
        {
          "internalType": "bool",
          "name": "",
          "type": "bool"
        }
      ],
      "stateMutability": "view",
      "type": "function"
    }
  ],
  "bytecode": "0x60806040526009805460ff191690553480156200001b57600080fd5b50604051806040016040528060048152602001631d195cdd60e21b8152506040518060400160405280600a8152602001691d195cdd14de5b589bdb60b21b81525081600390816200006d91906200012f565b5060046200007c82826200012f565b5050600160055550620001fb565b634e487b7160e01b600052604160045260246000fd5b600181811c90821680620000b557607f821691505b602082108103620000d657634e487b7160e01b600052602260045260246000fd5b50919050565b601f8211156200012a57600081815260208120601f850160051c81016020861015620001055750805b601f850160051c820191505b81811015620001265782815560010162000111565b5050505b505050565b81516001600160401b038111156200014b576200014b6200008a565b62000163816200015c8454620000a0565b84620000dc565b602080601f8311600181146200019b5760008415620001825750858301515b600019600386901b1c1916600185901b17855562000126565b600085815260208120601f198616915b82811015620001cc57888601518255948401946001909101908401620001ab565b5085821015620001eb5787850151600019600388901b60f8161c191681555b5050505050600190811b01905550565b6118a1806200020b6000396000f3fe6080604052600436106101725760003560e01c806379cc6790116100c8578063a457c2d711610084578063dd62ed3e11610061578063dd62ed3e1461045c578063e54a45171461047c578063ec342ad0146104b2578063f14e6ae5146104ce57005b8063a457c2d714610407578063a9059cbb14610427578063dca1c2631461044757005b806379cc6790146103465780637ecebe001461036657806380b2efc7146103935780638cdd57ea146103c857806395d89b41146103dd578063a035b1fe146103f257005b8063355274ea1161012f578063395093511161010c57806339509351146102b057806340c10f19146102d057806342966c68146102f057806370a082311461031057005b8063355274ea14610263578063370755ab14610278578063392e53cd1461029857005b80627ffb781461017b57806306fdde03146101b6578063095ea7b3146101d857806318160ddd1461020857806323b872dd14610227578063313ce5671461024757005b3661017957005b005b34801561018757600080fd5b5060095461010090046001600160a01b03166040516001600160a01b0390911681526020015b60405180910390f35b3480156101c257600080fd5b506101cb6104ee565b6040516101ad91906110ff565b3480156101e457600080fd5b506101f86101f3366004611169565b610580565b60405190151581526020016101ad565b34801561021457600080fd5b506002545b6040519081526020016101ad565b34801561023357600080fd5b506101f8610242366004611193565b61059a565b34801561025357600080fd5b50604051601281526020016101ad565b34801561026f57600080fd5b50600854610219565b34801561028457600080fd5b506101f861029336600461121b565b6105be565b3480156102a457600080fd5b5060095460ff166101f8565b3480156102bc57600080fd5b506101f86102cb366004611169565b610690565b3480156102dc57600080fd5b506101796102eb366004611169565b6106b2565b3480156102fc57600080fd5b5061017961030b36600461130f565b610788565b34801561031c57600080fd5b5061021961032b366004611328565b6001600160a01b031660009081526020819052604090205490565b34801561035257600080fd5b50610179610361366004611169565b610795565b34801561037257600080fd5b50610219610381366004611328565b600e6020526000908152604090205481565b34801561039f57600080fd5b506101796103ae366004611343565b6001600160a01b0316600090815260106020526040902055565b3480156103d457600080fd5b50600d54610219565b3480156103e957600080fd5b506101cb6107aa565b3480156103fe57600080fd5b50600c54610219565b34801561041357600080fd5b506101f8610422366004611169565b6107b9565b34801561043357600080fd5b506101f8610442366004611169565b610834565b34801561045357600080fd5b506101cb610842565b34801561046857600080fd5b5061021961047736600461136f565b610851565b34801561048857600080fd5b50610219610497366004611328565b6001600160a01b031660009081526010602052604090205490565b3480156104be57600080fd5b50610219670de0b6b3a764000081565b3480156104da57600080fd5b506101796104e9366004611476565b61087c565b6060600680546104fd906114ea565b80601f0160208091040260200160405190810160405280929190818152602001828054610529906114ea565b80156105765780601f1061054b57610100808354040283529160200191610576565b820191906000526020600020905b81548152906001019060200180831161055957829003601f168201915b5050505050905090565b60003361058e81858561092e565b60019150505b92915050565b6000336105a8858285610a53565b6105b3858585610acd565b506001949350505050565b60095460009060ff16156106335760405162461bcd60e51b815260206004820152603160248201527f455243323054656d706c6174653a20746f6b656e20696e7374616e636520616c6044820152701c9958591e481a5b9a5d1a585b1a5e9959607a1b60648201526084015b60405180910390fd5b6106816106408b8d611524565b8a8a808060200260200160405190810160405280939291908181526020018383602002808284376000920191909152508c92508b91508a9050898989610c71565b9b9a5050505050505050505050565b60003361058e8185856106a38383610851565b6106ad9190611605565b61092e565b336000908152600f602052604090205460ff1615156001146107165760405162461bcd60e51b815260206004820152601960248201527f455243323054656d706c6174653a204e4f54204d494e54455200000000000000604482015260640161062a565b60085461072c8261072660025490565b90610efe565b111561077a5760405162461bcd60e51b815260206004820152601f60248201527f44617461746f6b656e54656d706c6174653a2063617020657863656564656400604482015260640161062a565b6107848282610f11565b5050565b6107923382610fd0565b50565b6107a0823383610a53565b6107848282610fd0565b6060600780546104fd906114ea565b600033816107c78286610851565b9050838110156108275760405162461bcd60e51b815260206004820152602560248201527f45524332303a2064656372656173656420616c6c6f77616e63652062656c6f77604482015264207a65726f60d81b606482015260840161062a565b6105b3828686840361092e565b60003361058e818585610acd565b6060600b80546104fd906114ea565b6001600160a01b03918216600090815260016020908152604080832093909416825291909152205490565b336000908152600f602052604090205460ff1615156001146108c65760405162461bcd60e51b8152602060048201526003602482015262444c3160e81b604482015260640161062a565b60405163f14e6ae560e01b815283906001600160a01b0382169063f14e6ae5906108f89030908790879060040161165c565b600060405180830381600087803b15801561091257600080fd5b505af1158015610926573d6000803e3d6000fd5b503392505050ff5b6001600160a01b0383166109905760405162461bcd60e51b8152602060048201526024808201527f45524332303a20617070726f76652066726f6d20746865207a65726f206164646044820152637265737360e01b606482015260840161062a565b6001600160a01b0382166109f15760405162461bcd60e51b815260206004820152602260248201527f45524332303a20617070726f766520746f20746865207a65726f206164647265604482015261737360f01b606482015260840161062a565b6001600160a01b0383811660008181526001602090815260408083209487168084529482529182902085905590518481527f8c5be1e5ebec7d5bd14f71427d1e84f3dd0314c0f7b2291e5b200ac8c7c3b92591015b60405180910390a3505050565b6000610a5f8484610851565b90506000198114610ac75781811015610aba5760405162461bcd60e51b815260206004820152601d60248201527f45524332303a20696e73756666696369656e7420616c6c6f77616e6365000000604482015260640161062a565b610ac7848484840361092e565b50505050565b6001600160a01b038316610b315760405162461bcd60e51b815260206004820152602560248201527f45524332303a207472616e736665722066726f6d20746865207a65726f206164604482015264647265737360d81b606482015260840161062a565b6001600160a01b038216610b935760405162461bcd60e51b815260206004820152602360248201527f45524332303a207472616e7366657220746f20746865207a65726f206164647260448201526265737360e81b606482015260840161062a565b6001600160a01b03831660009081526020819052604090205481811015610c0b5760405162461bcd60e51b815260206004820152602660248201527f45524332303a207472616e7366657220616d6f756e7420657863656564732062604482015265616c616e636560d01b606482015260840161062a565b6001600160a01b03848116600081815260208181526040808320878703905593871680835291849020805487019055925185815290927fddf252ad1be2c89b69c2b068fc378daa952ba7f163c4a11628f55a4df523b3ef910160405180910390a3610ac7565b6000866001600160a01b038116610cdf5760405162461bcd60e51b815260206004820152602c60248201527f455243323054656d706c6174653a20496e76616c6964206d696e7465722c202060448201526b7a65726f206164647265737360a01b606482015260840161062a565b60001960085589518a90600090610cf857610cf861169c565b602002602001015160069081610d0e9190611700565b5089600181518110610d2257610d2261169c565b602002602001015160079081610d389190611700565b50600b610d468688836117c0565b5060098054600c869055600d85905560016001600160a81b03199091166101006001600160a01b0385160260ff19161781179091558951600f906000908c908290610d9357610d9361169c565b60200260200101516001600160a01b03166001600160a01b0316815260200190815260200160002060006101000a81548160ff02191690831515021790555060006001600160a01b031689600181518110610df057610df061169c565b60200260200101516001600160a01b031614610eb857610e4789600181518110610e1c57610e1c61169c565b6020026020010151600a80546001600160a01b039092166001600160a01b0319909216919091179055565b88600181518110610e5a57610e5a61169c565b60200260200101516001600160a01b0316336001600160a01b03167f4d7694d695c57cc54947177c8e8a0e61aae664e9223492a798c32fadfc6419cc4243604051610eaf929190918252602082015260400190565b60405180910390a35b610eea89600081518110610ece57610ece61169c565b60200260200101516001600854610ee59190611881565b610f11565b505060095460ff1698975050505050505050565b6000610f0a8284611605565b9392505050565b6001600160a01b038216610f675760405162461bcd60e51b815260206004820152601f60248201527f45524332303a206d696e7420746f20746865207a65726f206164647265737300604482015260640161062a565b8060026000828254610f799190611605565b90915550506001600160a01b038216600081815260208181526040808320805486019055518481527fddf252ad1be2c89b69c2b068fc378daa952ba7f163c4a11628f55a4df523b3ef910160405180910390a35050565b6001600160a01b0382166110305760405162461bcd60e51b815260206004820152602160248201527f45524332303a206275726e2066726f6d20746865207a65726f206164647265736044820152607360f81b606482015260840161062a565b6001600160a01b038216600090815260208190526040902054818110156110a45760405162461bcd60e51b815260206004820152602260248201527f45524332303a206275726e20616d6f756e7420657863656564732062616c616e604482015261636560f01b606482015260840161062a565b6001600160a01b0383166000818152602081815260408083208686039055600280548790039055518581529192917fddf252ad1be2c89b69c2b068fc378daa952ba7f163c4a11628f55a4df523b3ef9101610a46565b505050565b600060208083528351808285015260005b8181101561112c57858101830151858201604001528201611110565b506000604082860101526040601f19601f8301168501019250505092915050565b80356001600160a01b038116811461116457600080fd5b919050565b6000806040838503121561117c57600080fd5b6111858361114d565b946020939093013593505050565b6000806000606084860312156111a857600080fd5b6111b18461114d565b92506111bf6020850161114d565b9150604084013590509250925092565b60008083601f8401126111e157600080fd5b50813567ffffffffffffffff8111156111f957600080fd5b6020830191508360208260051b850101111561121457600080fd5b9250929050565b60008060008060008060008060008060e08b8d03121561123a57600080fd5b8a3567ffffffffffffffff8082111561125257600080fd5b61125e8e838f016111cf565b909c509a5060208d013591508082111561127757600080fd5b6112838e838f016111cf565b909a50985088915061129760408e0161114d565b975060608d0135965060808d01359150808211156112b457600080fd5b818d0191508d601f8301126112c857600080fd5b8135818111156112d757600080fd5b8e60208285010111156112e957600080fd5b9b9e9a9d50989b979a96999598506020019660a08101359560c090910135945092505050565b60006020828403121561132157600080fd5b5035919050565b60006020828403121561133a57600080fd5b610f0a8261114d565b6000806040838503121561135657600080fd5b823591506113666020840161114d565b90509250929050565b6000806040838503121561138257600080fd5b61138b8361114d565b91506113666020840161114d565b634e487b7160e01b600052604160045260246000fd5b604051601f8201601f1916810167ffffffffffffffff811182821017156113d8576113d8611399565b604052919050565b600067ffffffffffffffff8211156113fa576113fa611399565b5060051b60200190565b600082601f83011261141557600080fd5b8135602061142a611425836113e0565b6113af565b82815260059290921b8401810191818101908684111561144957600080fd5b8286015b8481101561146b5761145e8161114d565b835291830191830161144d565b509695505050505050565b60008060006060848603121561148b57600080fd5b6114948461114d565b9250602084013567ffffffffffffffff808211156114b157600080fd5b6114bd87838801611404565b935060408601359150808211156114d357600080fd5b506114e086828701611404565b9150509250925092565b600181811c908216806114fe57607f821691505b60208210810361151e57634e487b7160e01b600052602260045260246000fd5b50919050565b6000611532611425846113e0565b80848252602080830192508560051b85013681111561155057600080fd5b855b818110156115e357803567ffffffffffffffff808211156115735760008081fd5b90880190601f36818401126115885760008081fd5b82358281111561159a5761159a611399565b6115ab818301601f191688016113af565b925080835236878286010111156115c457600091508182fd5b8087850188850137600090830187015250865250938201938201611552565b50919695505050505050565b634e487b7160e01b600052601160045260246000fd5b80820180821115610594576105946115ef565b600081518084526020808501945080840160005b838110156116515781516001600160a01b03168752958201959082019060010161162c565b509495945050505050565b6001600160a01b038416815260606020820181905260009061168090830185611618565b82810360408401526116928185611618565b9695505050505050565b634e487b7160e01b600052603260045260246000fd5b601f8211156110fa57600081815260208120601f850160051c810160208610156116d95750805b601f850160051c820191505b818110156116f8578281556001016116e5565b505050505050565b815167ffffffffffffffff81111561171a5761171a611399565b61172e8161172884546114ea565b846116b2565b602080601f831160018114611763576000841561174b5750858301515b600019600386901b1c1916600185901b1785556116f8565b600085815260208120601f198616915b8281101561179257888601518255948401946001909101908401611773565b50858210156117b05787850151600019600388901b60f8161c191681555b5050505050600190811b01905550565b67ffffffffffffffff8311156117d8576117d8611399565b6117ec836117e683546114ea565b836116b2565b6000601f84116001811461182057600085156118085750838201355b600019600387901b1c1916600186901b17835561187a565b600083815260209020601f19861690835b828110156118515786850135825560209485019460019092019101611831565b508682101561186e5760001960f88860031b161c19848701351681555b505060018560011b0183555b5050505050565b81810381811115610594576105946115ef56fea164736f6c6343000813000a",
  "immutableReferences": {},
  "source": "// SPDX-License-Identifier: MIT\r\npragma solidity >=0.4.22 <0.9.0;\r\n\r\nimport \"@openzeppelin/contracts/token/ERC20/extensions/ERC20Burnable.sol\";\r\nimport \"@openzeppelin/contracts/token/ERC20/IERC20.sol\";\r\nimport \"@openzeppelin/contracts/utils/math/SafeMath.sol\";\r\n\r\nimport \"@openzeppelin/contracts/token/ERC20/utils/SafeERC20.sol\";\r\nimport \"@openzeppelin/contracts/security/ReentrancyGuard.sol\";\r\n\r\nimport \"./ERC721template.sol\";\r\nimport \"./FactoryERC721.sol\";\r\n\r\ncontract ERC20template is\r\n    ERC20(\"test\", \"testSymbol\"),\r\n    ERC20Burnable,\r\n    ReentrancyGuard\r\n{\r\n    using SafeMath for uint256;\r\n    using SafeERC20 for IERC20;\r\n\r\n    string private _name;\r\n    string private _symbol;\r\n    uint256 private _cap;\r\n    uint8 private constant _decimals = 18;\r\n    bool private initialized = false;\r\n    address private _erc721Address;\r\n    address private paymentCollector;\r\n    string private _licenseType;\r\n    uint256 private _price;\r\n    uint256 private _licensePeriod; //questo valore  un numero intero e rappresenta i mesi\r\n\r\n    uint256 public constant BASE = 1e18;\r\n\r\n    mapping(address => uint256) public nonces;\r\n    mapping(address => bool) private _minter;\r\n    mapping(address => uint256) private _userStartPolicy;\r\n\r\n    constructor() {}\r\n\r\n    event NewPaymentCollector(\r\n        address indexed caller,\r\n        address indexed _newPaymentCollector,\r\n        uint256 timestamp,\r\n        uint256 blockNumber\r\n    );\r\n\r\n    modifier onlyNotInitialized() {\r\n        require(\r\n            !initialized,\r\n            \"ERC20Template: token instance already initialized\"\r\n        );\r\n        _;\r\n    }\r\n\r\n    /**\r\n     * @dev initialize\r\n     *      Called prior contract initialization (e.g creating new Datatoken instance)\r\n     *      Calls private _initialize function. Only if contract is not initialized.\r\n     * @param strings_ refers to an array of strings\r\n     *                      [0] = name token\r\n     *                      [1] = symbol\r\n     * @param addresses_ refers to an array of addresses passed by user\r\n     *                     [0]  = minter account who can mint datatokens (can have multiple minters)\r\n     *                     [1]  = paymentCollector  initial paymentCollector  for this DT\r\n     *                     [2]  = publishing Market Address\r\n     *                     [3]  = publishing Market Fee Token\r\n     * @param erc721Address_ refers to an array of addresses passed by the factory = erc721Address\r\n     *\r\n     * @param licenseType_ refers to license type => \"period\" or \"usage\"\r\n     * @param price_ refers to price of tyhe license associated to a NFT\r\n     * @param uints_  refers to cap_ the total ERC20 cap\r\n     *                     Currently not used, usefull for future templates\r\n     */\r\n    function initialize(\r\n        string[] calldata strings_,\r\n        address[] calldata addresses_,\r\n        address erc721Address_,\r\n        uint256 uints_,\r\n        string calldata licenseType_,\r\n        uint256 price_,\r\n        uint256 licensePeriod_\r\n    ) external onlyNotInitialized returns (bool) {\r\n        return\r\n            _initialize(\r\n                strings_,\r\n                addresses_,\r\n                erc721Address_,\r\n                uints_,\r\n                licenseType_,\r\n                price_,\r\n                licensePeriod_\r\n            );\r\n    }\r\n\r\n    /**\r\n     * @dev _initialize\r\n     *      Private function called on contract initialization.\r\n     * @param strings_ refers to an array of strings\r\n     *                      [0] = name token\r\n     *                      [1] = symbol\r\n     * @param addresses_ refers to an array of addresses passed by user\r\n     *                     [0]  = minter account who can mint datatokens (can have multiple minters)\r\n     *                     [1]  = paymentCollector  initial paymentCollector  for this DT\r\n     *                     [2]  = publishing Market Address\r\n     * @param erc721Address_ refers to an array of addresses passed by the factory = erc721Address\r\n     * @param uints_  refers to cap_ the total ERC20 cap\r\n     * @param licenseType_ refers to license type => \"period\" or \"usage\"\r\n     * @param price_ refers to price of tyhe license associated to a NFT\r\n     * param bytes_  refers to an array of bytes\r\n     *                     Currently not used, usefull for future templates\r\n     */\r\n    function _initialize(\r\n        string[] memory strings_,\r\n        address[] memory addresses_,\r\n        address erc721Address_,\r\n        uint256 uints_,\r\n        string calldata licenseType_,\r\n        uint256 price_,\r\n        uint256 licensePeriod_\r\n    ) private returns (bool) {\r\n        address erc721Address = erc721Address_;\r\n        require(\r\n            erc721Address != address(0),\r\n            \"ERC20Template: Invalid minter,  zero address\"\r\n        );\r\n\r\n        // require(uints_ != 0, \"DatatokenTemplate: Invalid cap value\");\r\n        // _cap = uints_;\r\n        _cap = 0xffffffffffffffffffffffffffffffffffffffffffffffffffffffffffffffff;\r\n        _name = strings_[0];\r\n        _symbol = strings_[1];\r\n        _licenseType = licenseType_;\r\n        _erc721Address = erc721Address;\r\n        _price = price_;\r\n        _licensePeriod = licensePeriod_;\r\n        initialized = true;\r\n        // add a default minter, similar to what happens with manager in the 721 contract\r\n        //in ocean they use a specific contract for this. Not necessary at the moment for this version\r\n        _minter[addresses_[0]] = true;\r\n        if (addresses_[1] != address(0)) {\r\n            _setPaymentCollector(addresses_[1]);\r\n            emit NewPaymentCollector(\r\n                msg.sender,\r\n                addresses_[1],\r\n                block.timestamp,\r\n                block.number\r\n            );\r\n        }\r\n        _mint(addresses_[0], _cap - 1);\r\n        return initialized;\r\n    }\r\n\r\n    function _setPaymentCollector(address _newPaymentCollector) internal {\r\n        paymentCollector = _newPaymentCollector;\r\n    }\r\n\r\n    /**\r\n     * @dev mint\r\n     *      Only the minter address can call it.\r\n     *      msg.value should be higher than zero and gt or eq minting fee\r\n     * @param account refers to an address that token is going to be minted to.\r\n     * @param value refers to amount of tokens that is going to be minted.\r\n     */\r\n    function mint(address account, uint256 value) external {\r\n        require(_minter[msg.sender] == true, \"ERC20Template: NOT MINTER\");\r\n        require(\r\n            totalSupply().add(value) <= _cap,\r\n            \"DatatokenTemplate: cap exceeded\"\r\n        );\r\n        _mint(account, value);\r\n    }\r\n\r\n    function setDateStartPolicy(\r\n        uint256 _dateTimestamp,\r\n        address _customer\r\n    ) external {\r\n        _userStartPolicy[_customer] = _dateTimestamp;\r\n    }\r\n\r\n    function deleteLicense(address _erc721, address[] memory templateLicenses, address[] memory factoryLicenses) external {\r\n        require(_minter[msg.sender] == true, \"DL1\"); //pu chiamarla solo l'owner della licenza\r\n        ERC721template erc721template = ERC721template(payable(_erc721));\r\n        erc721template.deleteLicense(address(this), templateLicenses, factoryLicenses);\r\n        selfdestruct(payable(msg.sender));\r\n    }\r\n\r\n    /**\r\n     * @dev name\r\n     *      It returns the token name.\r\n     * @return Datatoken name.\r\n     */\r\n    function name() public view override returns (string memory) {\r\n        return _name;\r\n    }\r\n\r\n    /**\r\n     * @dev symbol\r\n     *      It returns the token symbol.\r\n     * @return Datatoken symbol.\r\n     */\r\n    function symbol() public view override returns (string memory) {\r\n        return _symbol;\r\n    }\r\n\r\n    /**\r\n     * @dev price\r\n     *      It returns the license price.\r\n     * @return Datatoken price.\r\n     */\r\n    function price() public view returns (uint) {\r\n        return _price;\r\n    }\r\n\r\n    function getlicenseType() public view returns (string memory) {\r\n        return _licenseType;\r\n    }\r\n\r\n    /**\r\n     * @dev getERC721Address\r\n     *      It returns the parent ERC721\r\n     * @return ERC721 address.\r\n     */\r\n    function getERC721Address() public view returns (address) {\r\n        return _erc721Address;\r\n    }\r\n\r\n    function getLicensePeriod() public view returns (uint256) {\r\n        return _licensePeriod;\r\n    }\r\n\r\n    function getStartLicenseDate(\r\n        address _customer\r\n    ) external view returns (uint256) {\r\n        return _userStartPolicy[_customer];\r\n    }\r\n\r\n    /**\r\n     * @dev cap\r\n     *      it returns the capital.\r\n     * @return Datatoken cap.\r\n     */\r\n    function cap() external view returns (uint256) {\r\n        return _cap;\r\n    }\r\n\r\n    /**\r\n     * @dev isInitialized\r\n     *      It checks whether the contract is initialized.\r\n     * @return true if the contract is initialized.\r\n     */\r\n\r\n    function isInitialized() external view returns (bool) {\r\n        return initialized;\r\n    }\r\n\r\n    /**\r\n     * @dev fallback function\r\n     *      this is a default fallback function in which receives\r\n     *      the collected ether.\r\n     */\r\n    fallback() external payable {}\r\n\r\n    /**\r\n     * @dev receive function\r\n     *      this is a default receive function in which receives\r\n     *      the collected ether.\r\n     */\r\n    receive() external payable {}\r\n}\r\n",
  "sourcePath": "C:\\Users\\AlessandroMozzato\\OneDrive - Fondazione LINKS\\Desktop\\Blockchain\\smartcontracts\\contracts\\ERC20template.sol",
  "compiler": {
    "name": "solc",
    "version": "0.8.19+commit.7dd6d404.Emscripten.clang"
  },
  "schemaVersion": "3.4.13",
  "updatedAt": "2023-10-26T08:14:29.867Z",
  "devdoc": {
    "events": {
      "Approval(address,address,uint256)": {
        "details": "Emitted when the allowance of a `spender` for an `owner` is set by a call to {approve}. `value` is the new allowance."
      },
      "Transfer(address,address,uint256)": {
        "details": "Emitted when `value` tokens are moved from one account (`from`) to another (`to`). Note that `value` may be zero."
      }
    },
    "kind": "dev",
    "methods": {
      "allowance(address,address)": {
        "details": "See {IERC20-allowance}."
      },
      "approve(address,uint256)": {
        "details": "See {IERC20-approve}. NOTE: If `amount` is the maximum `uint256`, the allowance is not updated on `transferFrom`. This is semantically equivalent to an infinite approval. Requirements: - `spender` cannot be the zero address."
      },
      "balanceOf(address)": {
        "details": "See {IERC20-balanceOf}."
      },
      "burn(uint256)": {
        "details": "Destroys `amount` tokens from the caller. See {ERC20-_burn}."
      },
      "burnFrom(address,uint256)": {
        "details": "Destroys `amount` tokens from `account`, deducting from the caller's allowance. See {ERC20-_burn} and {ERC20-allowance}. Requirements: - the caller must have allowance for ``accounts``'s tokens of at least `amount`."
      },
      "cap()": {
        "details": "cap      it returns the capital.",
        "returns": {
          "_0": "Datatoken cap."
        }
      },
      "decimals()": {
        "details": "Returns the number of decimals used to get its user representation. For example, if `decimals` equals `2`, a balance of `505` tokens should be displayed to a user as `5.05` (`505 / 10 ** 2`). Tokens usually opt for a value of 18, imitating the relationship between Ether and Wei. This is the value {ERC20} uses, unless this function is overridden; NOTE: This information is only used for _display_ purposes: it in no way affects any of the arithmetic of the contract, including {IERC20-balanceOf} and {IERC20-transfer}."
      },
      "decreaseAllowance(address,uint256)": {
        "details": "Atomically decreases the allowance granted to `spender` by the caller. This is an alternative to {approve} that can be used as a mitigation for problems described in {IERC20-approve}. Emits an {Approval} event indicating the updated allowance. Requirements: - `spender` cannot be the zero address. - `spender` must have allowance for the caller of at least `subtractedValue`."
      },
      "getERC721Address()": {
        "details": "getERC721Address      It returns the parent ERC721",
        "returns": {
          "_0": "ERC721 address."
        }
      },
      "increaseAllowance(address,uint256)": {
        "details": "Atomically increases the allowance granted to `spender` by the caller. This is an alternative to {approve} that can be used as a mitigation for problems described in {IERC20-approve}. Emits an {Approval} event indicating the updated allowance. Requirements: - `spender` cannot be the zero address."
      },
      "initialize(string[],address[],address,uint256,string,uint256,uint256)": {
        "details": "initialize      Called prior contract initialization (e.g creating new Datatoken instance)      Calls private _initialize function. Only if contract is not initialized.",
        "params": {
          "addresses_": "refers to an array of addresses passed by user                     [0]  = minter account who can mint datatokens (can have multiple minters)                     [1]  = paymentCollector  initial paymentCollector  for this DT                     [2]  = publishing Market Address                     [3]  = publishing Market Fee Token",
          "erc721Address_": "refers to an array of addresses passed by the factory = erc721Address",
          "licenseType_": "refers to license type => \"period\" or \"usage\"",
          "price_": "refers to price of tyhe license associated to a NFT",
          "strings_": "refers to an array of strings                      [0] = name token                      [1] = symbol",
          "uints_": "refers to cap_ the total ERC20 cap                     Currently not used, usefull for future templates"
        }
      },
      "isInitialized()": {
        "details": "isInitialized      It checks whether the contract is initialized.",
        "returns": {
          "_0": "true if the contract is initialized."
        }
      },
      "mint(address,uint256)": {
        "details": "mint      Only the minter address can call it.      msg.value should be higher than zero and gt or eq minting fee",
        "params": {
          "account": "refers to an address that token is going to be minted to.",
          "value": "refers to amount of tokens that is going to be minted."
        }
      },
      "name()": {
        "details": "name      It returns the token name.",
        "returns": {
          "_0": "Datatoken name."
        }
      },
      "price()": {
        "details": "price      It returns the license price.",
        "returns": {
          "_0": "Datatoken price."
        }
      },
      "symbol()": {
        "details": "symbol      It returns the token symbol.",
        "returns": {
          "_0": "Datatoken symbol."
        }
      },
      "totalSupply()": {
        "details": "See {IERC20-totalSupply}."
      },
      "transfer(address,uint256)": {
        "details": "See {IERC20-transfer}. Requirements: - `to` cannot be the zero address. - the caller must have a balance of at least `amount`."
      },
      "transferFrom(address,address,uint256)": {
        "details": "See {IERC20-transferFrom}. Emits an {Approval} event indicating the updated allowance. This is not required by the EIP. See the note at the beginning of {ERC20}. NOTE: Does not update the allowance if the current allowance is the maximum `uint256`. Requirements: - `from` and `to` cannot be the zero address. - `from` must have a balance of at least `amount`. - the caller must have allowance for ``from``'s tokens of at least `amount`."
      }
    },
    "version": 1
  },
  "userdoc": {
    "kind": "user",
    "methods": {},
    "version": 1
  }
}