{
  "contractName": "ERC721template",
  "abi": [
    {
      "anonymous": false,
      "inputs": [
        {
          "indexed": true,
          "internalType": "address",
          "name": "owner",
          "type": "address"
        },
        {
          "indexed": true,
          "internalType": "address",
          "name": "approved",
          "type": "address"
        },
        {
          "indexed": true,
          "internalType": "uint256",
          "name": "tokenId",
          "type": "uint256"
        }
      ],
      "name": "Approval",
      "type": "event"
    },
    {
      "anonymous": false,
      "inputs": [
        {
          "indexed": true,
          "internalType": "address",
          "name": "owner",
          "type": "address"
        },
        {
          "indexed": true,
          "internalType": "address",
          "name": "operator",
          "type": "address"
        },
        {
          "indexed": false,
          "internalType": "bool",
          "name": "approved",
          "type": "bool"
        }
      ],
      "name": "ApprovalForAll",
      "type": "event"
    },
    {
      "anonymous": false,
      "inputs": [
        {
          "indexed": true,
          "internalType": "address",
          "name": "updatedBy",
          "type": "address"
        },
        {
          "indexed": false,
          "internalType": "string",
          "name": "tokenURI",
          "type": "string"
        },
        {
          "indexed": false,
          "internalType": "uint256",
          "name": "tokenID",
          "type": "uint256"
        },
        {
          "indexed": false,
          "internalType": "uint256",
          "name": "timestamp",
          "type": "uint256"
        },
        {
          "indexed": false,
          "internalType": "uint256",
          "name": "blockNumber",
          "type": "uint256"
        }
      ],
      "name": "TokenURIUpdate",
      "type": "event"
    },
    {
      "anonymous": false,
      "inputs": [
        {
          "indexed": true,
          "internalType": "address",
          "name": "from",
          "type": "address"
        },
        {
          "indexed": true,
          "internalType": "address",
          "name": "to",
          "type": "address"
        },
        {
          "indexed": true,
          "internalType": "uint256",
          "name": "tokenId",
          "type": "uint256"
        }
      ],
      "name": "Transfer",
      "type": "event"
    },
    {
      "anonymous": false,
      "inputs": [
        {
          "indexed": false,
          "internalType": "string",
          "name": "nameT",
          "type": "string"
        },
        {
          "indexed": false,
          "internalType": "string",
          "name": "symbolT",
          "type": "string"
        },
        {
          "indexed": false,
          "internalType": "address",
          "name": "owner",
          "type": "address"
        },
        {
          "indexed": false,
          "internalType": "uint256",
          "name": "cap",
          "type": "uint256"
        },
        {
          "indexed": false,
          "internalType": "string",
          "name": "licenseType",
          "type": "string"
        },
        {
          "indexed": false,
          "internalType": "uint256",
          "name": "price",
          "type": "uint256"
        },
        {
          "indexed": false,
          "internalType": "address",
          "name": "licenseErc20",
          "type": "address"
        }
      ],
      "name": "licenseERC20Created",
      "type": "event"
    },
    {
      "anonymous": false,
      "inputs": [
        {
          "indexed": false,
          "internalType": "bool",
          "name": "result",
          "type": "bool"
        },
        {
          "indexed": false,
          "internalType": "address",
          "name": "nft",
          "type": "address"
        },
        {
          "indexed": false,
          "internalType": "uint256",
          "name": "startDate",
          "type": "uint256"
        },
        {
          "indexed": false,
          "internalType": "uint256",
          "name": "todayDate",
          "type": "uint256"
        }
      ],
      "name": "nftConsumedPeriod",
      "type": "event"
    },
    {
      "anonymous": false,
      "inputs": [
        {
          "indexed": false,
          "internalType": "bool",
          "name": "result",
          "type": "bool"
        },
        {
          "indexed": false,
          "internalType": "address",
          "name": "nft",
          "type": "address"
        },
        {
          "indexed": false,
          "internalType": "uint256",
          "name": "usageRemain",
          "type": "uint256"
        }
      ],
      "name": "nftConsumedUsage",
      "type": "event"
    },
    {
      "stateMutability": "payable",
      "type": "fallback"
    },
    {
      "inputs": [
        {
          "internalType": "address",
          "name": "to",
          "type": "address"
        },
        {
          "internalType": "uint256",
          "name": "tokenId",
          "type": "uint256"
        }
      ],
      "name": "approve",
      "outputs": [],
      "stateMutability": "nonpayable",
      "type": "function"
    },
    {
      "inputs": [
        {
          "internalType": "address",
          "name": "owner",
          "type": "address"
        }
      ],
      "name": "balanceOf",
      "outputs": [
        {
          "internalType": "uint256",
          "name": "",
          "type": "uint256"
        }
      ],
      "stateMutability": "view",
      "type": "function"
    },
    {
      "inputs": [
        {
          "internalType": "uint256",
          "name": "",
          "type": "uint256"
        }
      ],
      "name": "deployedERC20List",
      "outputs": [
        {
          "internalType": "address",
          "name": "",
          "type": "address"
        }
      ],
      "stateMutability": "view",
      "type": "function"
    },
    {
      "inputs": [
        {
          "internalType": "uint256",
          "name": "tokenId",
          "type": "uint256"
        }
      ],
      "name": "getApproved",
      "outputs": [
        {
          "internalType": "address",
          "name": "",
          "type": "address"
        }
      ],
      "stateMutability": "view",
      "type": "function"
    },
    {
      "inputs": [
        {
          "internalType": "address",
          "name": "owner",
          "type": "address"
        },
        {
          "internalType": "address",
          "name": "operator",
          "type": "address"
        }
      ],
      "name": "isApprovedForAll",
      "outputs": [
        {
          "internalType": "bool",
          "name": "",
          "type": "bool"
        }
      ],
      "stateMutability": "view",
      "type": "function"
    },
    {
      "inputs": [
        {
          "internalType": "uint256",
          "name": "tokenId",
          "type": "uint256"
        }
      ],
      "name": "ownerOf",
      "outputs": [
        {
          "internalType": "address",
          "name": "",
          "type": "address"
        }
      ],
      "stateMutability": "view",
      "type": "function"
    },
    {
      "inputs": [
        {
          "internalType": "address",
          "name": "from",
          "type": "address"
        },
        {
          "internalType": "address",
          "name": "to",
          "type": "address"
        },
        {
          "internalType": "uint256",
          "name": "tokenId",
          "type": "uint256"
        }
      ],
      "name": "safeTransferFrom",
      "outputs": [],
      "stateMutability": "nonpayable",
      "type": "function"
    },
    {
      "inputs": [
        {
          "internalType": "address",
          "name": "from",
          "type": "address"
        },
        {
          "internalType": "address",
          "name": "to",
          "type": "address"
        },
        {
          "internalType": "uint256",
          "name": "tokenId",
          "type": "uint256"
        },
        {
          "internalType": "bytes",
          "name": "data",
          "type": "bytes"
        }
      ],
      "name": "safeTransferFrom",
      "outputs": [],
      "stateMutability": "nonpayable",
      "type": "function"
    },
    {
      "inputs": [
        {
          "internalType": "address",
          "name": "operator",
          "type": "address"
        },
        {
          "internalType": "bool",
          "name": "approved",
          "type": "bool"
        }
      ],
      "name": "setApprovalForAll",
      "outputs": [],
      "stateMutability": "nonpayable",
      "type": "function"
    },
    {
      "inputs": [
        {
          "internalType": "bytes4",
          "name": "interfaceId",
          "type": "bytes4"
        }
      ],
      "name": "supportsInterface",
      "outputs": [
        {
          "internalType": "bool",
          "name": "",
          "type": "bool"
        }
      ],
      "stateMutability": "view",
      "type": "function"
    },
    {
      "inputs": [
        {
          "internalType": "uint256",
          "name": "tokenId",
          "type": "uint256"
        }
      ],
      "name": "tokenURI",
      "outputs": [
        {
          "internalType": "string",
          "name": "",
          "type": "string"
        }
      ],
      "stateMutability": "view",
      "type": "function"
    },
    {
      "inputs": [
        {
          "internalType": "address",
          "name": "from",
          "type": "address"
        },
        {
          "internalType": "address",
          "name": "to",
          "type": "address"
        },
        {
          "internalType": "uint256",
          "name": "tokenId",
          "type": "uint256"
        }
      ],
      "name": "transferFrom",
      "outputs": [],
      "stateMutability": "nonpayable",
      "type": "function"
    },
    {
      "inputs": [],
      "name": "transferable",
      "outputs": [
        {
          "internalType": "bool",
          "name": "",
          "type": "bool"
        }
      ],
      "stateMutability": "view",
      "type": "function"
    },
    {
      "stateMutability": "payable",
      "type": "receive"
    },
    {
      "inputs": [
        {
          "internalType": "address",
          "name": "owner",
          "type": "address"
        },
        {
          "internalType": "string",
          "name": "name_",
          "type": "string"
        },
        {
          "internalType": "string",
          "name": "symbol_",
          "type": "string"
        },
        {
          "internalType": "address",
          "name": "tokenFactory",
          "type": "address"
        },
        {
          "internalType": "string",
          "name": "tokenURI",
          "type": "string"
        },
        {
          "internalType": "bool",
          "name": "transferable_",
          "type": "bool"
        }
      ],
      "name": "initialize",
      "outputs": [
        {
          "internalType": "bool",
          "name": "",
          "type": "bool"
        }
      ],
      "stateMutability": "nonpayable",
      "type": "function"
    },
    {
      "inputs": [
        {
          "internalType": "uint256",
          "name": "tokenId",
          "type": "uint256"
        },
        {
          "internalType": "string",
          "name": "tokenURI",
          "type": "string"
        }
      ],
      "name": "setTokenURI",
      "outputs": [],
      "stateMutability": "nonpayable",
      "type": "function"
    },
    {
      "inputs": [
        {
          "internalType": "string[]",
          "name": "strings",
          "type": "string[]"
        },
        {
          "internalType": "address[]",
          "name": "addresses",
          "type": "address[]"
        },
        {
          "internalType": "uint256",
          "name": "uints",
          "type": "uint256"
        },
        {
          "internalType": "string",
          "name": "licenseType",
          "type": "string"
        },
        {
          "internalType": "uint256",
          "name": "price",
          "type": "uint256"
        },
        {
          "internalType": "uint256",
          "name": "licensePeriod",
          "type": "uint256"
        }
      ],
      "name": "createERC20",
      "outputs": [
        {
          "internalType": "address",
          "name": "",
          "type": "address"
        }
      ],
      "stateMutability": "nonpayable",
      "type": "function"
    },
    {
      "inputs": [
        {
          "internalType": "address",
          "name": "licenseConsume",
          "type": "address"
        }
      ],
      "name": "requestConsumeNFT",
      "outputs": [
        {
          "internalType": "bool",
          "name": "",
          "type": "bool"
        }
      ],
      "stateMutability": "nonpayable",
      "type": "function"
    },
    {
      "inputs": [
        {
          "internalType": "address",
          "name": "_erc20",
          "type": "address"
        },
        {
          "internalType": "address[]",
          "name": "templateLicenses",
          "type": "address[]"
        },
        {
          "internalType": "address[]",
          "name": "factoryLicenses",
          "type": "address[]"
        }
      ],
      "name": "deleteLicense",
      "outputs": [],
      "stateMutability": "nonpayable",
      "type": "function"
    },
    {
      "inputs": [
        {
          "internalType": "address[]",
          "name": "nftList",
          "type": "address[]"
        }
      ],
      "name": "deleteNft",
      "outputs": [],
      "stateMutability": "nonpayable",
      "type": "function"
    },
    {
      "inputs": [],
      "name": "name",
      "outputs": [
        {
          "internalType": "string",
          "name": "",
          "type": "string"
        }
      ],
      "stateMutability": "view",
      "type": "function"
    },
    {
      "inputs": [],
      "name": "symbol",
      "outputs": [
        {
          "internalType": "string",
          "name": "",
          "type": "string"
        }
      ],
      "stateMutability": "view",
      "type": "function"
    },
    {
      "inputs": [],
      "name": "isInitialized",
      "outputs": [
        {
          "internalType": "bool",
          "name": "",
          "type": "bool"
        }
      ],
      "stateMutability": "view",
      "type": "function"
    },
    {
      "inputs": [],
      "name": "ownerAddress",
      "outputs": [
        {
          "internalType": "address",
          "name": "",
          "type": "address"
        }
      ],
      "stateMutability": "view",
      "type": "function"
    },
    {
      "inputs": [],
      "name": "getTokenUri",
      "outputs": [
        {
          "internalType": "string",
          "name": "",
          "type": "string"
        }
      ],
      "stateMutability": "view",
      "type": "function"
    },
    {
      "inputs": [],
      "name": "getTokensList",
      "outputs": [
        {
          "internalType": "address[]",
          "name": "",
          "type": "address[]"
        }
      ],
      "stateMutability": "view",
      "type": "function"
    },
    {
      "inputs": [
        {
          "internalType": "address",
          "name": "datatoken",
          "type": "address"
        }
      ],
      "name": "isDeployed",
      "outputs": [
        {
          "internalType": "bool",
          "name": "",
          "type": "bool"
        }
      ],
      "stateMutability": "view",
      "type": "function"
    },
    {
      "inputs": [],
      "name": "getFactory",
      "outputs": [
        {
          "internalType": "address",
          "name": "",
          "type": "address"
        }
      ],
      "stateMutability": "view",
      "type": "function"
    }
  ],
  "bytecode": "0x60806040523480156200001157600080fd5b506040518060400160405280600881526020016754656d706c61746560c01b8152506040518060400160405280600e81526020016d15195b5c1b185d1954de5b589bdb60921b81525081600090816200006b91906200012d565b5060016200007a82826200012d565b5050600160065550620001f9565b634e487b7160e01b600052604160045260246000fd5b600181811c90821680620000b357607f821691505b602082108103620000d457634e487b7160e01b600052602260045260246000fd5b50919050565b601f8211156200012857600081815260208120601f850160051c81016020861015620001035750805b601f850160051c820191505b8181101562000124578281556001016200010f565b5050505b505050565b81516001600160401b0381111562000149576200014962000088565b62000161816200015a84546200009e565b84620000da565b602080601f831160018114620001995760008415620001805750858301515b600019600386901b1c1916600185901b17855562000124565b600085815260208120601f198616915b82811015620001ca57888601518255948401946001909101908401620001a9565b5085821015620001e95787850151600019600388901b60f8161c191681555b5050505050600190811b01905550565b612eae80620002096000396000f3fe60806040526004361061018b5760003560e01c80637a69141e116100e0578063a5562fd711610084578063c87b56dd11610061578063c87b56dd146104af578063ccc3b81f146104cf578063e985e9c5146104ef578063f14e6ae51461050f57005b8063a5562fd71461045a578063b88d4fde1461047a578063c395c8af1461049a57005b806390184b02116100bd57806390184b02146103d257806392ff0d311461040b57806395d89b4114610425578063a22cb4651461043a57005b80637a69141e1461037057806388cc58e4146103905780638f84aa09146103ae57005b806323b872dd1161014757806344beb67a1161012457806344beb67a146102e0578063466bca02146103005780636352211e1461032257806370a082311461034257005b806323b872dd14610283578063392e53cd146102a357806342842e0e146102c057005b8063010c7a311461019457806301ffc9a7146101d157806306fdde0314610201578063081812fc14610223578063095ea7b314610243578063162094c41461026357005b3661019257005b005b3480156101a057600080fd5b506101b46101af36600461221f565b61052f565b6040516001600160a01b0390911681526020015b60405180910390f35b3480156101dd57600080fd5b506101f16101ec3660046122e4565b6107c3565b60405190151581526020016101c8565b34801561020d57600080fd5b50610216610815565b6040516101c89190612351565b34801561022f57600080fd5b506101b461023e366004612364565b6108a7565b34801561024f57600080fd5b5061019261025e366004612392565b6108ce565b34801561026f57600080fd5b5061019261027e3660046123be565b6109e3565b34801561028f57600080fd5b5061019261029e366004612404565b610aa1565b3480156102af57600080fd5b50600c54610100900460ff166101f1565b3480156102cc57600080fd5b506101926102db366004612404565b610ad2565b3480156102ec57600080fd5b506101f16102fb366004612494565b610aed565b34801561030c57600080fd5b50610315610c02565b6040516101c891906125a6565b34801561032e57600080fd5b506101b461033d366004612364565b610c63565b34801561034e57600080fd5b5061036261035d3660046125b9565b610cc3565b6040519081526020016101c8565b34801561037c57600080fd5b506101f161038b3660046125b9565b610d49565b34801561039c57600080fd5b506009546001600160a01b03166101b4565b3480156103ba57600080fd5b50600c546201000090046001600160a01b03166101b4565b3480156103de57600080fd5b506101f16103ed3660046125b9565b6001600160a01b03166000908152600b602052604090205460ff1690565b34801561041757600080fd5b50600c546101f19060ff1681565b34801561043157600080fd5b50610216611397565b34801561044657600080fd5b506101926104553660046125d6565b6113a6565b34801561046657600080fd5b50610192610475366004612697565b6113b5565b34801561048657600080fd5b506101926104953660046126cb565b6114c0565b3480156104a657600080fd5b506102166114f8565b3480156104bb57600080fd5b506102166104ca366004612364565b611507565b3480156104db57600080fd5b506101b46104ea366004612364565b61157b565b3480156104fb57600080fd5b506101f161050a36600461274a565b6115a5565b34801561051b57600080fd5b5061019261052a366004612778565b6115d3565b6000610539611708565b6105436001610c63565b6001600160a01b0316336001600160a01b0316146105a85760405162461bcd60e51b815260206004820152601c60248201527f45524337323154656d706c6174653a206e6f74204e46544f776e65720000000060448201526064015b60405180910390fd5b600e54610100900460ff1661060e5760405162461bcd60e51b815260206004820152602660248201527f45524337323154656d706c6174653a204e4f542045524332304445504c4f5945604482015265525f524f4c4560d01b606482015260840161059f565b6009546040516313e52baf60e01b81526000916001600160a01b0316906313e52baf9061064d908d908d908d908d908d908d908d908d90600401612854565b6020604051808303816000875af115801561066c573d6000803e3d6000fd5b505050506040513d601f19601f82011682018060405250810190610690919061292c565b90507f1c9e746a727aed7707a6d74dbdccd9e703362c8e70d7c6b795086976f9730eb88a8a60008181106106c6576106c6612949565b90506020028101906106d8919061295f565b8c8c60018181106106eb576106eb612949565b90506020028101906106fd919061295f565b8c8c600081811061071057610710612949565b905060200201602081019061072591906125b9565b8b8b8b8960405161073e999897969594939291906129a5565b60405180910390a16001600160a01b0381166000818152600b60205260408120805460ff19166001908117909155600a805491820181559091527fc65a7bb8d6351c1cf70c95a316cc6a92839c986682d98bc35f958f4883f9d2a80180546001600160a01b031916909117905590506107b76001600655565b98975050505050505050565b60006001600160e01b031982166380ac58cd60e01b14806107f457506001600160e01b03198216635b5e139f60e01b145b8061080f57506301ffc9a760e01b6001600160e01b03198316145b92915050565b60606007805461082490612a18565b80601f016020809104026020016040519081016040528092919081815260200182805461085090612a18565b801561089d5780601f106108725761010080835404028352916020019161089d565b820191906000526020600020905b81548152906001019060200180831161088057829003601f168201915b5050505050905090565b60006108b282611761565b506000908152600460205260409020546001600160a01b031690565b60006108d982610c63565b9050806001600160a01b0316836001600160a01b0316036109465760405162461bcd60e51b815260206004820152602160248201527f4552433732313a20617070726f76616c20746f2063757272656e74206f776e656044820152603960f91b606482015260840161059f565b336001600160a01b0382161480610962575061096281336115a5565b6109d45760405162461bcd60e51b815260206004820152603d60248201527f4552433732313a20617070726f76652063616c6c6572206973206e6f7420746f60448201527f6b656e206f776e6572206f7220617070726f76656420666f7220616c6c000000606482015260840161059f565b6109de83836117c3565b505050565b6109ec82610c63565b6001600160a01b0316336001600160a01b031614610a4c5760405162461bcd60e51b815260206004820152601c60248201527f45524337323154656d706c6174653a206e6f74204e46544f776e657200000000604482015260640161059f565b610a568282611831565b336001600160a01b03167f6de6cd3982065cbd31e789e3109106f4d76d1c8a46e85262045cf947fb3fd4ed82844243604051610a959493929190612a52565b60405180910390a25050565b610aab33826118b8565b610ac75760405162461bcd60e51b815260040161059f90612a81565b6109de838383611917565b6109de838383604051806020016040528060008152506114c0565b600c54600090610100900460ff1615610b535760405162461bcd60e51b815260206004820152602260248201527f546f6b656e20696e7374616e636520616c726561647920696e697469616c697a604482015261195960f21b606482015260840161059f565b6001600160a01b038916610b795760405162461bcd60e51b815260040161059f90612ace565b6000610bf48a8a8a8080601f01602080910402602001604051908101604052809392919081815260200183838082843760009201919091525050604080516020601f8e018190048102820181019092528c815292508c91508b90819084018382808284376000920191909152508b92508a9150899050611a7b565b9a9950505050505050505050565b6060600a80548060200260200160405190810160405280929190818152602001828054801561089d57602002820191906000526020600020905b81546001600160a01b03168152600190910190602001808311610c3c575050505050905090565b6000818152600260205260408120546001600160a01b03168061080f5760405162461bcd60e51b8152602060048201526018602482015277115490cdcc8c4e881a5b9d985b1a59081d1bdad95b88125160421b604482015260640161059f565b60006001600160a01b038216610d2d5760405162461bcd60e51b815260206004820152602960248201527f4552433732313a2061646472657373207a65726f206973206e6f7420612076616044820152683634b21037bbb732b960b91b606482015260840161059f565b506001600160a01b031660009081526003602052604090205490565b6001600160a01b0381166000908152600b602052604081205460ff161515600114610dc25760405162461bcd60e51b815260206004820152602360248201527f45524337323174656d706c6174653a206c6963656e7365206e6f7420646566696044820152621b995960ea1b606482015260840161059f565b60008290506000816001600160a01b031663dca1c2636040518163ffffffff1660e01b8152600401600060405180830381865afa158015610e07573d6000803e3d6000fd5b505050506040513d6000823e601f3d908101601f19168201604052610e2f9190810190612b1c565b6040516370a0823160e01b81523360048201529091506000906001600160a01b038416906370a0823190602401602060405180830381865afa158015610e79573d6000803e3d6000fd5b505050506040513d601f19601f82011682018060405250810190610e9d9190612b92565b11610f105760405162461bcd60e51b815260206004820152603960248201527f45524337323174656d706c6174653a206e6f206d6f726520746f6b656e20617660448201527f61696c6162696c69747920746f20636f6e73756d65206e667400000000000000606482015260840161059f565b60405164757361676560d81b60208201526025016040516020818303038152906040528051906020012081604051602001610f4b9190612bab565b60405160208183030381529060405280519060200120036110a0576040516323b872dd60e01b815233600482015260006024820152600160448201526001600160a01b038316906323b872dd906064016020604051808303816000875af1158015610fba573d6000803e3d6000fd5b505050506040513d601f19601f82011682018060405250810190610fde9190612bc7565b506040516370a0823160e01b81523360048201527f3a15f5eb1ee77921fafb9163fa62f9230d8f588d408084222eb80781ba1aa03e9060019030906001600160a01b038616906370a0823190602401602060405180830381865afa15801561104a573d6000803e3d6000fd5b505050506040513d601f19601f8201168201806040525081019061106e9190612b92565b6040805193151584526001600160a01b0390921660208401529082015260600160405180910390a15060019392505050565b6000826001600160a01b0316638cdd57ea6040518163ffffffff1660e01b8152600401602060405180830381865afa1580156110e0573d6000803e3d6000fd5b505050506040513d601f19601f820116820180604052508101906111049190612b92565b6111119062278d00612bfa565b60405163e54a451760e01b815233600482015290915081906001600160a01b0385169063e54a451790602401602060405180830381865afa15801561115a573d6000803e3d6000fd5b505050506040513d601f19601f8201168201806040525081019061117e9190612b92565b6111889042612c11565b10156112565760405163e54a451760e01b81523360048201527f6fd7616ee3c2478d92e52ec3a677fb7dc68570f2522b562ff96d83a4c8a11b4b9060019030906001600160a01b0387169063e54a451790602401602060405180830381865afa1580156111f9573d6000803e3d6000fd5b505050506040513d601f19601f8201168201806040525081019061121d9190612b92565b6040805193151584526001600160a01b0390921660208401529082015242606082015260800160405180910390a1506001949350505050565b6040516323b872dd60e01b815233600482015260006024820152600160448201526001600160a01b038416906323b872dd906064016020604051808303816000875af11580156112aa573d6000803e3d6000fd5b505050506040513d601f19601f820116820180604052508101906112ce9190612bc7565b5060405163e54a451760e01b81523360048201527f6fd7616ee3c2478d92e52ec3a677fb7dc68570f2522b562ff96d83a4c8a11b4b9060009030906001600160a01b0387169063e54a451790602401602060405180830381865afa15801561133a573d6000803e3d6000fd5b505050506040513d601f19601f8201168201806040525081019061135e9190612b92565b6040805193151584526001600160a01b0390921660208401529082015242606082015260800160405180910390a1506000949350505050565b60606008805461082490612a18565b6113b1338383611b4b565b5050565b600a54156114055760405162461bcd60e51b815260206004820152601e60248201527f546865726520617265207374696c6c20736f6d65206c6963656e736573210000604482015260640161059f565b600c546201000090046001600160a01b031633146114565760405162461bcd60e51b815260206004820152600e60248201526d4e6f7420746865206f776e65722160901b604482015260640161059f565b600954604051630d6deb4560e21b81526001600160a01b039091169081906335b7ad149061148a9030908690600401612c24565b600060405180830381600087803b1580156114a457600080fd5b505af11580156114b8573d6000803e3d6000fd5b503392505050ff5b6114ca33836118b8565b6114e65760405162461bcd60e51b815260040161059f90612a81565b6114f284848484611c19565b50505050565b6060600d805461082490612a18565b606061151282611761565b600061152960408051602081019091526000815290565b905060008151116115495760405180602001604052806000815250611574565b8061155384611c4c565b604051602001611564929190612c48565b6040516020818303038152906040525b9392505050565b600a818154811061158b57600080fd5b6000918252602090912001546001600160a01b0316905081565b6001600160a01b03918216600090815260056020908152604080832093909416825291909152205460ff1690565b6001600160a01b0383166000908152600b602052604090205460ff1615156001146116265760405162461bcd60e51b8152602060048201526003602482015262444c3160e81b604482015260640161059f565b336001600160a01b038416146116645760405162461bcd60e51b815260206004820152600360248201526222261960e91b604482015260640161059f565b6001600160a01b0383166000908152600b60209081526040909120805460ff19169055825161169991600a919085019061208f565b5060095460405163dadfb85d60e01b81526001600160a01b0390911690819063dadfb85d906116d090879030908790600401612c77565b600060405180830381600087803b1580156116ea57600080fd5b505af11580156116fe573d6000803e3d6000fd5b5050505050505050565b60026006540361175a5760405162461bcd60e51b815260206004820152601f60248201527f5265656e7472616e637947756172643a207265656e7472616e742063616c6c00604482015260640161059f565b6002600655565b6000818152600260205260409020546001600160a01b03166117c05760405162461bcd60e51b8152602060048201526018602482015277115490cdcc8c4e881a5b9d985b1a59081d1bdad95b88125160421b604482015260640161059f565b50565b600081815260046020526040902080546001600160a01b0319166001600160a01b03841690811790915581906117f882610c63565b6001600160a01b03167f8c5be1e5ebec7d5bd14f71427d1e84f3dd0314c0f7b2291e5b200ac8c7c3b92560405160405180910390a45050565b6000828152600260205260409020546001600160a01b03166118ac5760405162461bcd60e51b815260206004820152602e60248201527f45524337323155524953746f726167653a2055524920736574206f66206e6f6e60448201526d32bc34b9ba32b73a103a37b5b2b760911b606482015260840161059f565b600d6109de8282612cf1565b6000806118c483610c63565b9050806001600160a01b0316846001600160a01b031614806118eb57506118eb81856115a5565b8061190f5750836001600160a01b0316611904846108a7565b6001600160a01b0316145b949350505050565b826001600160a01b031661192a82610c63565b6001600160a01b0316146119505760405162461bcd60e51b815260040161059f90612db0565b6001600160a01b0382166119b25760405162461bcd60e51b8152602060048201526024808201527f4552433732313a207472616e7366657220746f20746865207a65726f206164646044820152637265737360e01b606482015260840161059f565b826001600160a01b03166119c582610c63565b6001600160a01b0316146119eb5760405162461bcd60e51b815260040161059f90612db0565b600081815260046020908152604080832080546001600160a01b03199081169091556001600160a01b0387811680865260038552838620805460001901905590871680865283862080546001019055868652600290945282852080549092168417909155905184937fddf252ad1be2c89b69c2b068fc378daa952ba7f163c4a11628f55a4df523b3ef91a4505050565b60006001600160a01b038716611aa35760405162461bcd60e51b815260040161059f90612ace565b6007611aaf8782612cf1565b506008611abc8682612cf1565b50600980546001600160a01b0319166001600160a01b0386811691909117909155600c8054610100610100600160b01b031990911662010000938b1693909302929092179190911760ff1916831515179055611b19876001611cde565b600e805462ffffff191662010101179055611b35600184611831565b5050600c54610100900460ff1695945050505050565b816001600160a01b0316836001600160a01b031603611bac5760405162461bcd60e51b815260206004820152601960248201527f4552433732313a20617070726f766520746f2063616c6c657200000000000000604482015260640161059f565b6001600160a01b03838116600081815260056020908152604080832094871680845294825291829020805460ff191686151590811790915591519182527f17307eab39ab6107e8899845ad3d59bd9653f200f220920489ca2b5937696c31910160405180910390a3505050565b611c24848484611917565b611c3084848484611cf8565b6114f25760405162461bcd60e51b815260040161059f90612df5565b60606000611c5983611df9565b60010190506000816001600160401b03811115611c7857611c78612154565b6040519080825280601f01601f191660200182016040528015611ca2576020820181803683370190505b5090508181016020015b600019016f181899199a1a9b1b9c1cb0b131b232b360811b600a86061a8153600a8504945084611cac57509392505050565b6113b1828260405180602001604052806000815250611ed1565b60006001600160a01b0384163b15611dee57604051630a85bd0160e11b81526001600160a01b0385169063150b7a0290611d3c903390899088908890600401612e47565b6020604051808303816000875af1925050508015611d77575060408051601f3d908101601f19168201909252611d7491810190612e84565b60015b611dd4573d808015611da5576040519150601f19603f3d011682016040523d82523d6000602084013e611daa565b606091505b508051600003611dcc5760405162461bcd60e51b815260040161059f90612df5565b805181602001fd5b6001600160e01b031916630a85bd0160e11b14905061190f565b506001949350505050565b60008072184f03e93ff9f4daa797ed6e38ed64bf6a1f0160401b8310611e385772184f03e93ff9f4daa797ed6e38ed64bf6a1f0160401b830492506040015b6d04ee2d6d415b85acef81000000008310611e64576d04ee2d6d415b85acef8100000000830492506020015b662386f26fc100008310611e8257662386f26fc10000830492506010015b6305f5e1008310611e9a576305f5e100830492506008015b6127108310611eae57612710830492506004015b60648310611ec0576064830492506002015b600a831061080f5760010192915050565b611edb8383611f04565b611ee86000848484611cf8565b6109de5760405162461bcd60e51b815260040161059f90612df5565b6001600160a01b038216611f5a5760405162461bcd60e51b815260206004820181905260248201527f4552433732313a206d696e7420746f20746865207a65726f2061646472657373604482015260640161059f565b6000818152600260205260409020546001600160a01b031615611fbf5760405162461bcd60e51b815260206004820152601c60248201527f4552433732313a20746f6b656e20616c7265616479206d696e74656400000000604482015260640161059f565b6000818152600260205260409020546001600160a01b0316156120245760405162461bcd60e51b815260206004820152601c60248201527f4552433732313a20746f6b656e20616c7265616479206d696e74656400000000604482015260640161059f565b6001600160a01b038216600081815260036020908152604080832080546001019055848352600290915280822080546001600160a01b0319168417905551839291907fddf252ad1be2c89b69c2b068fc378daa952ba7f163c4a11628f55a4df523b3ef908290a45050565b8280548282559060005260206000209081019282156120e4579160200282015b828111156120e457825182546001600160a01b0319166001600160a01b039091161782556020909201916001909101906120af565b506120f09291506120f4565b5090565b5b808211156120f057600081556001016120f5565b60008083601f84011261211b57600080fd5b5081356001600160401b0381111561213257600080fd5b6020830191508360208260051b850101111561214d57600080fd5b9250929050565b634e487b7160e01b600052604160045260246000fd5b604051601f8201601f191681016001600160401b038111828210171561219257612192612154565b604052919050565b60006001600160401b038211156121b3576121b3612154565b50601f01601f191660200190565b60006121d46121cf8461219a565b61216a565b90508281528383830111156121e857600080fd5b828260208301376000602084830101529392505050565b600082601f83011261221057600080fd5b611574838335602085016121c1565b60008060008060008060008060c0898b03121561223b57600080fd5b88356001600160401b038082111561225257600080fd5b61225e8c838d01612109565b909a50985060208b013591508082111561227757600080fd5b6122838c838d01612109565b909850965060408b0135955060608b01359150808211156122a357600080fd5b506122b08b828c016121ff565b9350506080890135915060a089013590509295985092959890939650565b6001600160e01b0319811681146117c057600080fd5b6000602082840312156122f657600080fd5b8135611574816122ce565b60005b8381101561231c578181015183820152602001612304565b50506000910152565b6000815180845261233d816020860160208601612301565b601f01601f19169290920160200192915050565b6020815260006115746020830184612325565b60006020828403121561237657600080fd5b5035919050565b6001600160a01b03811681146117c057600080fd5b600080604083850312156123a557600080fd5b82356123b08161237d565b946020939093013593505050565b600080604083850312156123d157600080fd5b8235915060208301356001600160401b038111156123ee57600080fd5b6123fa858286016121ff565b9150509250929050565b60008060006060848603121561241957600080fd5b83356124248161237d565b925060208401356124348161237d565b929592945050506040919091013590565b60008083601f84011261245757600080fd5b5081356001600160401b0381111561246e57600080fd5b60208301915083602082850101111561214d57600080fd5b80151581146117c057600080fd5b60008060008060008060008060c0898b0312156124b057600080fd5b88356124bb8161237d565b975060208901356001600160401b03808211156124d757600080fd5b6124e38c838d01612445565b909950975060408b01359150808211156124fc57600080fd5b6125088c838d01612445565b909750955060608b0135915061251d8261237d565b90935060808a0135908082111561253357600080fd5b506125408b828c016121ff565b92505060a089013561255181612486565b809150509295985092959890939650565b600081518084526020808501945080840160005b8381101561259b5781516001600160a01b031687529582019590820190600101612576565b509495945050505050565b6020815260006115746020830184612562565b6000602082840312156125cb57600080fd5b81356115748161237d565b600080604083850312156125e957600080fd5b82356125f48161237d565b9150602083013561260481612486565b809150509250929050565b600082601f83011261262057600080fd5b813560206001600160401b0382111561263b5761263b612154565b8160051b61264a82820161216a565b928352848101820192828101908785111561266457600080fd5b83870192505b8483101561268c57823561267d8161237d565b8252918301919083019061266a565b979650505050505050565b6000602082840312156126a957600080fd5b81356001600160401b038111156126bf57600080fd5b61190f8482850161260f565b600080600080608085870312156126e157600080fd5b84356126ec8161237d565b935060208501356126fc8161237d565b92506040850135915060608501356001600160401b0381111561271e57600080fd5b8501601f8101871361272f57600080fd5b61273e878235602084016121c1565b91505092959194509250565b6000806040838503121561275d57600080fd5b82356127688161237d565b915060208301356126048161237d565b60008060006060848603121561278d57600080fd5b83356127988161237d565b925060208401356001600160401b03808211156127b457600080fd5b6127c08783880161260f565b935060408601359150808211156127d657600080fd5b506127e38682870161260f565b9150509250925092565b81835281816020850137506000828201602090810191909152601f909101601f19169091010190565b8183526000602080850194508260005b8581101561259b5781356128398161237d565b6001600160a01b031687529582019590820190600101612826565b60c08082528101889052600060e060058a901b830181019083018b835b8c8110156128e45785840360df190183528135368f9003601e1901811261289757600080fd5b8e0160208181019135906001600160401b038211156128b557600080fd5b8136038313156128c457600080fd5b6128cf8783856127ed565b96509485019493909301925050600101612871565b50505082810360208401526128fa81898b612816565b905086604084015282810360608401526129148187612325565b6080840195909552505060a001529695505050505050565b60006020828403121561293e57600080fd5b81516115748161237d565b634e487b7160e01b600052603260045260246000fd5b6000808335601e1984360301811261297657600080fd5b8301803591506001600160401b0382111561299057600080fd5b60200191503681900382131561214d57600080fd5b60e0815260006129b960e083018b8d6127ed565b82810360208401526129cc818a8c6127ed565b6001600160a01b0389811660408601526060850189905284820360808601529091506129f88288612325565b92508560a085015280851660c085015250509a9950505050505050505050565b600181811c90821680612a2c57607f821691505b602082108103612a4c57634e487b7160e01b600052602260045260246000fd5b50919050565b608081526000612a656080830187612325565b6020830195909552506040810192909252606090910152919050565b6020808252602d908201527f4552433732313a2063616c6c6572206973206e6f7420746f6b656e206f776e6560408201526c1c881bdc88185c1c1c9bdd9959609a1b606082015260800190565b6020808252602e908201527f45524337323154656d706c6174653a3a20496e76616c6964206d696e7465722c60408201526d20207a65726f206164647265737360901b606082015260800190565b600060208284031215612b2e57600080fd5b81516001600160401b03811115612b4457600080fd5b8201601f81018413612b5557600080fd5b8051612b636121cf8261219a565b818152856020838501011115612b7857600080fd5b612b89826020830160208601612301565b95945050505050565b600060208284031215612ba457600080fd5b5051919050565b60008251612bbd818460208701612301565b9190910192915050565b600060208284031215612bd957600080fd5b815161157481612486565b634e487b7160e01b600052601160045260246000fd5b808202811582820484141761080f5761080f612be4565b8181038181111561080f5761080f612be4565b6001600160a01b038316815260406020820181905260009061190f90830184612562565b60008351612c5a818460208801612301565b835190830190612c6e818360208801612301565b01949350505050565b6001600160a01b03848116825283166020820152606060408201819052600090612b8990830184612562565b601f8211156109de57600081815260208120601f850160051c81016020861015612cca5750805b601f850160051c820191505b81811015612ce957828155600101612cd6565b505050505050565b81516001600160401b03811115612d0a57612d0a612154565b612d1e81612d188454612a18565b84612ca3565b602080601f831160018114612d535760008415612d3b5750858301515b600019600386901b1c1916600185901b178555612ce9565b600085815260208120601f198616915b82811015612d8257888601518255948401946001909101908401612d63565b5085821015612da05787850151600019600388901b60f8161c191681555b5050505050600190811b01905550565b60208082526025908201527f4552433732313a207472616e736665722066726f6d20696e636f72726563742060408201526437bbb732b960d91b606082015260800190565b60208082526032908201527f4552433732313a207472616e7366657220746f206e6f6e20455243373231526560408201527131b2b4bb32b91034b6b83632b6b2b73a32b960711b606082015260800190565b6001600160a01b0385811682528416602082015260408101839052608060608201819052600090612e7a90830184612325565b9695505050505050565b600060208284031215612e9657600080fd5b8151611574816122ce56fea164736f6c6343000813000a",
  "immutableReferences": {},
  "source": "// SPDX-License-Identifier: MIT\r\npragma solidity >=0.4.22 <0.9.0;\r\n\r\nimport \"@openzeppelin/contracts/token/ERC721/ERC721.sol\";\r\nimport \"@openzeppelin/contracts/token/ERC721/extensions/ERC721URIStorage.sol\";\r\nimport \"@openzeppelin/contracts/utils/Create2.sol\";\r\nimport \"@openzeppelin/contracts/security/ReentrancyGuard.sol\";\r\nimport \"./FactoryERC721.sol\";\r\nimport \"./ERC20template.sol\";\r\n\r\ncontract ERC721template is\r\n    ERC721(\"Template\", \"TemplateSymbol\"),\r\n    ReentrancyGuard\r\n{\r\n    string private _name;\r\n    string private _symbol;\r\n    address private _tokenFactory;\r\n    address[] public deployedERC20List;\r\n    mapping(address => bool) private deployedERC20;\r\n    bool public transferable;\r\n    bool private _initialized;\r\n    address private _owner;\r\n    string private _tokenURI; //imported from an other oceanprotocol contract\r\n\r\n    struct permissions {\r\n        bool updateMetadata;\r\n        bool deployERC20;\r\n        bool store;\r\n    }\r\n\r\n    permissions private _ownerPermission;\r\n\r\n    event TokenURIUpdate(\r\n        address indexed updatedBy,\r\n        string tokenURI,\r\n        uint256 tokenID,\r\n        uint256 timestamp,\r\n        uint256 blockNumber\r\n    );\r\n\r\n    event licenseERC20Created(\r\n        string nameT,\r\n        string symbolT,\r\n        address owner,\r\n        uint256 cap,\r\n        string licenseType,\r\n        uint256 price,\r\n        address licenseErc20\r\n    );\r\n    event nftConsumedPeriod(\r\n        bool result,\r\n        address nft,\r\n        uint startDate,\r\n        uint todayDate\r\n    );\r\n    event nftConsumedUsage(bool result, address nft, uint usageRemain);\r\n\r\n    modifier onlyNFTOwner() {\r\n        require(msg.sender == ownerOf(1), \"ERC721Template: not NFTOwner\");\r\n        _;\r\n    }\r\n\r\n    //create the NFT\r\n    //At the moment we consider that the owner of a dataset/model CAN'T give his right on NFT to someone else\r\n    function initialize(\r\n        address owner,\r\n        string calldata name_,\r\n        string calldata symbol_,\r\n        address tokenFactory,\r\n        string memory tokenURI,\r\n        bool transferable_\r\n    ) external returns (bool) {\r\n        require(!_initialized, \"Token instance already initialized\");\r\n        require(\r\n            owner != address(0),\r\n            \"ERC721Template:: Invalid minter,  zero address\"\r\n        );\r\n        bool initResult = _initialize(\r\n            owner,\r\n            name_,\r\n            symbol_,\r\n            tokenFactory,\r\n            tokenURI,\r\n            transferable_\r\n        );\r\n        return (initResult);\r\n    }\r\n\r\n    /**\r\n     * @dev _initialize\r\n     *      Calls private _initialize function. Only if contract is not initialized.\r\n     *       This function mints an NFT (tokenId=1) to the owner\r\n     *       and add owner as Manager Role (Roles admin)\r\n     * @param owner NFT Owner\r\n     * @param name_ NFT name\r\n     * @param symbol_ NFT Symbol\r\n     * @param tokenFactory NFT factory address\r\n     * @param tokenURI tokenURI for token 1\r\n     \r\n     @return boolean\r\n     */\r\n\r\n    function _initialize(\r\n        address owner,\r\n        string memory name_,\r\n        string memory symbol_,\r\n        address tokenFactory,\r\n        string memory tokenURI,\r\n        bool transferable_\r\n    ) internal returns (bool) {\r\n        require(\r\n            owner != address(0),\r\n            \"ERC721Template:: Invalid minter,  zero address\"\r\n        );\r\n\r\n        _name = name_;\r\n        _symbol = symbol_;\r\n        _tokenFactory = tokenFactory;\r\n        _initialized = true;\r\n        _owner = owner;\r\n        //hasMetaData = false;\r\n        transferable = transferable_;\r\n        _safeMint(owner, 1);\r\n        //_addManager(owner);\r\n\r\n        // we add the nft owner to all other roles (so that doesn't need to make multiple transactions)\r\n        //Roles storage user = permissions[owner];\r\n        _ownerPermission.updateMetadata = true;\r\n        _ownerPermission.deployERC20 = true;\r\n        _ownerPermission.store = true;\r\n        // no need to push to auth since it has been already added in _addManager()\r\n        _setTokenURI(1, tokenURI); //this function is implemented inside other contracts custom of OceanProtocol\r\n\r\n        return _initialized;\r\n    }\r\n\r\n    function _setTokenURI(\r\n        uint256 tokenId,\r\n        string memory tokenURI\r\n    ) internal virtual {\r\n        require(\r\n            _exists(tokenId),\r\n            \"ERC721URIStorage: URI set of nonexistent token\"\r\n        );\r\n        _tokenURI = tokenURI;\r\n    }\r\n\r\n    function setTokenURI(uint256 tokenId, string memory tokenURI) public {\r\n        require(msg.sender == ownerOf(tokenId), \"ERC721Template: not NFTOwner\");\r\n        _setTokenURI(tokenId, tokenURI);\r\n        emit TokenURIUpdate(\r\n            msg.sender,\r\n            tokenURI,\r\n            tokenId,\r\n            /* solium-disable-next-line */\r\n            block.timestamp,\r\n            block.number\r\n        );\r\n    }\r\n\r\n    /**\r\n     * @dev createERC20\r\n     *        ONLY user with deployERC20 permission (assigned by Manager) can call it\r\n             Creates a new ERC20 datatoken.\r\n            It also adds initial minting and fee management permissions to custom users.\r\n     * @param strings refers to an array of strings\r\n     *                      [0] = name\r\n     *                      [1] = symbol\r\n     * @param addresses refers to an array of addresses\r\n     *                     [0]  = minter account who can mint datatokens (can have multiple minters)\r\n     *                     [1]  = publishing Market Address\r\n     *                     [2]  = publishing Market Fee Token\r\n     * @param uints  refers to cap_ the total ERC20 cap\r\n     *                     Currently not used, usefull for future templates\r\n     * @param licenseType refers on license type:\r\n     *                      - usage;\r\n     *                      - periodic;\r\n     @return ERC20 token address\r\n     */\r\n\r\n    //NFT owner is the only one who can generate erc20 contract\r\n\r\n    function createERC20(\r\n        string[] calldata strings,\r\n        address[] calldata addresses,\r\n        uint256 uints,\r\n        string memory licenseType,\r\n        uint256 price,\r\n        uint256 licensePeriod\r\n    ) external nonReentrant onlyNFTOwner returns (address) {\r\n        require(\r\n            _ownerPermission.deployERC20,\r\n            \"ERC721Template: NOT ERC20DEPLOYER_ROLE\"\r\n        );\r\n\r\n        address token = FactoryERC721(_tokenFactory).createToken(\r\n            strings,\r\n            addresses,\r\n            uints,\r\n            licenseType,\r\n            price,\r\n            licensePeriod\r\n        );\r\n\r\n        emit licenseERC20Created(\r\n            strings[0],\r\n            strings[1],\r\n            addresses[0],\r\n            uints,\r\n            licenseType,\r\n            price,\r\n            token\r\n        );\r\n        deployedERC20[token] = true;\r\n\r\n        deployedERC20List.push(token);\r\n        return token;\r\n    }\r\n\r\n    //User want to consume nft, but we need to check his license subscription\r\n\r\n    function requestConsumeNFT(address licenseConsume) public returns (bool) {\r\n        require(\r\n            deployedERC20[licenseConsume] == true,\r\n            \"ERC721template: license not defined\"\r\n        );\r\n        ERC20template license = ERC20template(payable(licenseConsume));\r\n        string memory licensetype = license.getlicenseType();\r\n        require(\r\n            license.balanceOf(msg.sender) > 0,\r\n            \"ERC721template: no more token availability to consume nft\"\r\n        );\r\n        if (\r\n            keccak256(abi.encodePacked((licensetype))) ==\r\n            keccak256(abi.encodePacked((\"usage\")))\r\n        ) {\r\n            //at the moment we are saying the usage is happening now, but it will happen next\r\n            license.transferFrom(msg.sender, address(0), 1);\r\n            emit nftConsumedUsage(\r\n                true,\r\n                address(this),\r\n                license.balanceOf(msg.sender)\r\n            );\r\n            return true;\r\n        } else {\r\n            uint256 totalDays = license.getLicensePeriod() * 30 days;\r\n            if (\r\n                block.timestamp - license.getStartLicenseDate(msg.sender) <\r\n                totalDays\r\n            ) {\r\n                emit nftConsumedPeriod(\r\n                    true,\r\n                    address(this),\r\n                    license.getStartLicenseDate(msg.sender),\r\n                    block.timestamp\r\n                );\r\n                return true;\r\n            } else {\r\n                //bruciamo il datatoken. non trasferiamo al proprietario\r\n                license.transferFrom(msg.sender, address(0), 1);\r\n                emit nftConsumedPeriod(\r\n                    false,\r\n                    address(this),\r\n                    license.getStartLicenseDate(msg.sender),\r\n                    block.timestamp\r\n                );\r\n                return false;\r\n            }\r\n        }\r\n    }\r\n\r\n    function deleteLicense(address _erc20, address[] memory templateLicenses, address[] memory factoryLicenses) external {\r\n        require(deployedERC20[_erc20] == true, \"DL1\");\r\n        require(msg.sender == _erc20, \"DL2\");\r\n        deployedERC20[_erc20] = false;\r\n        deployedERC20List = templateLicenses;\r\n        FactoryERC721 factory = FactoryERC721(payable(_tokenFactory));\r\n        factory.deleteLicense(_erc20, address(this), factoryLicenses);\r\n    }\r\n\r\n    function deleteNft(address[] memory nftList) external {\r\n        require(deployedERC20List.length == 0, \"There are still some licenses!\");\r\n        require(_owner == msg.sender, \"Not the owner!\");\r\n        FactoryERC721 factory = FactoryERC721(payable(_tokenFactory));\r\n        factory.deleteNFT(address(this), nftList);\r\n        selfdestruct(payable(msg.sender));\r\n    }\r\n\r\n\r\n    /**\r\n     * @dev name\r\n     *      It returns the token name.\r\n     * @return Datatoken name.\r\n     */\r\n    function name() public view override returns (string memory) {\r\n        return _name;\r\n    }\r\n\r\n    /**\r\n     * @dev symbol\r\n     *      It returns the token symbol.\r\n     * @return Datatoken symbol.\r\n     */\r\n    function symbol() public view override returns (string memory) {\r\n        return _symbol;\r\n    }\r\n\r\n    /**\r\n     * @dev isInitialized\r\n     *      It checks whether the contract is initialized.\r\n     * @return true if the contract is initialized.\r\n     */\r\n\r\n    function isInitialized() external view returns (bool) {\r\n        return _initialized;\r\n    }\r\n\r\n    function ownerAddress() external view returns (address) {\r\n        return _owner;\r\n    }\r\n\r\n    function getTokenUri() external view returns (string memory) {\r\n        return _tokenURI;\r\n    }\r\n\r\n    /**\r\n     * @dev fallback function\r\n     *      this is a default fallback function in which receives\r\n     *      the collected ether.\r\n     */\r\n    fallback() external payable {}\r\n\r\n    /**\r\n     * @dev receive function\r\n     *      this is a default receive function in which receives\r\n     *      the collected ether.\r\n     */\r\n    receive() external payable {}\r\n\r\n    function getTokensList() external view returns (address[] memory) {\r\n        return deployedERC20List;\r\n    }\r\n\r\n    function isDeployed(address datatoken) external view returns (bool) {\r\n        return deployedERC20[datatoken];\r\n    }\r\n\r\n    function getFactory() public view returns (address) {\r\n        return _tokenFactory;\r\n    }\r\n}\r\n",
  "sourcePath": "C:\\Users\\AlessandroMozzato\\OneDrive - Fondazione LINKS\\Desktop\\Blockchain\\smartcontracts\\contracts\\ERC721template.sol",
  "compiler": {
    "name": "solc",
    "version": "0.8.19+commit.7dd6d404.Emscripten.clang"
  },
  "schemaVersion": "3.4.13",
  "updatedAt": "2023-10-26T08:14:29.882Z",
  "devdoc": {
    "events": {
      "Approval(address,address,uint256)": {
        "details": "Emitted when `owner` enables `approved` to manage the `tokenId` token."
      },
      "ApprovalForAll(address,address,bool)": {
        "details": "Emitted when `owner` enables or disables (`approved`) `operator` to manage all of its assets."
      },
      "Transfer(address,address,uint256)": {
        "details": "Emitted when `tokenId` token is transferred from `from` to `to`."
      }
    },
    "kind": "dev",
    "methods": {
      "approve(address,uint256)": {
        "details": "See {IERC721-approve}."
      },
      "balanceOf(address)": {
        "details": "See {IERC721-balanceOf}."
      },
      "createERC20(string[],address[],uint256,string,uint256,uint256)": {
        "details": "createERC20        ONLY user with deployERC20 permission (assigned by Manager) can call it Creates a new ERC20 datatoken. It also adds initial minting and fee management permissions to custom users.",
        "params": {
          "addresses": "refers to an array of addresses                     [0]  = minter account who can mint datatokens (can have multiple minters)                     [1]  = publishing Market Address                     [2]  = publishing Market Fee Token",
          "licenseType": "refers on license type:                      - usage;                      - periodic;",
          "strings": "refers to an array of strings                      [0] = name                      [1] = symbol",
          "uints": "refers to cap_ the total ERC20 cap                     Currently not used, usefull for future templates"
        },
        "returns": {
          "_0": "ERC20 token address"
        }
      },
      "getApproved(uint256)": {
        "details": "See {IERC721-getApproved}."
      },
      "isApprovedForAll(address,address)": {
        "details": "See {IERC721-isApprovedForAll}."
      },
      "isInitialized()": {
        "details": "isInitialized      It checks whether the contract is initialized.",
        "returns": {
          "_0": "true if the contract is initialized."
        }
      },
      "name()": {
        "details": "name      It returns the token name.",
        "returns": {
          "_0": "Datatoken name."
        }
      },
      "ownerOf(uint256)": {
        "details": "See {IERC721-ownerOf}."
      },
      "safeTransferFrom(address,address,uint256)": {
        "details": "See {IERC721-safeTransferFrom}."
      },
      "safeTransferFrom(address,address,uint256,bytes)": {
        "details": "See {IERC721-safeTransferFrom}."
      },
      "setApprovalForAll(address,bool)": {
        "details": "See {IERC721-setApprovalForAll}."
      },
      "supportsInterface(bytes4)": {
        "details": "See {IERC165-supportsInterface}."
      },
      "symbol()": {
        "details": "symbol      It returns the token symbol.",
        "returns": {
          "_0": "Datatoken symbol."
        }
      },
      "tokenURI(uint256)": {
        "details": "See {IERC721Metadata-tokenURI}."
      },
      "transferFrom(address,address,uint256)": {
        "details": "See {IERC721-transferFrom}."
      }
    },
    "version": 1
  },
  "userdoc": {
    "kind": "user",
    "methods": {},
    "version": 1
  }
}