{
  "contractName": "FactoryERC721",
  "abi": [
    {
      "inputs": [
        {
          "internalType": "address payable",
          "name": "_datacellarToken",
          "type": "address"
        }
      ],
      "stateMutability": "nonpayable",
      "type": "constructor"
    },
    {
      "inputs": [],
      "name": "datacellarToken",
      "outputs": [
        {
          "internalType": "contract DataCellarToken",
          "name": "",
          "type": "address"
        }
      ],
      "stateMutability": "view",
      "type": "function",
      "constant": true
    },
    {
      "inputs": [
        {
          "internalType": "address",
          "name": "",
          "type": "address"
        }
      ],
      "name": "erc20List",
      "outputs": [
        {
          "internalType": "bool",
          "name": "",
          "type": "bool"
        }
      ],
      "stateMutability": "view",
      "type": "function",
      "constant": true
    },
    {
      "inputs": [
        {
          "internalType": "address",
          "name": "",
          "type": "address"
        }
      ],
      "name": "erc20listToerc721",
      "outputs": [
        {
          "internalType": "address",
          "name": "",
          "type": "address"
        }
      ],
      "stateMutability": "view",
      "type": "function",
      "constant": true
    },
    {
      "inputs": [
        {
          "internalType": "address",
          "name": "",
          "type": "address"
        }
      ],
      "name": "erc721List",
      "outputs": [
        {
          "internalType": "address",
          "name": "",
          "type": "address"
        }
      ],
      "stateMutability": "view",
      "type": "function",
      "constant": true
    },
    {
      "inputs": [
        {
          "internalType": "uint256",
          "name": "",
          "type": "uint256"
        }
      ],
      "name": "erc721array",
      "outputs": [
        {
          "internalType": "address",
          "name": "",
          "type": "address"
        }
      ],
      "stateMutability": "view",
      "type": "function",
      "constant": true
    },
    {
      "inputs": [
        {
          "internalType": "address",
          "name": "",
          "type": "address"
        },
        {
          "internalType": "uint256",
          "name": "",
          "type": "uint256"
        }
      ],
      "name": "erc721licenses",
      "outputs": [
        {
          "internalType": "address",
          "name": "",
          "type": "address"
        }
      ],
      "stateMutability": "view",
      "type": "function",
      "constant": true
    },
    {
      "inputs": [],
      "name": "paymentManager",
      "outputs": [
        {
          "internalType": "contract ManagementPayment",
          "name": "",
          "type": "address"
        }
      ],
      "stateMutability": "view",
      "type": "function",
      "constant": true
    },
    {
      "inputs": [
        {
          "internalType": "string",
          "name": "name_",
          "type": "string"
        },
        {
          "internalType": "string",
          "name": "symbol_",
          "type": "string"
        },
        {
          "internalType": "string",
          "name": "tokenURI",
          "type": "string"
        },
        {
          "internalType": "bool",
          "name": "transferable_",
          "type": "bool"
        }
      ],
      "name": "ERC721deploy",
      "outputs": [
        {
          "internalType": "address",
          "name": "",
          "type": "address"
        }
      ],
      "stateMutability": "nonpayable",
      "type": "function"
    },
    {
      "inputs": [
        {
          "internalType": "address",
          "name": "_erc20",
          "type": "address"
        },
        {
          "internalType": "address",
          "name": "_erc721",
          "type": "address"
        },
        {
          "internalType": "address[]",
          "name": "licenses",
          "type": "address[]"
        }
      ],
      "name": "deleteLicense",
      "outputs": [],
      "stateMutability": "nonpayable",
      "type": "function"
    },
    {
      "inputs": [
        {
          "internalType": "address",
          "name": "_erc721",
          "type": "address"
        },
        {
          "internalType": "address[]",
          "name": "nftList",
          "type": "address[]"
        }
      ],
      "name": "deleteNFT",
      "outputs": [],
      "stateMutability": "nonpayable",
      "type": "function"
    },
    {
      "inputs": [],
      "name": "geterc721array",
      "outputs": [
        {
          "internalType": "address[]",
          "name": "",
          "type": "address[]"
        }
      ],
      "stateMutability": "view",
      "type": "function",
      "constant": true
    },
    {
      "inputs": [
        {
          "internalType": "address",
          "name": "_erc721Addr",
          "type": "address"
        }
      ],
      "name": "geterc20array",
      "outputs": [
        {
          "internalType": "address[]",
          "name": "",
          "type": "address[]"
        }
      ],
      "stateMutability": "view",
      "type": "function",
      "constant": true
    },
    {
      "inputs": [
        {
          "internalType": "string[]",
          "name": "strings",
          "type": "string[]"
        },
        {
          "internalType": "address[]",
          "name": "addresses",
          "type": "address[]"
        },
        {
          "internalType": "uint256",
          "name": "uints",
          "type": "uint256"
        },
        {
          "internalType": "string",
          "name": "licenseType",
          "type": "string"
        },
        {
          "internalType": "uint256",
          "name": "price",
          "type": "uint256"
        },
        {
          "internalType": "uint256",
          "name": "licensePeriod",
          "type": "uint256"
        }
      ],
      "name": "createToken",
      "outputs": [
        {
          "internalType": "address",
          "name": "token",
          "type": "address"
        }
      ],
      "stateMutability": "nonpayable",
      "type": "function"
    },
    {
      "inputs": [
        {
          "internalType": "address",
          "name": "_nft",
          "type": "address"
        },
        {
          "internalType": "address",
          "name": "_erc20license",
          "type": "address"
        }
      ],
      "name": "buyNFTlicensePeriod",
      "outputs": [],
      "stateMutability": "nonpayable",
      "type": "function"
    },
    {
      "inputs": [
        {
          "internalType": "address",
          "name": "_nft",
          "type": "address"
        },
        {
          "internalType": "address",
          "name": "_erc20license",
          "type": "address"
        },
        {
          "internalType": "uint256",
          "name": "_usage",
          "type": "uint256"
        }
      ],
      "name": "buyNFTlicenseUsage",
      "outputs": [],
      "stateMutability": "nonpayable",
      "type": "function"
    }
  ],
  "bytecode": "0x608060405234801561001057600080fd5b5060405162007afa38038062007afa833981016040819052610031916100c0565b600080546001600160a01b031916331790556040518190610051906100b2565b6001600160a01b039091168152602001604051809103906000f08015801561007d573d6000803e3d6000fd5b50600580546001600160a01b039283166001600160a01b031991821617909155600480549390921692169190911790556100f0565b611a4a80620060b083390190565b6000602082840312156100d257600080fd5b81516001600160a01b03811681146100e957600080fd5b9392505050565b615fb080620001006000396000f3fe60806040523480156200001157600080fd5b5060043610620001095760003560e01c80635ea84c4011620000a35780637c4aa084116200006e5780637c4aa08414620002805780638f818c7a1462000297578063aee1fe4914620002a1578063dadfb85d14620002b557600080fd5b80635ea84c4014620002125780636c72b9ce146200022957806372f670f014620002405780637351ce97146200026c57600080fd5b806321a84c5111620000e457806321a84c511462000185578063226e7615146200019e57806335b7ad1414620001d55780635aecc4a814620001ec57600080fd5b806310d8f02b146200010e57806313e52baf14620001575780631415ac6c146200016e575b600080fd5b6200013a6200011f36600462000b5e565b6007602052600090815260409020546001600160a01b031681565b6040516001600160a01b0390911681526020015b60405180910390f35b6200013a6200016836600462000cf5565b620002cc565b6200013a6200017f36600462000e16565b62000310565b6200019c6200019636600462000e45565b62000349565b005b620001c4620001af36600462000b5e565b60036020526000908152604090205460ff1681565b60405190151581526020016200014e565b6200019c620001e636600462000e8b565b62000494565b62000203620001fd36600462000b5e565b620004fa565b6040516200014e919062000f27565b6200013a6200022336600462000f97565b62000572565b6200013a6200023a3660046200104a565b620006e9565b6200013a6200025136600462000b5e565b6002602052600090815260409020546001600160a01b031681565b6004546200013a906001600160a01b031681565b6200019c6200029136600462001064565b62000714565b6200020362000853565b6005546200013a906001600160a01b031681565b6200019c620002c6366004620010a2565b620008b7565b3360008181526002602052604081205490916001600160a01b0390911614620002f457600080fd5b620003058787878787873362000928565b979650505050505050565b600860205281600052604060002081815481106200032d57600080fd5b6000918252602090912001546001600160a01b03169150829050565b6001600160a01b03808416600090815260026020526040902054849116620003b85760405162461bcd60e51b815260206004820181905260248201527f466163746f72794552433732313a206e667420646f65736e277420657869737460448201526064015b60405180910390fd5b6001600160a01b0380841660009081526007602052604090205484918691811690821614620003fb5760405162461bcd60e51b8152600401620003af906200110c565b600554604051631c2e6e1760e31b81526001600160a01b0388811660048301528781166024830152336044830152606482018790529091169063e17370b8906084016000604051808303816000875af11580156200045d573d6000803e3d6000fd5b505050506040513d6000823e601f3d908101601f19168201604052620004879190810190620011ca565b5050505050505050505050565b6001600160a01b03821660009081526008602052604090205415620004b857600080fd5b6001600160a01b038216600090815260026020908152604090912080546001600160a01b03191690558151620004f5916006919084019062000aa8565b505050565b6001600160a01b0381166000908152600860209081526040918290208054835181840281018401909452808452606093928301828280156200056657602002820191906000526020600020905b81546001600160a01b0316815260019091019060200180831162000547575b50505050509050919050565b6000336200057f57600080fd5b60006040516200058f9062000b12565b604051809103906000f080158015620005ac573d6000803e3d6000fd5b5090506001600160a01b038116620005c357600080fd5b6001600160a01b038116600081815260026020526040812080546001600160a01b0319169092179091556001805490918291620006029083906200127c565b909155505060405163225f5b3d60e11b81526001600160a01b038216906344beb67a90620006439033908c908c908c908c9030908d908d90600401620012fb565b6020604051808303816000875af115801562000663573d6000803e3d6000fd5b505050506040513d601f19601f820116820180604052508101906200068991906200136c565b6200069357600080fd5b600680546001810182556000919091527ff652222313e28459528d920b65115c16c04f3efc82aaedc97be59f3f377c0d3f0180546001600160a01b0319166001600160a01b038316179055979650505050505050565b60068181548110620006fa57600080fd5b6000918252602090912001546001600160a01b0316905081565b6001600160a01b038083166000908152600260205260409020548391166200077f5760405162461bcd60e51b815260206004820181905260248201527f466163746f72794552433732313a206e667420646f65736e27742065786973746044820152606401620003af565b6001600160a01b0380831660009081526007602052604090205483918591811690821614620007c25760405162461bcd60e51b8152600401620003af906200110c565b600554604051634a9c82ed60e01b81526001600160a01b038781166004830152868116602483015233604483015290911690634a9c82ed906064016000604051808303816000875af11580156200081d573d6000803e3d6000fd5b505050506040513d6000823e601f3d908101601f19168201604052620008479190810190620011ca565b50505050505050505050565b60606006805480602002602001604051908101604052809291908181526020018280548015620008ad57602002820191906000526020600020905b81546001600160a01b031681526001909101906020018083116200088e575b5050505050905090565b336001600160a01b03831614620008cd57600080fd5b6001600160a01b038084166000908152600360209081526040808320805460ff191690556007825280832080546001600160a01b03191690559285168252600881529190208251620009229284019062000aa8565b50505050565b6000856000036200093857600080fd5b6000604051620009489062000b20565b604051809103906000f08015801562000965573d6000803e3d6000fd5b506001600160a01b038082166000818152600360209081526040808320805460ff19166001908117909155600783528184208054968b166001600160a01b0319978816811790915584526008835290832080549182018155835291200180549092168117909155909150620009d957600080fd5b6040805160e0810182528a8152602081018a9052808201899052606081018890526080810187905260a081018690526001600160a01b0380861660c0830152915163370755ab60e01b8152909183169063370755ab9062000a4b908d908d9033908e908e908e908e906004016200138c565b6020604051808303816000875af115801562000a6b573d6000803e3d6000fd5b505050506040513d601f19601f8201168201806040525081019062000a9191906200136c565b62000a9b57600080fd5b5098975050505050505050565b82805482825590600052602060002090810192821562000b00579160200282015b8281111562000b0057825182546001600160a01b0319166001600160a01b0390911617825560209092019160019091019062000ac9565b5062000b0e92915062000b2e565b5090565b6130b7806200144183390190565b611aac80620044f883390190565b5b8082111562000b0e576000815560010162000b2f565b6001600160a01b038116811462000b5b57600080fd5b50565b60006020828403121562000b7157600080fd5b813562000b7e8162000b45565b9392505050565b634e487b7160e01b600052604160045260246000fd5b604051601f8201601f1916810167ffffffffffffffff8111828210171562000bc75762000bc762000b85565b604052919050565b600067ffffffffffffffff82111562000bec5762000bec62000b85565b5060051b60200190565b600067ffffffffffffffff82111562000c135762000c1362000b85565b50601f01601f191660200190565b600082601f83011262000c3357600080fd5b813562000c4a62000c448262000bf6565b62000b9b565b81815284602083860101111562000c6057600080fd5b816020850160208301376000918101602001919091529392505050565b600082601f83011262000c8f57600080fd5b8135602062000ca262000c448362000bcf565b82815260059290921b8401810191818101908684111562000cc257600080fd5b8286015b8481101562000cea57803562000cdc8162000b45565b835291830191830162000cc6565b509695505050505050565b60008060008060008060c0878903121562000d0f57600080fd5b67ffffffffffffffff808835111562000d2757600080fd5b8735880189601f82011262000d3b57600080fd5b8035602062000d4e62000c448362000bcf565b82815260059290921b8301810191818101908d84111562000d6e57600080fd5b8285015b8481101562000da957868135111562000d8a57600080fd5b62000d9b8f85833589010162000c21565b835291830191830162000d72565b509a50508a01359150508181111562000dc157600080fd5b62000dcf8a828b0162000c7d565b9650506040880135945060608801358181111562000dec57600080fd5b62000dfa8a828b0162000c21565b945050506080870135915060a087013590509295509295509295565b6000806040838503121562000e2a57600080fd5b823562000e378162000b45565b946020939093013593505050565b60008060006060848603121562000e5b57600080fd5b833562000e688162000b45565b9250602084013562000e7a8162000b45565b929592945050506040919091013590565b6000806040838503121562000e9f57600080fd5b823562000eac8162000b45565b9150602083013567ffffffffffffffff81111562000ec957600080fd5b62000ed78582860162000c7d565b9150509250929050565b600081518084526020808501945080840160005b8381101562000f1c5781516001600160a01b03168752958201959082019060010162000ef5565b509495945050505050565b60208152600062000b7e602083018462000ee1565b60008083601f84011262000f4f57600080fd5b50813567ffffffffffffffff81111562000f6857600080fd5b60208301915083602082850101111562000f8157600080fd5b9250929050565b801515811462000b5b57600080fd5b6000806000806000806080878903121562000fb157600080fd5b863567ffffffffffffffff8082111562000fca57600080fd5b62000fd88a838b0162000f3c565b9098509650602089013591508082111562000ff257600080fd5b620010008a838b0162000f3c565b909650945060408901359150808211156200101a57600080fd5b506200102989828a0162000c21565b92505060608701356200103c8162000f88565b809150509295509295509295565b6000602082840312156200105d57600080fd5b5035919050565b600080604083850312156200107857600080fd5b8235620010858162000b45565b91506020830135620010978162000b45565b809150509250929050565b600080600060608486031215620010b857600080fd5b8335620010c58162000b45565b92506020840135620010d78162000b45565b9150604084013567ffffffffffffffff811115620010f457600080fd5b620011028682870162000c7d565b9150509250925092565b60208082526024908201527f466163746f72794552433732313a206c6963656e736520646f65736e277420656040820152631e1a5cdd60e21b606082015260800190565b60005b838110156200116d57818101518382015260200162001153565b50506000910152565b600082601f8301126200118857600080fd5b81516200119962000c448262000bf6565b818152846020838601011115620011af57600080fd5b620011c282602083016020870162001150565b949350505050565b600080600080600060a08688031215620011e357600080fd5b855167ffffffffffffffff80821115620011fc57600080fd5b6200120a89838a0162001176565b9650602088015191506200121e8262000b45565b6040880151919550808211156200123457600080fd5b6200124289838a0162001176565b945060608801519150808211156200125957600080fd5b50620012688882890162001176565b925050608086015190509295509295909350565b808201808211156200129e57634e487b7160e01b600052601160045260246000fd5b92915050565b81835281816020850137506000828201602090810191909152601f909101601f19169091010190565b60008151808452620012e781602086016020860162001150565b601f01601f19169290920160200192915050565b600060018060a01b03808b16835260c060208401526200132060c084018a8c620012a4565b83810360408501526200133581898b620012a4565b905081871660608501528381036080850152620013538187620012cd565b9250505082151560a08301529998505050505050505050565b6000602082840312156200137f57600080fd5b815162000b7e8162000f88565b60e08082528851908201819052600090610100600582901b8401810191908401906020808d01855b83811015620013e65760ff19888703018552620013d3868351620012cd565b95509382019390820190600101620013b4565b505085840381870152505050620013fe818a62000ee1565b6001600160a01b038916604085015290508660608401528281036080840152620014298187620012cd565b60a0840195909552505060c001529594505050505056fe60806040523480156200001157600080fd5b506040518060400160405280600881526020016754656d706c61746560c01b8152506040518060400160405280600e81526020016d15195b5c1b185d1954de5b589bdb60921b81525081600090816200006b91906200012d565b5060016200007a82826200012d565b5050600160065550620001f9565b634e487b7160e01b600052604160045260246000fd5b600181811c90821680620000b357607f821691505b602082108103620000d457634e487b7160e01b600052602260045260246000fd5b50919050565b601f8211156200012857600081815260208120601f850160051c81016020861015620001035750805b601f850160051c820191505b8181101562000124578281556001016200010f565b5050505b505050565b81516001600160401b0381111562000149576200014962000088565b62000161816200015a84546200009e565b84620000da565b602080601f831160018114620001995760008415620001805750858301515b600019600386901b1c1916600185901b17855562000124565b600085815260208120601f198616915b82811015620001ca57888601518255948401946001909101908401620001a9565b5085821015620001e95787850151600019600388901b60f8161c191681555b5050505050600190811b01905550565b612eae80620002096000396000f3fe60806040526004361061018b5760003560e01c80637a69141e116100e0578063a5562fd711610084578063c87b56dd11610061578063c87b56dd146104af578063ccc3b81f146104cf578063e985e9c5146104ef578063f14e6ae51461050f57005b8063a5562fd71461045a578063b88d4fde1461047a578063c395c8af1461049a57005b806390184b02116100bd57806390184b02146103d257806392ff0d311461040b57806395d89b4114610425578063a22cb4651461043a57005b80637a69141e1461037057806388cc58e4146103905780638f84aa09146103ae57005b806323b872dd1161014757806344beb67a1161012457806344beb67a146102e0578063466bca02146103005780636352211e1461032257806370a082311461034257005b806323b872dd14610283578063392e53cd146102a357806342842e0e146102c057005b8063010c7a311461019457806301ffc9a7146101d157806306fdde0314610201578063081812fc14610223578063095ea7b314610243578063162094c41461026357005b3661019257005b005b3480156101a057600080fd5b506101b46101af36600461221f565b61052f565b6040516001600160a01b0390911681526020015b60405180910390f35b3480156101dd57600080fd5b506101f16101ec3660046122e4565b6107c3565b60405190151581526020016101c8565b34801561020d57600080fd5b50610216610815565b6040516101c89190612351565b34801561022f57600080fd5b506101b461023e366004612364565b6108a7565b34801561024f57600080fd5b5061019261025e366004612392565b6108ce565b34801561026f57600080fd5b5061019261027e3660046123be565b6109e3565b34801561028f57600080fd5b5061019261029e366004612404565b610aa1565b3480156102af57600080fd5b50600c54610100900460ff166101f1565b3480156102cc57600080fd5b506101926102db366004612404565b610ad2565b3480156102ec57600080fd5b506101f16102fb366004612494565b610aed565b34801561030c57600080fd5b50610315610c02565b6040516101c891906125a6565b34801561032e57600080fd5b506101b461033d366004612364565b610c63565b34801561034e57600080fd5b5061036261035d3660046125b9565b610cc3565b6040519081526020016101c8565b34801561037c57600080fd5b506101f161038b3660046125b9565b610d49565b34801561039c57600080fd5b506009546001600160a01b03166101b4565b3480156103ba57600080fd5b50600c546201000090046001600160a01b03166101b4565b3480156103de57600080fd5b506101f16103ed3660046125b9565b6001600160a01b03166000908152600b602052604090205460ff1690565b34801561041757600080fd5b50600c546101f19060ff1681565b34801561043157600080fd5b50610216611397565b34801561044657600080fd5b506101926104553660046125d6565b6113a6565b34801561046657600080fd5b50610192610475366004612697565b6113b5565b34801561048657600080fd5b506101926104953660046126cb565b6114c0565b3480156104a657600080fd5b506102166114f8565b3480156104bb57600080fd5b506102166104ca366004612364565b611507565b3480156104db57600080fd5b506101b46104ea366004612364565b61157b565b3480156104fb57600080fd5b506101f161050a36600461274a565b6115a5565b34801561051b57600080fd5b5061019261052a366004612778565b6115d3565b6000610539611708565b6105436001610c63565b6001600160a01b0316336001600160a01b0316146105a85760405162461bcd60e51b815260206004820152601c60248201527f45524337323154656d706c6174653a206e6f74204e46544f776e65720000000060448201526064015b60405180910390fd5b600e54610100900460ff1661060e5760405162461bcd60e51b815260206004820152602660248201527f45524337323154656d706c6174653a204e4f542045524332304445504c4f5945604482015265525f524f4c4560d01b606482015260840161059f565b6009546040516313e52baf60e01b81526000916001600160a01b0316906313e52baf9061064d908d908d908d908d908d908d908d908d90600401612854565b6020604051808303816000875af115801561066c573d6000803e3d6000fd5b505050506040513d601f19601f82011682018060405250810190610690919061292c565b90507f1c9e746a727aed7707a6d74dbdccd9e703362c8e70d7c6b795086976f9730eb88a8a60008181106106c6576106c6612949565b90506020028101906106d8919061295f565b8c8c60018181106106eb576106eb612949565b90506020028101906106fd919061295f565b8c8c600081811061071057610710612949565b905060200201602081019061072591906125b9565b8b8b8b8960405161073e999897969594939291906129a5565b60405180910390a16001600160a01b0381166000818152600b60205260408120805460ff19166001908117909155600a805491820181559091527fc65a7bb8d6351c1cf70c95a316cc6a92839c986682d98bc35f958f4883f9d2a80180546001600160a01b031916909117905590506107b76001600655565b98975050505050505050565b60006001600160e01b031982166380ac58cd60e01b14806107f457506001600160e01b03198216635b5e139f60e01b145b8061080f57506301ffc9a760e01b6001600160e01b03198316145b92915050565b60606007805461082490612a18565b80601f016020809104026020016040519081016040528092919081815260200182805461085090612a18565b801561089d5780601f106108725761010080835404028352916020019161089d565b820191906000526020600020905b81548152906001019060200180831161088057829003601f168201915b5050505050905090565b60006108b282611761565b506000908152600460205260409020546001600160a01b031690565b60006108d982610c63565b9050806001600160a01b0316836001600160a01b0316036109465760405162461bcd60e51b815260206004820152602160248201527f4552433732313a20617070726f76616c20746f2063757272656e74206f776e656044820152603960f91b606482015260840161059f565b336001600160a01b0382161480610962575061096281336115a5565b6109d45760405162461bcd60e51b815260206004820152603d60248201527f4552433732313a20617070726f76652063616c6c6572206973206e6f7420746f60448201527f6b656e206f776e6572206f7220617070726f76656420666f7220616c6c000000606482015260840161059f565b6109de83836117c3565b505050565b6109ec82610c63565b6001600160a01b0316336001600160a01b031614610a4c5760405162461bcd60e51b815260206004820152601c60248201527f45524337323154656d706c6174653a206e6f74204e46544f776e657200000000604482015260640161059f565b610a568282611831565b336001600160a01b03167f6de6cd3982065cbd31e789e3109106f4d76d1c8a46e85262045cf947fb3fd4ed82844243604051610a959493929190612a52565b60405180910390a25050565b610aab33826118b8565b610ac75760405162461bcd60e51b815260040161059f90612a81565b6109de838383611917565b6109de838383604051806020016040528060008152506114c0565b600c54600090610100900460ff1615610b535760405162461bcd60e51b815260206004820152602260248201527f546f6b656e20696e7374616e636520616c726561647920696e697469616c697a604482015261195960f21b606482015260840161059f565b6001600160a01b038916610b795760405162461bcd60e51b815260040161059f90612ace565b6000610bf48a8a8a8080601f01602080910402602001604051908101604052809392919081815260200183838082843760009201919091525050604080516020601f8e018190048102820181019092528c815292508c91508b90819084018382808284376000920191909152508b92508a9150899050611a7b565b9a9950505050505050505050565b6060600a80548060200260200160405190810160405280929190818152602001828054801561089d57602002820191906000526020600020905b81546001600160a01b03168152600190910190602001808311610c3c575050505050905090565b6000818152600260205260408120546001600160a01b03168061080f5760405162461bcd60e51b8152602060048201526018602482015277115490cdcc8c4e881a5b9d985b1a59081d1bdad95b88125160421b604482015260640161059f565b60006001600160a01b038216610d2d5760405162461bcd60e51b815260206004820152602960248201527f4552433732313a2061646472657373207a65726f206973206e6f7420612076616044820152683634b21037bbb732b960b91b606482015260840161059f565b506001600160a01b031660009081526003602052604090205490565b6001600160a01b0381166000908152600b602052604081205460ff161515600114610dc25760405162461bcd60e51b815260206004820152602360248201527f45524337323174656d706c6174653a206c6963656e7365206e6f7420646566696044820152621b995960ea1b606482015260840161059f565b60008290506000816001600160a01b031663dca1c2636040518163ffffffff1660e01b8152600401600060405180830381865afa158015610e07573d6000803e3d6000fd5b505050506040513d6000823e601f3d908101601f19168201604052610e2f9190810190612b1c565b6040516370a0823160e01b81523360048201529091506000906001600160a01b038416906370a0823190602401602060405180830381865afa158015610e79573d6000803e3d6000fd5b505050506040513d601f19601f82011682018060405250810190610e9d9190612b92565b11610f105760405162461bcd60e51b815260206004820152603960248201527f45524337323174656d706c6174653a206e6f206d6f726520746f6b656e20617660448201527f61696c6162696c69747920746f20636f6e73756d65206e667400000000000000606482015260840161059f565b60405164757361676560d81b60208201526025016040516020818303038152906040528051906020012081604051602001610f4b9190612bab565b60405160208183030381529060405280519060200120036110a0576040516323b872dd60e01b815233600482015260006024820152600160448201526001600160a01b038316906323b872dd906064016020604051808303816000875af1158015610fba573d6000803e3d6000fd5b505050506040513d601f19601f82011682018060405250810190610fde9190612bc7565b506040516370a0823160e01b81523360048201527f3a15f5eb1ee77921fafb9163fa62f9230d8f588d408084222eb80781ba1aa03e9060019030906001600160a01b038616906370a0823190602401602060405180830381865afa15801561104a573d6000803e3d6000fd5b505050506040513d601f19601f8201168201806040525081019061106e9190612b92565b6040805193151584526001600160a01b0390921660208401529082015260600160405180910390a15060019392505050565b6000826001600160a01b0316638cdd57ea6040518163ffffffff1660e01b8152600401602060405180830381865afa1580156110e0573d6000803e3d6000fd5b505050506040513d601f19601f820116820180604052508101906111049190612b92565b6111119062278d00612bfa565b60405163e54a451760e01b815233600482015290915081906001600160a01b0385169063e54a451790602401602060405180830381865afa15801561115a573d6000803e3d6000fd5b505050506040513d601f19601f8201168201806040525081019061117e9190612b92565b6111889042612c11565b10156112565760405163e54a451760e01b81523360048201527f6fd7616ee3c2478d92e52ec3a677fb7dc68570f2522b562ff96d83a4c8a11b4b9060019030906001600160a01b0387169063e54a451790602401602060405180830381865afa1580156111f9573d6000803e3d6000fd5b505050506040513d601f19601f8201168201806040525081019061121d9190612b92565b6040805193151584526001600160a01b0390921660208401529082015242606082015260800160405180910390a1506001949350505050565b6040516323b872dd60e01b815233600482015260006024820152600160448201526001600160a01b038416906323b872dd906064016020604051808303816000875af11580156112aa573d6000803e3d6000fd5b505050506040513d601f19601f820116820180604052508101906112ce9190612bc7565b5060405163e54a451760e01b81523360048201527f6fd7616ee3c2478d92e52ec3a677fb7dc68570f2522b562ff96d83a4c8a11b4b9060009030906001600160a01b0387169063e54a451790602401602060405180830381865afa15801561133a573d6000803e3d6000fd5b505050506040513d601f19601f8201168201806040525081019061135e9190612b92565b6040805193151584526001600160a01b0390921660208401529082015242606082015260800160405180910390a1506000949350505050565b60606008805461082490612a18565b6113b1338383611b4b565b5050565b600a54156114055760405162461bcd60e51b815260206004820152601e60248201527f546865726520617265207374696c6c20736f6d65206c6963656e736573210000604482015260640161059f565b600c546201000090046001600160a01b031633146114565760405162461bcd60e51b815260206004820152600e60248201526d4e6f7420746865206f776e65722160901b604482015260640161059f565b600954604051630d6deb4560e21b81526001600160a01b039091169081906335b7ad149061148a9030908690600401612c24565b600060405180830381600087803b1580156114a457600080fd5b505af11580156114b8573d6000803e3d6000fd5b503392505050ff5b6114ca33836118b8565b6114e65760405162461bcd60e51b815260040161059f90612a81565b6114f284848484611c19565b50505050565b6060600d805461082490612a18565b606061151282611761565b600061152960408051602081019091526000815290565b905060008151116115495760405180602001604052806000815250611574565b8061155384611c4c565b604051602001611564929190612c48565b6040516020818303038152906040525b9392505050565b600a818154811061158b57600080fd5b6000918252602090912001546001600160a01b0316905081565b6001600160a01b03918216600090815260056020908152604080832093909416825291909152205460ff1690565b6001600160a01b0383166000908152600b602052604090205460ff1615156001146116265760405162461bcd60e51b8152602060048201526003602482015262444c3160e81b604482015260640161059f565b336001600160a01b038416146116645760405162461bcd60e51b815260206004820152600360248201526222261960e91b604482015260640161059f565b6001600160a01b0383166000908152600b60209081526040909120805460ff19169055825161169991600a919085019061208f565b5060095460405163dadfb85d60e01b81526001600160a01b0390911690819063dadfb85d906116d090879030908790600401612c77565b600060405180830381600087803b1580156116ea57600080fd5b505af11580156116fe573d6000803e3d6000fd5b5050505050505050565b60026006540361175a5760405162461bcd60e51b815260206004820152601f60248201527f5265656e7472616e637947756172643a207265656e7472616e742063616c6c00604482015260640161059f565b6002600655565b6000818152600260205260409020546001600160a01b03166117c05760405162461bcd60e51b8152602060048201526018602482015277115490cdcc8c4e881a5b9d985b1a59081d1bdad95b88125160421b604482015260640161059f565b50565b600081815260046020526040902080546001600160a01b0319166001600160a01b03841690811790915581906117f882610c63565b6001600160a01b03167f8c5be1e5ebec7d5bd14f71427d1e84f3dd0314c0f7b2291e5b200ac8c7c3b92560405160405180910390a45050565b6000828152600260205260409020546001600160a01b03166118ac5760405162461bcd60e51b815260206004820152602e60248201527f45524337323155524953746f726167653a2055524920736574206f66206e6f6e60448201526d32bc34b9ba32b73a103a37b5b2b760911b606482015260840161059f565b600d6109de8282612cf1565b6000806118c483610c63565b9050806001600160a01b0316846001600160a01b031614806118eb57506118eb81856115a5565b8061190f5750836001600160a01b0316611904846108a7565b6001600160a01b0316145b949350505050565b826001600160a01b031661192a82610c63565b6001600160a01b0316146119505760405162461bcd60e51b815260040161059f90612db0565b6001600160a01b0382166119b25760405162461bcd60e51b8152602060048201526024808201527f4552433732313a207472616e7366657220746f20746865207a65726f206164646044820152637265737360e01b606482015260840161059f565b826001600160a01b03166119c582610c63565b6001600160a01b0316146119eb5760405162461bcd60e51b815260040161059f90612db0565b600081815260046020908152604080832080546001600160a01b03199081169091556001600160a01b0387811680865260038552838620805460001901905590871680865283862080546001019055868652600290945282852080549092168417909155905184937fddf252ad1be2c89b69c2b068fc378daa952ba7f163c4a11628f55a4df523b3ef91a4505050565b60006001600160a01b038716611aa35760405162461bcd60e51b815260040161059f90612ace565b6007611aaf8782612cf1565b506008611abc8682612cf1565b50600980546001600160a01b0319166001600160a01b0386811691909117909155600c8054610100610100600160b01b031990911662010000938b1693909302929092179190911760ff1916831515179055611b19876001611cde565b600e805462ffffff191662010101179055611b35600184611831565b5050600c54610100900460ff1695945050505050565b816001600160a01b0316836001600160a01b031603611bac5760405162461bcd60e51b815260206004820152601960248201527f4552433732313a20617070726f766520746f2063616c6c657200000000000000604482015260640161059f565b6001600160a01b03838116600081815260056020908152604080832094871680845294825291829020805460ff191686151590811790915591519182527f17307eab39ab6107e8899845ad3d59bd9653f200f220920489ca2b5937696c31910160405180910390a3505050565b611c24848484611917565b611c3084848484611cf8565b6114f25760405162461bcd60e51b815260040161059f90612df5565b60606000611c5983611df9565b60010190506000816001600160401b03811115611c7857611c78612154565b6040519080825280601f01601f191660200182016040528015611ca2576020820181803683370190505b5090508181016020015b600019016f181899199a1a9b1b9c1cb0b131b232b360811b600a86061a8153600a8504945084611cac57509392505050565b6113b1828260405180602001604052806000815250611ed1565b60006001600160a01b0384163b15611dee57604051630a85bd0160e11b81526001600160a01b0385169063150b7a0290611d3c903390899088908890600401612e47565b6020604051808303816000875af1925050508015611d77575060408051601f3d908101601f19168201909252611d7491810190612e84565b60015b611dd4573d808015611da5576040519150601f19603f3d011682016040523d82523d6000602084013e611daa565b606091505b508051600003611dcc5760405162461bcd60e51b815260040161059f90612df5565b805181602001fd5b6001600160e01b031916630a85bd0160e11b14905061190f565b506001949350505050565b60008072184f03e93ff9f4daa797ed6e38ed64bf6a1f0160401b8310611e385772184f03e93ff9f4daa797ed6e38ed64bf6a1f0160401b830492506040015b6d04ee2d6d415b85acef81000000008310611e64576d04ee2d6d415b85acef8100000000830492506020015b662386f26fc100008310611e8257662386f26fc10000830492506010015b6305f5e1008310611e9a576305f5e100830492506008015b6127108310611eae57612710830492506004015b60648310611ec0576064830492506002015b600a831061080f5760010192915050565b611edb8383611f04565b611ee86000848484611cf8565b6109de5760405162461bcd60e51b815260040161059f90612df5565b6001600160a01b038216611f5a5760405162461bcd60e51b815260206004820181905260248201527f4552433732313a206d696e7420746f20746865207a65726f2061646472657373604482015260640161059f565b6000818152600260205260409020546001600160a01b031615611fbf5760405162461bcd60e51b815260206004820152601c60248201527f4552433732313a20746f6b656e20616c7265616479206d696e74656400000000604482015260640161059f565b6000818152600260205260409020546001600160a01b0316156120245760405162461bcd60e51b815260206004820152601c60248201527f4552433732313a20746f6b656e20616c7265616479206d696e74656400000000604482015260640161059f565b6001600160a01b038216600081815260036020908152604080832080546001019055848352600290915280822080546001600160a01b0319168417905551839291907fddf252ad1be2c89b69c2b068fc378daa952ba7f163c4a11628f55a4df523b3ef908290a45050565b8280548282559060005260206000209081019282156120e4579160200282015b828111156120e457825182546001600160a01b0319166001600160a01b039091161782556020909201916001909101906120af565b506120f09291506120f4565b5090565b5b808211156120f057600081556001016120f5565b60008083601f84011261211b57600080fd5b5081356001600160401b0381111561213257600080fd5b6020830191508360208260051b850101111561214d57600080fd5b9250929050565b634e487b7160e01b600052604160045260246000fd5b604051601f8201601f191681016001600160401b038111828210171561219257612192612154565b604052919050565b60006001600160401b038211156121b3576121b3612154565b50601f01601f191660200190565b60006121d46121cf8461219a565b61216a565b90508281528383830111156121e857600080fd5b828260208301376000602084830101529392505050565b600082601f83011261221057600080fd5b611574838335602085016121c1565b60008060008060008060008060c0898b03121561223b57600080fd5b88356001600160401b038082111561225257600080fd5b61225e8c838d01612109565b909a50985060208b013591508082111561227757600080fd5b6122838c838d01612109565b909850965060408b0135955060608b01359150808211156122a357600080fd5b506122b08b828c016121ff565b9350506080890135915060a089013590509295985092959890939650565b6001600160e01b0319811681146117c057600080fd5b6000602082840312156122f657600080fd5b8135611574816122ce565b60005b8381101561231c578181015183820152602001612304565b50506000910152565b6000815180845261233d816020860160208601612301565b601f01601f19169290920160200192915050565b6020815260006115746020830184612325565b60006020828403121561237657600080fd5b5035919050565b6001600160a01b03811681146117c057600080fd5b600080604083850312156123a557600080fd5b82356123b08161237d565b946020939093013593505050565b600080604083850312156123d157600080fd5b8235915060208301356001600160401b038111156123ee57600080fd5b6123fa858286016121ff565b9150509250929050565b60008060006060848603121561241957600080fd5b83356124248161237d565b925060208401356124348161237d565b929592945050506040919091013590565b60008083601f84011261245757600080fd5b5081356001600160401b0381111561246e57600080fd5b60208301915083602082850101111561214d57600080fd5b80151581146117c057600080fd5b60008060008060008060008060c0898b0312156124b057600080fd5b88356124bb8161237d565b975060208901356001600160401b03808211156124d757600080fd5b6124e38c838d01612445565b909950975060408b01359150808211156124fc57600080fd5b6125088c838d01612445565b909750955060608b0135915061251d8261237d565b90935060808a0135908082111561253357600080fd5b506125408b828c016121ff565b92505060a089013561255181612486565b809150509295985092959890939650565b600081518084526020808501945080840160005b8381101561259b5781516001600160a01b031687529582019590820190600101612576565b509495945050505050565b6020815260006115746020830184612562565b6000602082840312156125cb57600080fd5b81356115748161237d565b600080604083850312156125e957600080fd5b82356125f48161237d565b9150602083013561260481612486565b809150509250929050565b600082601f83011261262057600080fd5b813560206001600160401b0382111561263b5761263b612154565b8160051b61264a82820161216a565b928352848101820192828101908785111561266457600080fd5b83870192505b8483101561268c57823561267d8161237d565b8252918301919083019061266a565b979650505050505050565b6000602082840312156126a957600080fd5b81356001600160401b038111156126bf57600080fd5b61190f8482850161260f565b600080600080608085870312156126e157600080fd5b84356126ec8161237d565b935060208501356126fc8161237d565b92506040850135915060608501356001600160401b0381111561271e57600080fd5b8501601f8101871361272f57600080fd5b61273e878235602084016121c1565b91505092959194509250565b6000806040838503121561275d57600080fd5b82356127688161237d565b915060208301356126048161237d565b60008060006060848603121561278d57600080fd5b83356127988161237d565b925060208401356001600160401b03808211156127b457600080fd5b6127c08783880161260f565b935060408601359150808211156127d657600080fd5b506127e38682870161260f565b9150509250925092565b81835281816020850137506000828201602090810191909152601f909101601f19169091010190565b8183526000602080850194508260005b8581101561259b5781356128398161237d565b6001600160a01b031687529582019590820190600101612826565b60c08082528101889052600060e060058a901b830181019083018b835b8c8110156128e45785840360df190183528135368f9003601e1901811261289757600080fd5b8e0160208181019135906001600160401b038211156128b557600080fd5b8136038313156128c457600080fd5b6128cf8783856127ed565b96509485019493909301925050600101612871565b50505082810360208401526128fa81898b612816565b905086604084015282810360608401526129148187612325565b6080840195909552505060a001529695505050505050565b60006020828403121561293e57600080fd5b81516115748161237d565b634e487b7160e01b600052603260045260246000fd5b6000808335601e1984360301811261297657600080fd5b8301803591506001600160401b0382111561299057600080fd5b60200191503681900382131561214d57600080fd5b60e0815260006129b960e083018b8d6127ed565b82810360208401526129cc818a8c6127ed565b6001600160a01b0389811660408601526060850189905284820360808601529091506129f88288612325565b92508560a085015280851660c085015250509a9950505050505050505050565b600181811c90821680612a2c57607f821691505b602082108103612a4c57634e487b7160e01b600052602260045260246000fd5b50919050565b608081526000612a656080830187612325565b6020830195909552506040810192909252606090910152919050565b6020808252602d908201527f4552433732313a2063616c6c6572206973206e6f7420746f6b656e206f776e6560408201526c1c881bdc88185c1c1c9bdd9959609a1b606082015260800190565b6020808252602e908201527f45524337323154656d706c6174653a3a20496e76616c6964206d696e7465722c60408201526d20207a65726f206164647265737360901b606082015260800190565b600060208284031215612b2e57600080fd5b81516001600160401b03811115612b4457600080fd5b8201601f81018413612b5557600080fd5b8051612b636121cf8261219a565b818152856020838501011115612b7857600080fd5b612b89826020830160208601612301565b95945050505050565b600060208284031215612ba457600080fd5b5051919050565b60008251612bbd818460208701612301565b9190910192915050565b600060208284031215612bd957600080fd5b815161157481612486565b634e487b7160e01b600052601160045260246000fd5b808202811582820484141761080f5761080f612be4565b8181038181111561080f5761080f612be4565b6001600160a01b038316815260406020820181905260009061190f90830184612562565b60008351612c5a818460208801612301565b835190830190612c6e818360208801612301565b01949350505050565b6001600160a01b03848116825283166020820152606060408201819052600090612b8990830184612562565b601f8211156109de57600081815260208120601f850160051c81016020861015612cca5750805b601f850160051c820191505b81811015612ce957828155600101612cd6565b505050505050565b81516001600160401b03811115612d0a57612d0a612154565b612d1e81612d188454612a18565b84612ca3565b602080601f831160018114612d535760008415612d3b5750858301515b600019600386901b1c1916600185901b178555612ce9565b600085815260208120601f198616915b82811015612d8257888601518255948401946001909101908401612d63565b5085821015612da05787850151600019600388901b60f8161c191681555b5050505050600190811b01905550565b60208082526025908201527f4552433732313a207472616e736665722066726f6d20696e636f72726563742060408201526437bbb732b960d91b606082015260800190565b60208082526032908201527f4552433732313a207472616e7366657220746f206e6f6e20455243373231526560408201527131b2b4bb32b91034b6b83632b6b2b73a32b960711b606082015260800190565b6001600160a01b0385811682528416602082015260408101839052608060608201819052600090612e7a90830184612325565b9695505050505050565b600060208284031215612e9657600080fd5b8151611574816122ce56fea164736f6c6343000813000a60806040526009805460ff191690553480156200001b57600080fd5b50604051806040016040528060048152602001631d195cdd60e21b8152506040518060400160405280600a8152602001691d195cdd14de5b589bdb60b21b81525081600390816200006d91906200012f565b5060046200007c82826200012f565b5050600160055550620001fb565b634e487b7160e01b600052604160045260246000fd5b600181811c90821680620000b557607f821691505b602082108103620000d657634e487b7160e01b600052602260045260246000fd5b50919050565b601f8211156200012a57600081815260208120601f850160051c81016020861015620001055750805b601f850160051c820191505b81811015620001265782815560010162000111565b5050505b505050565b81516001600160401b038111156200014b576200014b6200008a565b62000163816200015c8454620000a0565b84620000dc565b602080601f8311600181146200019b5760008415620001825750858301515b600019600386901b1c1916600185901b17855562000126565b600085815260208120601f198616915b82811015620001cc57888601518255948401946001909101908401620001ab565b5085821015620001eb5787850151600019600388901b60f8161c191681555b5050505050600190811b01905550565b6118a1806200020b6000396000f3fe6080604052600436106101725760003560e01c806379cc6790116100c8578063a457c2d711610084578063dd62ed3e11610061578063dd62ed3e1461045c578063e54a45171461047c578063ec342ad0146104b2578063f14e6ae5146104ce57005b8063a457c2d714610407578063a9059cbb14610427578063dca1c2631461044757005b806379cc6790146103465780637ecebe001461036657806380b2efc7146103935780638cdd57ea146103c857806395d89b41146103dd578063a035b1fe146103f257005b8063355274ea1161012f578063395093511161010c57806339509351146102b057806340c10f19146102d057806342966c68146102f057806370a082311461031057005b8063355274ea14610263578063370755ab14610278578063392e53cd1461029857005b80627ffb781461017b57806306fdde03146101b6578063095ea7b3146101d857806318160ddd1461020857806323b872dd14610227578063313ce5671461024757005b3661017957005b005b34801561018757600080fd5b5060095461010090046001600160a01b03166040516001600160a01b0390911681526020015b60405180910390f35b3480156101c257600080fd5b506101cb6104ee565b6040516101ad91906110ff565b3480156101e457600080fd5b506101f86101f3366004611169565b610580565b60405190151581526020016101ad565b34801561021457600080fd5b506002545b6040519081526020016101ad565b34801561023357600080fd5b506101f8610242366004611193565b61059a565b34801561025357600080fd5b50604051601281526020016101ad565b34801561026f57600080fd5b50600854610219565b34801561028457600080fd5b506101f861029336600461121b565b6105be565b3480156102a457600080fd5b5060095460ff166101f8565b3480156102bc57600080fd5b506101f86102cb366004611169565b610690565b3480156102dc57600080fd5b506101796102eb366004611169565b6106b2565b3480156102fc57600080fd5b5061017961030b36600461130f565b610788565b34801561031c57600080fd5b5061021961032b366004611328565b6001600160a01b031660009081526020819052604090205490565b34801561035257600080fd5b50610179610361366004611169565b610795565b34801561037257600080fd5b50610219610381366004611328565b600e6020526000908152604090205481565b34801561039f57600080fd5b506101796103ae366004611343565b6001600160a01b0316600090815260106020526040902055565b3480156103d457600080fd5b50600d54610219565b3480156103e957600080fd5b506101cb6107aa565b3480156103fe57600080fd5b50600c54610219565b34801561041357600080fd5b506101f8610422366004611169565b6107b9565b34801561043357600080fd5b506101f8610442366004611169565b610834565b34801561045357600080fd5b506101cb610842565b34801561046857600080fd5b5061021961047736600461136f565b610851565b34801561048857600080fd5b50610219610497366004611328565b6001600160a01b031660009081526010602052604090205490565b3480156104be57600080fd5b50610219670de0b6b3a764000081565b3480156104da57600080fd5b506101796104e9366004611476565b61087c565b6060600680546104fd906114ea565b80601f0160208091040260200160405190810160405280929190818152602001828054610529906114ea565b80156105765780601f1061054b57610100808354040283529160200191610576565b820191906000526020600020905b81548152906001019060200180831161055957829003601f168201915b5050505050905090565b60003361058e81858561092e565b60019150505b92915050565b6000336105a8858285610a53565b6105b3858585610acd565b506001949350505050565b60095460009060ff16156106335760405162461bcd60e51b815260206004820152603160248201527f455243323054656d706c6174653a20746f6b656e20696e7374616e636520616c6044820152701c9958591e481a5b9a5d1a585b1a5e9959607a1b60648201526084015b60405180910390fd5b6106816106408b8d611524565b8a8a808060200260200160405190810160405280939291908181526020018383602002808284376000920191909152508c92508b91508a9050898989610c71565b9b9a5050505050505050505050565b60003361058e8185856106a38383610851565b6106ad9190611605565b61092e565b336000908152600f602052604090205460ff1615156001146107165760405162461bcd60e51b815260206004820152601960248201527f455243323054656d706c6174653a204e4f54204d494e54455200000000000000604482015260640161062a565b60085461072c8261072660025490565b90610efe565b111561077a5760405162461bcd60e51b815260206004820152601f60248201527f44617461746f6b656e54656d706c6174653a2063617020657863656564656400604482015260640161062a565b6107848282610f11565b5050565b6107923382610fd0565b50565b6107a0823383610a53565b6107848282610fd0565b6060600780546104fd906114ea565b600033816107c78286610851565b9050838110156108275760405162461bcd60e51b815260206004820152602560248201527f45524332303a2064656372656173656420616c6c6f77616e63652062656c6f77604482015264207a65726f60d81b606482015260840161062a565b6105b3828686840361092e565b60003361058e818585610acd565b6060600b80546104fd906114ea565b6001600160a01b03918216600090815260016020908152604080832093909416825291909152205490565b336000908152600f602052604090205460ff1615156001146108c65760405162461bcd60e51b8152602060048201526003602482015262444c3160e81b604482015260640161062a565b60405163f14e6ae560e01b815283906001600160a01b0382169063f14e6ae5906108f89030908790879060040161165c565b600060405180830381600087803b15801561091257600080fd5b505af1158015610926573d6000803e3d6000fd5b503392505050ff5b6001600160a01b0383166109905760405162461bcd60e51b8152602060048201526024808201527f45524332303a20617070726f76652066726f6d20746865207a65726f206164646044820152637265737360e01b606482015260840161062a565b6001600160a01b0382166109f15760405162461bcd60e51b815260206004820152602260248201527f45524332303a20617070726f766520746f20746865207a65726f206164647265604482015261737360f01b606482015260840161062a565b6001600160a01b0383811660008181526001602090815260408083209487168084529482529182902085905590518481527f8c5be1e5ebec7d5bd14f71427d1e84f3dd0314c0f7b2291e5b200ac8c7c3b92591015b60405180910390a3505050565b6000610a5f8484610851565b90506000198114610ac75781811015610aba5760405162461bcd60e51b815260206004820152601d60248201527f45524332303a20696e73756666696369656e7420616c6c6f77616e6365000000604482015260640161062a565b610ac7848484840361092e565b50505050565b6001600160a01b038316610b315760405162461bcd60e51b815260206004820152602560248201527f45524332303a207472616e736665722066726f6d20746865207a65726f206164604482015264647265737360d81b606482015260840161062a565b6001600160a01b038216610b935760405162461bcd60e51b815260206004820152602360248201527f45524332303a207472616e7366657220746f20746865207a65726f206164647260448201526265737360e81b606482015260840161062a565b6001600160a01b03831660009081526020819052604090205481811015610c0b5760405162461bcd60e51b815260206004820152602660248201527f45524332303a207472616e7366657220616d6f756e7420657863656564732062604482015265616c616e636560d01b606482015260840161062a565b6001600160a01b03848116600081815260208181526040808320878703905593871680835291849020805487019055925185815290927fddf252ad1be2c89b69c2b068fc378daa952ba7f163c4a11628f55a4df523b3ef910160405180910390a3610ac7565b6000866001600160a01b038116610cdf5760405162461bcd60e51b815260206004820152602c60248201527f455243323054656d706c6174653a20496e76616c6964206d696e7465722c202060448201526b7a65726f206164647265737360a01b606482015260840161062a565b60001960085589518a90600090610cf857610cf861169c565b602002602001015160069081610d0e9190611700565b5089600181518110610d2257610d2261169c565b602002602001015160079081610d389190611700565b50600b610d468688836117c0565b5060098054600c869055600d85905560016001600160a81b03199091166101006001600160a01b0385160260ff19161781179091558951600f906000908c908290610d9357610d9361169c565b60200260200101516001600160a01b03166001600160a01b0316815260200190815260200160002060006101000a81548160ff02191690831515021790555060006001600160a01b031689600181518110610df057610df061169c565b60200260200101516001600160a01b031614610eb857610e4789600181518110610e1c57610e1c61169c565b6020026020010151600a80546001600160a01b039092166001600160a01b0319909216919091179055565b88600181518110610e5a57610e5a61169c565b60200260200101516001600160a01b0316336001600160a01b03167f4d7694d695c57cc54947177c8e8a0e61aae664e9223492a798c32fadfc6419cc4243604051610eaf929190918252602082015260400190565b60405180910390a35b610eea89600081518110610ece57610ece61169c565b60200260200101516001600854610ee59190611881565b610f11565b505060095460ff1698975050505050505050565b6000610f0a8284611605565b9392505050565b6001600160a01b038216610f675760405162461bcd60e51b815260206004820152601f60248201527f45524332303a206d696e7420746f20746865207a65726f206164647265737300604482015260640161062a565b8060026000828254610f799190611605565b90915550506001600160a01b038216600081815260208181526040808320805486019055518481527fddf252ad1be2c89b69c2b068fc378daa952ba7f163c4a11628f55a4df523b3ef910160405180910390a35050565b6001600160a01b0382166110305760405162461bcd60e51b815260206004820152602160248201527f45524332303a206275726e2066726f6d20746865207a65726f206164647265736044820152607360f81b606482015260840161062a565b6001600160a01b038216600090815260208190526040902054818110156110a45760405162461bcd60e51b815260206004820152602260248201527f45524332303a206275726e20616d6f756e7420657863656564732062616c616e604482015261636560f01b606482015260840161062a565b6001600160a01b0383166000818152602081815260408083208686039055600280548790039055518581529192917fddf252ad1be2c89b69c2b068fc378daa952ba7f163c4a11628f55a4df523b3ef9101610a46565b505050565b600060208083528351808285015260005b8181101561112c57858101830151858201604001528201611110565b506000604082860101526040601f19601f8301168501019250505092915050565b80356001600160a01b038116811461116457600080fd5b919050565b6000806040838503121561117c57600080fd5b6111858361114d565b946020939093013593505050565b6000806000606084860312156111a857600080fd5b6111b18461114d565b92506111bf6020850161114d565b9150604084013590509250925092565b60008083601f8401126111e157600080fd5b50813567ffffffffffffffff8111156111f957600080fd5b6020830191508360208260051b850101111561121457600080fd5b9250929050565b60008060008060008060008060008060e08b8d03121561123a57600080fd5b8a3567ffffffffffffffff8082111561125257600080fd5b61125e8e838f016111cf565b909c509a5060208d013591508082111561127757600080fd5b6112838e838f016111cf565b909a50985088915061129760408e0161114d565b975060608d0135965060808d01359150808211156112b457600080fd5b818d0191508d601f8301126112c857600080fd5b8135818111156112d757600080fd5b8e60208285010111156112e957600080fd5b9b9e9a9d50989b979a96999598506020019660a08101359560c090910135945092505050565b60006020828403121561132157600080fd5b5035919050565b60006020828403121561133a57600080fd5b610f0a8261114d565b6000806040838503121561135657600080fd5b823591506113666020840161114d565b90509250929050565b6000806040838503121561138257600080fd5b61138b8361114d565b91506113666020840161114d565b634e487b7160e01b600052604160045260246000fd5b604051601f8201601f1916810167ffffffffffffffff811182821017156113d8576113d8611399565b604052919050565b600067ffffffffffffffff8211156113fa576113fa611399565b5060051b60200190565b600082601f83011261141557600080fd5b8135602061142a611425836113e0565b6113af565b82815260059290921b8401810191818101908684111561144957600080fd5b8286015b8481101561146b5761145e8161114d565b835291830191830161144d565b509695505050505050565b60008060006060848603121561148b57600080fd5b6114948461114d565b9250602084013567ffffffffffffffff808211156114b157600080fd5b6114bd87838801611404565b935060408601359150808211156114d357600080fd5b506114e086828701611404565b9150509250925092565b600181811c908216806114fe57607f821691505b60208210810361151e57634e487b7160e01b600052602260045260246000fd5b50919050565b6000611532611425846113e0565b80848252602080830192508560051b85013681111561155057600080fd5b855b818110156115e357803567ffffffffffffffff808211156115735760008081fd5b90880190601f36818401126115885760008081fd5b82358281111561159a5761159a611399565b6115ab818301601f191688016113af565b925080835236878286010111156115c457600091508182fd5b8087850188850137600090830187015250865250938201938201611552565b50919695505050505050565b634e487b7160e01b600052601160045260246000fd5b80820180821115610594576105946115ef565b600081518084526020808501945080840160005b838110156116515781516001600160a01b03168752958201959082019060010161162c565b509495945050505050565b6001600160a01b038416815260606020820181905260009061168090830185611618565b82810360408401526116928185611618565b9695505050505050565b634e487b7160e01b600052603260045260246000fd5b601f8211156110fa57600081815260208120601f850160051c810160208610156116d95750805b601f850160051c820191505b818110156116f8578281556001016116e5565b505050505050565b815167ffffffffffffffff81111561171a5761171a611399565b61172e8161172884546114ea565b846116b2565b602080601f831160018114611763576000841561174b5750858301515b600019600386901b1c1916600185901b1785556116f8565b600085815260208120601f198616915b8281101561179257888601518255948401946001909101908401611773565b50858210156117b05787850151600019600388901b60f8161c191681555b5050505050600190811b01905550565b67ffffffffffffffff8311156117d8576117d8611399565b6117ec836117e683546114ea565b836116b2565b6000601f84116001811461182057600085156118085750838201355b600019600387901b1c1916600186901b17835561187a565b600083815260209020601f19861690835b828110156118515786850135825560209485019460019092019101611831565b508682101561186e5760001960f88860031b161c19848701351681555b505060018560011b0183555b5050505050565b81810381811115610594576105946115ef56fea164736f6c6343000813000aa164736f6c6343000813000a608060405234801561001057600080fd5b50604051611a4a380380611a4a83398101604081905261002f91610054565b600080546001600160a01b0319166001600160a01b0392909216919091179055610084565b60006020828403121561006657600080fd5b81516001600160a01b038116811461007d57600080fd5b9392505050565b6119b7806100936000396000f3fe608060405234801561001057600080fd5b50600436106100415760003560e01c80634a9c82ed146100465780637351ce9714610073578063e17370b81461009e575b600080fd5b610059610054366004611577565b6100b1565b60405161006a959493929190611612565b60405180910390f35b600054610086906001600160a01b031681565b6040516001600160a01b03909116815260200161006a565b6100596100ac36600461166d565b610b80565b606060006060806000808890506000889050816001600160a01b03166392ff0d316040518163ffffffff1660e01b8152600401602060405180830381865afa158015610101573d6000803e3d6000fd5b505050506040513d601f19601f8201168201806040525081019061012591906116be565b151560011461014f5760405162461bcd60e51b8152600401610146906116e7565b60405180910390fd5b806001600160a01b031663a035b1fe6040518163ffffffff1660e01b8152600401602060405180830381865afa15801561018d573d6000803e3d6000fd5b505050506040513d601f19601f820116820180604052508101906101b1919061173a565b600054604051636eb1769f60e11b81526001600160a01b038b811660048301523060248301529091169063dd62ed3e90604401602060405180830381865afa158015610201573d6000803e3d6000fd5b505050506040513d601f19601f82011682018060405250810190610225919061173a565b10156102435760405162461bcd60e51b815260040161014690611753565b6001816001600160a01b031663dd62ed3e846001600160a01b0316638f84aa096040518163ffffffff1660e01b8152600401602060405180830381865afa158015610292573d6000803e3d6000fd5b505050506040513d601f19601f820116820180604052508101906102b691906117c0565b6040516001600160e01b031960e084901b1681526001600160a01b039091166004820152306024820152604401602060405180830381865afa158015610300573d6000803e3d6000fd5b505050506040513d601f19601f82011682018060405250810190610324919061173a565b101561041c5760405162461bcd60e51b81526020600482015260a860248201527f455243323054656d706c6174653a206f776e657220686173206e6f7420656e6f60448201527f75676820746f6b656e2028616c6c6f7765642920746f2072656c65617365206c60648201527f6963656e73652e204173206f776e6572206f6620746865206e667420796f752060848201527f63616e206d696e7420616e20616d6f756e74206f6620746f6b656e206f72206160a48201527f6c6c6f7720746f207370656e6420616e20616d6f756e742066726f6d2074686960c482015267726420706172747960c01b60e482015261010401610146565b876001600160a01b0316826001600160a01b0316638f84aa096040518163ffffffff1660e01b8152600401602060405180830381865afa158015610464573d6000803e3d6000fd5b505050506040513d601f19601f8201168201806040525081019061048891906117c0565b6001600160a01b0316036104ae5760405162461bcd60e51b8152600401610146906117dd565b60008054906101000a90046001600160a01b03166001600160a01b03166323b872dd89846001600160a01b0316638f84aa096040518163ffffffff1660e01b8152600401602060405180830381865afa15801561050f573d6000803e3d6000fd5b505050506040513d601f19601f8201168201806040525081019061053391906117c0565b846001600160a01b031663a035b1fe6040518163ffffffff1660e01b8152600401602060405180830381865afa158015610571573d6000803e3d6000fd5b505050506040513d601f19601f82011682018060405250810190610595919061173a565b6040518463ffffffff1660e01b81526004016105b393929190611853565b6020604051808303816000875af11580156105d2573d6000803e3d6000fd5b505050506040513d601f19601f820116820180604052508101906105f691906116be565b50806001600160a01b03166323b872dd836001600160a01b0316638f84aa096040518163ffffffff1660e01b8152600401602060405180830381865afa158015610644573d6000803e3d6000fd5b505050506040513d601f19601f8201168201806040525081019061066891906117c0565b8a60016040518463ffffffff1660e01b815260040161068993929190611853565b6020604051808303816000875af11580156106a8573d6000803e3d6000fd5b505050506040513d601f19601f820116820180604052508101906106cc91906116be565b506040516380b2efc760e01b81524260048201526001600160a01b0389811660248301528216906380b2efc790604401600060405180830381600087803b15801561071657600080fd5b505af115801561072a573d6000803e3d6000fd5b50505050816001600160a01b0316638f84aa096040518163ffffffff1660e01b8152600401602060405180830381865afa15801561076c573d6000803e3d6000fd5b505050506040513d601f19601f8201168201806040525081019061079091906117c0565b6001600160a01b03167f3e3752ae5a6999b1391878ab6507a5cde0aacb82655e041c5bec61c015778e8f836001600160a01b03166306fdde036040518163ffffffff1660e01b8152600401600060405180830381865afa1580156107f8573d6000803e3d6000fd5b505050506040513d6000823e601f3d908101601f19168201604052610820919081019061188d565b846001600160a01b03166395d89b416040518163ffffffff1660e01b8152600401600060405180830381865afa15801561085e573d6000803e3d6000fd5b505050506040513d6000823e601f3d908101601f19168201604052610886919081019061188d565b856001600160a01b031663c395c8af6040518163ffffffff1660e01b8152600401600060405180830381865afa1580156108c4573d6000803e3d6000fd5b505050506040513d6000823e601f3d908101601f191682016040526108ec919081019061188d565b60405163e54a451760e01b81523360048201526001600160a01b0387169063e54a451790602401602060405180830381865afa158015610930573d6000803e3d6000fd5b505050506040513d601f19601f82011682018060405250810190610954919061173a565b604051610964949392919061193a565b60405180910390a2816001600160a01b03166306fdde036040518163ffffffff1660e01b8152600401600060405180830381865afa1580156109aa573d6000803e3d6000fd5b505050506040513d6000823e601f3d908101601f191682016040526109d2919081019061188d565b9650816001600160a01b0316638f84aa096040518163ffffffff1660e01b8152600401602060405180830381865afa158015610a12573d6000803e3d6000fd5b505050506040513d601f19601f82011682018060405250810190610a3691906117c0565b9550816001600160a01b03166395d89b416040518163ffffffff1660e01b8152600401600060405180830381865afa158015610a76573d6000803e3d6000fd5b505050506040513d6000823e601f3d908101601f19168201604052610a9e919081019061188d565b9450816001600160a01b031663c395c8af6040518163ffffffff1660e01b8152600401600060405180830381865afa158015610ade573d6000803e3d6000fd5b505050506040513d6000823e601f3d908101601f19168201604052610b06919081019061188d565b60405163e54a451760e01b81523360048201529094506001600160a01b0382169063e54a451790602401602060405180830381865afa158015610b4d573d6000803e3d6000fd5b505050506040513d601f19601f82011682018060405250810190610b71919061173a565b92505050939792965093509350565b606060006060806000808990506000899050816001600160a01b03166392ff0d316040518163ffffffff1660e01b8152600401602060405180830381865afa158015610bd0573d6000803e3d6000fd5b505050506040513d601f19601f82011682018060405250810190610bf491906116be565b1515600114610c155760405162461bcd60e51b8152600401610146906116e7565b610c8188826001600160a01b031663a035b1fe6040518163ffffffff1660e01b8152600401602060405180830381865afa158015610c57573d6000803e3d6000fd5b505050506040513d601f19601f82011682018060405250810190610c7b919061173a565b9061154a565b600054604051636eb1769f60e11b81526001600160a01b038c811660048301523060248301529091169063dd62ed3e90604401602060405180830381865afa158015610cd1573d6000803e3d6000fd5b505050506040513d601f19601f82011682018060405250810190610cf5919061173a565b1015610d135760405162461bcd60e51b815260040161014690611753565b6064881115610da35760405162461bcd60e51b815260206004820152605060248201527f466163746f72794552433732313a20546f6f206d616e7920757361676520726560448201527f717565737465642e204d6178696d756d206e756d62657220697320657175616c60648201526f20746f20313030207065722074696d6560801b608482015260a401610146565b87816001600160a01b031663dd62ed3e846001600160a01b0316638f84aa096040518163ffffffff1660e01b8152600401602060405180830381865afa158015610df1573d6000803e3d6000fd5b505050506040513d601f19601f82011682018060405250810190610e1591906117c0565b6040516001600160e01b031960e084901b1681526001600160a01b039091166004820152306024820152604401602060405180830381865afa158015610e5f573d6000803e3d6000fd5b505050506040513d601f19601f82011682018060405250810190610e83919061173a565b1015610f375760405162461bcd60e51b815260206004820152607160248201527f455243323054656d706c6174653a206f776e657220686173206e6f7420656e6f60448201527f75676820746f6b656e20746f2072656c65617365206c6963656e73652e20417360648201527f206f776e6572206f6620746865206e667420796f752063616e206d696e742061608482015270371030b6b7bab73a1037b3103a37b5b2b760791b60a482015260c401610146565b886001600160a01b0316826001600160a01b0316638f84aa096040518163ffffffff1660e01b8152600401602060405180830381865afa158015610f7f573d6000803e3d6000fd5b505050506040513d601f19601f82011682018060405250810190610fa391906117c0565b6001600160a01b031603610fc95760405162461bcd60e51b8152600401610146906117dd565b60008054906101000a90046001600160a01b03166001600160a01b03166323b872dd8a846001600160a01b0316638f84aa096040518163ffffffff1660e01b8152600401602060405180830381865afa15801561102a573d6000803e3d6000fd5b505050506040513d601f19601f8201168201806040525081019061104e91906117c0565b6110908c866001600160a01b031663a035b1fe6040518163ffffffff1660e01b8152600401602060405180830381865afa158015610c57573d6000803e3d6000fd5b6040518463ffffffff1660e01b81526004016110ae93929190611853565b6020604051808303816000875af11580156110cd573d6000803e3d6000fd5b505050506040513d601f19601f820116820180604052508101906110f191906116be565b50806001600160a01b03166323b872dd836001600160a01b0316638f84aa096040518163ffffffff1660e01b8152600401602060405180830381865afa15801561113f573d6000803e3d6000fd5b505050506040513d601f19601f8201168201806040525081019061116391906117c0565b8b8b6040518463ffffffff1660e01b815260040161118393929190611853565b6020604051808303816000875af11580156111a2573d6000803e3d6000fd5b505050506040513d601f19601f820116820180604052508101906111c691906116be565b50816001600160a01b0316638f84aa096040518163ffffffff1660e01b8152600401602060405180830381865afa158015611205573d6000803e3d6000fd5b505050506040513d601f19601f8201168201806040525081019061122991906117c0565b6001600160a01b03167ff7d061d116f9a94d4b1a8ff49f4e06de1a179556622c674933e77dd45d2520f4836001600160a01b03166306fdde036040518163ffffffff1660e01b8152600401600060405180830381865afa158015611291573d6000803e3d6000fd5b505050506040513d6000823e601f3d908101601f191682016040526112b9919081019061188d565b846001600160a01b03166395d89b416040518163ffffffff1660e01b8152600401600060405180830381865afa1580156112f7573d6000803e3d6000fd5b505050506040513d6000823e601f3d908101601f1916820160405261131f919081019061188d565b856001600160a01b031663c395c8af6040518163ffffffff1660e01b8152600401600060405180830381865afa15801561135d573d6000803e3d6000fd5b505050506040513d6000823e601f3d908101601f19168201604052611385919081019061188d565b8c604051611396949392919061193a565b60405180910390a2816001600160a01b03166306fdde036040518163ffffffff1660e01b8152600401600060405180830381865afa1580156113dc573d6000803e3d6000fd5b505050506040513d6000823e601f3d908101601f19168201604052611404919081019061188d565b9650816001600160a01b0316638f84aa096040518163ffffffff1660e01b8152600401602060405180830381865afa158015611444573d6000803e3d6000fd5b505050506040513d601f19601f8201168201806040525081019061146891906117c0565b9550816001600160a01b03166395d89b416040518163ffffffff1660e01b8152600401600060405180830381865afa1580156114a8573d6000803e3d6000fd5b505050506040513d6000823e601f3d908101601f191682016040526114d0919081019061188d565b9450816001600160a01b031663c395c8af6040518163ffffffff1660e01b8152600401600060405180830381865afa158015611510573d6000803e3d6000fd5b505050506040513d6000823e601f3d908101601f19168201604052611538919081019061188d565b93508792505050945094509450945094565b60006115568284611985565b90505b92915050565b6001600160a01b038116811461157457600080fd5b50565b60008060006060848603121561158c57600080fd5b83356115978161155f565b925060208401356115a78161155f565b915060408401356115b78161155f565b809150509250925092565b60005b838110156115dd5781810151838201526020016115c5565b50506000910152565b600081518084526115fe8160208601602086016115c2565b601f01601f19169290920160200192915050565b60a08152600061162560a08301886115e6565b6001600160a01b0387166020840152828103604084015261164681876115e6565b9050828103606084015261165a81866115e6565b9150508260808301529695505050505050565b6000806000806080858703121561168357600080fd5b843561168e8161155f565b9350602085013561169e8161155f565b925060408501356116ae8161155f565b9396929550929360600135925050565b6000602082840312156116d057600080fd5b815180151581146116e057600080fd5b9392505050565b60208082526033908201527f466163746f72794552433732313a2045524337323174656d706c6174653a206e6040820152721bdd081d1c985b9cd9995c98589b19481b999d606a1b606082015260800190565b60006020828403121561174c57600080fd5b5051919050565b60208082526047908201527f466163746f72794552433732313a20455243323074656d706c6174653a206e6f60408201527f7420656e6f75676820746f6b656e2028616c6c6f7765642920746f20627579206060820152666c6963656e736560c81b608082015260a00190565b6000602082840312156117d257600080fd5b81516116e08161155f565b60208082526050908201527f4d616e6167656d656e745061796d656e743a20596f752061726520746865206f60408201527f776e6572206f6620746865206e66742e20596f7520646f6e2774206e6565642060608201526f746f206275792061206c6963656e736560801b608082015260a00190565b6001600160a01b039384168152919092166020820152604081019190915260600190565b634e487b7160e01b600052604160045260246000fd5b60006020828403121561189f57600080fd5b815167ffffffffffffffff808211156118b757600080fd5b818401915084601f8301126118cb57600080fd5b8151818111156118dd576118dd611877565b604051601f8201601f19908116603f0116810190838211818310171561190557611905611877565b8160405282815287602084870101111561191e57600080fd5b61192f8360208301602088016115c2565b979650505050505050565b60808152600061194d60808301876115e6565b828103602084015261195f81876115e6565b9050828103604084015261197381866115e6565b91505082606083015295945050505050565b808202811582820484141761155957634e487b7160e01b600052601160045260246000fdfea164736f6c6343000813000a",
  "immutableReferences": {},
  "source": "// SPDX-License-Identifier: MIT\r\npragma solidity ^0.8.2;\r\n\r\nimport \"./ERC721template.sol\";\r\nimport \"./ERC20template.sol\";\r\nimport \"./DataCellarToken.sol\";\r\nimport \"./ManagementPayment.sol\";\r\n\r\ncontract FactoryERC721 {\r\n    address private ownerF;\r\n    uint256 private currentNFTCount;\r\n    mapping(address => address) public erc721List;\r\n    mapping(address => bool) public erc20List;\r\n    DataCellarToken public datacellarToken;\r\n    ManagementPayment public paymentManager;\r\n\r\n    address[] public erc721array;\r\n    mapping(address => address) public erc20listToerc721;\r\n    mapping(address => address[]) public erc721licenses;\r\n\r\n    modifier erc721check(address _nft) {\r\n        require(\r\n            erc721List[_nft] != address(0),\r\n            \"FactoryERC721: nft doesn't exist\"\r\n        );\r\n        _;\r\n    }\r\n    modifier erc721toerc20check(address _erc20license, address _nft) {\r\n        require(\r\n            erc20listToerc721[_erc20license] == _nft,\r\n            \"FactoryERC721: license doesn't exist\"\r\n        );\r\n        _;\r\n    }\r\n\r\n    constructor(address payable _datacellarToken) {\r\n        ownerF = msg.sender;\r\n        paymentManager = new ManagementPayment(_datacellarToken);\r\n        datacellarToken = DataCellarToken(_datacellarToken);\r\n    }\r\n\r\n    function ERC721deploy(\r\n        string calldata name_,\r\n        string calldata symbol_,\r\n        string memory tokenURI,\r\n        bool transferable_\r\n    ) external returns (address) {\r\n        require(msg.sender != address(0));\r\n        ERC721template NFT = new ERC721template();\r\n        require(address(NFT) != address(0));\r\n        erc721List[address(NFT)] = address(NFT);\r\n        currentNFTCount += 1;\r\n        require(\r\n            NFT.initialize(\r\n                msg.sender,\r\n                name_,\r\n                symbol_,\r\n                address(this),\r\n                tokenURI,\r\n                transferable_\r\n            )\r\n        );\r\n        erc721array.push(address(NFT));\r\n        return address(NFT);\r\n    }\r\n\r\n    function deleteLicense(address _erc20, address _erc721, address[] memory licenses) external {\r\n        require(msg.sender == _erc721);\r\n        erc20List[_erc20] = false;\r\n        erc20listToerc721[_erc20] = address(0);\r\n        erc721licenses[_erc721] = licenses;\r\n    }\r\n\r\n    function deleteNFT(address _erc721, address[] memory nftList) external {\r\n        require(erc721licenses[_erc721].length == 0);\r\n        erc721List[_erc721] = address(0);\r\n        erc721array = nftList;\r\n    }\r\n\r\n    function geterc721array() external view returns (address[] memory) {\r\n        return erc721array;\r\n    }\r\n\r\n    function geterc20array(address _erc721Addr) external view returns (address [] memory){\r\n        return erc721licenses[_erc721Addr];\r\n    }\r\n\r\n    struct tokenStruct {\r\n        string[] strings;\r\n        address[] addresses;\r\n        uint256 uints;\r\n        string licenseType;\r\n        uint256 price;\r\n        uint256 licensePeriod;\r\n        address owner;\r\n    }\r\n\r\n    function createToken(\r\n        string[] memory strings,\r\n        address[] memory addresses,\r\n        uint256 uints,\r\n        string memory licenseType,\r\n        uint256 price,\r\n        uint256 licensePeriod\r\n    ) external returns (address token) {\r\n        require(erc721List[msg.sender] == msg.sender);\r\n        token = _createToken(\r\n            strings,\r\n            addresses,\r\n            uints,\r\n            licenseType,\r\n            price,\r\n            licensePeriod,\r\n            msg.sender\r\n        );\r\n        return token;\r\n    }\r\n\r\n    function _createToken(\r\n        string[] memory strings,\r\n        address[] memory addresses,\r\n        uint256 uints,\r\n        string memory licenseType,\r\n        uint256 price,\r\n        uint256 licensePeriod,\r\n        address owner\r\n    ) internal returns (address) {\r\n        require(uints != 0);\r\n        ERC20template erc20contract = new ERC20template();\r\n\r\n        erc20List[address(erc20contract)] = true;\r\n        erc20listToerc721[address(erc20contract)] = owner;\r\n        erc721licenses[owner].push(address(erc20contract));\r\n\r\n        require(address(erc20contract) != address(0));\r\n        tokenStruct memory tokenData = tokenStruct(\r\n            strings,\r\n            addresses,\r\n            uints,\r\n            licenseType,\r\n            price,\r\n            licensePeriod,\r\n            owner\r\n        );\r\n        \r\n        require(\r\n            erc20contract.initialize(\r\n                tokenData.strings,\r\n                tokenData.addresses,\r\n                msg.sender,\r\n                tokenData.uints,\r\n                tokenData.licenseType,\r\n                tokenData.price,\r\n                tokenData.licensePeriod\r\n            )\r\n        );\r\n        return address(erc20contract);\r\n    }\r\n\r\n    function buyNFTlicensePeriod(\r\n        address _nft,\r\n        address _erc20license\r\n    ) external erc721check(_nft) erc721toerc20check(_erc20license, _nft) {\r\n        paymentManager.paymentLicensePeriod(\r\n                _nft,\r\n                _erc20license,\r\n                msg.sender\r\n            );\r\n    }\r\n\r\n    function buyNFTlicenseUsage(\r\n        address _nft,\r\n        address _erc20license,\r\n        uint256 _usage\r\n    ) external erc721check(_nft) erc721toerc20check(_erc20license, _nft) {\r\n        paymentManager.paymentLicenseUsage(\r\n                _nft,\r\n                _erc20license,\r\n                msg.sender,\r\n                _usage\r\n            );\r\n    }\r\n}\r\n",
  "sourcePath": "C:\\Users\\AlessandroMozzato\\OneDrive - Fondazione LINKS\\Desktop\\Blockchain\\smartcontracts\\contracts\\FactoryERC721.sol",
  "compiler": {
    "name": "solc",
    "version": "0.8.19+commit.7dd6d404.Emscripten.clang"
  },
  "schemaVersion": "3.4.13",
  "updatedAt": "2023-10-26T08:14:33.615Z",
  "networkType": "ethereum",
  "devdoc": {
    "kind": "dev",
    "methods": {},
    "version": 1
  },
  "userdoc": {
    "kind": "user",
    "methods": {},
    "version": 1
  }
}