{
  "contractName": "DataCellarRegistry",
  "abi": [
    {
      "anonymous": false,
      "inputs": [
        {
          "indexed": true,
          "internalType": "address",
          "name": "user",
          "type": "address"
        }
      ],
      "name": "UserRegistered",
      "type": "event"
    },
    {
      "anonymous": false,
      "inputs": [
        {
          "indexed": true,
          "internalType": "address",
          "name": "user",
          "type": "address"
        }
      ],
      "name": "UserUnregistered",
      "type": "event"
    },
    {
      "inputs": [
        {
          "internalType": "address",
          "name": "_userAddress",
          "type": "address"
        }
      ],
      "name": "registerUser",
      "outputs": [],
      "stateMutability": "nonpayable",
      "type": "function"
    },
    {
      "inputs": [
        {
          "internalType": "address",
          "name": "_userAddress",
          "type": "address"
        }
      ],
      "name": "unregisterUser",
      "outputs": [],
      "stateMutability": "nonpayable",
      "type": "function"
    },
    {
      "inputs": [
        {
          "internalType": "address",
          "name": "_userAddress",
          "type": "address"
        }
      ],
      "name": "isUserRegistered",
      "outputs": [
        {
          "internalType": "bool",
          "name": "",
          "type": "bool"
        }
      ],
      "stateMutability": "view",
      "type": "function",
      "constant": true
    }
  ],
  "bytecode": "0x608060405234801561001057600080fd5b506102ed806100206000396000f3fe608060405234801561001057600080fd5b50600436106100415760003560e01c8063163f7522146100465780632199d5cd1461008657806321f2ca3b1461009b575b600080fd5b61007261005436600461026d565b6001600160a01b031660009081526020819052604090205460ff1690565b604051901515815260200160405180910390f35b61009961009436600461026d565b6100ae565b005b6100996100a936600461026d565b610199565b80336001600160a01b038216146100e05760405162461bcd60e51b81526004016100d79061029d565b60405180910390fd5b6001600160a01b038216600090815260208190526040902054829060ff161561014b5760405162461bcd60e51b815260206004820152601760248201527f5573657220616c7265616479207265676973746572656400000000000000000060448201526064016100d7565b6001600160a01b038316600081815260208190526040808220805460ff19166001179055517f54db7a5cb4735e1aac1f53db512d3390390bb6637bd30ad4bf9fc98667d9b9b99190a2505050565b80336001600160a01b038216146101c25760405162461bcd60e51b81526004016100d79061029d565b6001600160a01b038216600090815260208190526040902054829060ff166102225760405162461bcd60e51b8152602060048201526013602482015272155cd95c881b9bdd081c9959da5cdd195c9959606a1b60448201526064016100d7565b6001600160a01b038316600081815260208190526040808220805460ff19169055517f69c4cef1aa574ae7852ac8b784ab60926951c604b70049150e4091759ea980769190a2505050565b60006020828403121561027f57600080fd5b81356001600160a01b038116811461029657600080fd5b9392505050565b60208082526023908201527f43616e206f6e6c7920706572666f726d20616374696f6e206f6e20796f75727360408201526232b63360e91b60608201526080019056fea164736f6c6343000813000a",
  "immutableReferences": {},
  "source": "// SPDX-License-Identifier: MIT\r\npragma solidity ^0.8.2;\r\n\r\ncontract DataCellarRegistry {\r\n    mapping(address => bool) private registeredUsers;\r\n\r\n    event UserRegistered(address indexed user);\r\n    event UserUnregistered(address indexed user);\r\n\r\n    modifier onlySelf(address _userAddress) {\r\n        require(\r\n            msg.sender == _userAddress,\r\n            \"Can only perform action on yourself\"\r\n        );\r\n        _;\r\n    }\r\n\r\n    modifier onlyUnregistered(address _userAddress) {\r\n        require(!registeredUsers[_userAddress], \"User already registered\");\r\n        _;\r\n    }\r\n\r\n    modifier onlyRegistered(address _userAddress) {\r\n        require(registeredUsers[_userAddress], \"User not registered\");\r\n        _;\r\n    }\r\n\r\n    function registerUser(\r\n        address _userAddress\r\n    ) external onlySelf(_userAddress) onlyUnregistered(_userAddress) {\r\n        registeredUsers[_userAddress] = true;\r\n        emit UserRegistered(_userAddress);\r\n    }\r\n\r\n    function unregisterUser(\r\n        address _userAddress\r\n    ) external onlySelf(_userAddress) onlyRegistered(_userAddress) {\r\n        registeredUsers[_userAddress] = false;\r\n        emit UserUnregistered(_userAddress);\r\n    }\r\n\r\n    function isUserRegistered(\r\n        address _userAddress\r\n    ) external view returns (bool) {\r\n        return registeredUsers[_userAddress];\r\n    }\r\n}",
  "sourcePath": "C:\\Users\\Luca\\Desktop\\datacellar\\DataCellar\\smartcontracts\\contracts\\DataCellarRegistry.sol",
  "compiler": {
    "name": "solc",
    "version": "0.8.19+commit.7dd6d404.Emscripten.clang"
  },
  "schemaVersion": "3.4.13",
  "updatedAt": "2024-01-30T17:35:54.078Z",
  "networkType": "ethereum",
  "devdoc": {
    "kind": "dev",
    "methods": {},
    "version": 1
  },
  "userdoc": {
    "kind": "user",
    "methods": {},
    "version": 1
  }
}