{
  "contractName": "ERC20template",
  "abi": [
    {
      "inputs": [],
      "stateMutability": "nonpayable",
      "type": "constructor"
    },
    {
      "anonymous": false,
      "inputs": [
        {
          "indexed": true,
          "internalType": "address",
          "name": "owner",
          "type": "address"
        },
        {
          "indexed": true,
          "internalType": "address",
          "name": "spender",
          "type": "address"
        },
        {
          "indexed": false,
          "internalType": "uint256",
          "name": "value",
          "type": "uint256"
        }
      ],
      "name": "Approval",
      "type": "event"
    },
    {
      "anonymous": false,
      "inputs": [
        {
          "indexed": true,
          "internalType": "address",
          "name": "caller",
          "type": "address"
        },
        {
          "indexed": true,
          "internalType": "address",
          "name": "_newPaymentCollector",
          "type": "address"
        },
        {
          "indexed": false,
          "internalType": "uint256",
          "name": "timestamp",
          "type": "uint256"
        },
        {
          "indexed": false,
          "internalType": "uint256",
          "name": "blockNumber",
          "type": "uint256"
        }
      ],
      "name": "NewPaymentCollector",
      "type": "event"
    },
    {
      "anonymous": false,
      "inputs": [
        {
          "indexed": true,
          "internalType": "address",
          "name": "from",
          "type": "address"
        },
        {
          "indexed": true,
          "internalType": "address",
          "name": "to",
          "type": "address"
        },
        {
          "indexed": false,
          "internalType": "uint256",
          "name": "value",
          "type": "uint256"
        }
      ],
      "name": "Transfer",
      "type": "event"
    },
    {
      "stateMutability": "payable",
      "type": "fallback",
      "payable": true
    },
    {
      "inputs": [],
      "name": "BASE",
      "outputs": [
        {
          "internalType": "uint256",
          "name": "",
          "type": "uint256"
        }
      ],
      "stateMutability": "view",
      "type": "function",
      "constant": true
    },
    {
      "inputs": [
        {
          "internalType": "address",
          "name": "owner",
          "type": "address"
        },
        {
          "internalType": "address",
          "name": "spender",
          "type": "address"
        }
      ],
      "name": "allowance",
      "outputs": [
        {
          "internalType": "uint256",
          "name": "",
          "type": "uint256"
        }
      ],
      "stateMutability": "view",
      "type": "function",
      "constant": true
    },
    {
      "inputs": [
        {
          "internalType": "address",
          "name": "spender",
          "type": "address"
        },
        {
          "internalType": "uint256",
          "name": "amount",
          "type": "uint256"
        }
      ],
      "name": "approve",
      "outputs": [
        {
          "internalType": "bool",
          "name": "",
          "type": "bool"
        }
      ],
      "stateMutability": "nonpayable",
      "type": "function"
    },
    {
      "inputs": [
        {
          "internalType": "address",
          "name": "account",
          "type": "address"
        }
      ],
      "name": "balanceOf",
      "outputs": [
        {
          "internalType": "uint256",
          "name": "",
          "type": "uint256"
        }
      ],
      "stateMutability": "view",
      "type": "function",
      "constant": true
    },
    {
      "inputs": [
        {
          "internalType": "uint256",
          "name": "amount",
          "type": "uint256"
        }
      ],
      "name": "burn",
      "outputs": [],
      "stateMutability": "nonpayable",
      "type": "function"
    },
    {
      "inputs": [
        {
          "internalType": "address",
          "name": "account",
          "type": "address"
        },
        {
          "internalType": "uint256",
          "name": "amount",
          "type": "uint256"
        }
      ],
      "name": "burnFrom",
      "outputs": [],
      "stateMutability": "nonpayable",
      "type": "function"
    },
    {
      "inputs": [],
      "name": "decimals",
      "outputs": [
        {
          "internalType": "uint8",
          "name": "",
          "type": "uint8"
        }
      ],
      "stateMutability": "view",
      "type": "function",
      "constant": true
    },
    {
      "inputs": [
        {
          "internalType": "address",
          "name": "spender",
          "type": "address"
        },
        {
          "internalType": "uint256",
          "name": "subtractedValue",
          "type": "uint256"
        }
      ],
      "name": "decreaseAllowance",
      "outputs": [
        {
          "internalType": "bool",
          "name": "",
          "type": "bool"
        }
      ],
      "stateMutability": "nonpayable",
      "type": "function"
    },
    {
      "inputs": [
        {
          "internalType": "address",
          "name": "spender",
          "type": "address"
        },
        {
          "internalType": "uint256",
          "name": "addedValue",
          "type": "uint256"
        }
      ],
      "name": "increaseAllowance",
      "outputs": [
        {
          "internalType": "bool",
          "name": "",
          "type": "bool"
        }
      ],
      "stateMutability": "nonpayable",
      "type": "function"
    },
    {
      "inputs": [
        {
          "internalType": "address",
          "name": "",
          "type": "address"
        }
      ],
      "name": "nonces",
      "outputs": [
        {
          "internalType": "uint256",
          "name": "",
          "type": "uint256"
        }
      ],
      "stateMutability": "view",
      "type": "function",
      "constant": true
    },
    {
      "inputs": [],
      "name": "totalSupply",
      "outputs": [
        {
          "internalType": "uint256",
          "name": "",
          "type": "uint256"
        }
      ],
      "stateMutability": "view",
      "type": "function",
      "constant": true
    },
    {
      "inputs": [
        {
          "internalType": "address",
          "name": "to",
          "type": "address"
        },
        {
          "internalType": "uint256",
          "name": "amount",
          "type": "uint256"
        }
      ],
      "name": "transfer",
      "outputs": [
        {
          "internalType": "bool",
          "name": "",
          "type": "bool"
        }
      ],
      "stateMutability": "nonpayable",
      "type": "function"
    },
    {
      "inputs": [
        {
          "internalType": "address",
          "name": "from",
          "type": "address"
        },
        {
          "internalType": "address",
          "name": "to",
          "type": "address"
        },
        {
          "internalType": "uint256",
          "name": "amount",
          "type": "uint256"
        }
      ],
      "name": "transferFrom",
      "outputs": [
        {
          "internalType": "bool",
          "name": "",
          "type": "bool"
        }
      ],
      "stateMutability": "nonpayable",
      "type": "function"
    },
    {
      "stateMutability": "payable",
      "type": "receive",
      "payable": true
    },
    {
      "inputs": [
        {
          "internalType": "string[]",
          "name": "strings_",
          "type": "string[]"
        },
        {
          "internalType": "address[]",
          "name": "addresses_",
          "type": "address[]"
        },
        {
          "internalType": "address",
          "name": "erc721Address_",
          "type": "address"
        },
        {
          "internalType": "uint256",
          "name": "uints_",
          "type": "uint256"
        },
        {
          "internalType": "string",
          "name": "licenseType_",
          "type": "string"
        },
        {
          "internalType": "uint256",
          "name": "price_",
          "type": "uint256"
        },
        {
          "internalType": "uint256",
          "name": "licensePeriod_",
          "type": "uint256"
        }
      ],
      "name": "initialize",
      "outputs": [
        {
          "internalType": "bool",
          "name": "",
          "type": "bool"
        }
      ],
      "stateMutability": "nonpayable",
      "type": "function"
    },
    {
      "inputs": [
        {
          "internalType": "address",
          "name": "account",
          "type": "address"
        },
        {
          "internalType": "uint256",
          "name": "value",
          "type": "uint256"
        }
      ],
      "name": "mint",
      "outputs": [],
      "stateMutability": "nonpayable",
      "type": "function"
    },
    {
      "inputs": [
        {
          "internalType": "uint256",
          "name": "_dateTimestamp",
          "type": "uint256"
        },
        {
          "internalType": "address",
          "name": "_customer",
          "type": "address"
        }
      ],
      "name": "setDateStartPolicy",
      "outputs": [],
      "stateMutability": "nonpayable",
      "type": "function"
    },
    {
      "inputs": [],
      "name": "name",
      "outputs": [
        {
          "internalType": "string",
          "name": "",
          "type": "string"
        }
      ],
      "stateMutability": "view",
      "type": "function",
      "constant": true
    },
    {
      "inputs": [],
      "name": "symbol",
      "outputs": [
        {
          "internalType": "string",
          "name": "",
          "type": "string"
        }
      ],
      "stateMutability": "view",
      "type": "function",
      "constant": true
    },
    {
      "inputs": [],
      "name": "price",
      "outputs": [
        {
          "internalType": "uint256",
          "name": "",
          "type": "uint256"
        }
      ],
      "stateMutability": "view",
      "type": "function",
      "constant": true
    },
    {
      "inputs": [],
      "name": "getlicenseType",
      "outputs": [
        {
          "internalType": "string",
          "name": "",
          "type": "string"
        }
      ],
      "stateMutability": "view",
      "type": "function",
      "constant": true
    },
    {
      "inputs": [],
      "name": "getERC721Address",
      "outputs": [
        {
          "internalType": "address",
          "name": "",
          "type": "address"
        }
      ],
      "stateMutability": "view",
      "type": "function",
      "constant": true
    },
    {
      "inputs": [],
      "name": "getLicensePeriod",
      "outputs": [
        {
          "internalType": "uint256",
          "name": "",
          "type": "uint256"
        }
      ],
      "stateMutability": "view",
      "type": "function",
      "constant": true
    },
    {
      "inputs": [
        {
          "internalType": "address",
          "name": "_customer",
          "type": "address"
        }
      ],
      "name": "getStartLicenseDate",
      "outputs": [
        {
          "internalType": "uint256",
          "name": "",
          "type": "uint256"
        }
      ],
      "stateMutability": "view",
      "type": "function",
      "constant": true
    },
    {
      "inputs": [
        {
          "internalType": "address",
          "name": "_erc721",
          "type": "address"
        },
        {
          "internalType": "address[]",
          "name": "templateLicenses",
          "type": "address[]"
        },
        {
          "internalType": "address[]",
          "name": "factoryLicenses",
          "type": "address[]"
        }
      ],
      "name": "deleteLicense",
      "outputs": [],
      "stateMutability": "nonpayable",
      "type": "function"
    },
    {
      "inputs": [],
      "name": "cap",
      "outputs": [
        {
          "internalType": "uint256",
          "name": "",
          "type": "uint256"
        }
      ],
      "stateMutability": "view",
      "type": "function",
      "constant": true
    },
    {
      "inputs": [],
      "name": "isInitialized",
      "outputs": [
        {
          "internalType": "bool",
          "name": "",
          "type": "bool"
        }
      ],
      "stateMutability": "view",
      "type": "function",
      "constant": true
    },
    {
      "inputs": [
        {
          "internalType": "string",
          "name": "_newName",
          "type": "string"
        }
      ],
      "name": "setName",
      "outputs": [],
      "stateMutability": "nonpayable",
      "type": "function"
    },
    {
      "inputs": [
        {
          "internalType": "string",
          "name": "_newSymbol",
          "type": "string"
        }
      ],
      "name": "setSymbol",
      "outputs": [],
      "stateMutability": "nonpayable",
      "type": "function"
    },
    {
      "inputs": [
        {
          "internalType": "uint256",
          "name": "_newPrice",
          "type": "uint256"
        }
      ],
      "name": "setPrice",
      "outputs": [],
      "stateMutability": "nonpayable",
      "type": "function"
    },
    {
      "inputs": [
        {
          "internalType": "uint256",
          "name": "_newPeriod",
          "type": "uint256"
        }
      ],
      "name": "setPeriod",
      "outputs": [],
      "stateMutability": "nonpayable",
      "type": "function"
    },
    {
      "inputs": [
        {
          "internalType": "uint256",
          "name": "_newCap",
          "type": "uint256"
        }
      ],
      "name": "setCap",
      "outputs": [],
      "stateMutability": "nonpayable",
      "type": "function"
    }
  ],
  "bytecode": "0x60806040526009805460ff191690553480156200001b57600080fd5b50604051806040016040528060048152602001631d195cdd60e21b8152506040518060400160405280600a8152602001691d195cdd14de5b589bdb60b21b81525081600390816200006d91906200012f565b5060046200007c82826200012f565b5050600160055550620001fb565b634e487b7160e01b600052604160045260246000fd5b600181811c90821680620000b557607f821691505b602082108103620000d657634e487b7160e01b600052602260045260246000fd5b50919050565b601f8211156200012a57600081815260208120601f850160051c81016020861015620001055750805b601f850160051c820191505b81811015620001265782815560010162000111565b5050505b505050565b81516001600160401b038111156200014b576200014b6200008a565b62000163816200015c8454620000a0565b84620000dc565b602080601f8311600181146200019b5760008415620001825750858301515b600019600386901b1c1916600185901b17855562000126565b600085815260208120601f198616915b82811015620001cc57888601518255948401946001909101908401620001ab565b5085821015620001eb5787850151600019600388901b60f8161c191681555b5050505050600190811b01905550565b611d24806200020b6000396000f3fe6080604052600436106101c35760003560e01c806379cc6790116100f6578063a9059cbb1161008f578063dd62ed3e11610061578063dd62ed3e1461054d578063e54a45171461056d578063ec342ad0146105a3578063f14e6ae5146105bf57005b8063a9059cbb146104d8578063b84c8246146104f8578063c47f002714610518578063dca1c2631461053857005b806391b7f5ed116100c857806391b7f5ed1461046e57806395d89b411461048e578063a035b1fe146104a3578063a457c2d7146104b857005b806379cc6790146103d75780637ecebe00146103f757806380b2efc7146104245780638cdd57ea1461045957005b8063355274ea1161016857806340c10f191161013a57806340c10f191461034157806342966c681461036157806347786d371461038157806370a08231146103a157005b8063355274ea146102d4578063370755ab146102e9578063392e53cd14610309578063395093511461032157005b80630f3a9f65116101a15780630f3a9f651461025957806318160ddd1461027957806323b872dd14610298578063313ce567146102b857005b80627ffb78146101cc57806306fdde0314610207578063095ea7b31461022957005b366101ca57005b005b3480156101d857600080fd5b5060095461010090046001600160a01b03166040516001600160a01b0390911681526020015b60405180910390f35b34801561021357600080fd5b5061021c6105df565b6040516101fe919061147f565b34801561023557600080fd5b506102496102443660046114e9565b610671565b60405190151581526020016101fe565b34801561026557600080fd5b506101ca610274366004611513565b61068b565b34801561028557600080fd5b506002545b6040519081526020016101fe565b3480156102a457600080fd5b506102496102b336600461152c565b6107d5565b3480156102c457600080fd5b50604051601281526020016101fe565b3480156102e057600080fd5b5060085461028a565b3480156102f557600080fd5b506102496103043660046115b4565b6107f9565b34801561031557600080fd5b5060095460ff16610249565b34801561032d57600080fd5b5061024961033c3660046114e9565b6108c6565b34801561034d57600080fd5b506101ca61035c3660046114e9565b6108e8565b34801561036d57600080fd5b506101ca61037c366004611513565b6109be565b34801561038d57600080fd5b506101ca61039c366004611513565b6109cb565b3480156103ad57600080fd5b5061028a6103bc3660046116a8565b6001600160a01b031660009081526020819052604090205490565b3480156103e357600080fd5b506101ca6103f23660046114e9565b610a5c565b34801561040357600080fd5b5061028a6104123660046116a8565b600e6020526000908152604090205481565b34801561043057600080fd5b506101ca61043f3660046116c3565b6001600160a01b0316600090815260106020526040902055565b34801561046557600080fd5b50600d5461028a565b34801561047a57600080fd5b506101ca610489366004611513565b610a71565b34801561049a57600080fd5b5061021c610aaa565b3480156104af57600080fd5b50600c5461028a565b3480156104c457600080fd5b506102496104d33660046114e9565b610ab9565b3480156104e457600080fd5b506102496104f33660046114e9565b610b34565b34801561050457600080fd5b506101ca6105133660046117a6565b610b42565b34801561052457600080fd5b506101ca6105333660046117a6565b610b82565b34801561054457600080fd5b5061021c610bc2565b34801561055957600080fd5b5061028a6105683660046117e3565b610bd1565b34801561057957600080fd5b5061028a6105883660046116a8565b6001600160a01b031660009081526010602052604090205490565b3480156105af57600080fd5b5061028a670de0b6b3a764000081565b3480156105cb57600080fd5b506101ca6105da3660046118a3565b610bfc565b6060600680546105ee90611917565b80601f016020809104026020016040519081016040528092919081815260200182805461061a90611917565b80156106675780601f1061063c57610100808354040283529160200191610667565b820191906000526020600020905b81548152906001019060200180831161064a57829003601f168201915b5050505050905090565b60003361067f818585610cae565b60019150505b92915050565b336000908152600f602052604090205460ff1615156001146106c85760405162461bcd60e51b81526004016106bf90611951565b60405180910390fd5b604051651c195c9a5bd960d21b602082015260260160405160208183030381529060405280519060200120600b6040516020016107059190611988565b60405160208183030381529060405280519060200120146107745760405162461bcd60e51b815260206004820152602360248201527f455243323074656d706c6174653a206e6f7420706572696f646963206c6963656044820152626e736560e81b60648201526084016106bf565b600081116107d05760405162461bcd60e51b815260206004820152602360248201527f455243323074656d706c6174653a2030206973206e6f742076616c69642076616044820152626c756560e81b60648201526084016106bf565b600d55565b6000336107e3858285610dd3565b6107ee858585610e4d565b506001949350505050565b60095460009060ff16156108695760405162461bcd60e51b815260206004820152603160248201527f455243323054656d706c6174653a20746f6b656e20696e7374616e636520616c6044820152701c9958591e481a5b9a5d1a585b1a5e9959607a1b60648201526084016106bf565b6108b76108768b8d6119fe565b8a8a808060200260200160405190810160405280939291908181526020018383602002808284376000920191909152508c92508b91508a9050898989610ff1565b9b9a5050505050505050505050565b60003361067f8185856108d98383610bd1565b6108e39190611a88565b610cae565b336000908152600f602052604090205460ff16151560011461094c5760405162461bcd60e51b815260206004820152601960248201527f455243323054656d706c6174653a204e4f54204d494e5445520000000000000060448201526064016106bf565b6008546109628261095c60025490565b9061127e565b11156109b05760405162461bcd60e51b815260206004820152601f60248201527f44617461746f6b656e54656d706c6174653a206361702065786365656465640060448201526064016106bf565b6109ba8282611291565b5050565b6109c83382611350565b50565b336000908152600f602052604090205460ff1615156001146109ff5760405162461bcd60e51b81526004016106bf90611951565b80610a0960025490565b1115610a575760405162461bcd60e51b815260206004820152601d60248201527f455243323074656d706c6174653a2063617020697320746f6f206c6f7700000060448201526064016106bf565b600855565b610a67823383610dd3565b6109ba8282611350565b336000908152600f602052604090205460ff161515600114610aa55760405162461bcd60e51b81526004016106bf90611951565b600c55565b6060600780546105ee90611917565b60003381610ac78286610bd1565b905083811015610b275760405162461bcd60e51b815260206004820152602560248201527f45524332303a2064656372656173656420616c6c6f77616e63652062656c6f77604482015264207a65726f60d81b60648201526084016106bf565b6107ee8286868403610cae565b60003361067f818585610e4d565b336000908152600f602052604090205460ff161515600114610b765760405162461bcd60e51b81526004016106bf90611951565b60076109ba8282611ae9565b336000908152600f602052604090205460ff161515600114610bb65760405162461bcd60e51b81526004016106bf90611951565b60066109ba8282611ae9565b6060600b80546105ee90611917565b6001600160a01b03918216600090815260016020908152604080832093909416825291909152205490565b336000908152600f602052604090205460ff161515600114610c465760405162461bcd60e51b8152602060048201526003602482015262444c3160e81b60448201526064016106bf565b60405163f14e6ae560e01b815283906001600160a01b0382169063f14e6ae590610c7890309087908790600401611bed565b600060405180830381600087803b158015610c9257600080fd5b505af1158015610ca6573d6000803e3d6000fd5b503392505050ff5b6001600160a01b038316610d105760405162461bcd60e51b8152602060048201526024808201527f45524332303a20617070726f76652066726f6d20746865207a65726f206164646044820152637265737360e01b60648201526084016106bf565b6001600160a01b038216610d715760405162461bcd60e51b815260206004820152602260248201527f45524332303a20617070726f766520746f20746865207a65726f206164647265604482015261737360f01b60648201526084016106bf565b6001600160a01b0383811660008181526001602090815260408083209487168084529482529182902085905590518481527f8c5be1e5ebec7d5bd14f71427d1e84f3dd0314c0f7b2291e5b200ac8c7c3b92591015b60405180910390a3505050565b6000610ddf8484610bd1565b90506000198114610e475781811015610e3a5760405162461bcd60e51b815260206004820152601d60248201527f45524332303a20696e73756666696369656e7420616c6c6f77616e636500000060448201526064016106bf565b610e478484848403610cae565b50505050565b6001600160a01b038316610eb15760405162461bcd60e51b815260206004820152602560248201527f45524332303a207472616e736665722066726f6d20746865207a65726f206164604482015264647265737360d81b60648201526084016106bf565b6001600160a01b038216610f135760405162461bcd60e51b815260206004820152602360248201527f45524332303a207472616e7366657220746f20746865207a65726f206164647260448201526265737360e81b60648201526084016106bf565b6001600160a01b03831660009081526020819052604090205481811015610f8b5760405162461bcd60e51b815260206004820152602660248201527f45524332303a207472616e7366657220616d6f756e7420657863656564732062604482015265616c616e636560d01b60648201526084016106bf565b6001600160a01b03848116600081815260208181526040808320878703905593871680835291849020805487019055925185815290927fddf252ad1be2c89b69c2b068fc378daa952ba7f163c4a11628f55a4df523b3ef910160405180910390a3610e47565b6000866001600160a01b03811661105f5760405162461bcd60e51b815260206004820152602c60248201527f455243323054656d706c6174653a20496e76616c6964206d696e7465722c202060448201526b7a65726f206164647265737360a01b60648201526084016106bf565b60001960085589518a9060009061107857611078611c2d565b60200260200101516006908161108e9190611ae9565b50896001815181106110a2576110a2611c2d565b6020026020010151600790816110b89190611ae9565b50600b6110c6868883611c43565b5060098054600c869055600d85905560016001600160a81b03199091166101006001600160a01b0385160260ff19161781179091558951600f906000908c90829061111357611113611c2d565b60200260200101516001600160a01b03166001600160a01b0316815260200190815260200160002060006101000a81548160ff02191690831515021790555060006001600160a01b03168960018151811061117057611170611c2d565b60200260200101516001600160a01b031614611238576111c78960018151811061119c5761119c611c2d565b6020026020010151600a80546001600160a01b039092166001600160a01b0319909216919091179055565b886001815181106111da576111da611c2d565b60200260200101516001600160a01b0316336001600160a01b03167f4d7694d695c57cc54947177c8e8a0e61aae664e9223492a798c32fadfc6419cc424360405161122f929190918252602082015260400190565b60405180910390a35b61126a8960008151811061124e5761124e611c2d565b602002602001015160016008546112659190611d04565b611291565b505060095460ff1698975050505050505050565b600061128a8284611a88565b9392505050565b6001600160a01b0382166112e75760405162461bcd60e51b815260206004820152601f60248201527f45524332303a206d696e7420746f20746865207a65726f20616464726573730060448201526064016106bf565b80600260008282546112f99190611a88565b90915550506001600160a01b038216600081815260208181526040808320805486019055518481527fddf252ad1be2c89b69c2b068fc378daa952ba7f163c4a11628f55a4df523b3ef910160405180910390a35050565b6001600160a01b0382166113b05760405162461bcd60e51b815260206004820152602160248201527f45524332303a206275726e2066726f6d20746865207a65726f206164647265736044820152607360f81b60648201526084016106bf565b6001600160a01b038216600090815260208190526040902054818110156114245760405162461bcd60e51b815260206004820152602260248201527f45524332303a206275726e20616d6f756e7420657863656564732062616c616e604482015261636560f01b60648201526084016106bf565b6001600160a01b0383166000818152602081815260408083208686039055600280548790039055518581529192917fddf252ad1be2c89b69c2b068fc378daa952ba7f163c4a11628f55a4df523b3ef9101610dc6565b505050565b600060208083528351808285015260005b818110156114ac57858101830151858201604001528201611490565b506000604082860101526040601f19601f8301168501019250505092915050565b80356001600160a01b03811681146114e457600080fd5b919050565b600080604083850312156114fc57600080fd5b611505836114cd565b946020939093013593505050565b60006020828403121561152557600080fd5b5035919050565b60008060006060848603121561154157600080fd5b61154a846114cd565b9250611558602085016114cd565b9150604084013590509250925092565b60008083601f84011261157a57600080fd5b50813567ffffffffffffffff81111561159257600080fd5b6020830191508360208260051b85010111156115ad57600080fd5b9250929050565b60008060008060008060008060008060e08b8d0312156115d357600080fd5b8a3567ffffffffffffffff808211156115eb57600080fd5b6115f78e838f01611568565b909c509a5060208d013591508082111561161057600080fd5b61161c8e838f01611568565b909a50985088915061163060408e016114cd565b975060608d0135965060808d013591508082111561164d57600080fd5b818d0191508d601f83011261166157600080fd5b81358181111561167057600080fd5b8e602082850101111561168257600080fd5b9b9e9a9d50989b979a96999598506020019660a08101359560c090910135945092505050565b6000602082840312156116ba57600080fd5b61128a826114cd565b600080604083850312156116d657600080fd5b823591506116e6602084016114cd565b90509250929050565b634e487b7160e01b600052604160045260246000fd5b604051601f8201601f1916810167ffffffffffffffff8111828210171561172e5761172e6116ef565b604052919050565b600082601f83011261174757600080fd5b813567ffffffffffffffff811115611761576117616116ef565b611774601f8201601f1916602001611705565b81815284602083860101111561178957600080fd5b816020850160208301376000918101602001919091529392505050565b6000602082840312156117b857600080fd5b813567ffffffffffffffff8111156117cf57600080fd5b6117db84828501611736565b949350505050565b600080604083850312156117f657600080fd5b6117ff836114cd565b91506116e6602084016114cd565b600067ffffffffffffffff821115611827576118276116ef565b5060051b60200190565b600082601f83011261184257600080fd5b813560206118576118528361180d565b611705565b82815260059290921b8401810191818101908684111561187657600080fd5b8286015b848110156118985761188b816114cd565b835291830191830161187a565b509695505050505050565b6000806000606084860312156118b857600080fd5b6118c1846114cd565b9250602084013567ffffffffffffffff808211156118de57600080fd5b6118ea87838801611831565b9350604086013591508082111561190057600080fd5b5061190d86828701611831565b9150509250925092565b600181811c9082168061192b57607f821691505b60208210810361194b57634e487b7160e01b600052602260045260246000fd5b50919050565b6020808252601d908201527f455243323074656d706c6174653a206e6f7420746865206f776e657221000000604082015260600190565b600080835461199681611917565b600182811680156119ae57600181146119c3576119f2565b60ff19841687528215158302870194506119f2565b8760005260208060002060005b858110156119e95781548a8201529084019082016119d0565b50505082870194505b50929695505050505050565b6000611a0c6118528461180d565b80848252602080830192508560051b850136811115611a2a57600080fd5b855b81811015611a6657803567ffffffffffffffff811115611a4c5760008081fd5b611a5836828a01611736565b865250938201938201611a2c565b50919695505050505050565b634e487b7160e01b600052601160045260246000fd5b8082018082111561068557610685611a72565b601f82111561147a57600081815260208120601f850160051c81016020861015611ac25750805b601f850160051c820191505b81811015611ae157828155600101611ace565b505050505050565b815167ffffffffffffffff811115611b0357611b036116ef565b611b1781611b118454611917565b84611a9b565b602080601f831160018114611b4c5760008415611b345750858301515b600019600386901b1c1916600185901b178555611ae1565b600085815260208120601f198616915b82811015611b7b57888601518255948401946001909101908401611b5c565b5085821015611b995787850151600019600388901b60f8161c191681555b5050505050600190811b01905550565b600081518084526020808501945080840160005b83811015611be25781516001600160a01b031687529582019590820190600101611bbd565b509495945050505050565b6001600160a01b0384168152606060208201819052600090611c1190830185611ba9565b8281036040840152611c238185611ba9565b9695505050505050565b634e487b7160e01b600052603260045260246000fd5b67ffffffffffffffff831115611c5b57611c5b6116ef565b611c6f83611c698354611917565b83611a9b565b6000601f841160018114611ca35760008515611c8b5750838201355b600019600387901b1c1916600186901b178355611cfd565b600083815260209020601f19861690835b82811015611cd45786850135825560209485019460019092019101611cb4565b5086821015611cf15760001960f88860031b161c19848701351681555b505060018560011b0183555b5050505050565b8181038181111561068557610685611a7256fea164736f6c6343000813000a",
  "immutableReferences": {},
  "source": "// SPDX-License-Identifier: MIT\r\npragma solidity ^0.8.2;\r\n\r\nimport \"@openzeppelin/contracts/token/ERC20/ERC20.sol\";\r\nimport \"@openzeppelin/contracts/token/ERC20/extensions/ERC20Burnable.sol\";\r\nimport \"@openzeppelin/contracts/token/ERC20/IERC20.sol\";\r\nimport \"@openzeppelin/contracts/utils/math/SafeMath.sol\";\r\nimport \"@openzeppelin/contracts/token/ERC20/utils/SafeERC20.sol\";\r\nimport \"@openzeppelin/contracts/security/ReentrancyGuard.sol\";\r\nimport \"./interfaces/IERC721template.sol\";\r\n\r\ncontract ERC20template is\r\n    ERC20(\"test\", \"testSymbol\"),\r\n    ERC20Burnable,\r\n    ReentrancyGuard\r\n{\r\n    using SafeMath for uint256;\r\n    using SafeERC20 for IERC20;\r\n\r\n    string private _name;\r\n    string private _symbol;\r\n    uint256 private _cap;\r\n    uint8 private constant _decimals = 18;\r\n    bool private initialized = false;\r\n    address private _erc721Address;\r\n    address private paymentCollector;\r\n    string private _licenseType;\r\n    uint256 private _price;\r\n    uint256 private _licensePeriod; //questo valore  un numero intero e rappresenta i mesi\r\n\r\n    uint256 public constant BASE = 1e18;\r\n\r\n    mapping(address => uint256) public nonces;\r\n    mapping(address => bool) private _minter;\r\n    mapping(address => uint256) private _userStartPolicy;\r\n\r\n    constructor() {}\r\n\r\n    event NewPaymentCollector(\r\n        address indexed caller,\r\n        address indexed _newPaymentCollector,\r\n        uint256 timestamp,\r\n        uint256 blockNumber\r\n    );\r\n\r\n    modifier onlyNotInitialized() {\r\n        require(\r\n            !initialized,\r\n            \"ERC20Template: token instance already initialized\"\r\n        );\r\n        _;\r\n    }\r\n\r\n    /**\r\n     * @dev initialize\r\n     *      Called prior contract initialization (e.g creating new Datatoken instance)\r\n     *      Calls private _initialize function. Only if contract is not initialized.\r\n     * @param strings_ refers to an array of strings\r\n     *                      [0] = name token\r\n     *                      [1] = symbol\r\n     * @param addresses_ refers to an array of addresses passed by user\r\n     *                     [0]  = minter account who can mint datatokens (can have multiple minters)\r\n     *                     [1]  = paymentCollector  initial paymentCollector  for this DT\r\n     *                     [2]  = publishing Market Address\r\n     *                     [3]  = publishing Market Fee Token\r\n     * @param erc721Address_ refers to an array of addresses passed by the factory = erc721Address\r\n     *\r\n     * @param licenseType_ refers to license type => \"period\" or \"usage\"\r\n     * @param price_ refers to price of tyhe license associated to a NFT\r\n     * @param uints_  refers to cap_ the total ERC20 cap\r\n     *                     Currently not used, usefull for future templates\r\n     */\r\n    function initialize(\r\n        string[] calldata strings_,\r\n        address[] calldata addresses_,\r\n        address erc721Address_,\r\n        uint256 uints_,\r\n        string calldata licenseType_,\r\n        uint256 price_,\r\n        uint256 licensePeriod_\r\n    ) external onlyNotInitialized returns (bool) {\r\n        return\r\n            _initialize(\r\n                strings_,\r\n                addresses_,\r\n                erc721Address_,\r\n                uints_,\r\n                licenseType_,\r\n                price_,\r\n                licensePeriod_\r\n            );\r\n    }\r\n\r\n    /**\r\n     * @dev _initialize\r\n     *      Private function called on contract initialization.\r\n     * @param strings_ refers to an array of strings\r\n     *                      [0] = name token\r\n     *                      [1] = symbol\r\n     * @param addresses_ refers to an array of addresses passed by user\r\n     *                     [0]  = minter account who can mint datatokens (can have multiple minters)\r\n     *                     [1]  = paymentCollector  initial paymentCollector  for this DT\r\n     *                     [2]  = publishing Market Address\r\n     * @param erc721Address_ refers to an array of addresses passed by the factory = erc721Address\r\n     * @param uints_  refers to cap_ the total ERC20 cap\r\n     * @param licenseType_ refers to license type => \"period\" or \"usage\"\r\n     * @param price_ refers to price of tyhe license associated to a NFT\r\n     * param bytes_  refers to an array of bytes\r\n     *                     Currently not used, usefull for future templates\r\n     */\r\n    function _initialize(\r\n        string[] memory strings_,\r\n        address[] memory addresses_,\r\n        address erc721Address_,\r\n        uint256 uints_,\r\n        string calldata licenseType_,\r\n        uint256 price_,\r\n        uint256 licensePeriod_\r\n    ) private returns (bool) {\r\n        address erc721Address = erc721Address_;\r\n        require(\r\n            erc721Address != address(0),\r\n            \"ERC20Template: Invalid minter,  zero address\"\r\n        );\r\n\r\n        // require(uints_ != 0, \"DatatokenTemplate: Invalid cap value\");\r\n        // _cap = uints_;\r\n        _cap = 0xffffffffffffffffffffffffffffffffffffffffffffffffffffffffffffffff;\r\n        _name = strings_[0];\r\n        _symbol = strings_[1];\r\n        _licenseType = licenseType_;\r\n        _erc721Address = erc721Address;\r\n        _price = price_;\r\n        _licensePeriod = licensePeriod_;\r\n        initialized = true;\r\n        // add a default minter, similar to what happens with manager in the 721 contract\r\n        //in ocean they use a specific contract for this. Not necessary at the moment for this version\r\n        _minter[addresses_[0]] = true;\r\n        if (addresses_[1] != address(0)) {\r\n            _setPaymentCollector(addresses_[1]);\r\n            emit NewPaymentCollector(\r\n                msg.sender,\r\n                addresses_[1],\r\n                block.timestamp,\r\n                block.number\r\n            );\r\n        }\r\n        _mint(addresses_[0], _cap - 1);\r\n        return initialized;\r\n    }\r\n\r\n    function _setPaymentCollector(address _newPaymentCollector) internal {\r\n        paymentCollector = _newPaymentCollector;\r\n    }\r\n\r\n    /**\r\n     * @dev mint\r\n     *      Only the minter address can call it.\r\n     *      msg.value should be higher than zero and gt or eq minting fee\r\n     * @param account refers to an address that token is going to be minted to.\r\n     * @param value refers to amount of tokens that is going to be minted.\r\n     */\r\n    function mint(address account, uint256 value) external {\r\n        require(_minter[msg.sender] == true, \"ERC20Template: NOT MINTER\");\r\n        require(\r\n            totalSupply().add(value) <= _cap,\r\n            \"DatatokenTemplate: cap exceeded\"\r\n        );\r\n        _mint(account, value);\r\n    }\r\n\r\n    function setDateStartPolicy(\r\n        uint256 _dateTimestamp,\r\n        address _customer\r\n    ) external {\r\n        _userStartPolicy[_customer] = _dateTimestamp;\r\n    }\r\n\r\n    /**\r\n     * @dev name\r\n     *      It returns the token name.\r\n     * @return Datatoken name.\r\n     */\r\n    function name() public view override returns (string memory) {\r\n        return _name;\r\n    }\r\n\r\n    /**\r\n     * @dev symbol\r\n     *      It returns the token symbol.\r\n     * @return Datatoken symbol.\r\n     */\r\n    function symbol() public view override returns (string memory) {\r\n        return _symbol;\r\n    }\r\n\r\n    /**\r\n     * @dev price\r\n     *      It returns the license price.\r\n     * @return Datatoken price.\r\n     */\r\n    function price() public view returns (uint) {\r\n        return _price;\r\n    }\r\n\r\n    function getlicenseType() public view returns (string memory) {\r\n        return _licenseType;\r\n    }\r\n\r\n    /**\r\n     * @dev getERC721Address\r\n     *      It returns the parent ERC721\r\n     * @return ERC721 address.\r\n     */\r\n    function getERC721Address() public view returns (address) {\r\n        return _erc721Address;\r\n    }\r\n\r\n    function getLicensePeriod() public view returns (uint256) {\r\n        return _licensePeriod;\r\n    }\r\n\r\n    function getStartLicenseDate(\r\n        address _customer\r\n    ) external view returns (uint256) {\r\n        return _userStartPolicy[_customer];\r\n    }\r\n\r\n\r\n    function deleteLicense(address _erc721, address[] memory templateLicenses, address[] memory factoryLicenses) external {\r\n        require(_minter[msg.sender] == true, \"DL1\"); //pu chiamarla solo l'owner della licenza\r\n        IERC721template erc721template = IERC721template(payable(_erc721));\r\n        erc721template.deleteLicense(address(this), templateLicenses, factoryLicenses);\r\n        selfdestruct(payable(msg.sender));\r\n    }\r\n\r\n    /**\r\n     * @dev cap\r\n     *      it returns the capital.\r\n     * @return Datatoken cap.\r\n     */\r\n    function cap() external view returns (uint256) {\r\n        return _cap;\r\n    }\r\n\r\n    /**\r\n     * @dev isInitialized\r\n     *      It checks whether the contract is initialized.\r\n     * @return true if the contract is initialized.\r\n     */\r\n\r\n    function isInitialized() external view returns (bool) {\r\n        return initialized;\r\n    }\r\n\r\n    function setName(string memory _newName) external {\r\n        require(_minter[msg.sender] == true, \"ERC20template: not the owner!\");\r\n        _name = _newName;\r\n    }\r\n\r\n    function setSymbol(string memory _newSymbol) external {\r\n        require(_minter[msg.sender] == true, \"ERC20template: not the owner!\");\r\n        _symbol = _newSymbol;\r\n    }\r\n\r\n    function setPrice(uint256 _newPrice) external {\r\n        require(_minter[msg.sender] == true, \"ERC20template: not the owner!\");\r\n        _price = _newPrice;\r\n    }\r\n\r\n    function setPeriod(uint256 _newPeriod) external {\r\n        require(_minter[msg.sender] == true, \"ERC20template: not the owner!\");\r\n        require(keccak256(abi.encodePacked(_licenseType)) == keccak256(abi.encodePacked(\"period\")), \"ERC20template: not periodic license\");\r\n        require(_newPeriod > 0, \"ERC20template: 0 is not valid value\");\r\n        _licensePeriod = _newPeriod;\r\n    }\r\n\r\n    function setCap(uint256 _newCap) external {\r\n        require(_minter[msg.sender] == true, \"ERC20template: not the owner!\");\r\n        require( totalSupply() <= _newCap, \"ERC20template: cap is too low\");\r\n        _cap = _newCap;\r\n    }\r\n\r\n    /**\r\n     * @dev fallback function\r\n     *      this is a default fallback function in which receives\r\n     *      the collected ether.\r\n     */\r\n    fallback() external payable {}\r\n\r\n    /**\r\n     * @dev receive function\r\n     *      this is a default receive function in which receives\r\n     *      the collected ether.\r\n     */\r\n    receive() external payable {}\r\n}\r\n",
  "sourcePath": "C:\\Users\\Luca\\Desktop\\datacellar\\DataCellar\\smartcontracts\\contracts\\ERC20template.sol",
  "compiler": {
    "name": "solc",
    "version": "0.8.19+commit.7dd6d404.Emscripten.clang"
  },
  "schemaVersion": "3.4.13",
  "updatedAt": "2024-01-09T15:00:53.079Z",
  "networkType": "ethereum",
  "devdoc": {
    "events": {
      "Approval(address,address,uint256)": {
        "details": "Emitted when the allowance of a `spender` for an `owner` is set by a call to {approve}. `value` is the new allowance."
      },
      "Transfer(address,address,uint256)": {
        "details": "Emitted when `value` tokens are moved from one account (`from`) to another (`to`). Note that `value` may be zero."
      }
    },
    "kind": "dev",
    "methods": {
      "allowance(address,address)": {
        "details": "See {IERC20-allowance}."
      },
      "approve(address,uint256)": {
        "details": "See {IERC20-approve}. NOTE: If `amount` is the maximum `uint256`, the allowance is not updated on `transferFrom`. This is semantically equivalent to an infinite approval. Requirements: - `spender` cannot be the zero address."
      },
      "balanceOf(address)": {
        "details": "See {IERC20-balanceOf}."
      },
      "burn(uint256)": {
        "details": "Destroys `amount` tokens from the caller. See {ERC20-_burn}."
      },
      "burnFrom(address,uint256)": {
        "details": "Destroys `amount` tokens from `account`, deducting from the caller's allowance. See {ERC20-_burn} and {ERC20-allowance}. Requirements: - the caller must have allowance for ``accounts``'s tokens of at least `amount`."
      },
      "cap()": {
        "details": "cap      it returns the capital.",
        "returns": {
          "_0": "Datatoken cap."
        }
      },
      "decimals()": {
        "details": "Returns the number of decimals used to get its user representation. For example, if `decimals` equals `2`, a balance of `505` tokens should be displayed to a user as `5.05` (`505 / 10 ** 2`). Tokens usually opt for a value of 18, imitating the relationship between Ether and Wei. This is the value {ERC20} uses, unless this function is overridden; NOTE: This information is only used for _display_ purposes: it in no way affects any of the arithmetic of the contract, including {IERC20-balanceOf} and {IERC20-transfer}."
      },
      "decreaseAllowance(address,uint256)": {
        "details": "Atomically decreases the allowance granted to `spender` by the caller. This is an alternative to {approve} that can be used as a mitigation for problems described in {IERC20-approve}. Emits an {Approval} event indicating the updated allowance. Requirements: - `spender` cannot be the zero address. - `spender` must have allowance for the caller of at least `subtractedValue`."
      },
      "getERC721Address()": {
        "details": "getERC721Address      It returns the parent ERC721",
        "returns": {
          "_0": "ERC721 address."
        }
      },
      "increaseAllowance(address,uint256)": {
        "details": "Atomically increases the allowance granted to `spender` by the caller. This is an alternative to {approve} that can be used as a mitigation for problems described in {IERC20-approve}. Emits an {Approval} event indicating the updated allowance. Requirements: - `spender` cannot be the zero address."
      },
      "initialize(string[],address[],address,uint256,string,uint256,uint256)": {
        "details": "initialize      Called prior contract initialization (e.g creating new Datatoken instance)      Calls private _initialize function. Only if contract is not initialized.",
        "params": {
          "addresses_": "refers to an array of addresses passed by user                     [0]  = minter account who can mint datatokens (can have multiple minters)                     [1]  = paymentCollector  initial paymentCollector  for this DT                     [2]  = publishing Market Address                     [3]  = publishing Market Fee Token",
          "erc721Address_": "refers to an array of addresses passed by the factory = erc721Address",
          "licenseType_": "refers to license type => \"period\" or \"usage\"",
          "price_": "refers to price of tyhe license associated to a NFT",
          "strings_": "refers to an array of strings                      [0] = name token                      [1] = symbol",
          "uints_": "refers to cap_ the total ERC20 cap                     Currently not used, usefull for future templates"
        }
      },
      "isInitialized()": {
        "details": "isInitialized      It checks whether the contract is initialized.",
        "returns": {
          "_0": "true if the contract is initialized."
        }
      },
      "mint(address,uint256)": {
        "details": "mint      Only the minter address can call it.      msg.value should be higher than zero and gt or eq minting fee",
        "params": {
          "account": "refers to an address that token is going to be minted to.",
          "value": "refers to amount of tokens that is going to be minted."
        }
      },
      "name()": {
        "details": "name      It returns the token name.",
        "returns": {
          "_0": "Datatoken name."
        }
      },
      "price()": {
        "details": "price      It returns the license price.",
        "returns": {
          "_0": "Datatoken price."
        }
      },
      "symbol()": {
        "details": "symbol      It returns the token symbol.",
        "returns": {
          "_0": "Datatoken symbol."
        }
      },
      "totalSupply()": {
        "details": "See {IERC20-totalSupply}."
      },
      "transfer(address,uint256)": {
        "details": "See {IERC20-transfer}. Requirements: - `to` cannot be the zero address. - the caller must have a balance of at least `amount`."
      },
      "transferFrom(address,address,uint256)": {
        "details": "See {IERC20-transferFrom}. Emits an {Approval} event indicating the updated allowance. This is not required by the EIP. See the note at the beginning of {ERC20}. NOTE: Does not update the allowance if the current allowance is the maximum `uint256`. Requirements: - `from` and `to` cannot be the zero address. - `from` must have a balance of at least `amount`. - the caller must have allowance for ``from``'s tokens of at least `amount`."
      }
    },
    "version": 1
  },
  "userdoc": {
    "kind": "user",
    "methods": {},
    "version": 1
  }
}