{
  "contractName": "ERC721template",
  "abi": [
    {
      "anonymous": false,
      "inputs": [
        {
          "indexed": true,
          "internalType": "address",
          "name": "owner",
          "type": "address"
        },
        {
          "indexed": true,
          "internalType": "address",
          "name": "approved",
          "type": "address"
        },
        {
          "indexed": true,
          "internalType": "uint256",
          "name": "tokenId",
          "type": "uint256"
        }
      ],
      "name": "Approval",
      "type": "event"
    },
    {
      "anonymous": false,
      "inputs": [
        {
          "indexed": true,
          "internalType": "address",
          "name": "owner",
          "type": "address"
        },
        {
          "indexed": true,
          "internalType": "address",
          "name": "operator",
          "type": "address"
        },
        {
          "indexed": false,
          "internalType": "bool",
          "name": "approved",
          "type": "bool"
        }
      ],
      "name": "ApprovalForAll",
      "type": "event"
    },
    {
      "anonymous": false,
      "inputs": [
        {
          "indexed": true,
          "internalType": "address",
          "name": "updatedBy",
          "type": "address"
        },
        {
          "indexed": false,
          "internalType": "string",
          "name": "tokenURI",
          "type": "string"
        },
        {
          "indexed": false,
          "internalType": "uint256",
          "name": "tokenID",
          "type": "uint256"
        },
        {
          "indexed": false,
          "internalType": "uint256",
          "name": "timestamp",
          "type": "uint256"
        },
        {
          "indexed": false,
          "internalType": "uint256",
          "name": "blockNumber",
          "type": "uint256"
        }
      ],
      "name": "TokenURIUpdate",
      "type": "event"
    },
    {
      "anonymous": false,
      "inputs": [
        {
          "indexed": true,
          "internalType": "address",
          "name": "from",
          "type": "address"
        },
        {
          "indexed": true,
          "internalType": "address",
          "name": "to",
          "type": "address"
        },
        {
          "indexed": true,
          "internalType": "uint256",
          "name": "tokenId",
          "type": "uint256"
        }
      ],
      "name": "Transfer",
      "type": "event"
    },
    {
      "anonymous": false,
      "inputs": [
        {
          "indexed": false,
          "internalType": "string",
          "name": "nameT",
          "type": "string"
        },
        {
          "indexed": false,
          "internalType": "string",
          "name": "symbolT",
          "type": "string"
        },
        {
          "indexed": false,
          "internalType": "address",
          "name": "owner",
          "type": "address"
        },
        {
          "indexed": false,
          "internalType": "uint256",
          "name": "cap",
          "type": "uint256"
        },
        {
          "indexed": false,
          "internalType": "string",
          "name": "licenseType",
          "type": "string"
        },
        {
          "indexed": false,
          "internalType": "uint256",
          "name": "price",
          "type": "uint256"
        },
        {
          "indexed": false,
          "internalType": "address",
          "name": "licenseErc20",
          "type": "address"
        }
      ],
      "name": "licenseERC20Created",
      "type": "event"
    },
    {
      "anonymous": false,
      "inputs": [
        {
          "indexed": false,
          "internalType": "bool",
          "name": "result",
          "type": "bool"
        },
        {
          "indexed": false,
          "internalType": "address",
          "name": "nft",
          "type": "address"
        },
        {
          "indexed": false,
          "internalType": "uint256",
          "name": "startDate",
          "type": "uint256"
        },
        {
          "indexed": false,
          "internalType": "uint256",
          "name": "todayDate",
          "type": "uint256"
        }
      ],
      "name": "nftConsumedPeriod",
      "type": "event"
    },
    {
      "anonymous": false,
      "inputs": [
        {
          "indexed": false,
          "internalType": "bool",
          "name": "result",
          "type": "bool"
        },
        {
          "indexed": false,
          "internalType": "address",
          "name": "nft",
          "type": "address"
        },
        {
          "indexed": false,
          "internalType": "uint256",
          "name": "usageRemain",
          "type": "uint256"
        }
      ],
      "name": "nftConsumedUsage",
      "type": "event"
    },
    {
      "stateMutability": "payable",
      "type": "fallback",
      "payable": true
    },
    {
      "inputs": [
        {
          "internalType": "address",
          "name": "to",
          "type": "address"
        },
        {
          "internalType": "uint256",
          "name": "tokenId",
          "type": "uint256"
        }
      ],
      "name": "approve",
      "outputs": [],
      "stateMutability": "nonpayable",
      "type": "function"
    },
    {
      "inputs": [
        {
          "internalType": "address",
          "name": "owner",
          "type": "address"
        }
      ],
      "name": "balanceOf",
      "outputs": [
        {
          "internalType": "uint256",
          "name": "",
          "type": "uint256"
        }
      ],
      "stateMutability": "view",
      "type": "function",
      "constant": true
    },
    {
      "inputs": [
        {
          "internalType": "uint256",
          "name": "",
          "type": "uint256"
        }
      ],
      "name": "deployedERC20List",
      "outputs": [
        {
          "internalType": "address",
          "name": "",
          "type": "address"
        }
      ],
      "stateMutability": "view",
      "type": "function",
      "constant": true
    },
    {
      "inputs": [
        {
          "internalType": "uint256",
          "name": "tokenId",
          "type": "uint256"
        }
      ],
      "name": "getApproved",
      "outputs": [
        {
          "internalType": "address",
          "name": "",
          "type": "address"
        }
      ],
      "stateMutability": "view",
      "type": "function",
      "constant": true
    },
    {
      "inputs": [
        {
          "internalType": "address",
          "name": "owner",
          "type": "address"
        },
        {
          "internalType": "address",
          "name": "operator",
          "type": "address"
        }
      ],
      "name": "isApprovedForAll",
      "outputs": [
        {
          "internalType": "bool",
          "name": "",
          "type": "bool"
        }
      ],
      "stateMutability": "view",
      "type": "function",
      "constant": true
    },
    {
      "inputs": [
        {
          "internalType": "uint256",
          "name": "tokenId",
          "type": "uint256"
        }
      ],
      "name": "ownerOf",
      "outputs": [
        {
          "internalType": "address",
          "name": "",
          "type": "address"
        }
      ],
      "stateMutability": "view",
      "type": "function",
      "constant": true
    },
    {
      "inputs": [
        {
          "internalType": "address",
          "name": "from",
          "type": "address"
        },
        {
          "internalType": "address",
          "name": "to",
          "type": "address"
        },
        {
          "internalType": "uint256",
          "name": "tokenId",
          "type": "uint256"
        }
      ],
      "name": "safeTransferFrom",
      "outputs": [],
      "stateMutability": "nonpayable",
      "type": "function"
    },
    {
      "inputs": [
        {
          "internalType": "address",
          "name": "from",
          "type": "address"
        },
        {
          "internalType": "address",
          "name": "to",
          "type": "address"
        },
        {
          "internalType": "uint256",
          "name": "tokenId",
          "type": "uint256"
        },
        {
          "internalType": "bytes",
          "name": "data",
          "type": "bytes"
        }
      ],
      "name": "safeTransferFrom",
      "outputs": [],
      "stateMutability": "nonpayable",
      "type": "function"
    },
    {
      "inputs": [
        {
          "internalType": "address",
          "name": "operator",
          "type": "address"
        },
        {
          "internalType": "bool",
          "name": "approved",
          "type": "bool"
        }
      ],
      "name": "setApprovalForAll",
      "outputs": [],
      "stateMutability": "nonpayable",
      "type": "function"
    },
    {
      "inputs": [
        {
          "internalType": "bytes4",
          "name": "interfaceId",
          "type": "bytes4"
        }
      ],
      "name": "supportsInterface",
      "outputs": [
        {
          "internalType": "bool",
          "name": "",
          "type": "bool"
        }
      ],
      "stateMutability": "view",
      "type": "function",
      "constant": true
    },
    {
      "inputs": [
        {
          "internalType": "uint256",
          "name": "tokenId",
          "type": "uint256"
        }
      ],
      "name": "tokenURI",
      "outputs": [
        {
          "internalType": "string",
          "name": "",
          "type": "string"
        }
      ],
      "stateMutability": "view",
      "type": "function",
      "constant": true
    },
    {
      "inputs": [
        {
          "internalType": "address",
          "name": "from",
          "type": "address"
        },
        {
          "internalType": "address",
          "name": "to",
          "type": "address"
        },
        {
          "internalType": "uint256",
          "name": "tokenId",
          "type": "uint256"
        }
      ],
      "name": "transferFrom",
      "outputs": [],
      "stateMutability": "nonpayable",
      "type": "function"
    },
    {
      "inputs": [],
      "name": "transferable",
      "outputs": [
        {
          "internalType": "bool",
          "name": "",
          "type": "bool"
        }
      ],
      "stateMutability": "view",
      "type": "function",
      "constant": true
    },
    {
      "stateMutability": "payable",
      "type": "receive",
      "payable": true
    },
    {
      "inputs": [
        {
          "internalType": "address",
          "name": "owner",
          "type": "address"
        },
        {
          "internalType": "string",
          "name": "name_",
          "type": "string"
        },
        {
          "internalType": "string",
          "name": "symbol_",
          "type": "string"
        },
        {
          "internalType": "address",
          "name": "tokenFactory",
          "type": "address"
        },
        {
          "internalType": "string",
          "name": "tokenURI",
          "type": "string"
        },
        {
          "internalType": "bool",
          "name": "transferable_",
          "type": "bool"
        }
      ],
      "name": "initialize",
      "outputs": [
        {
          "internalType": "bool",
          "name": "",
          "type": "bool"
        }
      ],
      "stateMutability": "nonpayable",
      "type": "function"
    },
    {
      "inputs": [
        {
          "internalType": "uint256",
          "name": "tokenId",
          "type": "uint256"
        },
        {
          "internalType": "string",
          "name": "tokenURI",
          "type": "string"
        }
      ],
      "name": "setTokenURI",
      "outputs": [],
      "stateMutability": "nonpayable",
      "type": "function"
    },
    {
      "inputs": [
        {
          "internalType": "uint256",
          "name": "_templateIndex",
          "type": "uint256"
        },
        {
          "internalType": "string[]",
          "name": "strings",
          "type": "string[]"
        },
        {
          "internalType": "address[]",
          "name": "addresses",
          "type": "address[]"
        },
        {
          "internalType": "uint256",
          "name": "uints",
          "type": "uint256"
        },
        {
          "internalType": "string",
          "name": "licenseType",
          "type": "string"
        },
        {
          "internalType": "uint256",
          "name": "price",
          "type": "uint256"
        },
        {
          "internalType": "uint256",
          "name": "licensePeriod",
          "type": "uint256"
        }
      ],
      "name": "createERC20",
      "outputs": [
        {
          "internalType": "address",
          "name": "",
          "type": "address"
        }
      ],
      "stateMutability": "nonpayable",
      "type": "function"
    },
    {
      "inputs": [
        {
          "internalType": "address",
          "name": "licenseConsume",
          "type": "address"
        }
      ],
      "name": "requestConsumeNFT",
      "outputs": [
        {
          "internalType": "bool",
          "name": "",
          "type": "bool"
        }
      ],
      "stateMutability": "nonpayable",
      "type": "function"
    },
    {
      "inputs": [],
      "name": "name",
      "outputs": [
        {
          "internalType": "string",
          "name": "",
          "type": "string"
        }
      ],
      "stateMutability": "view",
      "type": "function",
      "constant": true
    },
    {
      "inputs": [],
      "name": "symbol",
      "outputs": [
        {
          "internalType": "string",
          "name": "",
          "type": "string"
        }
      ],
      "stateMutability": "view",
      "type": "function",
      "constant": true
    },
    {
      "inputs": [],
      "name": "isInitialized",
      "outputs": [
        {
          "internalType": "bool",
          "name": "",
          "type": "bool"
        }
      ],
      "stateMutability": "view",
      "type": "function",
      "constant": true
    },
    {
      "inputs": [],
      "name": "ownerAddress",
      "outputs": [
        {
          "internalType": "address",
          "name": "",
          "type": "address"
        }
      ],
      "stateMutability": "view",
      "type": "function",
      "constant": true
    },
    {
      "inputs": [],
      "name": "getTokenUri",
      "outputs": [
        {
          "internalType": "string",
          "name": "",
          "type": "string"
        }
      ],
      "stateMutability": "view",
      "type": "function",
      "constant": true
    },
    {
      "inputs": [],
      "name": "getTokensList",
      "outputs": [
        {
          "internalType": "address[]",
          "name": "",
          "type": "address[]"
        }
      ],
      "stateMutability": "view",
      "type": "function",
      "constant": true
    },
    {
      "inputs": [
        {
          "internalType": "address",
          "name": "datatoken",
          "type": "address"
        }
      ],
      "name": "isDeployed",
      "outputs": [
        {
          "internalType": "bool",
          "name": "",
          "type": "bool"
        }
      ],
      "stateMutability": "view",
      "type": "function",
      "constant": true
    },
    {
      "inputs": [],
      "name": "getFactory",
      "outputs": [
        {
          "internalType": "address",
          "name": "",
          "type": "address"
        }
      ],
      "stateMutability": "view",
      "type": "function",
      "constant": true
    },
    {
      "inputs": [
        {
          "internalType": "address",
          "name": "_erc20",
          "type": "address"
        },
        {
          "internalType": "address[]",
          "name": "templateLicenses",
          "type": "address[]"
        },
        {
          "internalType": "address[]",
          "name": "factoryLicenses",
          "type": "address[]"
        }
      ],
      "name": "deleteLicense",
      "outputs": [],
      "stateMutability": "nonpayable",
      "type": "function"
    },
    {
      "inputs": [
        {
          "internalType": "address[]",
          "name": "nftList",
          "type": "address[]"
        }
      ],
      "name": "deleteNft",
      "outputs": [],
      "stateMutability": "nonpayable",
      "type": "function"
    },
    {
      "inputs": [
        {
          "internalType": "string",
          "name": "_newName",
          "type": "string"
        }
      ],
      "name": "setName",
      "outputs": [],
      "stateMutability": "nonpayable",
      "type": "function"
    },
    {
      "inputs": [
        {
          "internalType": "string",
          "name": "_newSymbol",
          "type": "string"
        }
      ],
      "name": "setSymbol",
      "outputs": [],
      "stateMutability": "nonpayable",
      "type": "function"
    },
    {
      "inputs": [
        {
          "internalType": "bool",
          "name": "_newTransferable",
          "type": "bool"
        }
      ],
      "name": "setTransferable",
      "outputs": [],
      "stateMutability": "nonpayable",
      "type": "function"
    }
  ],
  "bytecode": "0x60806040523480156200001157600080fd5b506040518060400160405280600881526020016754656d706c61746560c01b8152506040518060400160405280600e81526020016d15195b5c1b185d1954de5b589bdb60921b81525081600090816200006b91906200012d565b5060016200007a82826200012d565b5050600160065550620001f9565b634e487b7160e01b600052604160045260246000fd5b600181811c90821680620000b357607f821691505b602082108103620000d457634e487b7160e01b600052602260045260246000fd5b50919050565b601f8211156200012857600081815260208120601f850160051c81016020861015620001035750805b601f850160051c820191505b8181101562000124578281556001016200010f565b5050505b505050565b81516001600160401b0381111562000149576200014962000088565b62000161816200015a84546200009e565b84620000da565b602080601f831160018114620001995760008415620001805750858301515b600019600386901b1c1916600185901b17855562000124565b600085815260208120601f198616915b82811015620001ca57888601518255948401946001909101908401620001a9565b5085821015620001e95787850151600019600388901b60f8161c191681555b5050505050600190811b01905550565b61306880620002096000396000f3fe6080604052600436106101b95760003560e01c80638f84aa09116100eb578063b84c82461161008f578063c87b56dd11610061578063c87b56dd1461053d578063ccc3b81f1461055d578063e985e9c51461057d578063f14e6ae51461059d57005b8063b84c8246146104c8578063b88d4fde146104e8578063c395c8af14610508578063c47f00271461051d57005b806395d89b41116100c857806395d89b41146104535780639cd2370714610468578063a22cb46514610488578063a5562fd7146104a857005b80638f84aa09146103dc57806390184b021461040057806392ff0d311461043957005b8063392e53cd1161015d5780636352211e1161012f5780636352211e1461035057806370a08231146103705780637a69141e1461039e57806388cc58e4146103be57005b8063392e53cd146102d157806342842e0e146102ee57806344beb67a1461030e578063466bca021461032e57005b8063095ea7b311610196578063095ea7b31461025157806309bc869114610271578063162094c41461029157806323b872dd146102b157005b806301ffc9a7146101c257806306fdde03146101f7578063081812fc1461021957005b366101c057005b005b3480156101ce57600080fd5b506101e26101dd36600461223f565b6105bd565b60405190151581526020015b60405180910390f35b34801561020357600080fd5b5061020c61060f565b6040516101ee91906122ac565b34801561022557600080fd5b506102396102343660046122bf565b6106a1565b6040516001600160a01b0390911681526020016101ee565b34801561025d57600080fd5b506101c061026c3660046122ed565b6106c8565b34801561027d57600080fd5b5061023961028c36600461242f565b6107e2565b34801561029d57600080fd5b506101c06102ac3660046124e7565b610a44565b3480156102bd57600080fd5b506101c06102cc36600461252d565b610ad2565b3480156102dd57600080fd5b50600c54610100900460ff166101e2565b3480156102fa57600080fd5b506101c061030936600461252d565b610b03565b34801561031a57600080fd5b506101e26103293660046125bd565b610b1e565b34801561033a57600080fd5b50610343610c33565b6040516101ee91906126cf565b34801561035c57600080fd5b5061023961036b3660046122bf565b610c94565b34801561037c57600080fd5b5061039061038b3660046126e2565b610cf4565b6040519081526020016101ee565b3480156103aa57600080fd5b506101e26103b93660046126e2565b610d7a565b3480156103ca57600080fd5b506009546001600160a01b0316610239565b3480156103e857600080fd5b50600c546201000090046001600160a01b0316610239565b34801561040c57600080fd5b506101e261041b3660046126e2565b6001600160a01b03166000908152600b602052604090205460ff1690565b34801561044557600080fd5b50600c546101e29060ff1681565b34801561045f57600080fd5b5061020c6113de565b34801561047457600080fd5b506101c06104833660046126ff565b6113ed565b34801561049457600080fd5b506101c06104a336600461271c565b61143a565b3480156104b457600080fd5b506101c06104c33660046127dd565b611449565b3480156104d457600080fd5b506101c06104e3366004612811565b611554565b3480156104f457600080fd5b506101c0610503366004612845565b61159a565b34801561051457600080fd5b5061020c6115d2565b34801561052957600080fd5b506101c0610538366004612811565b6115e1565b34801561054957600080fd5b5061020c6105583660046122bf565b611627565b34801561056957600080fd5b506102396105783660046122bf565b61169b565b34801561058957600080fd5b506101e26105983660046128c4565b6116c5565b3480156105a957600080fd5b506101c06105b83660046128f2565b6116f3565b60006001600160e01b031982166380ac58cd60e01b14806105ee57506001600160e01b03198216635b5e139f60e01b145b8061060957506301ffc9a760e01b6001600160e01b03198316145b92915050565b60606007805461061e90612967565b80601f016020809104026020016040519081016040528092919081815260200182805461064a90612967565b80156106975780601f1061066c57610100808354040283529160200191610697565b820191906000526020600020905b81548152906001019060200180831161067a57829003601f168201915b5050505050905090565b60006106ac82611828565b506000908152600460205260409020546001600160a01b031690565b60006106d382610c94565b9050806001600160a01b0316836001600160a01b0316036107455760405162461bcd60e51b815260206004820152602160248201527f4552433732313a20617070726f76616c20746f2063757272656e74206f776e656044820152603960f91b60648201526084015b60405180910390fd5b336001600160a01b0382161480610761575061076181336116c5565b6107d35760405162461bcd60e51b815260206004820152603d60248201527f4552433732313a20617070726f76652063616c6c6572206973206e6f7420746f60448201527f6b656e206f776e6572206f7220617070726f76656420666f7220616c6c000000606482015260840161073c565b6107dd838361188a565b505050565b60006107ec6118f8565b6107f66001610c94565b6001600160a01b0316336001600160a01b0316146108265760405162461bcd60e51b815260040161073c906129a1565b600e54610100900460ff1661088c5760405162461bcd60e51b815260206004820152602660248201527f45524337323154656d706c6174653a204e4f542045524332304445504c4f5945604482015265525f524f4c4560d01b606482015260840161073c565b6009546040516338956cd160e21b81526000916001600160a01b03169063e255b344906108cd908e908e908e908e908e908e908e908e908e90600401612a3f565b6020604051808303816000875af11580156108ec573d6000803e3d6000fd5b505050506040513d601f19601f820116820180604052508101906109109190612b20565b90507f1c9e746a727aed7707a6d74dbdccd9e703362c8e70d7c6b795086976f9730eb88a8a600081811061094657610946612b3d565b90506020028101906109589190612b53565b8c8c600181811061096b5761096b612b3d565b905060200281019061097d9190612b53565b8c8c600081811061099057610990612b3d565b90506020020160208101906109a591906126e2565b8b8b8b896040516109be99989796959493929190612b99565b60405180910390a16001600160a01b0381166000818152600b60205260408120805460ff19166001908117909155600a805491820181559091527fc65a7bb8d6351c1cf70c95a316cc6a92839c986682d98bc35f958f4883f9d2a80180546001600160a01b03191690911790559050610a376001600655565b9998505050505050505050565b610a4d82610c94565b6001600160a01b0316336001600160a01b031614610a7d5760405162461bcd60e51b815260040161073c906129a1565b610a878282611951565b336001600160a01b03167f6de6cd3982065cbd31e789e3109106f4d76d1c8a46e85262045cf947fb3fd4ed82844243604051610ac69493929190612c0c565b60405180910390a25050565b610adc33826119d8565b610af85760405162461bcd60e51b815260040161073c90612c3b565b6107dd838383611a37565b6107dd8383836040518060200160405280600081525061159a565b600c54600090610100900460ff1615610b845760405162461bcd60e51b815260206004820152602260248201527f546f6b656e20696e7374616e636520616c726561647920696e697469616c697a604482015261195960f21b606482015260840161073c565b6001600160a01b038916610baa5760405162461bcd60e51b815260040161073c90612c88565b6000610c258a8a8a8080601f01602080910402602001604051908101604052809392919081815260200183838082843760009201919091525050604080516020601f8e018190048102820181019092528c815292508c91508b90819084018382808284376000920191909152508b92508a9150899050611b9b565b9a9950505050505050505050565b6060600a80548060200260200160405190810160405280929190818152602001828054801561069757602002820191906000526020600020905b81546001600160a01b03168152600190910190602001808311610c6d575050505050905090565b6000818152600260205260408120546001600160a01b0316806106095760405162461bcd60e51b8152602060048201526018602482015277115490cdcc8c4e881a5b9d985b1a59081d1bdad95b88125160421b604482015260640161073c565b60006001600160a01b038216610d5e5760405162461bcd60e51b815260206004820152602960248201527f4552433732313a2061646472657373207a65726f206973206e6f7420612076616044820152683634b21037bbb732b960b91b606482015260840161073c565b506001600160a01b031660009081526003602052604090205490565b6001600160a01b0381166000908152600b602052604081205460ff161515600114610df35760405162461bcd60e51b815260206004820152602360248201527f45524337323174656d706c6174653a206c6963656e7365206e6f7420646566696044820152621b995960ea1b606482015260840161073c565b60008290506000816001600160a01b031663dca1c2636040518163ffffffff1660e01b8152600401600060405180830381865afa158015610e38573d6000803e3d6000fd5b505050506040513d6000823e601f3d908101601f19168201604052610e609190810190612cd6565b6040516370a0823160e01b81523360048201529091506000906001600160a01b038416906370a0823190602401602060405180830381865afa158015610eaa573d6000803e3d6000fd5b505050506040513d601f19601f82011682018060405250810190610ece9190612d4c565b11610f415760405162461bcd60e51b815260206004820152603960248201527f45524337323174656d706c6174653a206e6f206d6f726520746f6b656e20617660448201527f61696c6162696c69747920746f20636f6e73756d65206e667400000000000000606482015260840161073c565b60405164757361676560d81b60208201526025016040516020818303038152906040528051906020012081604051602001610f7c9190612d65565b60405160208183030381529060405280519060200120036110dc57600c546040516323b872dd60e01b8152336004820152620100009091046001600160a01b039081166024830152600160448301528316906323b872dd906064016020604051808303816000875af1158015610ff6573d6000803e3d6000fd5b505050506040513d601f19601f8201168201806040525081019061101a9190612d81565b506040516370a0823160e01b81523360048201527f3a15f5eb1ee77921fafb9163fa62f9230d8f588d408084222eb80781ba1aa03e9060019030906001600160a01b038616906370a0823190602401602060405180830381865afa158015611086573d6000803e3d6000fd5b505050506040513d601f19601f820116820180604052508101906110aa9190612d4c565b6040805193151584526001600160a01b0390921660208401529082015260600160405180910390a15060019392505050565b6000826001600160a01b0316638cdd57ea6040518163ffffffff1660e01b8152600401602060405180830381865afa15801561111c573d6000803e3d6000fd5b505050506040513d601f19601f820116820180604052508101906111409190612d4c565b61114d9062278d00612db4565b60405163e54a451760e01b815233600482015290915081906001600160a01b0385169063e54a451790602401602060405180830381865afa158015611196573d6000803e3d6000fd5b505050506040513d601f19601f820116820180604052508101906111ba9190612d4c565b6111c49042612dcb565b10156112925760405163e54a451760e01b81523360048201527f6fd7616ee3c2478d92e52ec3a677fb7dc68570f2522b562ff96d83a4c8a11b4b9060019030906001600160a01b0387169063e54a451790602401602060405180830381865afa158015611235573d6000803e3d6000fd5b505050506040513d601f19601f820116820180604052508101906112599190612d4c565b6040805193151584526001600160a01b0390921660208401529082015242606082015260800160405180910390a1506001949350505050565b600c546040516323b872dd60e01b8152336004820152620100009091046001600160a01b039081166024830152600160448301528416906323b872dd906064016020604051808303816000875af11580156112f1573d6000803e3d6000fd5b505050506040513d601f19601f820116820180604052508101906113159190612d81565b5060405163e54a451760e01b81523360048201527f6fd7616ee3c2478d92e52ec3a677fb7dc68570f2522b562ff96d83a4c8a11b4b9060009030906001600160a01b0387169063e54a451790602401602060405180830381865afa158015611381573d6000803e3d6000fd5b505050506040513d601f19601f820116820180604052508101906113a59190612d4c565b6040805193151584526001600160a01b0390921660208401529082015242606082015260800160405180910390a1506000949350505050565b60606008805461061e90612967565b6113f76001610c94565b6001600160a01b0316336001600160a01b0316146114275760405162461bcd60e51b815260040161073c906129a1565b600c805460ff1916911515919091179055565b611445338383611c6b565b5050565b600a54156114995760405162461bcd60e51b815260206004820152601e60248201527f546865726520617265207374696c6c20736f6d65206c6963656e736573210000604482015260640161073c565b600c546201000090046001600160a01b031633146114ea5760405162461bcd60e51b815260206004820152600e60248201526d4e6f7420746865206f776e65722160901b604482015260640161073c565b600954604051630d6deb4560e21b81526001600160a01b039091169081906335b7ad149061151e9030908690600401612dde565b600060405180830381600087803b15801561153857600080fd5b505af115801561154c573d6000803e3d6000fd5b503392505050ff5b61155e6001610c94565b6001600160a01b0316336001600160a01b03161461158e5760405162461bcd60e51b815260040161073c906129a1565b60086114458282612e50565b6115a433836119d8565b6115c05760405162461bcd60e51b815260040161073c90612c3b565b6115cc84848484611d39565b50505050565b6060600d805461061e90612967565b6115eb6001610c94565b6001600160a01b0316336001600160a01b03161461161b5760405162461bcd60e51b815260040161073c906129a1565b60076114458282612e50565b606061163282611828565b600061164960408051602081019091526000815290565b905060008151116116695760405180602001604052806000815250611694565b8061167384611d6c565b604051602001611684929190612f0f565b6040516020818303038152906040525b9392505050565b600a81815481106116ab57600080fd5b6000918252602090912001546001600160a01b0316905081565b6001600160a01b03918216600090815260056020908152604080832093909416825291909152205460ff1690565b6001600160a01b0383166000908152600b602052604090205460ff1615156001146117465760405162461bcd60e51b8152602060048201526003602482015262444c3160e81b604482015260640161073c565b336001600160a01b038416146117845760405162461bcd60e51b815260206004820152600360248201526222261960e91b604482015260640161073c565b6001600160a01b0383166000908152600b60209081526040909120805460ff1916905582516117b991600a91908501906121af565b5060095460405163dadfb85d60e01b81526001600160a01b0390911690819063dadfb85d906117f090879030908790600401612f3e565b600060405180830381600087803b15801561180a57600080fd5b505af115801561181e573d6000803e3d6000fd5b5050505050505050565b6000818152600260205260409020546001600160a01b03166118875760405162461bcd60e51b8152602060048201526018602482015277115490cdcc8c4e881a5b9d985b1a59081d1bdad95b88125160421b604482015260640161073c565b50565b600081815260046020526040902080546001600160a01b0319166001600160a01b03841690811790915581906118bf82610c94565b6001600160a01b03167f8c5be1e5ebec7d5bd14f71427d1e84f3dd0314c0f7b2291e5b200ac8c7c3b92560405160405180910390a45050565b60026006540361194a5760405162461bcd60e51b815260206004820152601f60248201527f5265656e7472616e637947756172643a207265656e7472616e742063616c6c00604482015260640161073c565b6002600655565b6000828152600260205260409020546001600160a01b03166119cc5760405162461bcd60e51b815260206004820152602e60248201527f45524337323155524953746f726167653a2055524920736574206f66206e6f6e60448201526d32bc34b9ba32b73a103a37b5b2b760911b606482015260840161073c565b600d6107dd8282612e50565b6000806119e483610c94565b9050806001600160a01b0316846001600160a01b03161480611a0b5750611a0b81856116c5565b80611a2f5750836001600160a01b0316611a24846106a1565b6001600160a01b0316145b949350505050565b826001600160a01b0316611a4a82610c94565b6001600160a01b031614611a705760405162461bcd60e51b815260040161073c90612f6a565b6001600160a01b038216611ad25760405162461bcd60e51b8152602060048201526024808201527f4552433732313a207472616e7366657220746f20746865207a65726f206164646044820152637265737360e01b606482015260840161073c565b826001600160a01b0316611ae582610c94565b6001600160a01b031614611b0b5760405162461bcd60e51b815260040161073c90612f6a565b600081815260046020908152604080832080546001600160a01b03199081169091556001600160a01b0387811680865260038552838620805460001901905590871680865283862080546001019055868652600290945282852080549092168417909155905184937fddf252ad1be2c89b69c2b068fc378daa952ba7f163c4a11628f55a4df523b3ef91a4505050565b60006001600160a01b038716611bc35760405162461bcd60e51b815260040161073c90612c88565b6007611bcf8782612e50565b506008611bdc8682612e50565b50600980546001600160a01b0319166001600160a01b0386811691909117909155600c8054610100610100600160b01b031990911662010000938b1693909302929092179190911760ff1916831515179055611c39876001611dfe565b600e805462ffffff191662010101179055611c55600184611951565b5050600c54610100900460ff1695945050505050565b816001600160a01b0316836001600160a01b031603611ccc5760405162461bcd60e51b815260206004820152601960248201527f4552433732313a20617070726f766520746f2063616c6c657200000000000000604482015260640161073c565b6001600160a01b03838116600081815260056020908152604080832094871680845294825291829020805460ff191686151590811790915591519182527f17307eab39ab6107e8899845ad3d59bd9653f200f220920489ca2b5937696c31910160405180910390a3505050565b611d44848484611a37565b611d5084848484611e18565b6115cc5760405162461bcd60e51b815260040161073c90612faf565b60606000611d7983611f19565b60010190506000816001600160401b03811115611d9857611d98612364565b6040519080825280601f01601f191660200182016040528015611dc2576020820181803683370190505b5090508181016020015b600019016f181899199a1a9b1b9c1cb0b131b232b360811b600a86061a8153600a8504945084611dcc57509392505050565b611445828260405180602001604052806000815250611ff1565b60006001600160a01b0384163b15611f0e57604051630a85bd0160e11b81526001600160a01b0385169063150b7a0290611e5c903390899088908890600401613001565b6020604051808303816000875af1925050508015611e97575060408051601f3d908101601f19168201909252611e949181019061303e565b60015b611ef4573d808015611ec5576040519150601f19603f3d011682016040523d82523d6000602084013e611eca565b606091505b508051600003611eec5760405162461bcd60e51b815260040161073c90612faf565b805181602001fd5b6001600160e01b031916630a85bd0160e11b149050611a2f565b506001949350505050565b60008072184f03e93ff9f4daa797ed6e38ed64bf6a1f0160401b8310611f585772184f03e93ff9f4daa797ed6e38ed64bf6a1f0160401b830492506040015b6d04ee2d6d415b85acef81000000008310611f84576d04ee2d6d415b85acef8100000000830492506020015b662386f26fc100008310611fa257662386f26fc10000830492506010015b6305f5e1008310611fba576305f5e100830492506008015b6127108310611fce57612710830492506004015b60648310611fe0576064830492506002015b600a83106106095760010192915050565b611ffb8383612024565b6120086000848484611e18565b6107dd5760405162461bcd60e51b815260040161073c90612faf565b6001600160a01b03821661207a5760405162461bcd60e51b815260206004820181905260248201527f4552433732313a206d696e7420746f20746865207a65726f2061646472657373604482015260640161073c565b6000818152600260205260409020546001600160a01b0316156120df5760405162461bcd60e51b815260206004820152601c60248201527f4552433732313a20746f6b656e20616c7265616479206d696e74656400000000604482015260640161073c565b6000818152600260205260409020546001600160a01b0316156121445760405162461bcd60e51b815260206004820152601c60248201527f4552433732313a20746f6b656e20616c7265616479206d696e74656400000000604482015260640161073c565b6001600160a01b038216600081815260036020908152604080832080546001019055848352600290915280822080546001600160a01b0319168417905551839291907fddf252ad1be2c89b69c2b068fc378daa952ba7f163c4a11628f55a4df523b3ef908290a45050565b828054828255906000526020600020908101928215612204579160200282015b8281111561220457825182546001600160a01b0319166001600160a01b039091161782556020909201916001909101906121cf565b50612210929150612214565b5090565b5b808211156122105760008155600101612215565b6001600160e01b03198116811461188757600080fd5b60006020828403121561225157600080fd5b813561169481612229565b60005b8381101561227757818101518382015260200161225f565b50506000910152565b6000815180845261229881602086016020860161225c565b601f01601f19169290920160200192915050565b6020815260006116946020830184612280565b6000602082840312156122d157600080fd5b5035919050565b6001600160a01b038116811461188757600080fd5b6000806040838503121561230057600080fd5b823561230b816122d8565b946020939093013593505050565b60008083601f84011261232b57600080fd5b5081356001600160401b0381111561234257600080fd5b6020830191508360208260051b850101111561235d57600080fd5b9250929050565b634e487b7160e01b600052604160045260246000fd5b604051601f8201601f191681016001600160401b03811182821017156123a2576123a2612364565b604052919050565b60006001600160401b038211156123c3576123c3612364565b50601f01601f191660200190565b60006123e46123df846123aa565b61237a565b90508281528383830111156123f857600080fd5b828260208301376000602084830101529392505050565b600082601f83011261242057600080fd5b611694838335602085016123d1565b600080600080600080600080600060e08a8c03121561244d57600080fd5b8935985060208a01356001600160401b038082111561246b57600080fd5b6124778d838e01612319565b909a50985060408c013591508082111561249057600080fd5b61249c8d838e01612319565b909850965060608c0135955060808c01359150808211156124bc57600080fd5b506124c98c828d0161240f565b93505060a08a0135915060c08a013590509295985092959850929598565b600080604083850312156124fa57600080fd5b8235915060208301356001600160401b0381111561251757600080fd5b6125238582860161240f565b9150509250929050565b60008060006060848603121561254257600080fd5b833561254d816122d8565b9250602084013561255d816122d8565b929592945050506040919091013590565b60008083601f84011261258057600080fd5b5081356001600160401b0381111561259757600080fd5b60208301915083602082850101111561235d57600080fd5b801515811461188757600080fd5b60008060008060008060008060c0898b0312156125d957600080fd5b88356125e4816122d8565b975060208901356001600160401b038082111561260057600080fd5b61260c8c838d0161256e565b909950975060408b013591508082111561262557600080fd5b6126318c838d0161256e565b909750955060608b01359150612646826122d8565b90935060808a0135908082111561265c57600080fd5b506126698b828c0161240f565b92505060a089013561267a816125af565b809150509295985092959890939650565b600081518084526020808501945080840160005b838110156126c45781516001600160a01b03168752958201959082019060010161269f565b509495945050505050565b602081526000611694602083018461268b565b6000602082840312156126f457600080fd5b8135611694816122d8565b60006020828403121561271157600080fd5b8135611694816125af565b6000806040838503121561272f57600080fd5b823561273a816122d8565b9150602083013561274a816125af565b809150509250929050565b600082601f83011261276657600080fd5b813560206001600160401b0382111561278157612781612364565b8160051b61279082820161237a565b92835284810182019282810190878511156127aa57600080fd5b83870192505b848310156127d25782356127c3816122d8565b825291830191908301906127b0565b979650505050505050565b6000602082840312156127ef57600080fd5b81356001600160401b0381111561280557600080fd5b611a2f84828501612755565b60006020828403121561282357600080fd5b81356001600160401b0381111561283957600080fd5b611a2f8482850161240f565b6000806000806080858703121561285b57600080fd5b8435612866816122d8565b93506020850135612876816122d8565b92506040850135915060608501356001600160401b0381111561289857600080fd5b8501601f810187136128a957600080fd5b6128b8878235602084016123d1565b91505092959194509250565b600080604083850312156128d757600080fd5b82356128e2816122d8565b9150602083013561274a816122d8565b60008060006060848603121561290757600080fd5b8335612912816122d8565b925060208401356001600160401b038082111561292e57600080fd5b61293a87838801612755565b9350604086013591508082111561295057600080fd5b5061295d86828701612755565b9150509250925092565b600181811c9082168061297b57607f821691505b60208210810361299b57634e487b7160e01b600052602260045260246000fd5b50919050565b6020808252601c908201527f45524337323154656d706c6174653a206e6f74204e46544f776e657200000000604082015260600190565b81835281816020850137506000828201602090810191909152601f909101601f19169091010190565b8183526000602080850194508260005b858110156126c4578135612a24816122d8565b6001600160a01b031687529582019590820190600101612a11565b89815260e0602082018190528101889052600061010060058a901b830181019083018b835b8c811015612ad75785840360ff190183528135368f9003601e19018112612a8a57600080fd5b8e016020810190356001600160401b03811115612aa657600080fd5b803603821315612ab557600080fd5b612ac08682846129d8565b955050506020928301929190910190600101612a64565b5050508281036040840152612aed81898b612a01565b90508660608401528281036080840152612b078187612280565b60a0840195909552505060c00152979650505050505050565b600060208284031215612b3257600080fd5b8151611694816122d8565b634e487b7160e01b600052603260045260246000fd5b6000808335601e19843603018112612b6a57600080fd5b8301803591506001600160401b03821115612b8457600080fd5b60200191503681900382131561235d57600080fd5b60e081526000612bad60e083018b8d6129d8565b8281036020840152612bc0818a8c6129d8565b6001600160a01b038981166040860152606085018990528482036080860152909150612bec8288612280565b92508560a085015280851660c085015250509a9950505050505050505050565b608081526000612c1f6080830187612280565b6020830195909552506040810192909252606090910152919050565b6020808252602d908201527f4552433732313a2063616c6c6572206973206e6f7420746f6b656e206f776e6560408201526c1c881bdc88185c1c1c9bdd9959609a1b606082015260800190565b6020808252602e908201527f45524337323154656d706c6174653a3a20496e76616c6964206d696e7465722c60408201526d20207a65726f206164647265737360901b606082015260800190565b600060208284031215612ce857600080fd5b81516001600160401b03811115612cfe57600080fd5b8201601f81018413612d0f57600080fd5b8051612d1d6123df826123aa565b818152856020838501011115612d3257600080fd5b612d4382602083016020860161225c565b95945050505050565b600060208284031215612d5e57600080fd5b5051919050565b60008251612d7781846020870161225c565b9190910192915050565b600060208284031215612d9357600080fd5b8151611694816125af565b634e487b7160e01b600052601160045260246000fd5b808202811582820484141761060957610609612d9e565b8181038181111561060957610609612d9e565b6001600160a01b0383168152604060208201819052600090611a2f9083018461268b565b601f8211156107dd57600081815260208120601f850160051c81016020861015612e295750805b601f850160051c820191505b81811015612e4857828155600101612e35565b505050505050565b81516001600160401b03811115612e6957612e69612364565b612e7d81612e778454612967565b84612e02565b602080601f831160018114612eb25760008415612e9a5750858301515b600019600386901b1c1916600185901b178555612e48565b600085815260208120601f198616915b82811015612ee157888601518255948401946001909101908401612ec2565b5085821015612eff5787850151600019600388901b60f8161c191681555b5050505050600190811b01905550565b60008351612f2181846020880161225c565b835190830190612f3581836020880161225c565b01949350505050565b6001600160a01b03848116825283166020820152606060408201819052600090612d439083018461268b565b60208082526025908201527f4552433732313a207472616e736665722066726f6d20696e636f72726563742060408201526437bbb732b960d91b606082015260800190565b60208082526032908201527f4552433732313a207472616e7366657220746f206e6f6e20455243373231526560408201527131b2b4bb32b91034b6b83632b6b2b73a32b960711b606082015260800190565b6001600160a01b038581168252841660208201526040810183905260806060820181905260009061303490830184612280565b9695505050505050565b60006020828403121561305057600080fd5b81516116948161222956fea164736f6c6343000813000a",
  "immutableReferences": {},
  "source": "// SPDX-License-Identifier: MIT\r\npragma solidity ^0.8.2;\r\n\r\nimport \"@openzeppelin/contracts/token/ERC721/ERC721.sol\";\r\nimport \"@openzeppelin/contracts/token/ERC721/extensions/ERC721URIStorage.sol\";\r\nimport \"@openzeppelin/contracts/utils/Create2.sol\";\r\nimport \"@openzeppelin/contracts/security/ReentrancyGuard.sol\";\r\nimport \"./interfaces/IFactoryERC721.sol\";\r\nimport \"./interfaces/IERC20template.sol\";\r\n\r\ncontract ERC721template is\r\n    ERC721(\"Template\", \"TemplateSymbol\"),\r\n    ReentrancyGuard\r\n{\r\n    string private _name;\r\n    string private _symbol;\r\n    address private _tokenFactory;\r\n    address[] public deployedERC20List;\r\n    mapping(address => bool) private deployedERC20;\r\n    bool public transferable;\r\n    bool private _initialized;\r\n    address private _owner;\r\n    string private _tokenURI; //imported from an other oceanprotocol contract\r\n\r\n    struct permissions {\r\n        bool updateMetadata;\r\n        bool deployERC20;\r\n        bool store;\r\n    }\r\n\r\n    permissions private _ownerPermission;\r\n\r\n    event TokenURIUpdate(\r\n        address indexed updatedBy,\r\n        string tokenURI,\r\n        uint256 tokenID,\r\n        uint256 timestamp,\r\n        uint256 blockNumber\r\n    );\r\n\r\n    event licenseERC20Created(\r\n        string nameT,\r\n        string symbolT,\r\n        address owner,\r\n        uint256 cap,\r\n        string licenseType,\r\n        uint256 price,\r\n        address licenseErc20\r\n    );\r\n    event nftConsumedPeriod(\r\n        bool result,\r\n        address nft,\r\n        uint startDate,\r\n        uint todayDate\r\n    );\r\n    event nftConsumedUsage(bool result, address nft, uint usageRemain);\r\n\r\n    modifier onlyNFTOwner() {\r\n        require(msg.sender == ownerOf(1), \"ERC721Template: not NFTOwner\");\r\n        _;\r\n    }\r\n\r\n    //create the NFT\r\n    //At the moment we consider that the owner of a dataset/model CAN'T give his right on NFT to someone else\r\n    function initialize(\r\n        address owner,\r\n        string calldata name_,\r\n        string calldata symbol_,\r\n        address tokenFactory,\r\n        string memory tokenURI,\r\n        bool transferable_\r\n    ) external returns (bool) {\r\n        require(!_initialized, \"Token instance already initialized\");\r\n        require(\r\n            owner != address(0),\r\n            \"ERC721Template:: Invalid minter,  zero address\"\r\n        );\r\n        bool initResult = _initialize(\r\n            owner,\r\n            name_,\r\n            symbol_,\r\n            tokenFactory,\r\n            tokenURI,\r\n            transferable_\r\n        );\r\n        return (initResult);\r\n    }\r\n\r\n    /**\r\n     * @dev _initialize\r\n     *      Calls private _initialize function. Only if contract is not initialized.\r\n     *       This function mints an NFT (tokenId=1) to the owner\r\n     *       and add owner as Manager Role (Roles admin)\r\n     * @param owner NFT Owner\r\n     * @param name_ NFT name\r\n     * @param symbol_ NFT Symbol\r\n     * @param tokenFactory NFT factory address\r\n     * @param tokenURI tokenURI for token 1\r\n     \r\n     @return boolean\r\n     */\r\n\r\n    function _initialize(\r\n        address owner,\r\n        string memory name_,\r\n        string memory symbol_,\r\n        address tokenFactory,\r\n        string memory tokenURI,\r\n        bool transferable_\r\n    ) internal returns (bool) {\r\n        require(\r\n            owner != address(0),\r\n            \"ERC721Template:: Invalid minter,  zero address\"\r\n        );\r\n\r\n        _name = name_;\r\n        _symbol = symbol_;\r\n        _tokenFactory = tokenFactory;\r\n        _initialized = true;\r\n        _owner = owner;\r\n        //hasMetaData = false;\r\n        transferable = transferable_;\r\n        _safeMint(owner, 1);\r\n        //_addManager(owner);\r\n\r\n        // we add the nft owner to all other roles (so that doesn't need to make multiple transactions)\r\n        //Roles storage user = permissions[owner];\r\n        _ownerPermission.updateMetadata = true;\r\n        _ownerPermission.deployERC20 = true;\r\n        _ownerPermission.store = true;\r\n        // no need to push to auth since it has been already added in _addManager()\r\n        _setTokenURI(1, tokenURI); //this function is implemented inside other contracts custom of OceanProtocol\r\n\r\n        return _initialized;\r\n    }\r\n\r\n    function _setTokenURI(\r\n        uint256 tokenId,\r\n        string memory tokenURI\r\n    ) internal virtual {\r\n        require(\r\n            _exists(tokenId),\r\n            \"ERC721URIStorage: URI set of nonexistent token\"\r\n        );\r\n        _tokenURI = tokenURI;\r\n    }\r\n\r\n    function setTokenURI(uint256 tokenId, string memory tokenURI) public {\r\n        require(msg.sender == ownerOf(tokenId), \"ERC721Template: not NFTOwner\");\r\n        _setTokenURI(tokenId, tokenURI);\r\n        emit TokenURIUpdate(\r\n            msg.sender,\r\n            tokenURI,\r\n            tokenId,\r\n            /* solium-disable-next-line */\r\n            block.timestamp,\r\n            block.number\r\n        );\r\n    }\r\n\r\n    /**\r\n     * @dev createERC20\r\n     *        ONLY user with deployERC20 permission (assigned by Manager) can call it\r\n             Creates a new ERC20 datatoken.\r\n            It also adds initial minting and fee management permissions to custom users.\r\n     * @param strings refers to an array of strings\r\n     *                      [0] = name\r\n     *                      [1] = symbol\r\n     * @param addresses refers to an array of addresses\r\n     *                     [0]  = minter account who can mint datatokens (can have multiple minters)\r\n     *                     [1]  = publishing Market Address\r\n     *                     [2]  = publishing Market Fee Token\r\n     * @param uints  refers to cap_ the total ERC20 cap\r\n     *                     Currently not used, usefull for future templates\r\n     * @param licenseType refers on license type:\r\n     *                      - usage;\r\n     *                      - periodic;\r\n     @return ERC20 token address\r\n     */\r\n\r\n    //NFT owner is the only one who can generate erc20 contract\r\n\r\n    function createERC20(\r\n        uint256 _templateIndex,\r\n        string[] calldata strings,\r\n        address[] calldata addresses,\r\n        uint256 uints,\r\n        string memory licenseType,\r\n        uint256 price,\r\n        uint256 licensePeriod\r\n    ) external nonReentrant onlyNFTOwner returns (address) {\r\n        require(\r\n            _ownerPermission.deployERC20,\r\n            \"ERC721Template: NOT ERC20DEPLOYER_ROLE\"\r\n        );\r\n\r\n        address token = IFactoryERC721(_tokenFactory).createToken(\r\n            _templateIndex,\r\n            strings,\r\n            addresses,\r\n            uints,\r\n            licenseType,\r\n            price,\r\n            licensePeriod\r\n        );\r\n\r\n        emit licenseERC20Created(\r\n            strings[0],\r\n            strings[1],\r\n            addresses[0],\r\n            uints,\r\n            licenseType,\r\n            price,\r\n            token\r\n        );\r\n        deployedERC20[token] = true;\r\n\r\n        deployedERC20List.push(token);\r\n        return token;\r\n    }\r\n\r\n    //User want to consume nft, but we need to check his license subscription\r\n\r\n    function requestConsumeNFT(address licenseConsume) public returns (bool) {\r\n        require(\r\n            deployedERC20[licenseConsume] == true,\r\n            \"ERC721template: license not defined\"\r\n        );\r\n        IERC20template license = IERC20template(payable(licenseConsume));\r\n        string memory licensetype = license.getlicenseType();\r\n        require(\r\n            license.balanceOf(msg.sender) > 0,\r\n            \"ERC721template: no more token availability to consume nft\"\r\n        );\r\n        if (\r\n            keccak256(abi.encodePacked((licensetype))) ==\r\n            keccak256(abi.encodePacked((\"usage\")))\r\n        ) {\r\n            //at the moment we are saying the usage is happening now, but it will happen next\r\n            license.transferFrom(msg.sender, _owner, 1);\r\n            emit nftConsumedUsage(\r\n                true,\r\n                address(this),\r\n                license.balanceOf(msg.sender)\r\n            );\r\n            return true;\r\n        } else {\r\n            uint256 totalDays = license.getLicensePeriod() * 30 days;\r\n            if (\r\n                block.timestamp - license.getStartLicenseDate(msg.sender) <\r\n                totalDays\r\n            ) {\r\n                emit nftConsumedPeriod(\r\n                    true,\r\n                    address(this),\r\n                    license.getStartLicenseDate(msg.sender),\r\n                    block.timestamp\r\n                );\r\n                return true;\r\n            } else {\r\n                //bruciamo il datatoken. non trasferiamo al proprietario\r\n                license.transferFrom(msg.sender, _owner, 1);\r\n                emit nftConsumedPeriod(\r\n                    false,\r\n                    address(this),\r\n                    license.getStartLicenseDate(msg.sender),\r\n                    block.timestamp\r\n                );\r\n                return false;\r\n            }\r\n        }\r\n    }\r\n\r\n    /**\r\n     * @dev name\r\n     *      It returns the token name.\r\n     * @return Datatoken name.\r\n     */\r\n    function name() public view override returns (string memory) {\r\n        return _name;\r\n    }\r\n\r\n    /**\r\n     * @dev symbol\r\n     *      It returns the token symbol.\r\n     * @return Datatoken symbol.\r\n     */\r\n    function symbol() public view override returns (string memory) {\r\n        return _symbol;\r\n    }\r\n\r\n    /**\r\n     * @dev isInitialized\r\n     *      It checks whether the contract is initialized.\r\n     * @return true if the contract is initialized.\r\n     */\r\n\r\n    function isInitialized() external view returns (bool) {\r\n        return _initialized;\r\n    }\r\n\r\n    function ownerAddress() external view returns (address) {\r\n        return _owner;\r\n    }\r\n\r\n    function getTokenUri() external view returns (string memory) {\r\n        return _tokenURI;\r\n    }\r\n\r\n    /**\r\n     * @dev fallback function\r\n     *      this is a default fallback function in which receives\r\n     *      the collected ether.\r\n     */\r\n    fallback() external payable {}\r\n\r\n    /**\r\n     * @dev receive function\r\n     *      this is a default receive function in which receives\r\n     *      the collected ether.\r\n     */\r\n    receive() external payable {}\r\n\r\n    function getTokensList() external view returns (address[] memory) {\r\n        return deployedERC20List;\r\n    }\r\n\r\n    function isDeployed(address datatoken) external view returns (bool) {\r\n        return deployedERC20[datatoken];\r\n    }\r\n\r\n    function getFactory() public view returns (address) {\r\n        return _tokenFactory;\r\n    }\r\n\r\n    function deleteLicense(address _erc20, address[] memory templateLicenses, address[] memory factoryLicenses) external {\r\n        require(deployedERC20[_erc20] == true, \"DL1\");\r\n        require(msg.sender == _erc20, \"DL2\");\r\n        deployedERC20[_erc20] = false;\r\n        deployedERC20List = templateLicenses;\r\n        IFactoryERC721 factory = IFactoryERC721(payable(_tokenFactory));\r\n        factory.deleteLicense(_erc20, address(this), factoryLicenses);\r\n    }\r\n\r\n    function deleteNft(address[] memory nftList) external {\r\n        require(deployedERC20List.length == 0, \"There are still some licenses!\");\r\n        require(_owner == msg.sender, \"Not the owner!\");\r\n        IFactoryERC721 factory = IFactoryERC721(payable(_tokenFactory));\r\n        factory.deleteNFT(address(this), nftList);\r\n        selfdestruct(payable(msg.sender));\r\n    }\r\n\r\n    function setName(string memory _newName) external onlyNFTOwner{\r\n        _name = _newName;\r\n    }\r\n\r\n    function setSymbol(string memory _newSymbol) external onlyNFTOwner {\r\n        _symbol = _newSymbol;\r\n    }\r\n\r\n    function setTransferable(bool _newTransferable) external onlyNFTOwner {\r\n        transferable = _newTransferable;\r\n    }\r\n}\r\n",
  "sourcePath": "C:\\Users\\Luca\\Desktop\\datacellar\\DataCellar\\smartcontracts\\contracts\\ERC721template.sol",
  "compiler": {
    "name": "solc",
    "version": "0.8.19+commit.7dd6d404.Emscripten.clang"
  },
  "schemaVersion": "3.4.13",
  "updatedAt": "2024-01-30T17:35:52.893Z",
  "networkType": "ethereum",
  "devdoc": {
    "events": {
      "Approval(address,address,uint256)": {
        "details": "Emitted when `owner` enables `approved` to manage the `tokenId` token."
      },
      "ApprovalForAll(address,address,bool)": {
        "details": "Emitted when `owner` enables or disables (`approved`) `operator` to manage all of its assets."
      },
      "Transfer(address,address,uint256)": {
        "details": "Emitted when `tokenId` token is transferred from `from` to `to`."
      }
    },
    "kind": "dev",
    "methods": {
      "approve(address,uint256)": {
        "details": "See {IERC721-approve}."
      },
      "balanceOf(address)": {
        "details": "See {IERC721-balanceOf}."
      },
      "createERC20(uint256,string[],address[],uint256,string,uint256,uint256)": {
        "details": "createERC20        ONLY user with deployERC20 permission (assigned by Manager) can call it Creates a new ERC20 datatoken. It also adds initial minting and fee management permissions to custom users.",
        "params": {
          "addresses": "refers to an array of addresses                     [0]  = minter account who can mint datatokens (can have multiple minters)                     [1]  = publishing Market Address                     [2]  = publishing Market Fee Token",
          "licenseType": "refers on license type:                      - usage;                      - periodic;",
          "strings": "refers to an array of strings                      [0] = name                      [1] = symbol",
          "uints": "refers to cap_ the total ERC20 cap                     Currently not used, usefull for future templates"
        },
        "returns": {
          "_0": "ERC20 token address"
        }
      },
      "getApproved(uint256)": {
        "details": "See {IERC721-getApproved}."
      },
      "isApprovedForAll(address,address)": {
        "details": "See {IERC721-isApprovedForAll}."
      },
      "isInitialized()": {
        "details": "isInitialized      It checks whether the contract is initialized.",
        "returns": {
          "_0": "true if the contract is initialized."
        }
      },
      "name()": {
        "details": "name      It returns the token name.",
        "returns": {
          "_0": "Datatoken name."
        }
      },
      "ownerOf(uint256)": {
        "details": "See {IERC721-ownerOf}."
      },
      "safeTransferFrom(address,address,uint256)": {
        "details": "See {IERC721-safeTransferFrom}."
      },
      "safeTransferFrom(address,address,uint256,bytes)": {
        "details": "See {IERC721-safeTransferFrom}."
      },
      "setApprovalForAll(address,bool)": {
        "details": "See {IERC721-setApprovalForAll}."
      },
      "supportsInterface(bytes4)": {
        "details": "See {IERC165-supportsInterface}."
      },
      "symbol()": {
        "details": "symbol      It returns the token symbol.",
        "returns": {
          "_0": "Datatoken symbol."
        }
      },
      "tokenURI(uint256)": {
        "details": "See {IERC721Metadata-tokenURI}."
      },
      "transferFrom(address,address,uint256)": {
        "details": "See {IERC721-transferFrom}."
      }
    },
    "version": 1
  },
  "userdoc": {
    "kind": "user",
    "methods": {},
    "version": 1
  }
}