{
  "contractName": "FactoryERC721",
  "abi": [
    {
      "inputs": [
        {
          "internalType": "address payable",
          "name": "_managementPayment",
          "type": "address"
        },
        {
          "internalType": "address",
          "name": "_template721",
          "type": "address"
        },
        {
          "internalType": "address",
          "name": "_template20",
          "type": "address"
        }
      ],
      "stateMutability": "nonpayable",
      "type": "constructor"
    },
    {
      "anonymous": false,
      "inputs": [
        {
          "indexed": false,
          "internalType": "address",
          "name": "instance",
          "type": "address"
        }
      ],
      "name": "InstanceDeployed",
      "type": "event"
    },
    {
      "anonymous": false,
      "inputs": [
        {
          "indexed": true,
          "internalType": "address",
          "name": "previousOwner",
          "type": "address"
        },
        {
          "indexed": true,
          "internalType": "address",
          "name": "newOwner",
          "type": "address"
        }
      ],
      "name": "OwnershipTransferred",
      "type": "event"
    },
    {
      "anonymous": false,
      "inputs": [
        {
          "indexed": true,
          "internalType": "address",
          "name": "_templateAddress",
          "type": "address"
        },
        {
          "indexed": true,
          "internalType": "uint256",
          "name": "nftTemplateCount",
          "type": "uint256"
        }
      ],
      "name": "Template20Added",
      "type": "event"
    },
    {
      "anonymous": false,
      "inputs": [
        {
          "indexed": true,
          "internalType": "address",
          "name": "_templateAddress",
          "type": "address"
        },
        {
          "indexed": true,
          "internalType": "uint256",
          "name": "nftTemplateCount",
          "type": "uint256"
        }
      ],
      "name": "Template721Added",
      "type": "event"
    },
    {
      "anonymous": false,
      "inputs": [
        {
          "indexed": true,
          "internalType": "address",
          "name": "newTokenAddress",
          "type": "address"
        },
        {
          "indexed": false,
          "internalType": "string",
          "name": "name",
          "type": "string"
        },
        {
          "indexed": false,
          "internalType": "string",
          "name": "symbol",
          "type": "string"
        },
        {
          "indexed": false,
          "internalType": "uint256",
          "name": "cap",
          "type": "uint256"
        },
        {
          "indexed": false,
          "internalType": "string",
          "name": "licenseType",
          "type": "string"
        },
        {
          "indexed": false,
          "internalType": "address",
          "name": "creator",
          "type": "address"
        },
        {
          "indexed": true,
          "internalType": "address",
          "name": "templateAddress",
          "type": "address"
        }
      ],
      "name": "TokenCreated",
      "type": "event"
    },
    {
      "anonymous": false,
      "inputs": [
        {
          "indexed": false,
          "internalType": "address",
          "name": "newTokenAddress",
          "type": "address"
        },
        {
          "indexed": false,
          "internalType": "string",
          "name": "tokenName",
          "type": "string"
        },
        {
          "indexed": true,
          "internalType": "address",
          "name": "admin",
          "type": "address"
        },
        {
          "indexed": false,
          "internalType": "string",
          "name": "symbol",
          "type": "string"
        },
        {
          "indexed": false,
          "internalType": "string",
          "name": "tokenURI",
          "type": "string"
        },
        {
          "indexed": false,
          "internalType": "bool",
          "name": "transferable",
          "type": "bool"
        },
        {
          "indexed": true,
          "internalType": "address",
          "name": "templateAddress",
          "type": "address"
        }
      ],
      "name": "createERC721",
      "type": "event"
    },
    {
      "anonymous": false,
      "inputs": [
        {
          "indexed": false,
          "internalType": "string",
          "name": "tokenName",
          "type": "string"
        },
        {
          "indexed": true,
          "internalType": "address",
          "name": "admin",
          "type": "address"
        },
        {
          "indexed": false,
          "internalType": "string",
          "name": "symbol",
          "type": "string"
        },
        {
          "indexed": false,
          "internalType": "string",
          "name": "tokenURI",
          "type": "string"
        },
        {
          "indexed": false,
          "internalType": "uint256",
          "name": "dateStartLicense",
          "type": "uint256"
        }
      ],
      "name": "licensePeriodBought",
      "type": "event"
    },
    {
      "anonymous": false,
      "inputs": [
        {
          "indexed": false,
          "internalType": "string",
          "name": "tokenName",
          "type": "string"
        },
        {
          "indexed": true,
          "internalType": "address",
          "name": "admin",
          "type": "address"
        },
        {
          "indexed": false,
          "internalType": "string",
          "name": "symbol",
          "type": "string"
        },
        {
          "indexed": false,
          "internalType": "string",
          "name": "tokenURI",
          "type": "string"
        },
        {
          "indexed": false,
          "internalType": "uint256",
          "name": "usage",
          "type": "uint256"
        }
      ],
      "name": "licenseUsageBought",
      "type": "event"
    },
    {
      "inputs": [
        {
          "internalType": "address",
          "name": "",
          "type": "address"
        }
      ],
      "name": "erc20List",
      "outputs": [
        {
          "internalType": "bool",
          "name": "",
          "type": "bool"
        }
      ],
      "stateMutability": "view",
      "type": "function",
      "constant": true
    },
    {
      "inputs": [
        {
          "internalType": "address",
          "name": "",
          "type": "address"
        }
      ],
      "name": "erc20listToerc721",
      "outputs": [
        {
          "internalType": "address",
          "name": "",
          "type": "address"
        }
      ],
      "stateMutability": "view",
      "type": "function",
      "constant": true
    },
    {
      "inputs": [
        {
          "internalType": "address",
          "name": "",
          "type": "address"
        }
      ],
      "name": "erc721List",
      "outputs": [
        {
          "internalType": "address",
          "name": "",
          "type": "address"
        }
      ],
      "stateMutability": "view",
      "type": "function",
      "constant": true
    },
    {
      "inputs": [
        {
          "internalType": "uint256",
          "name": "",
          "type": "uint256"
        }
      ],
      "name": "erc721array",
      "outputs": [
        {
          "internalType": "address",
          "name": "",
          "type": "address"
        }
      ],
      "stateMutability": "view",
      "type": "function",
      "constant": true
    },
    {
      "inputs": [
        {
          "internalType": "address",
          "name": "",
          "type": "address"
        },
        {
          "internalType": "uint256",
          "name": "",
          "type": "uint256"
        }
      ],
      "name": "erc721licenses",
      "outputs": [
        {
          "internalType": "address",
          "name": "",
          "type": "address"
        }
      ],
      "stateMutability": "view",
      "type": "function",
      "constant": true
    },
    {
      "inputs": [
        {
          "internalType": "uint256",
          "name": "",
          "type": "uint256"
        }
      ],
      "name": "nftTemplateList",
      "outputs": [
        {
          "internalType": "address",
          "name": "templateAddress",
          "type": "address"
        },
        {
          "internalType": "bool",
          "name": "isActive",
          "type": "bool"
        }
      ],
      "stateMutability": "view",
      "type": "function",
      "constant": true
    },
    {
      "inputs": [],
      "name": "owner",
      "outputs": [
        {
          "internalType": "address",
          "name": "",
          "type": "address"
        }
      ],
      "stateMutability": "view",
      "type": "function",
      "constant": true
    },
    {
      "inputs": [],
      "name": "paymentManager",
      "outputs": [
        {
          "internalType": "contract IManagementPayment",
          "name": "",
          "type": "address"
        }
      ],
      "stateMutability": "view",
      "type": "function",
      "constant": true
    },
    {
      "inputs": [],
      "name": "renounceOwnership",
      "outputs": [],
      "stateMutability": "nonpayable",
      "type": "function"
    },
    {
      "inputs": [],
      "name": "templateCount",
      "outputs": [
        {
          "internalType": "uint256",
          "name": "",
          "type": "uint256"
        }
      ],
      "stateMutability": "view",
      "type": "function",
      "constant": true
    },
    {
      "inputs": [
        {
          "internalType": "uint256",
          "name": "",
          "type": "uint256"
        }
      ],
      "name": "templateList",
      "outputs": [
        {
          "internalType": "address",
          "name": "templateAddress",
          "type": "address"
        },
        {
          "internalType": "bool",
          "name": "isActive",
          "type": "bool"
        }
      ],
      "stateMutability": "view",
      "type": "function",
      "constant": true
    },
    {
      "inputs": [
        {
          "internalType": "address",
          "name": "newOwner",
          "type": "address"
        }
      ],
      "name": "transferOwnership",
      "outputs": [],
      "stateMutability": "nonpayable",
      "type": "function"
    },
    {
      "inputs": [
        {
          "internalType": "string",
          "name": "name_",
          "type": "string"
        },
        {
          "internalType": "string",
          "name": "symbol_",
          "type": "string"
        },
        {
          "internalType": "uint256",
          "name": "_templateIndex",
          "type": "uint256"
        },
        {
          "internalType": "string",
          "name": "tokenURI",
          "type": "string"
        },
        {
          "internalType": "bool",
          "name": "transferable_",
          "type": "bool"
        }
      ],
      "name": "ERC721deploy",
      "outputs": [
        {
          "internalType": "address",
          "name": "",
          "type": "address"
        }
      ],
      "stateMutability": "nonpayable",
      "type": "function"
    },
    {
      "inputs": [
        {
          "internalType": "address",
          "name": "_erc20",
          "type": "address"
        },
        {
          "internalType": "address",
          "name": "_erc721",
          "type": "address"
        },
        {
          "internalType": "address[]",
          "name": "licenses",
          "type": "address[]"
        }
      ],
      "name": "deleteLicense",
      "outputs": [],
      "stateMutability": "nonpayable",
      "type": "function"
    },
    {
      "inputs": [
        {
          "internalType": "address",
          "name": "_erc721",
          "type": "address"
        },
        {
          "internalType": "address[]",
          "name": "nftList",
          "type": "address[]"
        }
      ],
      "name": "deleteNFT",
      "outputs": [],
      "stateMutability": "nonpayable",
      "type": "function"
    },
    {
      "inputs": [],
      "name": "geterc721array",
      "outputs": [
        {
          "internalType": "address[]",
          "name": "",
          "type": "address[]"
        }
      ],
      "stateMutability": "view",
      "type": "function",
      "constant": true
    },
    {
      "inputs": [
        {
          "internalType": "address",
          "name": "_erc721Addr",
          "type": "address"
        }
      ],
      "name": "geterc20array",
      "outputs": [
        {
          "internalType": "address[]",
          "name": "",
          "type": "address[]"
        }
      ],
      "stateMutability": "view",
      "type": "function",
      "constant": true
    },
    {
      "inputs": [
        {
          "internalType": "uint256",
          "name": "_templateIndex",
          "type": "uint256"
        },
        {
          "internalType": "string[]",
          "name": "strings",
          "type": "string[]"
        },
        {
          "internalType": "address[]",
          "name": "addresses",
          "type": "address[]"
        },
        {
          "internalType": "uint256",
          "name": "uints",
          "type": "uint256"
        },
        {
          "internalType": "string",
          "name": "licenseType",
          "type": "string"
        },
        {
          "internalType": "uint256",
          "name": "price",
          "type": "uint256"
        },
        {
          "internalType": "uint256",
          "name": "licensePeriod",
          "type": "uint256"
        }
      ],
      "name": "createToken",
      "outputs": [
        {
          "internalType": "address",
          "name": "token",
          "type": "address"
        }
      ],
      "stateMutability": "nonpayable",
      "type": "function"
    },
    {
      "inputs": [
        {
          "internalType": "address",
          "name": "_nft",
          "type": "address"
        },
        {
          "internalType": "address",
          "name": "_erc20license",
          "type": "address"
        }
      ],
      "name": "buyNFTlicensePeriod",
      "outputs": [],
      "stateMutability": "nonpayable",
      "type": "function"
    },
    {
      "inputs": [
        {
          "internalType": "address",
          "name": "_nft",
          "type": "address"
        },
        {
          "internalType": "address",
          "name": "_erc20license",
          "type": "address"
        },
        {
          "internalType": "uint256",
          "name": "_usage",
          "type": "uint256"
        }
      ],
      "name": "buyNFTlicenseUsage",
      "outputs": [],
      "stateMutability": "nonpayable",
      "type": "function"
    },
    {
      "inputs": [
        {
          "internalType": "address",
          "name": "_templateAddress",
          "type": "address"
        }
      ],
      "name": "add721TokenTemplate",
      "outputs": [
        {
          "internalType": "uint256",
          "name": "",
          "type": "uint256"
        }
      ],
      "stateMutability": "nonpayable",
      "type": "function"
    },
    {
      "inputs": [
        {
          "internalType": "address",
          "name": "_templateAddress",
          "type": "address"
        }
      ],
      "name": "add20TokenTemplate",
      "outputs": [
        {
          "internalType": "uint256",
          "name": "",
          "type": "uint256"
        }
      ],
      "stateMutability": "nonpayable",
      "type": "function"
    },
    {
      "inputs": [
        {
          "internalType": "uint256",
          "name": "_index",
          "type": "uint256"
        }
      ],
      "name": "reactivate721TokenTemplate",
      "outputs": [],
      "stateMutability": "nonpayable",
      "type": "function"
    },
    {
      "inputs": [
        {
          "internalType": "uint256",
          "name": "_index",
          "type": "uint256"
        }
      ],
      "name": "disable721TokenTemplate",
      "outputs": [],
      "stateMutability": "nonpayable",
      "type": "function"
    }
  ],
  "bytecode": "0x60806040526000600b553480156200001657600080fd5b506040516200240f3803806200240f83398101604081905262000039916200044f565b620000443362000080565b600280546001600160a01b0319166001600160a01b0385161790556200006a82620000d0565b50620000768162000256565b50505050620004cb565b600080546001600160a01b038381166001600160a01b0319831681178455604051919092169283917f8be0079c531659141344cd1fd0a4f28419497f9722a3daafe3b4186f6b6457e09190a35050565b6000620000dc620003d8565b6001600160a01b0382166200015e5760405162461bcd60e51b815260206004820152603760248201527f4552433732314454466163746f72793a204552433732312074656d706c61746560448201527f2061646472657373283029204e4f5420414c4c4f57454400000000000000000060648201526084015b60405180910390fd5b813b620001ae5760405162461bcd60e51b815260206004820152601b60248201527f455243373231466163746f72793a204e4f5420434f4e54524143540000000000604482015260640162000155565b600160066000828254620001c39190620004a3565b90915550506040805180820182526001600160a01b038085168083526001602080850191825260068054600090815260079092528682208651815494511515600160a01b026001600160a81b03199095169616959095179290921790935554935192939290917fc0167b92c8eb4a2bad2c05e0134f076fba5d3cd54671a3e8edf13d2e61443bd991a35050600654919050565b600062000262620003d8565b6001600160a01b038216620002e05760405162461bcd60e51b815260206004820152603460248201527f4552433230466163746f72793a204552433732312074656d706c61746520616460448201527f6472657373283029204e4f5420414c4c4f574544000000000000000000000000606482015260840162000155565b813b620003305760405162461bcd60e51b815260206004820152601a60248201527f4552433230466163746f72793a204e4f5420434f4e5452414354000000000000604482015260640162000155565b6001600c6000828254620003459190620004a3565b90915550506040805180820182526001600160a01b0380851680835260016020808501918252600c8054600090815260089092528682208651815494511515600160a01b026001600160a81b03199095169616959095179290921790935554935192939290917fdcd16da87b60cea6dbd55a83f73b8a4bf9a54655db58ae0f35b82a2373fc150d91a35050600c54919050565b6000546001600160a01b03163314620004345760405162461bcd60e51b815260206004820181905260248201527f4f776e61626c653a2063616c6c6572206973206e6f7420746865206f776e6572604482015260640162000155565b565b6001600160a01b03811681146200044c57600080fd5b50565b6000806000606084860312156200046557600080fd5b8351620004728162000436565b6020850151909350620004858162000436565b6040850151909250620004988162000436565b809150509250925092565b80820180821115620004c557634e487b7160e01b600052601160045260246000fd5b92915050565b611f3480620004db6000396000f3fe608060405234801561001057600080fd5b50600436106101585760003560e01c80637c4aa084116100c3578063940516991161007c5780639405169914610358578063a33ef2a61461038d578063aee1fe49146103a0578063dadfb85d146103b3578063e255b344146103c6578063f2fde38b146103d957600080fd5b80637c4aa084146102b2578063809d8105146102c557806382c44204146102d85780638da5cb5b1461032c5780638f6051af1461033d5780638f818c7a1461035057600080fd5b806335b7ad141161011557806335b7ad14146102285780635aecc4a81461023b5780635ba506d91461025b5780636c72b9ce1461026e578063715018a61461028157806372f670f01461028957600080fd5b806302d8b1b31461015d57806310d8f02b1461018d5780631415ac6c146101b657806321a84c51146101c9578063226e7615146101de57806326705c3c14610211575b600080fd5b61017061016b36600461168d565b6103ec565b6040516001600160a01b0390911681526020015b60405180910390f35b61017061019b366004611754565b6004602052600090815260409020546001600160a01b031681565b6101706101c4366004611778565b61073c565b6101dc6101d73660046117a4565b610774565b005b6102016101ec366004611754565b600a6020526000908152604090205460ff1681565b6040519015158152602001610184565b61021a600c5481565b604051908152602001610184565b6101dc610236366004611878565b6108b8565b61024e610249366004611754565b61091b565b604051610184919061190c565b61021a610269366004611754565b610991565b61017061027c36600461191f565b610b02565b6101dc610b2c565b610170610297366004611754565b6009602052600090815260409020546001600160a01b031681565b6101dc6102c0366004611938565b610b40565b6101dc6102d336600461191f565b610c7c565b61030d6102e636600461191f565b6007602052600090815260409020546001600160a01b03811690600160a01b900460ff1682565b604080516001600160a01b039093168352901515602083015201610184565b6000546001600160a01b0316610170565b61021a61034b366004611754565b610ccc565b61024e610e46565b61030d61036636600461191f565b6008602052600090815260409020546001600160a01b03811690600160a01b900460ff1682565b6101dc61039b36600461191f565b610ea8565b600254610170906001600160a01b031681565b6101dc6103c1366004611971565b610efe565b6101706103d43660046119d3565b610f6c565b6101dc6103e7366004611754565b610faf565b600060065484111580156103ff57508315155b6104245760405162461bcd60e51b815260040161041b90611af6565b60405180910390fd5b6000848152600760209081526040918290208251808401909352546001600160a01b0381168352600160a01b900460ff1615159082018190526104c05760405162461bcd60e51b815260206004820152602e60248201527f4552433732314454466163746f72793a20455243373231546f6b656e2054656d60448201526d1c1b185d1948191a5cd8589b195960921b606482015260840161041b565b336104ca57600080fd5b60006104d98260000151611028565b90506001600160a01b038116610559576040805162461bcd60e51b81526020600482015260248101919091527f4552433732314454466163746f72793a204661696c656420746f20706572666f60448201527f726d206d696e696d616c206465706c6f79206f662061206e657720746f6b656e606482015260840161041b565b6001600160a01b038116600081815260096020526040812080546001600160a01b0319169092179091556001805490918291610596908390611b42565b92505081905550600081905082600001516001600160a01b0316336001600160a01b03167fba93bb6d976f21c1484615e8506e05dd6ad6f6291d78dc7c428e05c40d5ea68e848e8e8e8e8d8d6040516105f59796959493929190611be2565b60405180910390a360405163225f5b3d60e11b81526001600160a01b038216906344beb67a906106379033908f908f908f908f9030908f908f90600401611c45565b6020604051808303816000875af1158015610656573d6000803e3d6000fd5b505050506040513d601f19601f8201168201806040525081019061067a9190611cb0565b6106e35760405162461bcd60e51b815260206004820152603460248201527f4552433732314454466163746f72793a20556e61626c6520746f20696e697469604482015273616c697a6520746f6b656e20696e7374616e636560601b606482015260840161041b565b50600380546001810182556000919091527fc2575a0e9e593c00f959f8c92f12db2869c3395a3b0502d05e2516446f71f85b0180546001600160a01b0319166001600160a01b0383161790559998505050505050505050565b6005602052816000526040600020818154811061075857600080fd5b6000918252602090912001546001600160a01b03169150829050565b6001600160a01b0380841660009081526009602052604090205484911661079a57600080fd5b6001600160a01b03808416600090815260046020526040902054849186918116908216146107c757600080fd5b600254604051631c2e6e1760e31b81526001600160a01b038881166004830152878116602483015233604483015260648201879052600092839283928392839291169063e17370b8906084016000604051808303816000875af1158015610832573d6000803e3d6000fd5b505050506040513d6000823e601f3d908101601f1916820160405261085a9190810190611d1a565b94509450945094509450836001600160a01b03167f69d2d9007e6285a1459048873febc3418bba5156f7e5e18c2f84ecdf1bc888e0868585856040516108a39493929190611dc0565b60405180910390a25050505050505050505050565b6001600160a01b038216600090815260056020526040902054156108db57600080fd5b6001600160a01b038216600090815260096020908152604090912080546001600160a01b0319169055815161091691600391908401906114f7565b505050565b6001600160a01b03811660009081526005602090815260409182902080548351818402810184019094528084526060939283018282801561098557602002820191906000526020600020905b81546001600160a01b03168152600190910190602001808311610967575b50505050509050919050565b600061099b6110b8565b6001600160a01b038216610a0e5760405162461bcd60e51b815260206004820152603460248201527f4552433230466163746f72793a204552433732312074656d706c617465206164604482015273191c995cdcca0c0a481393d50810531313d5d15160621b606482015260840161041b565b813b610a5c5760405162461bcd60e51b815260206004820152601a60248201527f4552433230466163746f72793a204e4f5420434f4e5452414354000000000000604482015260640161041b565b6001600c6000828254610a6f9190611b42565b90915550506040805180820182526001600160a01b0380851680835260016020808501918252600c8054600090815260089092528682208651815494511515600160a01b026001600160a81b03199095169616959095179290921790935554935192939290917fdcd16da87b60cea6dbd55a83f73b8a4bf9a54655db58ae0f35b82a2373fc150d91a35050600c54919050565b60038181548110610b1257600080fd5b6000918252602090912001546001600160a01b0316905081565b610b346110b8565b610b3e6000611112565b565b6001600160a01b03808316600090815260096020526040902054839116610b6657600080fd5b6001600160a01b0380831660009081526004602052604090205483918591811690821614610b9357600080fd5b600254604051634a9c82ed60e01b81526001600160a01b03878116600483015286811660248301523360448301526000928392839283928392911690634a9c82ed906064016000604051808303816000875af1158015610bf7573d6000803e3d6000fd5b505050506040513d6000823e601f3d908101601f19168201604052610c1f9190810190611d1a565b94509450945094509450836001600160a01b03167f29a3345df4848a0c0ca3d9ab4619c12c5f9c87f76ef18fb6bad4ea1ab411514686858585604051610c689493929190611dc0565b60405180910390a250505050505050505050565b610c846110b8565b6006548111158015610c9557508015155b610cb15760405162461bcd60e51b815260040161041b90611af6565b6000908152600760205260409020805460ff60a01b19169055565b6000610cd66110b8565b6001600160a01b038216610d525760405162461bcd60e51b815260206004820152603760248201527f4552433732314454466163746f72793a204552433732312074656d706c61746560448201527f2061646472657373283029204e4f5420414c4c4f574544000000000000000000606482015260840161041b565b813b610da05760405162461bcd60e51b815260206004820152601b60248201527f455243373231466163746f72793a204e4f5420434f4e54524143540000000000604482015260640161041b565b600160066000828254610db39190611b42565b90915550506040805180820182526001600160a01b038085168083526001602080850191825260068054600090815260079092528682208651815494511515600160a01b026001600160a81b03199095169616959095179290921790935554935192939290917fc0167b92c8eb4a2bad2c05e0134f076fba5d3cd54671a3e8edf13d2e61443bd991a35050600654919050565b60606003805480602002602001604051908101604052809291908181526020018280548015610e9e57602002820191906000526020600020905b81546001600160a01b03168152600190910190602001808311610e80575b5050505050905090565b610eb06110b8565b6006548111158015610ec157508015155b610edd5760405162461bcd60e51b815260040161041b90611af6565b6000908152600760205260409020805460ff60a01b1916600160a01b179055565b336001600160a01b03831614610f1357600080fd5b6001600160a01b038084166000908152600a60209081526040808320805460ff191690556004825280832080546001600160a01b03191690559285168252600581529190208251610f66928401906114f7565b50505050565b3360008181526009602052604081205490916001600160a01b0390911614610f9357600080fd5b610fa38888888888888833611162565b98975050505050505050565b610fb76110b8565b6001600160a01b03811661101c5760405162461bcd60e51b815260206004820152602660248201527f4f776e61626c653a206e6577206f776e657220697320746865207a65726f206160448201526564647265737360d01b606482015260840161041b565b61102581611112565b50565b6000808260601b9050604051733d602d80600a3d3981f3363d3d373d3d3d363d7360601b81528160148201526e5af43d82803e903d91602b57fd5bf360881b60288201526037816000f06040516001600160a01b03821681529093507f117c72e6c25f0a072e36e148df71468ce2f3dbe7defec5b2c257a6e3eb65278c915060200160405180910390a150919050565b6000546001600160a01b03163314610b3e5760405162461bcd60e51b815260206004820181905260248201527f4f776e61626c653a2063616c6c6572206973206e6f7420746865206f776e6572604482015260640161041b565b600080546001600160a01b038381166001600160a01b0319831681178455604051919092169283917f8be0079c531659141344cd1fd0a4f28419497f9722a3daafe3b4186f6b6457e09190a35050565b60008560000361117157600080fd5b600c54891115801561118257508815155b6111e05760405162461bcd60e51b815260206004820152602960248201527f4552433230466163746f72793a2054656d706c61746520696e64657820646f656044820152681cdb9d08195e1a5cdd60ba1b606482015260840161041b565b6000898152600860209081526040918290208251808401909352546001600160a01b0381168352600160a01b900460ff1615159082018190526112795760405162461bcd60e51b815260206004820152602b60248201527f4552433230466163746f72793a20455243373231546f6b656e2054656d706c6160448201526a1d1948191a5cd8589b195960aa1b606482015260840161041b565b60006112888260000151611028565b6001600160a01b0381166000818152600a60205260409020805460ff191660011790559091506113205760405162461bcd60e51b815260206004820152603e60248201527f455243373231466163746f72793a204661696c656420746f20706572666f726d60448201527f206d696e696d616c206465706c6f79206f662061206e657720746f6b656e0000606482015260840161041b565b6001600b60008282546113339190611b42565b90915550506001600160a01b0380821660008181526004602090815260408083208054868b166001600160a01b0319918216811790925590845260058352908320805460018101825590845291832090910180549091168317905584518d5185949190911692917fd8d773bad5cd9238462725e32b431017e6d78cb682588ae14820d94f3764411c918f91906113cb576113cb611e0b565b60200260200101518e6001815181106113e6576113e6611e0b565b60200260200101518d8d8b604051611402959493929190611e21565b60405180910390a360006040518060e001604052808d81526020018c81526020018b81526020018a8152602001898152602001888152602001876001600160a01b03168152509050816001600160a01b031663370755ab82600001518360200151338560400151866060015187608001518860a001516040518863ffffffff1660e01b815260040161149a9796959493929190611e7b565b6020604051808303816000875af11580156114b9573d6000803e3d6000fd5b505050506040513d601f19601f820116820180604052508101906114dd9190611cb0565b6114e657600080fd5b50909b9a5050505050505050505050565b82805482825590600052602060002090810192821561154c579160200282015b8281111561154c57825182546001600160a01b0319166001600160a01b03909116178255602090920191600190910190611517565b5061155892915061155c565b5090565b5b80821115611558576000815560010161155d565b60008083601f84011261158357600080fd5b50813567ffffffffffffffff81111561159b57600080fd5b6020830191508360208285010111156115b357600080fd5b9250929050565b634e487b7160e01b600052604160045260246000fd5b604051601f8201601f1916810167ffffffffffffffff811182821017156115f9576115f96115ba565b604052919050565b600067ffffffffffffffff82111561161b5761161b6115ba565b50601f01601f191660200190565b600082601f83011261163a57600080fd5b813561164d61164882611601565b6115d0565b81815284602083860101111561166257600080fd5b816020850160208301376000918101602001919091529392505050565b801515811461102557600080fd5b600080600080600080600060a0888a0312156116a857600080fd5b873567ffffffffffffffff808211156116c057600080fd5b6116cc8b838c01611571565b909950975060208a01359150808211156116e557600080fd5b6116f18b838c01611571565b909750955060408a0135945060608a013591508082111561171157600080fd5b5061171e8a828b01611629565b925050608088013561172f8161167f565b8091505092959891949750929550565b6001600160a01b038116811461102557600080fd5b60006020828403121561176657600080fd5b81356117718161173f565b9392505050565b6000806040838503121561178b57600080fd5b82356117968161173f565b946020939093013593505050565b6000806000606084860312156117b957600080fd5b83356117c48161173f565b925060208401356117d48161173f565b929592945050506040919091013590565b600067ffffffffffffffff8211156117ff576117ff6115ba565b5060051b60200190565b600082601f83011261181a57600080fd5b8135602061182a611648836117e5565b82815260059290921b8401810191818101908684111561184957600080fd5b8286015b8481101561186d5780356118608161173f565b835291830191830161184d565b509695505050505050565b6000806040838503121561188b57600080fd5b82356118968161173f565b9150602083013567ffffffffffffffff8111156118b257600080fd5b6118be85828601611809565b9150509250929050565b600081518084526020808501945080840160005b838110156119015781516001600160a01b0316875295820195908201906001016118dc565b509495945050505050565b60208152600061177160208301846118c8565b60006020828403121561193157600080fd5b5035919050565b6000806040838503121561194b57600080fd5b82356119568161173f565b915060208301356119668161173f565b809150509250929050565b60008060006060848603121561198657600080fd5b83356119918161173f565b925060208401356119a18161173f565b9150604084013567ffffffffffffffff8111156119bd57600080fd5b6119c986828701611809565b9150509250925092565b600080600080600080600060e0888a0312156119ee57600080fd5b87359650602088013567ffffffffffffffff80821115611a0d57600080fd5b818a0191508a601f830112611a2157600080fd5b8135611a2f611648826117e5565b8082825260208201915060208360051b86010192508d831115611a5157600080fd5b602085015b83811015611a8a578481351115611a6c57600080fd5b611a7c8f60208335890101611629565b835260209283019201611a56565b509950505060408a0135915080821115611aa357600080fd5b611aaf8b838c01611809565b965060608a0135955060808a0135915080821115611acc57600080fd5b50611ad98a828b01611629565b93505060a0880135915060c0880135905092959891949750929550565b6020808252602c908201527f4552433732314454466163746f72793a2054656d706c61746520696e6465782060408201526b191bd95cdb9d08195e1a5cdd60a21b606082015260800190565b80820180821115611b6357634e487b7160e01b600052601160045260246000fd5b92915050565b81835281816020850137506000828201602090810191909152601f909101601f19169091010190565b60005b83811015611bad578181015183820152602001611b95565b50506000910152565b60008151808452611bce816020860160208601611b92565b601f01601f19169290920160200192915050565b6001600160a01b038816815260a060208201819052600090611c07908301888a611b69565b8281036040840152611c1a818789611b69565b90508281036060840152611c2e8186611bb6565b915050821515608083015298975050505050505050565b600060018060a01b03808b16835260c06020840152611c6860c084018a8c611b69565b8381036040850152611c7b81898b611b69565b905081871660608501528381036080850152611c978187611bb6565b9250505082151560a08301529998505050505050505050565b600060208284031215611cc257600080fd5b81516117718161167f565b600082601f830112611cde57600080fd5b8151611cec61164882611601565b818152846020838601011115611d0157600080fd5b611d12826020830160208701611b92565b949350505050565b600080600080600060a08688031215611d3257600080fd5b855167ffffffffffffffff80821115611d4a57600080fd5b611d5689838a01611ccd565b965060208801519150611d688261173f565b604088015191955080821115611d7d57600080fd5b611d8989838a01611ccd565b94506060880151915080821115611d9f57600080fd5b50611dac88828901611ccd565b925050608086015190509295509295909350565b608081526000611dd36080830187611bb6565b8281036020840152611de58187611bb6565b90508281036040840152611df98186611bb6565b91505082606083015295945050505050565b634e487b7160e01b600052603260045260246000fd5b60a081526000611e3460a0830188611bb6565b8281036020840152611e468188611bb6565b90508560408401528281036060840152611e608186611bb6565b91505060018060a01b03831660808301529695505050505050565b60e08082528851908201819052600090610100600582901b8401810191908401906020808d01855b83811015611ed15760ff19888703018552611ebf868351611bb6565b95509382019390820190600101611ea3565b505085840381870152505050611ee7818a6118c8565b6001600160a01b038916604085015290508660608401528281036080840152611f108187611bb6565b60a0840195909552505060c001529594505050505056fea164736f6c6343000813000a",
  "immutableReferences": {},
  "source": "// SPDX-License-Identifier: MIT\r\npragma solidity ^0.8.2;\r\n\r\nimport \"./interfaces/IERC721template.sol\";\r\nimport \"./interfaces/IERC20template.sol\";\r\nimport \"./interfaces/IManagementPayment.sol\";\r\nimport \"./utils/Deployer.sol\";\r\nimport \"@openzeppelin/contracts/access/Ownable.sol\";\r\n\r\ncontract FactoryERC721 is Deployer, Ownable {\r\n    uint256 private currentNFTCount;\r\n    IManagementPayment public paymentManager;\r\n\r\n    address[] public erc721array;\r\n    mapping(address => address) public erc20listToerc721;\r\n    mapping(address => address[]) public erc721licenses;\r\n\r\n    uint256 private nftTemplateCount;\r\n\r\n    struct Template {\r\n        address templateAddress;\r\n        bool isActive;\r\n    }\r\n\r\n    mapping(uint256 => Template) public nftTemplateList;\r\n\r\n    mapping(uint256 => Template) public templateList;\r\n\r\n    mapping(address => address) public erc721List;\r\n\r\n    mapping(address => bool) public erc20List;\r\n\r\n    uint256 private currentTokenCount = 0;\r\n    uint256 public templateCount;\r\n\r\n    event Template721Added(address indexed _templateAddress, uint256 indexed nftTemplateCount);\r\n    event Template20Added(address indexed _templateAddress, uint256 indexed nftTemplateCount);\r\n\r\n    event TokenCreated(\r\n        address indexed newTokenAddress,\r\n        string name,\r\n        string symbol,\r\n        uint256 cap,\r\n        string licenseType,\r\n        address creator,\r\n        address indexed templateAddress\r\n    );\r\n\r\n    event createERC721(\r\n        address newTokenAddress,\r\n        string tokenName,\r\n        address indexed admin,\r\n        string symbol,\r\n        string tokenURI,\r\n        bool transferable,\r\n        address indexed templateAddress\r\n    );\r\n\r\n    event licenseUsageBought(\r\n        string tokenName,\r\n        address indexed admin,\r\n        string symbol,\r\n        string tokenURI,\r\n        uint256 usage\r\n    );\r\n\r\n    event licensePeriodBought(\r\n        string tokenName,\r\n        address indexed admin,\r\n        string symbol,\r\n        string tokenURI,\r\n        uint256 dateStartLicense\r\n    );\r\n\r\n    modifier erc721check(address _nft) {\r\n        require(\r\n            erc721List[_nft] != address(0)\r\n        );\r\n        _;\r\n    }\r\n    modifier erc721toerc20check(address _erc20license, address _nft) {\r\n        require(\r\n            erc20listToerc721[_erc20license] == _nft\r\n        );\r\n        _;\r\n    }\r\n\r\n    constructor(address payable _managementPayment, address _template721, address _template20) {\r\n        paymentManager = IManagementPayment(_managementPayment);\r\n        add721TokenTemplate(_template721);\r\n        add20TokenTemplate(_template20);\r\n    }\r\n\r\n    function _isContract(address account) internal view returns (bool) {\r\n        // This method relies on extcodesize, which returns 0 for contracts in\r\n        // construction, since the code is only stored at the end of the\r\n        // constructor execution.\r\n\r\n        uint256 size;\r\n        // solhint-disable-next-line no-inline-assembly\r\n        assembly {\r\n            size := extcodesize(account)\r\n        }\r\n        return size > 0;\r\n    }\r\n\r\n    function ERC721deploy(\r\n        string calldata name_,\r\n        string calldata symbol_,\r\n        uint256 _templateIndex,\r\n        string memory tokenURI,\r\n        bool transferable_\r\n    ) external returns (address) {\r\n        require(\r\n            _templateIndex <= nftTemplateCount && _templateIndex != 0,\r\n            \"ERC721DTFactory: Template index doesnt exist\"\r\n        );\r\n        Template memory tokenTemplate = nftTemplateList[_templateIndex];\r\n        require(\r\n            tokenTemplate.isActive,\r\n            \"ERC721DTFactory: ERC721Token Template disabled\"\r\n        );\r\n        require(msg.sender != address(0));\r\n        address token = deploy(tokenTemplate.templateAddress);\r\n\r\n        require(\r\n            token != address(0),\r\n            \"ERC721DTFactory: Failed to perform minimal deploy of a new token\"\r\n        );\r\n\r\n        erc721List[token] = token;\r\n        currentNFTCount += 1;\r\n        IERC721template tokenInstance = IERC721template(token);\r\n\r\n        emit createERC721(\r\n            token,\r\n            name_,\r\n            msg.sender,\r\n            symbol_,\r\n            tokenURI,\r\n            transferable_,\r\n            tokenTemplate.templateAddress\r\n        );\r\n        \r\n        require(\r\n            tokenInstance.initialize(\r\n                msg.sender,\r\n                name_,\r\n                symbol_,\r\n                address(this),\r\n                tokenURI,\r\n                transferable_\r\n            ),\r\n            \"ERC721DTFactory: Unable to initialize token instance\"\r\n        );\r\n        erc721array.push(token);\r\n        return token;\r\n    }\r\n\r\n    function deleteLicense(address _erc20, address _erc721, address[] memory licenses) external {\r\n        require(msg.sender == _erc721);\r\n        erc20List[_erc20] = false;\r\n        erc20listToerc721[_erc20] = address(0);\r\n        erc721licenses[_erc721] = licenses;\r\n    }\r\n    \r\n    function deleteNFT(address _erc721, address[] memory nftList) external {\r\n        require(erc721licenses[_erc721].length == 0);\r\n        erc721List[_erc721] = address(0);\r\n        erc721array = nftList;\r\n    }\r\n\r\n    function geterc721array() external view returns (address[] memory) {\r\n        return erc721array;\r\n    }\r\n\r\n    function geterc20array(address _erc721Addr) external view returns (address [] memory){\r\n        return erc721licenses[_erc721Addr];\r\n    }\r\n\r\n    struct tokenStruct {\r\n        string[] strings;\r\n        address[] addresses;\r\n        uint256 uints;\r\n        string licenseType;\r\n        uint256 price;\r\n        uint256 licensePeriod;\r\n        address owner;\r\n    }\r\n\r\n    function createToken(\r\n        uint256 _templateIndex,\r\n        string[] memory strings,\r\n        address[] memory addresses,\r\n        uint256 uints,\r\n        string memory licenseType,\r\n        uint256 price,\r\n        uint256 licensePeriod\r\n    ) external returns (address token) {\r\n        require(erc721List[msg.sender] == msg.sender);\r\n        token = _createToken(\r\n            _templateIndex,\r\n            strings,\r\n            addresses,\r\n            uints,\r\n            licenseType,\r\n            price,\r\n            licensePeriod,\r\n            msg.sender\r\n        );\r\n        return token;\r\n    }\r\n\r\n    function _createToken(\r\n        uint256 _templateIndex,\r\n        string[] memory strings,\r\n        address[] memory addresses,\r\n        uint256 uints,\r\n        string memory licenseType,\r\n        uint256 price,\r\n        uint256 licensePeriod,\r\n        address owner\r\n    ) internal returns (address) {\r\n        require(uints != 0);\r\n\r\n        require(\r\n            _templateIndex <= templateCount && _templateIndex != 0,\r\n            \"ERC20Factory: Template index doesnt exist\"\r\n        );\r\n\r\n        Template memory tokenTemplate = templateList[_templateIndex];\r\n\r\n        require(\r\n            tokenTemplate.isActive,\r\n            \"ERC20Factory: ERC721Token Template disabled\"\r\n        );\r\n\r\n        address token = deploy(tokenTemplate.templateAddress);\r\n        erc20List[token] = true;\r\n\r\n        require(\r\n            token != address(0),\r\n            \"ERC721Factory: Failed to perform minimal deploy of a new token\"\r\n        );\r\n        currentTokenCount += 1;\r\n\r\n        erc20listToerc721[token] = owner;\r\n        erc721licenses[owner].push(token);\r\n\r\n        IERC20template tokenInstance = IERC20template(token);\r\n\r\n        emit TokenCreated(\r\n            token,\r\n            strings[0],\r\n            strings[1],\r\n            uints,\r\n            licenseType,\r\n            owner,\r\n            tokenTemplate.templateAddress\r\n        );\r\n\r\n        tokenStruct memory tokenData = tokenStruct(\r\n            strings,\r\n            addresses,\r\n            uints,\r\n            licenseType,\r\n            price,\r\n            licensePeriod,\r\n            owner\r\n        );\r\n        require(\r\n            tokenInstance.initialize(\r\n                tokenData.strings,\r\n                tokenData.addresses,\r\n                msg.sender,\r\n                tokenData.uints,\r\n                tokenData.licenseType,\r\n                tokenData.price,\r\n                tokenData.licensePeriod\r\n            )\r\n        );\r\n        return token;\r\n    }\r\n\r\n    function buyNFTlicensePeriod(\r\n        address _nft,\r\n        address _erc20license\r\n    ) external erc721check(_nft) erc721toerc20check(_erc20license, _nft) {\r\n        (\r\n            string memory name,\r\n            address owner,\r\n            string memory symbol,\r\n            string memory uri,\r\n            uint date\r\n        ) = paymentManager.paymentLicensePeriod(\r\n                _nft,\r\n                _erc20license,\r\n                msg.sender\r\n        );\r\n        emit licensePeriodBought(name, owner, symbol, uri, date);\r\n    }\r\n\r\n    function buyNFTlicenseUsage(\r\n        address _nft,\r\n        address _erc20license,\r\n        uint256 _usage\r\n    ) external erc721check(_nft) erc721toerc20check(_erc20license, _nft) {\r\n        (\r\n            string memory name,\r\n            address owner,\r\n            string memory symbol,\r\n            string memory uri,\r\n            uint usage\r\n        ) = paymentManager.paymentLicenseUsage(\r\n                _nft,\r\n                _erc20license,\r\n                msg.sender,\r\n                _usage\r\n            );\r\n        emit licenseUsageBought(name, owner, symbol, uri, usage);\r\n    }\r\n\r\n    /**\r\n     * @dev add a new NFT Template.\r\n      Only Factory Owner can call it\r\n     * @param _templateAddress new template address\r\n     * @return the actual template count\r\n     */\r\n    \r\n    function add721TokenTemplate(address _templateAddress)\r\n        public\r\n        onlyOwner\r\n        returns (uint256)\r\n    {\r\n        require(\r\n            _templateAddress != address(0),\r\n            \"ERC721DTFactory: ERC721 template address(0) NOT ALLOWED\"\r\n        );\r\n        require(_isContract(_templateAddress), \"ERC721Factory: NOT CONTRACT\");\r\n        nftTemplateCount += 1;\r\n        Template memory template = Template(_templateAddress, true);\r\n        nftTemplateList[nftTemplateCount] = template;\r\n        emit Template721Added(_templateAddress,nftTemplateCount);\r\n        return nftTemplateCount;\r\n    }\r\n\r\n    function add20TokenTemplate(address _templateAddress)\r\n        public\r\n        onlyOwner\r\n        returns (uint256)\r\n    {\r\n        require(\r\n            _templateAddress != address(0),\r\n            \"ERC20Factory: ERC721 template address(0) NOT ALLOWED\"\r\n        );\r\n        require(_isContract(_templateAddress), \"ERC20Factory: NOT CONTRACT\");\r\n        templateCount += 1;\r\n        Template memory template = Template(_templateAddress, true);\r\n        templateList[templateCount] = template;\r\n        emit Template20Added(_templateAddress, templateCount);\r\n        return templateCount;\r\n    }\r\n\r\n    /**\r\n     * @dev reactivate a disabled NFT Template.\r\n            Only Factory Owner can call it\r\n     * @param _index index we want to reactivate\r\n     */\r\n    \r\n    // function to activate a disabled token.\r\n    function reactivate721TokenTemplate(uint256 _index) external onlyOwner {\r\n        require(\r\n            _index <= nftTemplateCount && _index != 0,\r\n            \"ERC721DTFactory: Template index doesnt exist\"\r\n        );\r\n        Template storage template = nftTemplateList[_index];\r\n        template.isActive = true;\r\n    }\r\n\r\n      /**\r\n     * @dev disable an NFT Template.\r\n      Only Factory Owner can call it\r\n     * @param _index index we want to disable\r\n     */\r\n    function disable721TokenTemplate(uint256 _index) external onlyOwner {\r\n        require(\r\n            _index <= nftTemplateCount && _index != 0,\r\n            \"ERC721DTFactory: Template index doesnt exist\"\r\n        );\r\n        Template storage template = nftTemplateList[_index];\r\n        template.isActive = false;\r\n    }\r\n}\r\n",
  "sourcePath": "C:\\Users\\Luca\\Desktop\\datacellar\\DataCellar\\smartcontracts\\contracts\\FactoryERC721.sol",
  "compiler": {
    "name": "solc",
    "version": "0.8.19+commit.7dd6d404.Emscripten.clang"
  },
  "schemaVersion": "3.4.13",
  "updatedAt": "2024-01-09T15:00:53.018Z",
  "networkType": "ethereum",
  "devdoc": {
    "kind": "dev",
    "methods": {
      "add721TokenTemplate(address)": {
        "details": "add a new NFT Template. Only Factory Owner can call it",
        "params": {
          "_templateAddress": "new template address"
        },
        "returns": {
          "_0": "the actual template count"
        }
      },
      "disable721TokenTemplate(uint256)": {
        "details": "disable an NFT Template. Only Factory Owner can call it",
        "params": {
          "_index": "index we want to disable"
        }
      },
      "owner()": {
        "details": "Returns the address of the current owner."
      },
      "reactivate721TokenTemplate(uint256)": {
        "details": "reactivate a disabled NFT Template. Only Factory Owner can call it",
        "params": {
          "_index": "index we want to reactivate"
        }
      },
      "renounceOwnership()": {
        "details": "Leaves the contract without owner. It will not be possible to call `onlyOwner` functions anymore. Can only be called by the current owner. NOTE: Renouncing ownership will leave the contract without an owner, thereby removing any functionality that is only available to the owner."
      },
      "transferOwnership(address)": {
        "details": "Transfers ownership of the contract to a new account (`newOwner`). Can only be called by the current owner."
      }
    },
    "version": 1
  },
  "userdoc": {
    "kind": "user",
    "methods": {},
    "version": 1
  }
}