{
    "contractName": "FactoryERC721",
    "abi": [
        {
            "inputs": [
                {
                    "internalType": "address payable",
                    "name": "_datacellarToken",
                    "type": "address"
                }
            ],
            "stateMutability": "nonpayable",
            "type": "constructor"
        },
        {
            "anonymous": false,
            "inputs": [
                {
                    "indexed": true,
                    "internalType": "address",
                    "name": "newTokenAddress",
                    "type": "address"
                },
                {
                    "indexed": false,
                    "internalType": "string",
                    "name": "name",
                    "type": "string"
                },
                {
                    "indexed": false,
                    "internalType": "string",
                    "name": "symbol",
                    "type": "string"
                },
                {
                    "indexed": false,
                    "internalType": "uint256",
                    "name": "cap",
                    "type": "uint256"
                },
                {
                    "indexed": false,
                    "internalType": "string",
                    "name": "licenseType",
                    "type": "string"
                },
                {
                    "indexed": false,
                    "internalType": "address",
                    "name": "creator",
                    "type": "address"
                }
            ],
            "name": "TokenCreated",
            "type": "event"
        },
        {
            "anonymous": false,
            "inputs": [
                {
                    "indexed": false,
                    "internalType": "address",
                    "name": "newTokenAddress",
                    "type": "address"
                },
                {
                    "indexed": false,
                    "internalType": "string",
                    "name": "tokenName",
                    "type": "string"
                },
                {
                    "indexed": true,
                    "internalType": "address",
                    "name": "admin",
                    "type": "address"
                },
                {
                    "indexed": false,
                    "internalType": "string",
                    "name": "symbol",
                    "type": "string"
                },
                {
                    "indexed": false,
                    "internalType": "string",
                    "name": "tokenURI",
                    "type": "string"
                },
                {
                    "indexed": false,
                    "internalType": "bool",
                    "name": "transferable",
                    "type": "bool"
                }
            ],
            "name": "createERC721",
            "type": "event"
        },
        {
            "inputs": [
                {
                    "internalType": "string",
                    "name": "name_",
                    "type": "string"
                },
                {
                    "internalType": "string",
                    "name": "symbol_",
                    "type": "string"
                },
                {
                    "internalType": "string",
                    "name": "tokenURI",
                    "type": "string"
                },
                {
                    "internalType": "bool",
                    "name": "transferable_",
                    "type": "bool"
                }
            ],
            "name": "ERC721deploy",
            "outputs": [
                {
                    "internalType": "address",
                    "name": "",
                    "type": "address"
                }
            ],
            "stateMutability": "nonpayable",
            "type": "function"
        },
        {
            "inputs": [
                {
                    "internalType": "address",
                    "name": "_nft",
                    "type": "address"
                },
                {
                    "internalType": "address",
                    "name": "_erc20license",
                    "type": "address"
                }
            ],
            "name": "buyNFTlicensePeriod",
            "outputs": [],
            "stateMutability": "nonpayable",
            "type": "function"
        },
        {
            "inputs": [
                {
                    "internalType": "address",
                    "name": "_nft",
                    "type": "address"
                },
                {
                    "internalType": "address",
                    "name": "_erc20license",
                    "type": "address"
                },
                {
                    "internalType": "uint256",
                    "name": "_usage",
                    "type": "uint256"
                }
            ],
            "name": "buyNFTlicenseUsage",
            "outputs": [],
            "stateMutability": "nonpayable",
            "type": "function"
        },
        {
            "inputs": [
                {
                    "internalType": "string[]",
                    "name": "strings",
                    "type": "string[]"
                },
                {
                    "internalType": "address[]",
                    "name": "addresses",
                    "type": "address[]"
                },
                {
                    "internalType": "uint256",
                    "name": "uints",
                    "type": "uint256"
                },
                {
                    "internalType": "string",
                    "name": "licenseType",
                    "type": "string"
                },
                {
                    "internalType": "uint256",
                    "name": "price",
                    "type": "uint256"
                }
            ],
            "name": "createToken",
            "outputs": [
                {
                    "internalType": "address",
                    "name": "token",
                    "type": "address"
                }
            ],
            "stateMutability": "nonpayable",
            "type": "function"
        },
        {
            "inputs": [],
            "name": "datacellarToken",
            "outputs": [
                {
                    "internalType": "contract DataCellarToken",
                    "name": "",
                    "type": "address"
                }
            ],
            "stateMutability": "view",
            "type": "function"
        },
        {
            "inputs": [
                {
                    "internalType": "address",
                    "name": "",
                    "type": "address"
                }
            ],
            "name": "erc20List",
            "outputs": [
                {
                    "internalType": "bool",
                    "name": "",
                    "type": "bool"
                }
            ],
            "stateMutability": "view",
            "type": "function"
        },
        {
            "inputs": [
                {
                    "internalType": "address",
                    "name": "",
                    "type": "address"
                }
            ],
            "name": "erc20listToerc721",
            "outputs": [
                {
                    "internalType": "address",
                    "name": "",
                    "type": "address"
                }
            ],
            "stateMutability": "view",
            "type": "function"
        },
        {
            "inputs": [
                {
                    "internalType": "address",
                    "name": "",
                    "type": "address"
                }
            ],
            "name": "erc721List",
            "outputs": [
                {
                    "internalType": "address",
                    "name": "",
                    "type": "address"
                }
            ],
            "stateMutability": "view",
            "type": "function"
        },
        {
            "inputs": [
                {
                    "internalType": "uint256",
                    "name": "",
                    "type": "uint256"
                }
            ],
            "name": "erc721array",
            "outputs": [
                {
                    "internalType": "address",
                    "name": "",
                    "type": "address"
                }
            ],
            "stateMutability": "view",
            "type": "function"
        },
        {
            "inputs": [
                {
                    "internalType": "address",
                    "name": "",
                    "type": "address"
                },
                {
                    "internalType": "uint256",
                    "name": "",
                    "type": "uint256"
                }
            ],
            "name": "erc721licenses",
            "outputs": [
                {
                    "internalType": "address",
                    "name": "",
                    "type": "address"
                }
            ],
            "stateMutability": "view",
            "type": "function"
        },
        {
            "inputs": [],
            "name": "getCurrentNFTCount",
            "outputs": [
                {
                    "internalType": "uint256",
                    "name": "",
                    "type": "uint256"
                }
            ],
            "stateMutability": "view",
            "type": "function"
        },
        {
            "inputs": [],
            "name": "paymentManager",
            "outputs": [
                {
                    "internalType": "contract ManagementPayment",
                    "name": "",
                    "type": "address"
                }
            ],
            "stateMutability": "view",
            "type": "function"
        }
    ],
    "bytecode": "608060405260006009553480156200001657600080fd5b506040516200659938038062006599833981016040819052620000399162000168565b600080546001600160a01b0319163317905562000056813b151590565b1515600114620000e85760405162461bcd60e51b815260206004820152604d60248201527f466163746f72794552433732313a20617420696e697469616c697a6174696f6e60448201527f2061646472657373657320796f752070617373656420617265206e6f7420766160648201526c6c696420636f6e74726163747360981b608482015260a40160405180910390fd5b80604051620000f7906200015a565b6001600160a01b039091168152602001604051809103906000f08015801562000124573d6000803e3d6000fd5b50600580546001600160a01b039283166001600160a01b031991821617909155600480549390921692169190911790556200019a565b6113ae80620051eb83390190565b6000602082840312156200017b57600080fd5b81516001600160a01b03811681146200019357600080fd5b9392505050565b61504180620001aa6000396000f3fe60806040523480156200001157600080fd5b5060043610620000c35760003560e01c80635ea84c40116200007a5780635ea84c4014620001a15780636c72b9ce14620001b857806372f670f014620001cf5780637351ce9714620001fb5780637c4aa084146200020f578063aee1fe49146200022657600080fd5b806310d8f02b14620000c85780631415ac6c146200011157806321a84c511462000128578063226e7615146200014157806343b2a33214620001785780635c705982146200018f575b600080fd5b620000f4620000d936600462000d57565b6007602052600090815260409020546001600160a01b031681565b6040516001600160a01b0390911681526020015b60405180910390f35b620000f46200012236600462000d7c565b6200023a565b6200013f6200013936600462000da9565b62000273565b005b620001676200015236600462000d57565b60036020526000908152604090205460ff1681565b604051901515815260200162000108565b620000f46200018936600462000f4e565b620003a3565b60015460405190815260200162000108565b620000f4620001b2366004620010c8565b62000593565b620000f4620001c93660046200117b565b62000876565b620000f4620001e036600462000d57565b6002602052600090815260409020546001600160a01b031681565b600454620000f4906001600160a01b031681565b6200013f6200022036600462001195565b620008a1565b600554620000f4906001600160a01b031681565b600860205281600052604060002081815481106200025757600080fd5b6000918252602090912001546001600160a01b03169150829050565b6001600160a01b03808416600090815260026020526040902054849116620002e25760405162461bcd60e51b815260206004820181905260248201527f466163746f72794552433732313a206e667420646f65736e277420657869737460448201526064015b60405180910390fd5b6001600160a01b0380841660009081526007602052604090205484918691811690821614620003255760405162461bcd60e51b8152600401620002d990620011cd565b600554604051631c2e6e1760e31b81526001600160a01b0388811660048301528781166024830152336044830152606482018790529091169063e17370b890608401600060405180830381600087803b1580156200038257600080fd5b505af115801562000397573d6000803e3d6000fd5b50505050505050505050565b3360008181526002602052604081205490916001600160a01b03909116146200042e5760405162461bcd60e51b815260206004820152603660248201527f455243373231466163746f72793a204f4e4c592045524337323120494e5354416044820152754e43452046524f4d20455243373231464143544f525960501b6064820152608401620002d9565b604051651c195c9a5bd960d21b602082015260260160405160208183030381529060405280519060200120836040516020016200046c919062001237565b604051602081830303815290604052805190602001201480620004df575060405164757361676560d81b60208201526025016040516020818303038152906040528051906020012083604051602001620004c7919062001237565b60405160208183030381529060405280519060200120145b620005795760405162461bcd60e51b815260206004820152606060248201527f45524337323174656d706c6174653a2065726332306372656174696f6e3a206e60448201527f6f742061626c6520746f20637265617465206f7468657220706f6c696369657360648201527f20646966666572656e742066726f6d20706572696f6420616e64207573616765608482015260a401620002d9565b62000589868686868633620009c5565b9695505050505050565b600033620005f85760405162461bcd60e51b815260206004820152602b60248201527f4552433732314454466163746f72793a20616464726573732830292063616e6e60448201526a37ba1031329037bbb732b960a91b6064820152608401620002d9565b6000604051620006089062000d1e565b604051809103906000f08015801562000625573d6000803e3d6000fd5b5090506001600160a01b038116620006a8576040805162461bcd60e51b81526020600482015260248101919091527f4552433732314454466163746f72793a204661696c656420746f20706572666f60448201527f726d206d696e696d616c206465706c6f79206f662061206e657720746f6b656e6064820152608401620002d9565b6001600160a01b0381166000818152600260205260409081902080546001600160a01b0319169092179091555133907f2318526f6a610c52e06555b37a007ed1b890c42148e93cc0eb09031a44f61db990620007129084908c908c908c908c908c908c90620012ac565b60405180910390a260018060008282546200072e919062001315565b909155505060405163225f5b3d60e11b81526001600160a01b038216906344beb67a906200076f9033908c908c908c908c9030908d908d906004016200133d565b6020604051808303816000875af11580156200078f573d6000803e3d6000fd5b505050506040513d601f19601f82011682018060405250810190620007b59190620013ae565b620008205760405162461bcd60e51b815260206004820152603460248201527f4552433732314454466163746f72793a20556e61626c6520746f20696e697469604482015273616c697a6520746f6b656e20696e7374616e636560601b6064820152608401620002d9565b600680546001810182556000919091527ff652222313e28459528d920b65115c16c04f3efc82aaedc97be59f3f377c0d3f0180546001600160a01b0319166001600160a01b038316179055979650505050505050565b600681815481106200088757600080fd5b6000918252602090912001546001600160a01b0316905081565b6001600160a01b038083166000908152600260205260409020548391166200090c5760405162461bcd60e51b815260206004820181905260248201527f466163746f72794552433732313a206e667420646f65736e27742065786973746044820152606401620002d9565b6001600160a01b03808316600090815260076020526040902054839185918116908216146200094f5760405162461bcd60e51b8152600401620002d990620011cd565b600554604051634a9c82ed60e01b81526001600160a01b038781166004830152868116602483015233604483015290911690634a9c82ed90606401600060405180830381600087803b158015620009a557600080fd5b505af1158015620009ba573d6000803e3d6000fd5b505050505050505050565b60008460000362000a275760405162461bcd60e51b815260206004820152602560248201527f4552433230466163746f72793a207a65726f20636170206973206e6f7420616c6044820152641b1bddd95960da1b6064820152608401620002d9565b600060405162000a379062000d2c565b604051809103906000f08015801562000a54573d6000803e3d6000fd5b506001600160a01b038082166000818152600360209081526040808320805460ff19166001908117909155600783528184208054968b166001600160a01b031997881681179091558452600883529083208054918201815583529120018054909216811790915590915062000b325760405162461bcd60e51b815260206004820152603e60248201527f455243373231466163746f72793a204661696c656420746f20706572666f726d60448201527f206d696e696d616c206465706c6f79206f662061206e657720746f6b656e00006064820152608401620002d9565b806001600160a01b03167fb38156f1e89e2cb49f9480feccb225fab42f8eeaa5f46370d16b3b2083f0e1978960008151811062000b735762000b73620013ce565b60200260200101518a60018151811062000b915762000b91620013ce565b602002602001015189898860405162000baf959493929190620013e4565b60405180910390a260016009600082825462000bcc919062001315565b90915550506040805160c0810182528981526020810189905290810187905260608101869052608081018590526001600160a01b03841660a082015262000c14828262000c20565b50509695505050505050565b816001600160a01b0316638d7f304482600001518360200151308560400151866060015187608001516040518763ffffffff1660e01b815260040162000c6c969594939291906200148a565b6020604051808303816000875af115801562000c8c573d6000803e3d6000fd5b505050506040513d601f19601f8201168201806040525081019062000cb29190620013ae565b62000d1a5760405162461bcd60e51b815260206004820152603160248201527f4552433230466163746f72793a20556e61626c6520746f20696e697469616c696044820152707a6520746f6b656e20696e7374616e636560781b6064820152608401620002d9565b5050565b612323806200153d83390190565b6117ac806200386083390190565b80356001600160a01b038116811462000d5257600080fd5b919050565b60006020828403121562000d6a57600080fd5b62000d758262000d3a565b9392505050565b6000806040838503121562000d9057600080fd5b62000d9b8362000d3a565b946020939093013593505050565b60008060006060848603121562000dbf57600080fd5b62000dca8462000d3a565b925062000dda6020850162000d3a565b9150604084013590509250925092565b634e487b7160e01b600052604160045260246000fd5b604051601f8201601f1916810167ffffffffffffffff8111828210171562000e2c5762000e2c62000dea565b604052919050565b600067ffffffffffffffff82111562000e515762000e5162000dea565b5060051b60200190565b600082601f83011262000e6d57600080fd5b813567ffffffffffffffff81111562000e8a5762000e8a62000dea565b62000e9f601f8201601f191660200162000e00565b81815284602083860101111562000eb557600080fd5b816020850160208301376000918101602001919091529392505050565b600082601f83011262000ee457600080fd5b8135602062000efd62000ef78362000e34565b62000e00565b82815260059290921b8401810191818101908684111562000f1d57600080fd5b8286015b8481101562000f435762000f358162000d3a565b835291830191830162000f21565b509695505050505050565b600080600080600060a0868803121562000f6757600080fd5b853567ffffffffffffffff8082111562000f8057600080fd5b818801915088601f83011262000f9557600080fd5b8135602062000fa862000ef78362000e34565b82815260059290921b8401810191818101908c84111562000fc857600080fd5b8286015b84811015620010055780358681111562000fe65760008081fd5b62000ff68f86838b010162000e5b565b84525091830191830162000fcc565b50995050890135925050808211156200101d57600080fd5b6200102b89838a0162000ed2565b95506040880135945060608801359150808211156200104957600080fd5b50620010588882890162000e5b565b95989497509295608001359392505050565b60008083601f8401126200107d57600080fd5b50813567ffffffffffffffff8111156200109657600080fd5b602083019150836020828501011115620010af57600080fd5b9250929050565b8015158114620010c557600080fd5b50565b60008060008060008060808789031215620010e257600080fd5b863567ffffffffffffffff80821115620010fb57600080fd5b620011098a838b016200106a565b909850965060208901359150808211156200112357600080fd5b620011318a838b016200106a565b909650945060408901359150808211156200114b57600080fd5b506200115a89828a0162000e5b565b92505060608701356200116d81620010b6565b809150509295509295509295565b6000602082840312156200118e57600080fd5b5035919050565b60008060408385031215620011a957600080fd5b620011b48362000d3a565b9150620011c46020840162000d3a565b90509250929050565b60208082526024908201527f466163746f72794552433732313a206c6963656e736520646f65736e277420656040820152631e1a5cdd60e21b606082015260800190565b60005b838110156200122e57818101518382015260200162001214565b50506000910152565b600082516200124b81846020870162001211565b9190910192915050565b81835281816020850137506000828201602090810191909152601f909101601f19169091010190565b600081518084526200129881602086016020860162001211565b601f01601f19169290920160200192915050565b6001600160a01b038816815260a060208201819052600090620012d3908301888a62001255565b8281036040840152620012e881878962001255565b90508281036060840152620012fe81866200127e565b915050821515608083015298975050505050505050565b808201808211156200133757634e487b7160e01b600052601160045260246000fd5b92915050565b600060018060a01b03808b16835260c060208401526200136260c084018a8c62001255565b83810360408501526200137781898b62001255565b9050818716606085015283810360808501526200139581876200127e565b9250505082151560a08301529998505050505050505050565b600060208284031215620013c157600080fd5b815162000d7581620010b6565b634e487b7160e01b600052603260045260246000fd5b60a081526000620013f960a08301886200127e565b82810360208401526200140d81886200127e565b905085604084015282810360608401526200142981866200127e565b91505060018060a01b03831660808301529695505050505050565b600081518084526020808501945080840160005b838110156200147f5781516001600160a01b03168752958201959082019060010162001458565b509495945050505050565b600060c0820160c0835280895180835260e08501915060e08160051b86010192506020808c0160005b83811015620014e55760df19888703018552620014d28683516200127e565b95509382019390820190600101620014b3565b505085840381870152505050620014fd818962001444565b6001600160a01b0388166040850152905085606084015282810360808401526200152881866200127e565b9150508260a083015297965050505050505056fe60806040523480156200001157600080fd5b506040518060400160405280600881526020016754656d706c61746560c01b8152506040518060400160405280600e81526020016d15195b5c1b185d1954de5b589bdb60921b81525081600090816200006b91906200012d565b5060016200007a82826200012d565b5050600160065550620001f9565b634e487b7160e01b600052604160045260246000fd5b600181811c90821680620000b357607f821691505b602082108103620000d457634e487b7160e01b600052602260045260246000fd5b50919050565b601f8211156200012857600081815260208120601f850160051c81016020861015620001035750805b601f850160051c820191505b8181101562000124578281556001016200010f565b5050505b505050565b81516001600160401b0381111562000149576200014962000088565b62000161816200015a84546200009e565b84620000da565b602080601f831160018114620001995760008415620001805750858301515b600019600386901b1c1916600185901b17855562000124565b600085815260208120601f198616915b82811015620001ca57888601518255948401946001909101908401620001a9565b5085821015620001e95787850151600019600388901b60f8161c191681555b5050505050600190811b01905550565b61211a80620002096000396000f3fe6080604052600436106101385760003560e01c806355f804b3116100b057806395d89b411161006c57806395d89b41146103b4578063a22cb465146103c9578063b88d4fde146103e9578063c395c8af14610409578063c87b56dd1461041e578063e985e9c51461043e57005b806355f804b3146102cf5780636352211e146102ef57806370a082311461030f5780638f84aa091461033d57806390184b021461036157806392ff0d311461039a57005b806323b872dd116100ff57806323b872dd14610210578063392e53cd1461023057806342842e0e1461024d57806344beb67a1461026d578063466bca021461028d57806349d2f587146102af57005b806301ffc9a71461014157806306fdde0314610176578063081812fc14610198578063095ea7b3146101d0578063162094c4146101f057005b3661013f57005b005b34801561014d57600080fd5b5061016161015c366004611666565b610487565b60405190151581526020015b60405180910390f35b34801561018257600080fd5b5061018b6104d9565b60405161016d91906116d3565b3480156101a457600080fd5b506101b86101b33660046116e6565b61056b565b6040516001600160a01b03909116815260200161016d565b3480156101dc57600080fd5b5061013f6101eb366004611714565b610592565b3480156101fc57600080fd5b5061013f61020b3660046117ec565b6106ac565b34801561021c57600080fd5b5061013f61022b366004611833565b61073a565b34801561023c57600080fd5b50600c54610100900460ff16610161565b34801561025957600080fd5b5061013f610268366004611833565b61076b565b34801561027957600080fd5b506101616102883660046118d2565b610786565b34801561029957600080fd5b506102a261089b565b60405161016d919061199d565b3480156102bb57600080fd5b506101b86102ca366004611a2f565b6108fc565b3480156102db57600080fd5b5061013f6102ea366004611ad6565b610aa3565b3480156102fb57600080fd5b506101b861030a3660046116e6565b610aed565b34801561031b57600080fd5b5061032f61032a366004611b0b565b610b4d565b60405190815260200161016d565b34801561034957600080fd5b50600c546201000090046001600160a01b03166101b8565b34801561036d57600080fd5b5061016161037c366004611b0b565b6001600160a01b03166000908152600b602052604090205460ff1690565b3480156103a657600080fd5b50600c546101619060ff1681565b3480156103c057600080fd5b5061018b610bd3565b3480156103d557600080fd5b5061013f6103e4366004611b28565b610be2565b3480156103f557600080fd5b5061013f610404366004611b5d565b610bed565b34801561041557600080fd5b5061018b610c25565b34801561042a57600080fd5b5061018b6104393660046116e6565b610c34565b34801561044a57600080fd5b50610161610459366004611bdd565b6001600160a01b03918216600090815260056020908152604080832093909416825291909152205460ff1690565b60006001600160e01b031982166380ac58cd60e01b14806104b857506001600160e01b03198216635b5e139f60e01b145b806104d357506301ffc9a760e01b6001600160e01b03198316145b92915050565b6060600780546104e890611c16565b80601f016020809104026020016040519081016040528092919081815260200182805461051490611c16565b80156105615780601f1061053657610100808354040283529160200191610561565b820191906000526020600020905b81548152906001019060200180831161054457829003601f168201915b5050505050905090565b600061057682610ca8565b506000908152600460205260409020546001600160a01b031690565b600061059d82610aed565b9050806001600160a01b0316836001600160a01b03160361060f5760405162461bcd60e51b815260206004820152602160248201527f4552433732313a20617070726f76616c20746f2063757272656e74206f776e656044820152603960f91b60648201526084015b60405180910390fd5b336001600160a01b038216148061062b575061062b8133610459565b61069d5760405162461bcd60e51b815260206004820152603d60248201527f4552433732313a20617070726f76652063616c6c6572206973206e6f7420746f60448201527f6b656e206f776e6572206f7220617070726f76656420666f7220616c6c0000006064820152608401610606565b6106a78383610d0a565b505050565b6106b582610aed565b6001600160a01b0316336001600160a01b0316146106e55760405162461bcd60e51b815260040161060690611c50565b6106ef8282610d78565b336001600160a01b03167f6de6cd3982065cbd31e789e3109106f4d76d1c8a46e85262045cf947fb3fd4ed8284424360405161072e9493929190611c87565b60405180910390a25050565b6107443382610dff565b6107605760405162461bcd60e51b815260040161060690611cb6565b6106a7838383610e7e565b6106a783838360405180602001604052806000815250610bed565b600c54600090610100900460ff16156107ec5760405162461bcd60e51b815260206004820152602260248201527f546f6b656e20696e7374616e636520616c726561647920696e697469616c697a604482015261195960f21b6064820152608401610606565b6001600160a01b0389166108125760405162461bcd60e51b815260040161060690611d03565b600061088d8a8a8a8080601f01602080910402602001604051908101604052809392919081815260200183838082843760009201919091525050604080516020601f8e018190048102820181019092528c815292508c91508b90819084018382808284376000920191909152508b92508a9150899050610fe2565b9a9950505050505050505050565b6060600a80548060200260200160405190810160405280929190818152602001828054801561056157602002820191906000526020600020905b81546001600160a01b031681526001909101906020018083116108d5575050505050905090565b60006109066110b2565b6109106001610aed565b6001600160a01b0316336001600160a01b0316146109405760405162461bcd60e51b815260040161060690611c50565b600e54610100900460ff166109a65760405162461bcd60e51b815260206004820152602660248201527f45524337323154656d706c6174653a204e4f542045524332304445504c4f5945604482015265525f524f4c4560d01b6064820152608401610606565b6009546040516321d9519960e11b81526000916001600160a01b0316906343b2a332906109e3908c908c908c908c908c908c908c90600401611dc3565b6020604051808303816000875af1158015610a02573d6000803e3d6000fd5b505050506040513d601f19601f82011682018060405250810190610a269190611e99565b6001600160a01b0381166000818152600b60205260408120805460ff19166001908117909155600a805491820181559091527fc65a7bb8d6351c1cf70c95a316cc6a92839c986682d98bc35f958f4883f9d2a80180546001600160a01b0319169091179055915050610a986001600655565b979650505050505050565b610aad6001610aed565b6001600160a01b0316336001600160a01b031614610add5760405162461bcd60e51b815260040161060690611c50565b600d610ae98282611f04565b5050565b6000818152600260205260408120546001600160a01b0316806104d35760405162461bcd60e51b8152602060048201526018602482015277115490cdcc8c4e881a5b9d985b1a59081d1bdad95b88125160421b6044820152606401610606565b60006001600160a01b038216610bb75760405162461bcd60e51b815260206004820152602960248201527f4552433732313a2061646472657373207a65726f206973206e6f7420612076616044820152683634b21037bbb732b960b91b6064820152608401610606565b506001600160a01b031660009081526003602052604090205490565b6060600880546104e890611c16565b610ae933838361110b565b610bf73383610dff565b610c135760405162461bcd60e51b815260040161060690611cb6565b610c1f848484846111d9565b50505050565b6060600d80546104e890611c16565b6060610c3f82610ca8565b6000610c5660408051602081019091526000815290565b90506000815111610c765760405180602001604052806000815250610ca1565b80610c808461120c565b604051602001610c91929190611fc4565b6040516020818303038152906040525b9392505050565b6000818152600260205260409020546001600160a01b0316610d075760405162461bcd60e51b8152602060048201526018602482015277115490cdcc8c4e881a5b9d985b1a59081d1bdad95b88125160421b6044820152606401610606565b50565b600081815260046020526040902080546001600160a01b0319166001600160a01b0384169081179091558190610d3f82610aed565b6001600160a01b03167f8c5be1e5ebec7d5bd14f71427d1e84f3dd0314c0f7b2291e5b200ac8c7c3b92560405160405180910390a45050565b6000828152600260205260409020546001600160a01b0316610df35760405162461bcd60e51b815260206004820152602e60248201527f45524337323155524953746f726167653a2055524920736574206f66206e6f6e60448201526d32bc34b9ba32b73a103a37b5b2b760911b6064820152608401610606565b600d6106a78282611f04565b600080610e0b83610aed565b9050806001600160a01b0316846001600160a01b03161480610e5257506001600160a01b0380821660009081526005602090815260408083209388168352929052205460ff165b80610e765750836001600160a01b0316610e6b8461056b565b6001600160a01b0316145b949350505050565b826001600160a01b0316610e9182610aed565b6001600160a01b031614610eb75760405162461bcd60e51b815260040161060690611ff3565b6001600160a01b038216610f195760405162461bcd60e51b8152602060048201526024808201527f4552433732313a207472616e7366657220746f20746865207a65726f206164646044820152637265737360e01b6064820152608401610606565b826001600160a01b0316610f2c82610aed565b6001600160a01b031614610f525760405162461bcd60e51b815260040161060690611ff3565b600081815260046020908152604080832080546001600160a01b03199081169091556001600160a01b0387811680865260038552838620805460001901905590871680865283862080546001019055868652600290945282852080549092168417909155905184937fddf252ad1be2c89b69c2b068fc378daa952ba7f163c4a11628f55a4df523b3ef91a4505050565b60006001600160a01b03871661100a5760405162461bcd60e51b815260040161060690611d03565b60076110168782611f04565b5060086110238682611f04565b50600980546001600160a01b0319166001600160a01b0386811691909117909155600c8054610100610100600160b01b031990911662010000938b1693909302929092179190911760ff191683151517905561108087600161129f565b600e805462ffffff19166201010117905561109c600184610d78565b5050600c54610100900460ff1695945050505050565b6002600654036111045760405162461bcd60e51b815260206004820152601f60248201527f5265656e7472616e637947756172643a207265656e7472616e742063616c6c006044820152606401610606565b6002600655565b816001600160a01b0316836001600160a01b03160361116c5760405162461bcd60e51b815260206004820152601960248201527f4552433732313a20617070726f766520746f2063616c6c6572000000000000006044820152606401610606565b6001600160a01b03838116600081815260056020908152604080832094871680845294825291829020805460ff191686151590811790915591519182527f17307eab39ab6107e8899845ad3d59bd9653f200f220920489ca2b5937696c31910160405180910390a3505050565b6111e4848484610e7e565b6111f0848484846112b9565b610c1f5760405162461bcd60e51b815260040161060690612038565b60606000611219836113ba565b600101905060008167ffffffffffffffff81111561123957611239611740565b6040519080825280601f01601f191660200182016040528015611263576020820181803683370190505b5090508181016020015b600019016f181899199a1a9b1b9c1cb0b131b232b360811b600a86061a8153600a850494508461126d57509392505050565b610ae9828260405180602001604052806000815250611492565b60006001600160a01b0384163b156113af57604051630a85bd0160e11b81526001600160a01b0385169063150b7a02906112fd90339089908890889060040161208a565b6020604051808303816000875af1925050508015611338575060408051601f3d908101601f19168201909252611335918101906120c7565b60015b611395573d808015611366576040519150601f19603f3d011682016040523d82523d6000602084013e61136b565b606091505b50805160000361138d5760405162461bcd60e51b815260040161060690612038565b805181602001fd5b6001600160e01b031916630a85bd0160e11b149050610e76565b506001949350505050565b60008072184f03e93ff9f4daa797ed6e38ed64bf6a1f0160401b83106113f95772184f03e93ff9f4daa797ed6e38ed64bf6a1f0160401b830492506040015b6d04ee2d6d415b85acef81000000008310611425576d04ee2d6d415b85acef8100000000830492506020015b662386f26fc10000831061144357662386f26fc10000830492506010015b6305f5e100831061145b576305f5e100830492506008015b612710831061146f57612710830492506004015b60648310611481576064830492506002015b600a83106104d35760010192915050565b61149c83836114c5565b6114a960008484846112b9565b6106a75760405162461bcd60e51b815260040161060690612038565b6001600160a01b03821661151b5760405162461bcd60e51b815260206004820181905260248201527f4552433732313a206d696e7420746f20746865207a65726f20616464726573736044820152606401610606565b6000818152600260205260409020546001600160a01b0316156115805760405162461bcd60e51b815260206004820152601c60248201527f4552433732313a20746f6b656e20616c7265616479206d696e746564000000006044820152606401610606565b6000818152600260205260409020546001600160a01b0316156115e55760405162461bcd60e51b815260206004820152601c60248201527f4552433732313a20746f6b656e20616c7265616479206d696e746564000000006044820152606401610606565b6001600160a01b038216600081815260036020908152604080832080546001019055848352600290915280822080546001600160a01b0319168417905551839291907fddf252ad1be2c89b69c2b068fc378daa952ba7f163c4a11628f55a4df523b3ef908290a45050565b6001600160e01b031981168114610d0757600080fd5b60006020828403121561167857600080fd5b8135610ca181611650565b60005b8381101561169e578181015183820152602001611686565b50506000910152565b600081518084526116bf816020860160208601611683565b601f01601f19169290920160200192915050565b602081526000610ca160208301846116a7565b6000602082840312156116f857600080fd5b5035919050565b6001600160a01b0381168114610d0757600080fd5b6000806040838503121561172757600080fd5b8235611732816116ff565b946020939093013593505050565b634e487b7160e01b600052604160045260246000fd5b600067ffffffffffffffff8084111561177157611771611740565b604051601f8501601f19908116603f0116810190828211818310171561179957611799611740565b816040528093508581528686860111156117b257600080fd5b858560208301376000602087830101525050509392505050565b600082601f8301126117dd57600080fd5b610ca183833560208501611756565b600080604083850312156117ff57600080fd5b82359150602083013567ffffffffffffffff81111561181d57600080fd5b611829858286016117cc565b9150509250929050565b60008060006060848603121561184857600080fd5b8335611853816116ff565b92506020840135611863816116ff565b929592945050506040919091013590565b60008083601f84011261188657600080fd5b50813567ffffffffffffffff81111561189e57600080fd5b6020830191508360208285010111156118b657600080fd5b9250929050565b803580151581146118cd57600080fd5b919050565b60008060008060008060008060c0898b0312156118ee57600080fd5b88356118f9816116ff565b9750602089013567ffffffffffffffff8082111561191657600080fd5b6119228c838d01611874565b909950975060408b013591508082111561193b57600080fd5b6119478c838d01611874565b909750955060608b0135915061195c826116ff565b90935060808a0135908082111561197257600080fd5b5061197f8b828c016117cc565b92505061198e60a08a016118bd565b90509295985092959890939650565b6020808252825182820181905260009190848201906040850190845b818110156119de5783516001600160a01b0316835292840192918401916001016119b9565b50909695505050505050565b60008083601f8401126119fc57600080fd5b50813567ffffffffffffffff811115611a1457600080fd5b6020830191508360208260051b85010111156118b657600080fd5b600080600080600080600060a0888a031215611a4a57600080fd5b873567ffffffffffffffff80821115611a6257600080fd5b611a6e8b838c016119ea565b909950975060208a0135915080821115611a8757600080fd5b611a938b838c016119ea565b909750955060408a0135945060608a0135915080821115611ab357600080fd5b50611ac08a828b016117cc565b9250506080880135905092959891949750929550565b600060208284031215611ae857600080fd5b813567ffffffffffffffff811115611aff57600080fd5b610e76848285016117cc565b600060208284031215611b1d57600080fd5b8135610ca1816116ff565b60008060408385031215611b3b57600080fd5b8235611b46816116ff565b9150611b54602084016118bd565b90509250929050565b60008060008060808587031215611b7357600080fd5b8435611b7e816116ff565b93506020850135611b8e816116ff565b925060408501359150606085013567ffffffffffffffff811115611bb157600080fd5b8501601f81018713611bc257600080fd5b611bd187823560208401611756565b91505092959194509250565b60008060408385031215611bf057600080fd5b8235611bfb816116ff565b91506020830135611c0b816116ff565b809150509250929050565b600181811c90821680611c2a57607f821691505b602082108103611c4a57634e487b7160e01b600052602260045260246000fd5b50919050565b6020808252601c908201527f45524337323154656d706c6174653a206e6f74204e46544f776e657200000000604082015260600190565b608081526000611c9a60808301876116a7565b6020830195909552506040810192909252606090910152919050565b6020808252602d908201527f4552433732313a2063616c6c6572206973206e6f7420746f6b656e206f776e6560408201526c1c881bdc88185c1c1c9bdd9959609a1b606082015260800190565b6020808252602e908201527f45524337323154656d706c6174653a3a20496e76616c6964206d696e7465722c60408201526d20207a65726f206164647265737360901b606082015260800190565b81835281816020850137506000828201602090810191909152601f909101601f19169091010190565b8183526000602080850194508260005b85811015611db8578135611d9d816116ff565b6001600160a01b031687529582019590820190600101611d8a565b509495945050505050565b60a08082528101879052600060c0600589901b830181019083018a835b8b811015611e545785840360bf190183528135368e9003601e19018112611e0657600080fd5b8d01602081810191359067ffffffffffffffff821115611e2557600080fd5b813603831315611e3457600080fd5b611e3f878385611d51565b96509485019493909301925050600101611de0565b5050508281036020840152611e6a81888a611d7a565b90508560408401528281036060840152611e8481866116a7565b91505082608083015298975050505050505050565b600060208284031215611eab57600080fd5b8151610ca1816116ff565b601f8211156106a757600081815260208120601f850160051c81016020861015611edd5750805b601f850160051c820191505b81811015611efc57828155600101611ee9565b505050505050565b815167ffffffffffffffff811115611f1e57611f1e611740565b611f3281611f2c8454611c16565b84611eb6565b602080601f831160018114611f675760008415611f4f5750858301515b600019600386901b1c1916600185901b178555611efc565b600085815260208120601f198616915b82811015611f9657888601518255948401946001909101908401611f77565b5085821015611fb45787850151600019600388901b60f8161c191681555b5050505050600190811b01905550565b60008351611fd6818460208801611683565b835190830190611fea818360208801611683565b01949350505050565b60208082526025908201527f4552433732313a207472616e736665722066726f6d20696e636f72726563742060408201526437bbb732b960d91b606082015260800190565b60208082526032908201527f4552433732313a207472616e7366657220746f206e6f6e20455243373231526560408201527131b2b4bb32b91034b6b83632b6b2b73a32b960711b606082015260800190565b6001600160a01b03858116825284166020820152604081018390526080606082018190526000906120bd908301846116a7565b9695505050505050565b6000602082840312156120d957600080fd5b8151610ca18161165056fea2646970667358221220b2f6706a1faa6734324483c6d8063eba8f2dfce99a1e4ba02659e1930483f0f764736f6c6343000813003360806040526009805460ff191690553480156200001b57600080fd5b50604051806040016040528060048152602001631d195cdd60e21b8152506040518060400160405280600a8152602001691d195cdd14de5b589bdb60b21b81525081600390816200006d91906200012f565b5060046200007c82826200012f565b5050600160055550620001fb565b634e487b7160e01b600052604160045260246000fd5b600181811c90821680620000b557607f821691505b602082108103620000d657634e487b7160e01b600052602260045260246000fd5b50919050565b601f8211156200012a57600081815260208120601f850160051c81016020861015620001055750805b601f850160051c820191505b81811015620001265782815560010162000111565b5050505b505050565b81516001600160401b038111156200014b576200014b6200008a565b62000163816200015c8454620000a0565b84620000dc565b602080601f8311600181146200019b5760008415620001825750858301515b600019600386901b1c1916600185901b17855562000126565b600085815260208120601f198616915b82811015620001cc57888601518255948401946001909101908401620001ab565b5085821015620001eb5787850151600019600388901b60f8161c191681555b5050505050600190811b01905550565b6115a1806200020b6000396000f3fe6080604052600436106101375760003560e01c806370a08231116100b0578063a035b1fe1161006c578063a035b1fe146103a2578063a457c2d7146103b7578063a9059cbb146103d7578063dd62ed3e146103f7578063e54a451714610417578063ec342ad01461044d57005b806370a08231146102b557806379cc6790146102eb5780637ecebe001461030b57806380b2efc7146103385780638d7f30441461036d57806395d89b411461038d57005b8063313ce567116100ff578063313ce5671461020c578063355274ea14610228578063392e53cd1461023d578063395093511461025557806340c10f191461027557806342966c681461029557005b80627ffb781461014057806306fdde031461017b578063095ea7b31461019d57806318160ddd146101cd57806323b872dd146101ec57005b3661013e57005b005b34801561014c57600080fd5b5060095461010090046001600160a01b03166040516001600160a01b0390911681526020015b60405180910390f35b34801561018757600080fd5b50610190610469565b6040516101729190610f7f565b3480156101a957600080fd5b506101bd6101b8366004610fe9565b6104fb565b6040519015158152602001610172565b3480156101d957600080fd5b506002545b604051908152602001610172565b3480156101f857600080fd5b506101bd610207366004611013565b610515565b34801561021857600080fd5b5060405160128152602001610172565b34801561023457600080fd5b506008546101de565b34801561024957600080fd5b5060095460ff166101bd565b34801561026157600080fd5b506101bd610270366004610fe9565b610539565b34801561028157600080fd5b5061013e610290366004610fe9565b61055b565b3480156102a157600080fd5b5061013e6102b036600461104f565b610636565b3480156102c157600080fd5b506101de6102d0366004611068565b6001600160a01b031660009081526020819052604090205490565b3480156102f757600080fd5b5061013e610306366004610fe9565b610643565b34801561031757600080fd5b506101de610326366004611068565b600d6020526000908152604090205481565b34801561034457600080fd5b5061013e610353366004611083565b6001600160a01b03166000908152600f6020526040902055565b34801561037957600080fd5b506101bd6103883660046110fb565b610658565b34801561039957600080fd5b50610190610723565b3480156103ae57600080fd5b50600c546101de565b3480156103c357600080fd5b506101bd6103d2366004610fe9565b610732565b3480156103e357600080fd5b506101bd6103f2366004610fe9565b6107ad565b34801561040357600080fd5b506101de6104123660046111e5565b6107bb565b34801561042357600080fd5b506101de610432366004611068565b6001600160a01b03166000908152600f602052604090205490565b34801561045957600080fd5b506101de670de0b6b3a764000081565b6060600680546104789061120f565b80601f01602080910402602001604051908101604052809291908181526020018280546104a49061120f565b80156104f15780601f106104c6576101008083540402835291602001916104f1565b820191906000526020600020905b8154815290600101906020018083116104d457829003601f168201915b5050505050905090565b6000336105098185856107e6565b60019150505b92915050565b60003361052385828561090b565b61052e858585610985565b506001949350505050565b60003361050981858561054c83836107bb565b6105569190611249565b6107e6565b336000908152600e602052604090205460ff1615156001146105c45760405162461bcd60e51b815260206004820152601960248201527f455243323054656d706c6174653a204e4f54204d494e5445520000000000000060448201526064015b60405180910390fd5b6008546105da826105d460025490565b90610b29565b11156106285760405162461bcd60e51b815260206004820152601f60248201527f44617461746f6b656e54656d706c6174653a206361702065786365656465640060448201526064016105bb565b6106328282610b3c565b5050565b6106403382610bfb565b50565b61064e82338361090b565b6106328282610bfb565b60095460009060ff16156106c85760405162461bcd60e51b815260206004820152603160248201527f455243323054656d706c6174653a20746f6b656e20696e7374616e636520616c6044820152701c9958591e481a5b9a5d1a585b1a5e9959607a1b60648201526084016105bb565b6107156106d58a8c6112b1565b8989808060200260200160405190810160405280939291908181526020018383602002808284376000920191909152508b92508a91508990508888610d2a565b9a9950505050505050505050565b6060600780546104789061120f565b6000338161074082866107bb565b9050838110156107a05760405162461bcd60e51b815260206004820152602560248201527f45524332303a2064656372656173656420616c6c6f77616e63652062656c6f77604482015264207a65726f60d81b60648201526084016105bb565b61052e82868684036107e6565b600033610509818585610985565b6001600160a01b03918216600090815260016020908152604080832093909416825291909152205490565b6001600160a01b0383166108485760405162461bcd60e51b8152602060048201526024808201527f45524332303a20617070726f76652066726f6d20746865207a65726f206164646044820152637265737360e01b60648201526084016105bb565b6001600160a01b0382166108a95760405162461bcd60e51b815260206004820152602260248201527f45524332303a20617070726f766520746f20746865207a65726f206164647265604482015261737360f01b60648201526084016105bb565b6001600160a01b0383811660008181526001602090815260408083209487168084529482529182902085905590518481527f8c5be1e5ebec7d5bd14f71427d1e84f3dd0314c0f7b2291e5b200ac8c7c3b92591015b60405180910390a3505050565b600061091784846107bb565b9050600019811461097f57818110156109725760405162461bcd60e51b815260206004820152601d60248201527f45524332303a20696e73756666696369656e7420616c6c6f77616e636500000060448201526064016105bb565b61097f84848484036107e6565b50505050565b6001600160a01b0383166109e95760405162461bcd60e51b815260206004820152602560248201527f45524332303a207472616e736665722066726f6d20746865207a65726f206164604482015264647265737360d81b60648201526084016105bb565b6001600160a01b038216610a4b5760405162461bcd60e51b815260206004820152602360248201527f45524332303a207472616e7366657220746f20746865207a65726f206164647260448201526265737360e81b60648201526084016105bb565b6001600160a01b03831660009081526020819052604090205481811015610ac35760405162461bcd60e51b815260206004820152602660248201527f45524332303a207472616e7366657220616d6f756e7420657863656564732062604482015265616c616e636560d01b60648201526084016105bb565b6001600160a01b03848116600081815260208181526040808320878703905593871680835291849020805487019055925185815290927fddf252ad1be2c89b69c2b068fc378daa952ba7f163c4a11628f55a4df523b3ef910160405180910390a361097f565b6000610b358284611249565b9392505050565b6001600160a01b038216610b925760405162461bcd60e51b815260206004820152601f60248201527f45524332303a206d696e7420746f20746865207a65726f20616464726573730060448201526064016105bb565b8060026000828254610ba49190611249565b90915550506001600160a01b038216600081815260208181526040808320805486019055518481527fddf252ad1be2c89b69c2b068fc378daa952ba7f163c4a11628f55a4df523b3ef910160405180910390a35050565b6001600160a01b038216610c5b5760405162461bcd60e51b815260206004820152602160248201527f45524332303a206275726e2066726f6d20746865207a65726f206164647265736044820152607360f81b60648201526084016105bb565b6001600160a01b03821660009081526020819052604090205481811015610ccf5760405162461bcd60e51b815260206004820152602260248201527f45524332303a206275726e20616d6f756e7420657863656564732062616c616e604482015261636560f01b60648201526084016105bb565b6001600160a01b0383166000818152602081815260408083208686039055600280548790039055518581529192917fddf252ad1be2c89b69c2b068fc378daa952ba7f163c4a11628f55a4df523b3ef91016108fe565b505050565b6000856001600160a01b038116610d985760405162461bcd60e51b815260206004820152602c60248201527f455243323054656d706c6174653a20496e76616c6964206d696e7465722c202060448201526b7a65726f206164647265737360a01b60648201526084016105bb565b60001960085588518990600090610db157610db1611386565b602002602001015160069081610dc791906113ea565b5088600181518110610ddb57610ddb611386565b602002602001015160079081610df191906113ea565b50600b610dff8587836114aa565b5060098054600c85905560016001600160a81b03199091166101006001600160a01b0385160260ff19161781179091558851600e906000908b908290610e4757610e47611386565b60200260200101516001600160a01b03166001600160a01b0316815260200190815260200160002060006101000a81548160ff02191690831515021790555060006001600160a01b031688600181518110610ea457610ea4611386565b60200260200101516001600160a01b031614610f6c57610efb88600181518110610ed057610ed0611386565b6020026020010151600a80546001600160a01b039092166001600160a01b0319909216919091179055565b87600181518110610f0e57610f0e611386565b60200260200101516001600160a01b0316336001600160a01b03167f4d7694d695c57cc54947177c8e8a0e61aae664e9223492a798c32fadfc6419cc4243604051610f63929190918252602082015260400190565b60405180910390a35b505060095460ff16979650505050505050565b600060208083528351808285015260005b81811015610fac57858101830151858201604001528201610f90565b506000604082860101526040601f19601f8301168501019250505092915050565b80356001600160a01b0381168114610fe457600080fd5b919050565b60008060408385031215610ffc57600080fd5b61100583610fcd565b946020939093013593505050565b60008060006060848603121561102857600080fd5b61103184610fcd565b925061103f60208501610fcd565b9150604084013590509250925092565b60006020828403121561106157600080fd5b5035919050565b60006020828403121561107a57600080fd5b610b3582610fcd565b6000806040838503121561109657600080fd5b823591506110a660208401610fcd565b90509250929050565b60008083601f8401126110c157600080fd5b50813567ffffffffffffffff8111156110d957600080fd5b6020830191508360208260051b85010111156110f457600080fd5b9250929050565b600080600080600080600080600060c08a8c03121561111957600080fd5b893567ffffffffffffffff8082111561113157600080fd5b61113d8d838e016110af565b909b50995060208c013591508082111561115657600080fd5b6111628d838e016110af565b909950975087915061117660408d01610fcd565b965060608c0135955060808c013591508082111561119357600080fd5b818c0191508c601f8301126111a757600080fd5b8135818111156111b657600080fd5b8d60208285010111156111c857600080fd5b9a9d999c50979a969995989497506020019560a001359392505050565b600080604083850312156111f857600080fd5b61120183610fcd565b91506110a660208401610fcd565b600181811c9082168061122357607f821691505b60208210810361124357634e487b7160e01b600052602260045260246000fd5b50919050565b8082018082111561050f57634e487b7160e01b600052601160045260246000fd5b634e487b7160e01b600052604160045260246000fd5b604051601f8201601f1916810167ffffffffffffffff811182821017156112a9576112a961126a565b604052919050565b600067ffffffffffffffff808411156112cc576112cc61126a565b8360051b60206112dd818301611280565b8681529185019181810190368411156112f557600080fd5b865b8481101561137a5780358681111561130f5760008081fd5b8801601f36818301126113225760008081fd5b8135888111156113345761133461126a565b611345818301601f19168801611280565b9150808252368782850101111561135c5760008081fd5b808784018884013760009082018701528452509183019183016112f7565b50979650505050505050565b634e487b7160e01b600052603260045260246000fd5b601f821115610d2557600081815260208120601f850160051c810160208610156113c35750805b601f850160051c820191505b818110156113e2578281556001016113cf565b505050505050565b815167ffffffffffffffff8111156114045761140461126a565b61141881611412845461120f565b8461139c565b602080601f83116001811461144d57600084156114355750858301515b600019600386901b1c1916600185901b1785556113e2565b600085815260208120601f198616915b8281101561147c5788860151825594840194600190910190840161145d565b508582101561149a5787850151600019600388901b60f8161c191681555b5050505050600190811b01905550565b67ffffffffffffffff8311156114c2576114c261126a565b6114d6836114d0835461120f565b8361139c565b6000601f84116001811461150a57600085156114f25750838201355b600019600387901b1c1916600186901b178355611564565b600083815260209020601f19861690835b8281101561153b578685013582556020948501946001909201910161151b565b50868210156115585760001960f88860031b161c19848701351681555b505060018560011b0183555b505050505056fea26469706673582212200b6c377adc9d9f0451e348d4de56537dddaa98495828a424d22e6148aaa2ca3c64736f6c63430008130033a2646970667358221220351eaccf0aa1e640d446152d3e0cb7f48e54125882bdcd0de44c4fad5eeebe5064736f6c63430008130033608060405234801561001057600080fd5b506040516113ae3803806113ae83398101604081905261002f91610054565b600080546001600160a01b0319166001600160a01b0392909216919091179055610084565b60006020828403121561006657600080fd5b81516001600160a01b038116811461007d57600080fd5b9392505050565b61131b806100936000396000f3fe608060405234801561001057600080fd5b50600436106100415760003560e01c80634a9c82ed146100465780637351ce971461005b578063e17370b81461008a575b600080fd5b610059610054366004610ef6565b61009d565b005b60005461006e906001600160a01b031681565b6040516001600160a01b03909116815260200160405180910390f35b610059610098366004610f41565b6107df565b60008390506000839050816001600160a01b03166392ff0d316040518163ffffffff1660e01b8152600401602060405180830381865afa1580156100e5573d6000803e3d6000fd5b505050506040513d601f19601f820116820180604052508101906101099190610f92565b15156001146101335760405162461bcd60e51b815260040161012a90610fbb565b60405180910390fd5b806001600160a01b031663a035b1fe6040518163ffffffff1660e01b8152600401602060405180830381865afa158015610171573d6000803e3d6000fd5b505050506040513d601f19601f82011682018060405250810190610195919061100e565b6000546040516370a0823160e01b81526001600160a01b038681166004830152909116906370a0823190602401602060405180830381865afa1580156101df573d6000803e3d6000fd5b505050506040513d601f19601f82011682018060405250810190610203919061100e565b10156102215760405162461bcd60e51b815260040161012a90611027565b6001816001600160a01b03166370a08231846001600160a01b0316638f84aa096040518163ffffffff1660e01b8152600401602060405180830381865afa158015610270573d6000803e3d6000fd5b505050506040513d601f19601f820116820180604052508101906102949190611084565b6040516001600160e01b031960e084901b1681526001600160a01b039091166004820152602401602060405180830381865afa1580156102d8573d6000803e3d6000fd5b505050506040513d601f19601f820116820180604052508101906102fc919061100e565b101561031a5760405162461bcd60e51b815260040161012a906110a1565b60008054906101000a90046001600160a01b03166001600160a01b03166323b872dd84846001600160a01b0316638f84aa096040518163ffffffff1660e01b8152600401602060405180830381865afa15801561037b573d6000803e3d6000fd5b505050506040513d601f19601f8201168201806040525081019061039f9190611084565b846001600160a01b031663a035b1fe6040518163ffffffff1660e01b8152600401602060405180830381865afa1580156103dd573d6000803e3d6000fd5b505050506040513d601f19601f82011682018060405250810190610401919061100e565b6040518463ffffffff1660e01b815260040161041f9392919061113e565b6020604051808303816000875af115801561043e573d6000803e3d6000fd5b505050506040513d601f19601f820116820180604052508101906104629190610f92565b50806001600160a01b03166323b872dd836001600160a01b0316638f84aa096040518163ffffffff1660e01b8152600401602060405180830381865afa1580156104b0573d6000803e3d6000fd5b505050506040513d601f19601f820116820180604052508101906104d49190611084565b8560016040518463ffffffff1660e01b81526004016104f59392919061113e565b6020604051808303816000875af1158015610514573d6000803e3d6000fd5b505050506040513d601f19601f820116820180604052508101906105389190610f92565b506040516380b2efc760e01b81524260048201526001600160a01b0384811660248301528216906380b2efc790604401600060405180830381600087803b15801561058257600080fd5b505af1158015610596573d6000803e3d6000fd5b50505050816001600160a01b0316638f84aa096040518163ffffffff1660e01b8152600401602060405180830381865afa1580156105d8573d6000803e3d6000fd5b505050506040513d601f19601f820116820180604052508101906105fc9190611084565b6001600160a01b03167f1eb112f936af9a35f306ec338ad7379fac6b8255903ccdccbac434f4d16664ee836001600160a01b03166306fdde036040518163ffffffff1660e01b8152600401600060405180830381865afa158015610664573d6000803e3d6000fd5b505050506040513d6000823e601f3d908101601f1916820160405261068c919081019061119c565b846001600160a01b03166395d89b416040518163ffffffff1660e01b8152600401600060405180830381865afa1580156106ca573d6000803e3d6000fd5b505050506040513d6000823e601f3d908101601f191682016040526106f2919081019061119c565b856001600160a01b031663c395c8af6040518163ffffffff1660e01b8152600401600060405180830381865afa158015610730573d6000803e3d6000fd5b505050506040513d6000823e601f3d908101601f19168201604052610758919081019061119c565b60405163e54a451760e01b81523360048201526001600160a01b0387169063e54a451790602401602060405180830381865afa15801561079c573d6000803e3d6000fd5b505050506040513d601f19601f820116820180604052508101906107c0919061100e565b6040516107d09493929190611275565b60405180910390a25050505050565b60008490506000849050816001600160a01b03166392ff0d316040518163ffffffff1660e01b8152600401602060405180830381865afa158015610827573d6000803e3d6000fd5b505050506040513d601f19601f8201168201806040525081019061084b9190610f92565b151560011461086c5760405162461bcd60e51b815260040161012a90610fbb565b6108d883826001600160a01b031663a035b1fe6040518163ffffffff1660e01b8152600401602060405180830381865afa1580156108ae573d6000803e3d6000fd5b505050506040513d601f19601f820116820180604052508101906108d2919061100e565b90610ec9565b6000546040516370a0823160e01b81526001600160a01b038781166004830152909116906370a0823190602401602060405180830381865afa158015610922573d6000803e3d6000fd5b505050506040513d601f19601f82011682018060405250810190610946919061100e565b10156109645760405162461bcd60e51b815260040161012a90611027565b60648311156109f45760405162461bcd60e51b815260206004820152605060248201527f466163746f72794552433732313a20546f6f206d616e7920757361676520726560448201527f717565737465642e204d6178696d756d206e756d62657220697320657175616c60648201526f20746f20313030207065722074696d6560801b608482015260a40161012a565b82816001600160a01b03166370a08231846001600160a01b0316638f84aa096040518163ffffffff1660e01b8152600401602060405180830381865afa158015610a42573d6000803e3d6000fd5b505050506040513d601f19601f82011682018060405250810190610a669190611084565b6040516001600160e01b031960e084901b1681526001600160a01b039091166004820152602401602060405180830381865afa158015610aaa573d6000803e3d6000fd5b505050506040513d601f19601f82011682018060405250810190610ace919061100e565b1015610aec5760405162461bcd60e51b815260040161012a906110a1565b60008054906101000a90046001600160a01b03166001600160a01b03166323b872dd85846001600160a01b0316638f84aa096040518163ffffffff1660e01b8152600401602060405180830381865afa158015610b4d573d6000803e3d6000fd5b505050506040513d601f19601f82011682018060405250810190610b719190611084565b610bb387866001600160a01b031663a035b1fe6040518163ffffffff1660e01b8152600401602060405180830381865afa1580156108ae573d6000803e3d6000fd5b6040518463ffffffff1660e01b8152600401610bd19392919061113e565b6020604051808303816000875af1158015610bf0573d6000803e3d6000fd5b505050506040513d601f19601f82011682018060405250810190610c149190610f92565b50806001600160a01b03166323b872dd836001600160a01b0316638f84aa096040518163ffffffff1660e01b8152600401602060405180830381865afa158015610c62573d6000803e3d6000fd5b505050506040513d601f19601f82011682018060405250810190610c869190611084565b86866040518463ffffffff1660e01b8152600401610ca69392919061113e565b6020604051808303816000875af1158015610cc5573d6000803e3d6000fd5b505050506040513d601f19601f82011682018060405250810190610ce99190610f92565b50816001600160a01b0316638f84aa096040518163ffffffff1660e01b8152600401602060405180830381865afa158015610d28573d6000803e3d6000fd5b505050506040513d601f19601f82011682018060405250810190610d4c9190611084565b6001600160a01b03167ff8007679f3c316146a7c8234e63c18b51370865eb0d9d3cc474e97ca85d5746c836001600160a01b03166306fdde036040518163ffffffff1660e01b8152600401600060405180830381865afa158015610db4573d6000803e3d6000fd5b505050506040513d6000823e601f3d908101601f19168201604052610ddc919081019061119c565b846001600160a01b03166395d89b416040518163ffffffff1660e01b8152600401600060405180830381865afa158015610e1a573d6000803e3d6000fd5b505050506040513d6000823e601f3d908101601f19168201604052610e42919081019061119c565b856001600160a01b031663c395c8af6040518163ffffffff1660e01b8152600401600060405180830381865afa158015610e80573d6000803e3d6000fd5b505050506040513d6000823e601f3d908101601f19168201604052610ea8919081019061119c565b87604051610eb99493929190611275565b60405180910390a2505050505050565b6000610ed582846112c0565b90505b92915050565b6001600160a01b0381168114610ef357600080fd5b50565b600080600060608486031215610f0b57600080fd5b8335610f1681610ede565b92506020840135610f2681610ede565b91506040840135610f3681610ede565b809150509250925092565b60008060008060808587031215610f5757600080fd5b8435610f6281610ede565b93506020850135610f7281610ede565b92506040850135610f8281610ede565b9396929550929360600135925050565b600060208284031215610fa457600080fd5b81518015158114610fb457600080fd5b9392505050565b60208082526033908201527f466163746f72794552433732313a2045524337323174656d706c6174653a206e6040820152721bdd081d1c985b9cd9995c98589b19481b999d606a1b606082015260800190565b60006020828403121561102057600080fd5b5051919050565b6020808252603d908201527f466163746f72794552433732313a20455243323074656d706c6174653a206e6f60408201527f7420656e6f75676820746f6b656e20746f20627579206c6963656e7365000000606082015260800190565b60006020828403121561109657600080fd5b8151610fb481610ede565b60208082526071908201527f455243323054656d706c6174653a206f776e657220686173206e6f7420656e6f60408201527f75676820746f6b656e20746f2072656c65617365206c6963656e73652e20417360608201527f206f776e6572206f6620746865206e667420796f752063616e206d696e742061608082015270371030b6b7bab73a1037b3103a37b5b2b760791b60a082015260c00190565b6001600160a01b039384168152919092166020820152604081019190915260600190565b634e487b7160e01b600052604160045260246000fd5b60005b8381101561119357818101518382015260200161117b565b50506000910152565b6000602082840312156111ae57600080fd5b815167ffffffffffffffff808211156111c657600080fd5b818401915084601f8301126111da57600080fd5b8151818111156111ec576111ec611162565b604051601f8201601f19908116603f0116810190838211818310171561121457611214611162565b8160405282815287602084870101111561122d57600080fd5b61123e836020830160208801611178565b979650505050505050565b60008151808452611261816020860160208601611178565b601f01601f19169290920160200192915050565b6080815260006112886080830187611249565b828103602084015261129a8187611249565b905082810360408401526112ae8186611249565b91505082606083015295945050505050565b8082028115828204841417610ed857634e487b7160e01b600052601160045260246000fdfea2646970667358221220fb0c4a0a96e9c8aa17a2257a0d015c40ac9e22b801dcdbaad919780ee43f291064736f6c63430008130033",
    "sourcePath": "/home/alessandro/Scrivania/BlockChain/DataCellar/contracts/FactoryERC721.sol",
    "compiler": {
        "name": "solc",
        "version": "0.8.19+commit.7dd6d404"
    },
    "functionHashes": {
        "ERC721deploy(string,string,string,bool)": "5ea84c40",
        "buyNFTlicensePeriod(address,address)": "7c4aa084",
        "buyNFTlicenseUsage(address,address,uint256)": "21a84c51",
        "createToken(string[],address[],uint256,string,uint256)": "43b2a332",
        "datacellarToken()": "7351ce97",
        "erc20List(address)": "226e7615",
        "erc20listToerc721(address)": "10d8f02b",
        "erc721List(address)": "72f670f0",
        "erc721array(uint256)": "6c72b9ce",
        "erc721licenses(address,uint256)": "1415ac6c",
        "getCurrentNFTCount()": "5c705982",
        "paymentManager()": "aee1fe49"
    },
    "gasEstimates": {
        "creation": {
            "codeDepositCost": "4109000",
            "executionCost": "infinite",
            "totalCost": "infinite"
        },
        "external": {
            "ERC721deploy(string,string,string,bool)": "infinite",
            "buyNFTlicensePeriod(address,address)": "infinite",
            "buyNFTlicenseUsage(address,address,uint256)": "infinite",
            "createToken(string[],address[],uint256,string,uint256)": "infinite",
            "datacellarToken()": "2392",
            "erc20List(address)": "2598",
            "erc20listToerc721(address)": "2548",
            "erc721List(address)": "2591",
            "erc721array(uint256)": "4625",
            "erc721licenses(address,uint256)": "4796",
            "getCurrentNFTCount()": "2391",
            "paymentManager()": "2436"
        },
        "internal": {
            "_createToken(string memory[] memory,address[] memory,uint256,string memory,uint256,address)": "infinite",
            "_createTokenStep2(contract ERC20template,struct FactoryERC721.tokenStruct memory)": "infinite",
            "_isContract(address)": "infinite"
        }
    }
}